:04000000DBA5B9AF14
:04000100DBA0A516C5
:04000200DB9BBD2D9A
:04000300DB97001D6A
:04000400DB926CC15E
:04000500DB8E00C3CB
:04000600DB89BB4493
:04000700DB859A7C7F
:04000800DB819D8576
:04000900DB7B84A871
:04000A00DB7410F2A1
:04000B00DB6CDC3C92
:04000C00DB65E46666
:04000D00DB5F274846
:04000E00DB58A2DE3B
:04000F00DB5255C5A6
:04001000DB4C3CB7D2
:04001100DB4655F87D
:04001200DB40A156D8
:04001300DB3B1A9227
:04001400DB35C1F027
:04001500DB309557F0
:04001600DB2B9289C5
:04001700DB26B881AB
:04001800DB220623BE
:04001900DB1D79B4BE
:04001A00DB191228B4
:04001B00DB14CD72B3
:04001C00DB10AB4802
:04001D00DB0CA9C18E
:04001E00DB08C82A09
:04001F00DB05058672
:04002000DB01605C44
:04002100DAFBAF79DE
:04002200DAF4D680B6
:04002300DAEE320FD0
:04002400DAE7C1A6B0
:04002500DAE1838019
:04002600DADB75B0FC
:04002700DAD595D6BB
:04002800DACFE42720
:04002900DACA5D27AB
:04002A00DAC500959E
:04002B00DABFCCF07C
:04002C00DABAC0B9C3
:04002D00DAB5D9CC9B
:04002E00DAB118F635
:04002F00DAAC7B24A8
:04003000DAA8005AF0
:04003100DAA3A67137
:04003200DA9F6D42A2
:04003300DA9B53669B
:04003400DA97579E62
:04003500DA9379726F
:04003600DA8FB7772F
:04003700DA8C10E16E
:04003800DA8884D00E
:04003900DA851288CA
:04003A00DA81B97737
:04003B00DA7CF1205A
:04003C00DA769DDCF7
:04003D00DA707845B8
:04003E00DA6A7E39C3
:04003F00DA64AF2AA6
:04004000DA5F0A3148
:04004100DA598D03F8
:04004200DA543558FF
:04004300DA4F03D1BC
:04004400DA49F70C92
:04004500DA450DF497
:04004600DA40468ACC
:04004700DA3BA0CC34
:04004800DA371B5335
:04004900DA32B52EC4
:04004A00DA2E6D1C21
:04004B00DA2A42A0CB
:04004C00DA26347606
:04004D00DA2242472A
:04004E00DA1E6B1D2E
:04004F00DA1AAE4FBC
:04005000DA170A456C
:04005100DA137F1E21
:04005200DA100B8C29
:04005300DA0CAF36DE
:04005400DA0969A8B4
:04005500DA063A2469
:04005600DA031F0AA0
:04005700DA0019248E
:04005800D9FA4E7112
:04005900D9F49155F0
:04005A00D9EEFA2FB2
:04005B00D9E987C494
:04005C00D9E438AFFC
:04005D00D9DF0C7467
:04005E00D9DA01FDED
:04005F00D9D5179246
:04006000D9D04DA600
:04006100D9CBA27ED7
:04006200D9C7157372
:04006300D9C2A591C8
:04006400D9BE522E81
:04006500D9BA1AA347
:04006600D9B5FD30DB
:04006700D9B1FA1CF5
:04006800D9AE1155A7
:04006900D9AA405779
:04006A00D9A6875F2D
:04006B00D9A2E578B9
:04006C00D99F5B2796
:04006D00D99BE688AD
:04006E00D99887FA9C
:04006F00D9953D944E
:04007000D99207E238
:04007100D98EE5B887
:04007200D98BD77ED1
:04007300D988DB90BD
:04007400D985F1B287
:04007500D9831A6CA5
:04007600D98053F8E2
:04007700D97B3D13E1
:04007800D975F291B3
:04007900D970C8353D
:04007A00D96BBD82FF
:04007B00D966D10869
:04007C00D962015CE8
:04007D00D95D4F35C5
:04007E00D958B79BFB
:04007F00D9543DBF54
:04008000D94FDD3E39
:04008100D94B96D2EF
:04008200D94769A34E
:04008300D9435469A0
:04008400D93F5824E4
:04008500D93B72EC05
:04008600D937A3C102
:04008700D933EC6A13
:04008800D93049C062
:04008900D92CBBFDB6
:04008A00D929435BD2
:04008B00D925DE1580
:04008C00D9228CB039
:04008D00D91F4E30F9
:04008E00D91C231541
:04008F00D91909254D
:04009000D916015D1F
:04009100D9130A8EE7
:04009200D910251943
:04009300D90D4F57DD
:04009400D90A8A22D9
:04009500D907D3AA0A
:04009600D9052D8AD1
:04009700D90295F302
:04009800D9000CA7D8
:04009900D8FB22BEB0
:04009A00D8F6485BF1
:04009B00D8F18946C9
:04009C00D8ECE3C1F8
:04009D00D8E8583017
:04009E00D8E3E5229C
:04009F00D8DF8C0E0C
:0400A000D8DB49CC94
:0400A100D8D71E99F5
:0400A200D8D30AAEF7
:0400A300D8CF0D366F
:0400A400D8CB24B5DC
:0400A500D8C75168FF
:0400A600D8C39387A1
:0400A700D8BFE8FED8
:0400A800D8BC522846
:0400A900D8B8CF43B1
:0400AA00D8B55F6CFA
:0400AB00D8B2012D99
:0400AC00D8AEB4E333
:0400AD00D8AB7A9DB5
:0400AE00D8A851A3DA
:0400AF00D8A5394057
:0400B000D8A2310C95
:0400B100D89F393A61
:0400B200D89C4FD8AF
:0400B300D89976C999
:0400B400D896AC9599
:0400B500D893F0A547
:0400B600D891430793
:0400B700D88EA32913
:0400B800D88C11B51A
:0400B900D8898D282D
:0400BA00D88714F4DB
:0400BB00D884A9E656
:0400BC00D8824B910A
:0400BD00D87FF1DA1D
:0400BE00D87B654244
:0400BF00D876EEA65B
:0400C000D872904121
:0400C100D86E47FFAF
:0400C200D86A154E95
:0400C300D865F70CF9
:0400C400D861ED937F
:0400C500D85DF9E128
:0400C600D85A18A24A
:0400C700D8564BC3F9
:0400C800D8529086F4
:0400C900D84EE9CA5A
:0400CA00D84B542E8D
:0400CB00D847D0E062
:0400CC00D8445EA80E
:0400CD00D840FE1207
:0400CE00D83DAD9BD1
:0400CF00D83A6DCAE4
:0400D000D8373E33AC
:0400D100D8341E20E1
:0400D200D8310CFC19
:0400D300D82E0AD346
:0400D400D82B173DD1
:0400D500D828329263
:0400D600D8255BA22C
:0400D700D822924E4B
:0400D800D81FD74313
:0400D900D81D28D531
:0400DA00D81A873772
:0400DB00D817F2C27E
:0400DC00D81569A624
:0400DD00D812EDC682
:0400DE00D8107D7940
:0400DF00D80E18ED32
:0400E000D80BBFE199
:0400E100D80970F4D6
:0400E200D8072DE727
:0400E300D804F55AEE
:0400E400D802C75621
:0400E500D800A3E4B8
:0400E600D7FD143AF4
:0400E700D7F8F3C98A
:0400E800D7F4E8560B
:0400E900D7F0EE3E20
:0400EA00D7ED06CC7C
:0400EB00D7E9325DC2
:0400EC00D7E56F6F76
:0400ED00D7E1BEB3E6
:0400EE00D7DE1DB983
:0400EF00D7DA8DCF00
:0400F000D7D70DC091
:0400F100D7D39F744E
:0400F200D7D040CE55
:0400F300D7CCEF6116
:0400F400D7C9AF8C2D
:0400F500D7C67D04E9
:0400F600D7C35A4EC4
:0400F700D7C044FE2C
:0400F800D7BD3E0929
:0400F900D7BA439F90
:0400FA00D7B75757C6
:0400FB00D7B4789B63
:0400FC00D7B1A6D6FC
:0400FD00D7AEE21385
:0400FE00D7AC28CD86
:0400FF00D7A97C25DC
:04010000D7A5B9AF17
:04010100D7A0A516C8
:04010200D79BBD2D9D
:04010300D797001D6D
:04010400D7926CC161
:04010500D78E00C3CE
:04010600D789BB4496
:04010700D7859A7C82
:04010800D7819D8579
:04010900D77B84A874
:04010A00D77410F2A4
:04010B00D76CDC3C95
:04010C00D765E46669
:04010D00D75F274849
:04010E00D758A2DE3E
:04010F00D75255C5A9
:04011000D74C3CB7D5
:04011100D74655F880
:04011200D740A156DB
:04011300D73B1A922A
:04011400D735C1F02A
:04011500D7309557F3
:04011600D72B9289C8
:04011700D726B881AE
:04011800D7220623C1
:04011900D71D79B4C1
:04011A00D7191228B7
:04011B00D714CD72B6
:04011C00D710AB4805
:04011D00D70CA9C191
:04011E00D708C82A0C
:04011F00D705058675
:04012000D701605C47
:04012100D6FBAF79E1
:04012200D6F4D680B9
:04012300D6EE320FD3
:04012400D6E7C1A6B3
:04012500D6E183801C
:04012600D6DB75B0FF
:04012700D6D595D6BE
:04012800D6CFE42723
:04012900D6CA5D27AE
:04012A00D6C50095A1
:04012B00D6BFCCF07F
:04012C00D6BAC0B9C6
:04012D00D6B5D9CC9E
:04012E00D6B118F638
:04012F00D6AC7B24AB
:04013000D6A8005AF3
:04013100D6A3A6713A
:04013200D69F6D42A5
:04013300D69B53669E
:04013400D697579E65
:04013500D693797272
:04013600D68FB77732
:04013700D68C10E171
:04013800D68884D011
:04013900D6851288CD
:04013A00D681B9773A
:04013B00D67CF1205D
:04013C00D6769DDCFA
:04013D00D6707845BB
:04013E00D66A7E39C6
:04013F00D664AF2AA9
:04014000D65F0A314B
:04014100D6598D03FB
:04014200D654355802
:04014300D64F03D1BF
:04014400D649F70C95
:04014500D6450DF49A
:04014600D640468ACF
:04014700D63BA0CC37
:04014800D6371B5338
:04014900D632B52EC7
:04014A00D62E6D1C24
:04014B00D62A42A0CE
:04014C00D626347609
:04014D00D62242472D
:04014E00D61E6B1D31
:04014F00D61AAE4FBF
:04015000D6170A456F
:04015100D6137F1E24
:04015200D6100B8C2C
:04015300D60CAF36E1
:04015400D60969A8B7
:04015500D6063A246C
:04015600D6031F0AA3
:04015700D600192491
:04015800D5FA4E7115
:04015900D5F49155F3
:04015A00D5EEFA2FB5
:04015B00D5E987C497
:04015C00D5E438AFFF
:04015D00D5DF0C746A
:04015E00D5DA01FDF0
:04015F00D5D5179249
:04016000D5D04DA603
:04016100D5CBA27EDA
:04016200D5C7157375
:04016300D5C2A591CB
:04016400D5BE522E84
:04016500D5BA1AA34A
:04016600D5B5FD30DE
:04016700D5B1FA1CF8
:04016800D5AE1155AA
:04016900D5AA40577C
:04016A00D5A6875F30
:04016B00D5A2E578BC
:04016C00D59F5B2799
:04016D00D59BE688B0
:04016E00D59887FA9F
:04016F00D5953D9451
:04017000D59207E23B
:04017100D58EE5B88A
:04017200D58BD77ED4
:04017300D588DB90C0
:04017400D585F1B28A
:04017500D5831A6CA8
:04017600D58053F8E5
:04017700D57B3D13E4
:04017800D575F291B6
:04017900D570C83540
:04017A00D56BBD8202
:04017B00D566D1086C
:04017C00D562015CEB
:04017D00D55D4F35C8
:04017E00D558B79BFE
:04017F00D5543DBF57
:04018000D54FDD3E3C
:04018100D54B96D2F2
:04018200D54769A351
:04018300D5435469A3
:04018400D53F5824E7
:04018500D53B72EC08
:04018600D537A3C105
:04018700D533EC6A16
:04018800D53049C065
:04018900D52CBBFDB9
:04018A00D529435BD5
:04018B00D525DE1583
:04018C00D5228CB03C
:04018D00D51F4E30FC
:04018E00D51C231544
:04018F00D519092550
:04019000D516015D22
:04019100D5130A8EEA
:04019200D510251946
:04019300D50D4F57E0
:04019400D50A8A22DC
:04019500D507D3AA0D
:04019600D5052D8AD4
:04019700D50295F305
:04019800D5000CA7DB
:04019900D4FB22BEB3
:04019A00D4F6485BF4
:04019B00D4F18946CC
:04019C00D4ECE3C1FB
:04019D00D4E858301A
:04019E00D4E3E5229F
:04019F00D4DF8C0E0F
:0401A000D4DB49CC97
:0401A100D4D71E99F8
:0401A200D4D30AAEFA
:0401A300D4CF0D3672
:0401A400D4CB24B5DF
:0401A500D4C7516802
:0401A600D4C39387A4
:0401A700D4BFE8FEDB
:0401A800D4BC522849
:0401A900D4B8CF43B4
:0401AA00D4B55F6CFD
:0401AB00D4B2012D9C
:0401AC00D4AEB4E336
:0401AD00D4AB7A9DB8
:0401AE00D4A851A3DD
:0401AF00D4A539405A
:0401B000D4A2310C98
:0401B100D49F393A64
:0401B200D49C4FD8B2
:0401B300D49976C99C
:0401B400D496AC959C
:0401B500D493F0A54A
:0401B600D491430796
:0401B700D48EA32916
:0401B800D48C11B51D
:0401B900D4898D2830
:0401BA00D48714F4DE
:0401BB00D484A9E659
:0401BC00D4824B910D
:0401BD00D47FF1DA20
:0401BE00D47B654247
:0401BF00D476EEA65E
:0401C000D472904124
:0401C100D46E47FFB2
:0401C200D46A154E98
:0401C300D465F70CFC
:0401C400D461ED9382
:0401C500D45DF9E12B
:0401C600D45A18A24D
:0401C700D4564BC3FC
:0401C800D4529086F7
:0401C900D44EE9CA5D
:0401CA00D44B542E90
:0401CB00D447D0E065
:0401CC00D4445EA811
:0401CD00D440FE120A
:0401CE00D43DAD9BD4
:0401CF00D43A6DCAE7
:0401D000D4373E33AF
:0401D100D4341E20E4
:0401D200D4310CFC1C
:0401D300D42E0AD349
:0401D400D42B173DD4
:0401D500D428329266
:0401D600D4255BA22F
:0401D700D422924E4E
:0401D800D41FD74316
:0401D900D41D28D534
:0401DA00D41A873775
:0401DB00D417F2C281
:0401DC00D41569A627
:0401DD00D412EDC685
:0401DE00D4107D7943
:0401DF00D40E18ED35
:0401E000D40BBFE19C
:0401E100D40970F4D9
:0401E200D4072DE72A
:0401E300D404F55AF1
:0401E400D402C75624
:0401E500D400A3E4BB
:0401E600D3FD143AF7
:0401E700D3F8F3C98D
:0401E800D3F4E8560E
:0401E900D3F0EE3E23
:0401EA00D3ED06CC7F
:0401EB00D3E9325DC5
:0401EC00D3E56F6F79
:0401ED00D3E1BEB3E9
:0401EE00D3DE1DB986
:0401EF00D3DA8DCF03
:0401F000D3D70DC094
:0401F100D3D39F7451
:0401F200D3D040CE58
:0401F300D3CCEF6119
:0401F400D3C9AF8C30
:0401F500D3C67D04EC
:0401F600D3C35A4EC7
:0401F700D3C044FE2F
:0401F800D3BD3E092C
:0401F900D3BA439F93
:0401FA00D3B75757C9
:0401FB00D3B4789B66
:0401FC00D3B1A6D6FF
:0401FD00D3AEE21388
:0401FE00D3AC28CD89
:0401FF00D3A97C25DF
:04020000D3A5B9AF1A
:04020100D3A0A516CB
:04020200D39BBD2DA0
:04020300D397001D70
:04020400D3926CC164
:04020500D38E00C3D1
:04020600D389BB4499
:04020700D3859A7C85
:04020800D3819D857C
:04020900D37B84A877
:04020A00D37410F2A7
:04020B00D36CDC3C98
:04020C00D365E4666C
:04020D00D35F27484C
:04020E00D358A2DE41
:04020F00D35255C5AC
:04021000D34C3CB7D8
:04021100D34655F883
:04021200D340A156DE
:04021300D33B1A922D
:04021400D335C1F02D
:04021500D3309557F6
:04021600D32B9289CB
:04021700D326B881B1
:04021800D3220623C4
:04021900D31D79B4C4
:04021A00D3191228BA
:04021B00D314CD72B9
:04021C00D310AB4808
:04021D00D30CA9C194
:04021E00D308C82A0F
:04021F00D305058678
:04022000D301605C4A
:04022100D2FBAF79E4
:04022200D2F4D680BC
:04022300D2EE320FD6
:04022400D2E7C1A6B6
:04022500D2E183801F
:04022600D2DB75B002
:04022700D2D595D6C1
:04022800D2CFE42726
:04022900D2CA5D27B1
:04022A00D2C50095A4
:04022B00D2BFCCF082
:04022C00D2BAC0B9C9
:04022D00D2B5D9CCA1
:04022E00D2B118F63B
:04022F00D2AC7B24AE
:04023000D2A8005AF6
:04023100D2A3A6713D
:04023200D29F6D42A8
:04023300D29B5366A1
:04023400D297579E68
:04023500D293797275
:04023600D28FB77735
:04023700D28C10E174
:04023800D28884D014
:04023900D2851288D0
:04023A00D281B9773D
:04023B00D27CF12060
:04023C00D2769DDCFD
:04023D00D2707845BE
:04023E00D26A7E39C9
:04023F00D264AF2AAC
:04024000D25F0A314E
:04024100D2598D03FE
:04024200D254355805
:04024300D24F03D1C2
:04024400D249F70C98
:04024500D2450DF49D
:04024600D240468AD2
:04024700D23BA0CC3A
:04024800D2371B533B
:04024900D232B52ECA
:04024A00D22E6D1C27
:04024B00D22A42A0D1
:04024C00D22634760C
:04024D00D222424730
:04024E00D21E6B1D34
:04024F00D21AAE4FC2
:04025000D2170A4572
:04025100D2137F1E27
:04025200D2100B8C2F
:04025300D20CAF36E4
:04025400D20969A8BA
:04025500D2063A246F
:04025600D2031F0AA6
:04025700D200192494
:04025800D1FA4E7118
:04025900D1F49155F6
:04025A00D1EEFA2FB8
:04025B00D1E987C49A
:04025C00D1E438AF02
:04025D00D1DF0C746D
:04025E00D1DA01FDF3
:04025F00D1D517924C
:04026000D1D04DA606
:04026100D1CBA27EDD
:04026200D1C7157378
:04026300D1C2A591CE
:04026400D1BE522E87
:04026500D1BA1AA34D
:04026600D1B5FD30E1
:04026700D1B1FA1CFB
:04026800D1AE1155AD
:04026900D1AA40577F
:04026A00D1A6875F33
:04026B00D1A2E578BF
:04026C00D19F5B279C
:04026D00D19BE688B3
:04026E00D19887FAA2
:04026F00D1953D9454
:04027000D19207E23E
:04027100D18EE5B88D
:04027200D18BD77ED7
:04027300D188DB90C3
:04027400D185F1B28D
:04027500D1831A6CAB
:04027600D18053F8E8
:04027700D17B3D13E7
:04027800D175F291B9
:04027900D170C83543
:04027A00D16BBD8205
:04027B00D166D1086F
:04027C00D162015CEE
:04027D00D15D4F35CB
:04027E00D158B79B01
:04027F00D1543DBF5A
:04028000D14FDD3E3F
:04028100D14B96D2F5
:04028200D14769A354
:04028300D1435469A6
:04028400D13F5824EA
:04028500D13B72EC0B
:04028600D137A3C108
:04028700D133EC6A19
:04028800D13049C068
:04028900D12CBBFDBC
:04028A00D129435BD8
:04028B00D125DE1586
:04028C00D1228CB03F
:04028D00D11F4E30FF
:04028E00D11C231547
:04028F00D119092553
:04029000D116015D25
:04029100D1130A8EED
:04029200D110251949
:04029300D10D4F57E3
:04029400D10A8A22DF
:04029500D107D3AA10
:04029600D1052D8AD7
:04029700D10295F308
:04029800D1000CA7DE
:04029900D0FB22BEB6
:04029A00D0F6485BF7
:04029B00D0F18946CF
:04029C00D0ECE3C1FE
:04029D00D0E858301D
:04029E00D0E3E522A2
:04029F00D0DF8C0E12
:0402A000D0DB49CC9A
:0402A100D0D71E99FB
:0402A200D0D30AAEFD
:0402A300D0CF0D3675
:0402A400D0CB24B5E2
:0402A500D0C7516805
:0402A600D0C39387A7
:0402A700D0BFE8FEDE
:0402A800D0BC52284C
:0402A900D0B8CF43B7
:0402AA00D0B55F6C00
:0402AB00D0B2012D9F
:0402AC00D0AEB4E339
:0402AD00D0AB7A9DBB
:0402AE00D0A851A3E0
:0402AF00D0A539405D
:0402B000D0A2310C9B
:0402B100D09F393A67
:0402B200D09C4FD8B5
:0402B300D09976C99F
:0402B400D096AC959F
:0402B500D093F0A54D
:0402B600D091430799
:0402B700D08EA32919
:0402B800D08C11B520
:0402B900D0898D2833
:0402BA00D08714F4E1
:0402BB00D084A9E65C
:0402BC00D0824B9110
:0402BD00D07FF1DA23
:0402BE00D07B65424A
:0402BF00D076EEA661
:0402C000D072904127
:0402C100D06E47FFB5
:0402C200D06A154E9B
:0402C300D065F70CFF
:0402C400D061ED9385
:0402C500D05DF9E12E
:0402C600D05A18A250
:0402C700D0564BC3FF
:0402C800D0529086FA
:0402C900D04EE9CA60
:0402CA00D04B542E93
:0402CB00D047D0E068
:0402CC00D0445EA814
:0402CD00D040FE120D
:0402CE00D03DAD9BD7
:0402CF00D03A6DCAEA
:0402D000D0373E33B2
:0402D100D0341E20E7
:0402D200D0310CFC1F
:0402D300D02E0AD34C
:0402D400D02B173DD7
:0402D500D028329269
:0402D600D0255BA232
:0402D700D022924E51
:0402D800D01FD74319
:0402D900D01D28D537
:0402DA00D01A873778
:0402DB00D017F2C284
:0402DC00D01569A62A
:0402DD00D012EDC688
:0402DE00D0107D7946
:0402DF00D00E18ED38
:0402E000D00BBFE19F
:0402E100D00970F4DC
:0402E200D0072DE72D
:0402E300D004F55AF4
:0402E400D002C75627
:0402E500D000A3E4BE
:0402E600CFFD143AFA
:0402E700CFF8F3C990
:0402E800CFF4E85611
:0402E900CFF0EE3E26
:0402EA00CFED06CC82
:0402EB00CFE9325DC8
:0402EC00CFE56F6F7C
:0402ED00CFE1BEB3EC
:0402EE00CFDE1DB989
:0402EF00CFDA8DCF06
:0402F000CFD70DC097
:0402F100CFD39F7454
:0402F200CFD040CE5B
:0402F300CFCCEF611C
:0402F400CFC9AF8C33
:0402F500CFC67D04EF
:0402F600CFC35A4ECA
:0402F700CFC044FE32
:0402F800CFBD3E092F
:0402F900CFBA439F96
:0402FA00CFB75757CC
:0402FB00CFB4789B69
:0402FC00CFB1A6D602
:0402FD00CFAEE2138B
:0402FE00CFAC28CD8C
:0402FF00CFA97C25E2
:04030000CFA5B9AF1D
:04030100CFA0A516CE
:04030200CF9BBD2DA3
:04030300CF97001D73
:04030400CF926CC167
:04030500CF8E00C3D4
:04030600CF89BB449C
:04030700CF859A7C88
:04030800CF819D857F
:04030900CF7B84A87A
:04030A00CF7410F2AA
:04030B00CF6CDC3C9B
:04030C00CF65E4666F
:04030D00CF5F27484F
:04030E00CF58A2DE44
:04030F00CF5255C5AF
:04031000CF4C3CB7DB
:04031100CF4655F886
:04031200CF40A156E1
:04031300CF3B1A9230
:04031400CF35C1F030
:04031500CF309557F9
:04031600CF2B9289CE
:04031700CF26B881B4
:04031800CF220623C7
:04031900CF1D79B4C7
:04031A00CF191228BD
:04031B00CF14CD72BC
:04031C00CF10AB480B
:04031D00CF0CA9C197
:04031E00CF08C82A12
:04031F00CF0505867B
:04032000CF01605C4D
:04032100CEFBAF79E7
:04032200CEF4D680BF
:04032300CEEE320FD9
:04032400CEE7C1A6B9
:04032500CEE1838022
:04032600CEDB75B005
:04032700CED595D6C4
:04032800CECFE42729
:04032900CECA5D27B4
:04032A00CEC50095A7
:04032B00CEBFCCF085
:04032C00CEBAC0B9CC
:04032D00CEB5D9CCA4
:04032E00CEB118F63E
:04032F00CEAC7B24B1
:04033000CEA8005AF9
:04033100CEA3A67140
:04033200CE9F6D42AB
:04033300CE9B5366A4
:04033400CE97579E6B
:04033500CE93797278
:04033600CE8FB77738
:04033700CE8C10E177
:04033800CE8884D017
:04033900CE851288D3
:04033A00CE81B97740
:04033B00CE7CF12063
:04033C00CE769DDC00
:04033D00CE707845C1
:04033E00CE6A7E39CC
:04033F00CE64AF2AAF
:04034000CE5F0A3151
:04034100CE598D0301
:04034200CE54355808
:04034300CE4F03D1C5
:04034400CE49F70C9B
:04034500CE450DF4A0
:04034600CE40468AD5
:04034700CE3BA0CC3D
:04034800CE371B533E
:04034900CE32B52ECD
:04034A00CE2E6D1C2A
:04034B00CE2A42A0D4
:04034C00CE2634760F
:04034D00CE22424733
:04034E00CE1E6B1D37
:04034F00CE1AAE4FC5
:04035000CE170A4575
:04035100CE137F1E2A
:04035200CE100B8C32
:04035300CE0CAF36E7
:04035400CE0969A8BD
:04035500CE063A2472
:04035600CE031F0AA9
:04035700CE00192497
:04035800CDFA4E711B
:04035900CDF49155F9
:04035A00CDEEFA2FBB
:04035B00CDE987C49D
:04035C00CDE438AF05
:04035D00CDDF0C7470
:04035E00CDDA01FDF6
:04035F00CDD517924F
:04036000CDD04DA609
:04036100CDCBA27EE0
:04036200CDC715737B
:04036300CDC2A591D1
:04036400CDBE522E8A
:04036500CDBA1AA350
:04036600CDB5FD30E4
:04036700CDB1FA1CFE
:04036800CDAE1155B0
:04036900CDAA405782
:04036A00CDA6875F36
:04036B00CDA2E578C2
:04036C00CD9F5B279F
:04036D00CD9BE688B6
:04036E00CD9887FAA5
:04036F00CD953D9457
:04037000CD9207E241
:04037100CD8EE5B890
:04037200CD8BD77EDA
:04037300CD88DB90C6
:04037400CD85F1B290
:04037500CD831A6CAE
:04037600CD8053F8EB
:04037700CD7B3D13EA
:04037800CD75F291BC
:04037900CD70C83546
:04037A00CD6BBD8208
:04037B00CD66D10872
:04037C00CD62015CF1
:04037D00CD5D4F35CE
:04037E00CD58B79B04
:04037F00CD543DBF5D
:04038000CD4FDD3E42
:04038100CD4B96D2F8
:04038200CD4769A357
:04038300CD435469A9
:04038400CD3F5824ED
:04038500CD3B72EC0E
:04038600CD37A3C10B
:04038700CD33EC6A1C
:04038800CD3049C06B
:04038900CD2CBBFDBF
:04038A00CD29435BDB
:04038B00CD25DE1589
:04038C00CD228CB042
:04038D00CD1F4E3002
:04038E00CD1C23154A
:04038F00CD19092556
:04039000CD16015D28
:04039100CD130A8EF0
:04039200CD1025194C
:04039300CD0D4F57E6
:04039400CD0A8A22E2
:04039500CD07D3AA13
:04039600CD052D8ADA
:04039700CD0295F30B
:04039800CD000CA7E1
:04039900CCFB22BEB9
:04039A00CCF6485BFA
:04039B00CCF18946D2
:04039C00CCECE3C101
:04039D00CCE8583020
:04039E00CCE3E522A5
:04039F00CCDF8C0E15
:0403A000CCDB49CC9D
:0403A100CCD71E99FE
:0403A200CCD30AAE00
:0403A300CCCF0D3678
:0403A400CCCB24B5E5
:0403A500CCC7516808
:0403A600CCC39387AA
:0403A700CCBFE8FEE1
:0403A800CCBC52284F
:0403A900CCB8CF43BA
:0403AA00CCB55F6C03
:0403AB00CCB2012DA2
:0403AC00CCAEB4E33C
:0403AD00CCAB7A9DBE
:0403AE00CCA851A3E3
:0403AF00CCA5394060
:0403B000CCA2310C9E
:0403B100CC9F393A6A
:0403B200CC9C4FD8B8
:0403B300CC9976C9A2
:0403B400CC96AC95A2
:0403B500CC93F0A550
:0403B600CC9143079C
:0403B700CC8EA3291C
:0403B800CC8C11B523
:0403B900CC898D2836
:0403BA00CC8714F4E4
:0403BB00CC84A9E65F
:0403BC00CC824B9113
:0403BD00CC7FF1DA26
:0403BE00CC7B65424D
:0403BF00CC76EEA664
:0403C000CC7290412A
:0403C100CC6E47FFB8
:0403C200CC6A154E9E
:0403C300CC65F70C02
:0403C400CC61ED9388
:0403C500CC5DF9E131
:0403C600CC5A18A253
:0403C700CC564BC302
:0403C800CC529086FD
:0403C900CC4EE9CA63
:0403CA00CC4B542E96
:0403CB00CC47D0E06B
:0403CC00CC445EA817
:0403CD00CC40FE1210
:0403CE00CC3DAD9BDA
:0403CF00CC3A6DCAED
:0403D000CC373E33B5
:0403D100CC341E20EA
:0403D200CC310CFC22
:0403D300CC2E0AD34F
:0403D400CC2B173DDA
:0403D500CC2832926C
:0403D600CC255BA235
:0403D700CC22924E54
:0403D800CC1FD7431C
:0403D900CC1D28D53A
:0403DA00CC1A87377B
:0403DB00CC17F2C287
:0403DC00CC1569A62D
:0403DD00CC12EDC68B
:0403DE00CC107D7949
:0403DF00CC0E18ED3B
:0403E000CC0BBFE1A2
:0403E100CC0970F4DF
:0403E200CC072DE730
:0403E300CC04F55AF7
:0403E400CC02C7562A
:0403E500CC00A3E4C1
:0403E600CBFD143AFD
:0403E700CBF8F3C993
:0403E800CBF4E85614
:0403E900CBF0EE3E29
:0403EA00CBED06CC85
:0403EB00CBE9325DCB
:0403EC00CBE56F6F7F
:0403ED00CBE1BEB3EF
:0403EE00CBDE1DB98C
:0403EF00CBDA8DCF09
:0403F000CBD70DC09A
:0403F100CBD39F7457
:0403F200CBD040CE5E
:0403F300CBCCEF611F
:0403F400CBC9AF8C36
:0403F500CBC67D04F2
:0403F600CBC35A4ECD
:0403F700CBC044FE35
:0403F800CBBD3E0932
:0403F900CBBA439F99
:0403FA00CBB75757CF
:0403FB00CBB4789B6C
:0403FC00CBB1A6D605
:0403FD00CBAEE2138E
:0403FE00CBAC28CD8F
:0403FF00CBA97C25E5
:04040000CBA5B9AF20
:04040100CBA0A516D1
:04040200CB9BBD2DA6
:04040300CB97001D76
:04040400CB926CC16A
:04040500CB8E00C3D7
:04040600CB89BB449F
:04040700CB859A7C8B
:04040800CB819D8582
:04040900CB7B84A87D
:04040A00CB7410F2AD
:04040B00CB6CDC3C9E
:04040C00CB65E46672
:04040D00CB5F274852
:04040E00CB58A2DE47
:04040F00CB5255C5B2
:04041000CB4C3CB7DE
:04041100CB4655F889
:04041200CB40A156E4
:04041300CB3B1A9233
:04041400CB35C1F033
:04041500CB309557FC
:04041600CB2B9289D1
:04041700CB26B881B7
:04041800CB220623CA
:04041900CB1D79B4CA
:04041A00CB191228C0
:04041B00CB14CD72BF
:04041C00CB10AB480E
:04041D00CB0CA9C19A
:04041E00CB08C82A15
:04041F00CB0505867E
:04042000CB01605C50
:04042100CAFBAF79EA
:04042200CAF4D680C2
:04042300CAEE320FDC
:04042400CAE7C1A6BC
:04042500CAE1838025
:04042600CADB75B008
:04042700CAD595D6C7
:04042800CACFE4272C
:04042900CACA5D27B7
:04042A00CAC50095AA
:04042B00CABFCCF088
:04042C00CABAC0B9CF
:04042D00CAB5D9CCA7
:04042E00CAB118F641
:04042F00CAAC7B24B4
:04043000CAA8005AFC
:04043100CAA3A67143
:04043200CA9F6D42AE
:04043300CA9B5366A7
:04043400CA97579E6E
:04043500CA9379727B
:04043600CA8FB7773B
:04043700CA8C10E17A
:04043800CA8884D01A
:04043900CA851288D6
:04043A00CA81B97743
:04043B00CA7CF12066
:04043C00CA769DDC03
:04043D00CA707845C4
:04043E00CA6A7E39CF
:04043F00CA64AF2AB2
:04044000CA5F0A3154
:04044100CA598D0304
:04044200CA5435580B
:04044300CA4F03D1C8
:04044400CA49F70C9E
:04044500CA450DF4A3
:04044600CA40468AD8
:04044700CA3BA0CC40
:04044800CA371B5341
:04044900CA32B52ED0
:04044A00CA2E6D1C2D
:04044B00CA2A42A0D7
:04044C00CA26347612
:04044D00CA22424736
:04044E00CA1E6B1D3A
:04044F00CA1AAE4FC8
:04045000CA170A4578
:04045100CA137F1E2D
:04045200CA100B8C35
:04045300CA0CAF36EA
:04045400CA0969A8C0
:04045500CA063A2475
:04045600CA031F0AAC
:04045700CA0019249A
:04045800C9FA4E711E
:04045900C9F49155FC
:04045A00C9EEFA2FBE
:04045B00C9E987C4A0
:04045C00C9E438AF08
:04045D00C9DF0C7473
:04045E00C9DA01FDF9
:04045F00C9D5179252
:04046000C9D04DA60C
:04046100C9CBA27EE3
:04046200C9C715737E
:04046300C9C2A591D4
:04046400C9BE522E8D
:04046500C9BA1AA353
:04046600C9B5FD30E7
:04046700C9B1FA1C01
:04046800C9AE1155B3
:04046900C9AA405785
:04046A00C9A6875F39
:04046B00C9A2E578C5
:04046C00C99F5B27A2
:04046D00C99BE688B9
:04046E00C99887FAA8
:04046F00C9953D945A
:04047000C99207E244
:04047100C98EE5B893
:04047200C98BD77EDD
:04047300C988DB90C9
:04047400C985F1B293
:04047500C9831A6CB1
:04047600C98053F8EE
:04047700C97B3D13ED
:04047800C975F291BF
:04047900C970C83549
:04047A00C96BBD820B
:04047B00C966D10875
:04047C00C962015CF4
:04047D00C95D4F35D1
:04047E00C958B79B07
:04047F00C9543DBF60
:04048000C94FDD3E45
:04048100C94B96D2FB
:04048200C94769A35A
:04048300C9435469AC
:04048400C93F5824F0
:04048500C93B72EC11
:04048600C937A3C10E
:04048700C933EC6A1F
:04048800C93049C06E
:04048900C92CBBFDC2
:04048A00C929435BDE
:04048B00C925DE158C
:04048C00C9228CB045
:04048D00C91F4E3005
:04048E00C91C23154D
:04048F00C919092559
:04049000C916015D2B
:04049100C9130A8EF3
:04049200C91025194F
:04049300C90D4F57E9
:04049400C90A8A22E5
:04049500C907D3AA16
:04049600C9052D8ADD
:04049700C90295F30E
:04049800C9000CA7E4
:04049900C8FB22BEBC
:04049A00C8F6485BFD
:04049B00C8F18946D5
:04049C00C8ECE3C104
:04049D00C8E8583023
:04049E00C8E3E522A8
:04049F00C8DF8C0E18
:0404A000C8DB49CCA0
:0404A100C8D71E9901
:0404A200C8D30AAE03
:0404A300C8CF0D367B
:0404A400C8CB24B5E8
:0404A500C8C751680B
:0404A600C8C39387AD
:0404A700C8BFE8FEE4
:0404A800C8BC522852
:0404A900C8B8CF43BD
:0404AA00C8B55F6C06
:0404AB00C8B2012DA5
:0404AC00C8AEB4E33F
:0404AD00C8AB7A9DC1
:0404AE00C8A851A3E6
:0404AF00C8A5394063
:0404B000C8A2310CA1
:0404B100C89F393A6D
:0404B200C89C4FD8BB
:0404B300C89976C9A5
:0404B400C896AC95A5
:0404B500C893F0A553
:0404B600C89143079F
:0404B700C88EA3291F
:0404B800C88C11B526
:0404B900C8898D2839
:0404BA00C88714F4E7
:0404BB00C884A9E662
:0404BC00C8824B9116
:0404BD00C87FF1DA29
:0404BE00C87B654250
:0404BF00C876EEA667
:0404C000C87290412D
:0404C100C86E47FFBB
:0404C200C86A154EA1
:0404C300C865F70C05
:0404C400C861ED938B
:0404C500C85DF9E134
:0404C600C85A18A256
:0404C700C8564BC305
:0404C800C852908600
:0404C900C84EE9CA66
:0404CA00C84B542E99
:0404CB00C847D0E06E
:0404CC00C8445EA81A
:0404CD00C840FE1213
:0404CE00C83DAD9BDD
:0404CF00C83A6DCAF0
:0404D000C8373E33B8
:0404D100C8341E20ED
:0404D200C8310CFC25
:0404D300C82E0AD352
:0404D400C82B173DDD
:0404D500C82832926F
:0404D600C8255BA238
:0404D700C822924E57
:0404D800C81FD7431F
:0404D900C81D28D53D
:0404DA00C81A87377E
:0404DB00C817F2C28A
:0404DC00C81569A630
:0404DD00C812EDC68E
:0404DE00C8107D794C
:0404DF00C80E18ED3E
:0404E000C80BBFE1A5
:0404E100C80970F4E2
:0404E200C8072DE733
:0404E300C804F55AFA
:0404E400C802C7562D
:0404E500C800A3E4C4
:0404E600C7FD143A00
:0404E700C7F8F3C996
:0404E800C7F4E85617
:0404E900C7F0EE3E2C
:0404EA00C7ED06CC88
:0404EB00C7E9325DCE
:0404EC00C7E56F6F82
:0404ED00C7E1BEB3F2
:0404EE00C7DE1DB98F
:0404EF00C7DA8DCF0C
:0404F000C7D70DC09D
:0404F100C7D39F745A
:0404F200C7D040CE61
:0404F300C7CCEF6122
:0404F400C7C9AF8C39
:0404F500C7C67D04F5
:0404F600C7C35A4ED0
:0404F700C7C044FE38
:0404F800C7BD3E0935
:0404F900C7BA439F9C
:0404FA00C7B75757D2
:0404FB00C7B4789B6F
:0404FC00C7B1A6D608
:0404FD00C7AEE21391
:0404FE00C7AC28CD92
:0404FF00C7A97C25E8
:04050000C7A5B9AF23
:04050100C7A0A516D4
:04050200C79BBD2DA9
:04050300C797001D79
:04050400C7926CC16D
:04050500C78E00C3DA
:04050600C789BB44A2
:04050700C7859A7C8E
:04050800C7819D8585
:04050900C77B84A880
:04050A00C77410F2B0
:04050B00C76CDC3CA1
:04050C00C765E46675
:04050D00C75F274855
:04050E00C758A2DE4A
:04050F00C75255C5B5
:04051000C74C3CB7E1
:04051100C74655F88C
:04051200C740A156E7
:04051300C73B1A9236
:04051400C735C1F036
:04051500C7309557FF
:04051600C72B9289D4
:04051700C726B881BA
:04051800C7220623CD
:04051900C71D79B4CD
:04051A00C7191228C3
:04051B00C714CD72C2
:04051C00C710AB4811
:04051D00C70CA9C19D
:04051E00C708C82A18
:04051F00C705058681
:04052000C701605C53
:04052100C6FBAF79ED
:04052200C6F4D680C5
:04052300C6EE320FDF
:04052400C6E7C1A6BF
:04052500C6E1838028
:04052600C6DB75B00B
:04052700C6D595D6CA
:04052800C6CFE4272F
:04052900C6CA5D27BA
:04052A00C6C50095AD
:04052B00C6BFCCF08B
:04052C00C6BAC0B9D2
:04052D00C6B5D9CCAA
:04052E00C6B118F644
:04052F00C6AC7B24B7
:04053000C6A8005AFF
:04053100C6A3A67146
:04053200C69F6D42B1
:04053300C69B5366AA
:04053400C697579E71
:04053500C69379727E
:04053600C68FB7773E
:04053700C68C10E17D
:04053800C68884D01D
:04053900C6851288D9
:04053A00C681B97746
:04053B00C67CF12069
:04053C00C6769DDC06
:04053D00C6707845C7
:04053E00C66A7E39D2
:04053F00C664AF2AB5
:04054000C65F0A3157
:04054100C6598D0307
:04054200C65435580E
:04054300C64F03D1CB
:04054400C649F70CA1
:04054500C6450DF4A6
:04054600C640468ADB
:04054700C63BA0CC43
:04054800C6371B5344
:04054900C632B52ED3
:04054A00C62E6D1C30
:04054B00C62A42A0DA
:04054C00C626347615
:04054D00C622424739
:04054E00C61E6B1D3D
:04054F00C61AAE4FCB
:04055000C6170A457B
:04055100C6137F1E30
:04055200C6100B8C38
:04055300C60CAF36ED
:04055400C60969A8C3
:04055500C6063A2478
:04055600C6031F0AAF
:04055700C60019249D
:04055800C5FA4E7121
:04055900C5F49155FF
:04055A00C5EEFA2FC1
:04055B00C5E987C4A3
:04055C00C5E438AF0B
:04055D00C5DF0C7476
:04055E00C5DA01FDFC
:04055F00C5D5179255
:04056000C5D04DA60F
:04056100C5CBA27EE6
:04056200C5C7157381
:04056300C5C2A591D7
:04056400C5BE522E90
:04056500C5BA1AA356
:04056600C5B5FD30EA
:04056700C5B1FA1C04
:04056800C5AE1155B6
:04056900C5AA405788
:04056A00C5A6875F3C
:04056B00C5A2E578C8
:04056C00C59F5B27A5
:04056D00C59BE688BC
:04056E00C59887FAAB
:04056F00C5953D945D
:04057000C59207E247
:04057100C58EE5B896
:04057200C58BD77EE0
:04057300C588DB90CC
:04057400C585F1B296
:04057500C5831A6CB4
:04057600C58053F8F1
:04057700C57B3D13F0
:04057800C575F291C2
:04057900C570C8354C
:04057A00C56BBD820E
:04057B00C566D10878
:04057C00C562015CF7
:04057D00C55D4F35D4
:04057E00C558B79B0A
:04057F00C5543DBF63
:04058000C54FDD3E48
:04058100C54B96D2FE
:04058200C54769A35D
:04058300C5435469AF
:04058400C53F5824F3
:04058500C53B72EC14
:04058600C537A3C111
:04058700C533EC6A22
:04058800C53049C071
:04058900C52CBBFDC5
:04058A00C529435BE1
:04058B00C525DE158F
:04058C00C5228CB048
:04058D00C51F4E3008
:04058E00C51C231550
:04058F00C51909255C
:04059000C516015D2E
:04059100C5130A8EF6
:04059200C510251952
:04059300C50D4F57EC
:04059400C50A8A22E8
:04059500C507D3AA19
:04059600C5052D8AE0
:04059700C50295F311
:04059800C5000CA7E7
:04059900C4FB22BEBF
:04059A00C4F6485B00
:04059B00C4F18946D8
:04059C00C4ECE3C107
:04059D00C4E8583026
:04059E00C4E3E522AB
:04059F00C4DF8C0E1B
:0405A000C4DB49CCA3
:0405A100C4D71E9904
:0405A200C4D30AAE06
:0405A300C4CF0D367E
:0405A400C4CB24B5EB
:0405A500C4C751680E
:0405A600C4C39387B0
:0405A700C4BFE8FEE7
:0405A800C4BC522855
:0405A900C4B8CF43C0
:0405AA00C4B55F6C09
:0405AB00C4B2012DA8
:0405AC00C4AEB4E342
:0405AD00C4AB7A9DC4
:0405AE00C4A851A3E9
:0405AF00C4A5394066
:0405B000C4A2310CA4
:0405B100C49F393A70
:0405B200C49C4FD8BE
:0405B300C49976C9A8
:0405B400C496AC95A8
:0405B500C493F0A556
:0405B600C4914307A2
:0405B700C48EA32922
:0405B800C48C11B529
:0405B900C4898D283C
:0405BA00C48714F4EA
:0405BB00C484A9E665
:0405BC00C4824B9119
:0405BD00C47FF1DA2C
:0405BE00C47B654253
:0405BF00C476EEA66A
:0405C000C472904130
:0405C100C46E47FFBE
:0405C200C46A154EA4
:0405C300C465F70C08
:0405C400C461ED938E
:0405C500C45DF9E137
:0405C600C45A18A259
:0405C700C4564BC308
:0405C800C452908603
:0405C900C44EE9CA69
:0405CA00C44B542E9C
:0405CB00C447D0E071
:0405CC00C4445EA81D
:0405CD00C440FE1216
:0405CE00C43DAD9BE0
:0405CF00C43A6DCAF3
:0405D000C4373E33BB
:0405D100C4341E20F0
:0405D200C4310CFC28
:0405D300C42E0AD355
:0405D400C42B173DE0
:0405D500C428329272
:0405D600C4255BA23B
:0405D700C422924E5A
:0405D800C41FD74322
:0405D900C41D28D540
:0405DA00C41A873781
:0405DB00C417F2C28D
:0405DC00C41569A633
:0405DD00C412EDC691
:0405DE00C4107D794F
:0405DF00C40E18ED41
:0405E000C40BBFE1A8
:0405E100C40970F4E5
:0405E200C4072DE736
:0405E300C404F55AFD
:0405E400C402C75630
:0405E500C400A3E4C7
:0405E600C3FD143A03
:0405E700C3F8F3C999
:0405E800C3F4E8561A
:0405E900C3F0EE3E2F
:0405EA00C3ED06CC8B
:0405EB00C3E9325DD1
:0405EC00C3E56F6F85
:0405ED00C3E1BEB3F5
:0405EE00C3DE1DB992
:0405EF00C3DA8DCF0F
:0405F000C3D70DC0A0
:0405F100C3D39F745D
:0405F200C3D040CE64
:0405F300C3CCEF6125
:0405F400C3C9AF8C3C
:0405F500C3C67D04F8
:0405F600C3C35A4ED3
:0405F700C3C044FE3B
:0405F800C3BD3E0938
:0405F900C3BA439F9F
:0405FA00C3B75757D5
:0405FB00C3B4789B72
:0405FC00C3B1A6D60B
:0405FD00C3AEE21394
:0405FE00C3AC28CD95
:0405FF00C3A97C25EB
:04060000C3A5B9AF26
:04060100C3A0A516D7
:04060200C39BBD2DAC
:04060300C397001D7C
:04060400C3926CC170
:04060500C38E00C3DD
:04060600C389BB44A5
:04060700C3859A7C91
:04060800C3819D8588
:04060900C37B84A883
:04060A00C37410F2B3
:04060B00C36CDC3CA4
:04060C00C365E46678
:04060D00C35F274858
:04060E00C358A2DE4D
:04060F00C35255C5B8
:04061000C34C3CB7E4
:04061100C34655F88F
:04061200C340A156EA
:04061300C33B1A9239
:04061400C335C1F039
:04061500C330955702
:04061600C32B9289D7
:04061700C326B881BD
:04061800C3220623D0
:04061900C31D79B4D0
:04061A00C3191228C6
:04061B00C314CD72C5
:04061C00C310AB4814
:04061D00C30CA9C1A0
:04061E00C308C82A1B
:04061F00C305058684
:04062000C301605C56
:04062100C2FBAF79F0
:04062200C2F4D680C8
:04062300C2EE320FE2
:04062400C2E7C1A6C2
:04062500C2E183802B
:04062600C2DB75B00E
:04062700C2D595D6CD
:04062800C2CFE42732
:04062900C2CA5D27BD
:04062A00C2C50095B0
:04062B00C2BFCCF08E
:04062C00C2BAC0B9D5
:04062D00C2B5D9CCAD
:04062E00C2B118F647
:04062F00C2AC7B24BA
:04063000C2A8005A02
:04063100C2A3A67149
:04063200C29F6D42B4
:04063300C29B5366AD
:04063400C297579E74
:04063500C293797281
:04063600C28FB77741
:04063700C28C10E180
:04063800C28884D020
:04063900C2851288DC
:04063A00C281B97749
:04063B00C27CF1206C
:04063C00C2769DDC09
:04063D00C2707845CA
:04063E00C26A7E39D5
:04063F00C264AF2AB8
:04064000C25F0A315A
:04064100C2598D030A
:04064200C254355811
:04064300C24F03D1CE
:04064400C249F70CA4
:04064500C2450DF4A9
:04064600C240468ADE
:04064700C23BA0CC46
:04064800C2371B5347
:04064900C232B52ED6
:04064A00C22E6D1C33
:04064B00C22A42A0DD
:04064C00C226347618
:04064D00C22242473C
:04064E00C21E6B1D40
:04064F00C21AAE4FCE
:04065000C2170A457E
:04065100C2137F1E33
:04065200C2100B8C3B
:04065300C20CAF36F0
:04065400C20969A8C6
:04065500C2063A247B
:04065600C2031F0AB2
:04065700C2001924A0
:04065800C1FA4E7124
:04065900C1F4915502
:04065A00C1EEFA2FC4
:04065B00C1E987C4A6
:04065C00C1E438AF0E
:04065D00C1DF0C7479
:04065E00C1DA01FDFF
:04065F00C1D5179258
:04066000C1D04DA612
:04066100C1CBA27EE9
:04066200C1C7157384
:04066300C1C2A591DA
:04066400C1BE522E93
:04066500C1BA1AA359
:04066600C1B5FD30ED
:04066700C1B1FA1C07
:04066800C1AE1155B9
:04066900C1AA40578B
:04066A00C1A6875F3F
:04066B00C1A2E578CB
:04066C00C19F5B27A8
:04066D00C19BE688BF
:04066E00C19887FAAE
:04066F00C1953D9460
:04067000C19207E24A
:04067100C18EE5B899
:04067200C18BD77EE3
:04067300C188DB90CF
:04067400C185F1B299
:04067500C1831A6CB7
:04067600C18053F8F4
:04067700C17B3D13F3
:04067800C175F291C5
:04067900C170C8354F
:04067A00C16BBD8211
:04067B00C166D1087B
:04067C00C162015CFA
:04067D00C15D4F35D7
:04067E00C158B79B0D
:04067F00C1543DBF66
:04068000C14FDD3E4B
:04068100C14B96D201
:04068200C14769A360
:04068300C1435469B2
:04068400C13F5824F6
:04068500C13B72EC17
:04068600C137A3C114
:04068700C133EC6A25
:04068800C13049C074
:04068900C12CBBFDC8
:04068A00C129435BE4
:04068B00C125DE1592
:04068C00C1228CB04B
:04068D00C11F4E300B
:04068E00C11C231553
:04068F00C11909255F
:04069000C116015D31
:04069100C1130A8EF9
:04069200C110251955
:04069300C10D4F57EF
:04069400C10A8A22EB
:04069500C107D3AA1C
:04069600C1052D8AE3
:04069700C10295F314
:04069800C1000CA7EA
:04069900C0FB22BEC2
:04069A00C0F6485B03
:04069B00C0F18946DB
:04069C00C0ECE3C10A
:04069D00C0E8583029
:04069E00C0E3E522AE
:04069F00C0DF8C0E1E
:0406A000C0DB49CCA6
:0406A100C0D71E9907
:0406A200C0D30AAE09
:0406A300C0CF0D3681
:0406A400C0CB24B5EE
:0406A500C0C7516811
:0406A600C0C39387B3
:0406A700C0BFE8FEEA
:0406A800C0BC522858
:0406A900C0B8CF43C3
:0406AA00C0B55F6C0C
:0406AB00C0B2012DAB
:0406AC00C0AEB4E345
:0406AD00C0AB7A9DC7
:0406AE00C0A851A3EC
:0406AF00C0A5394069
:0406B000C0A2310CA7
:0406B100C09F393A73
:0406B200C09C4FD8C1
:0406B300C09976C9AB
:0406B400C096AC95AB
:0406B500C093F0A559
:0406B600C0914307A5
:0406B700C08EA32925
:0406B800C08C11B52C
:0406B900C0898D283F
:0406BA00C08714F4ED
:0406BB00C084A9E668
:0406BC00C0824B911C
:0406BD00C07FF1DA2F
:0406BE00C07B654256
:0406BF00C076EEA66D
:0406C000C072904133
:0406C100C06E47FFC1
:0406C200C06A154EA7
:0406C300C065F70C0B
:0406C400C061ED9391
:0406C500C05DF9E13A
:0406C600C05A18A25C
:0406C700C0564BC30B
:0406C800C052908606
:0406C900C04EE9CA6C
:0406CA00C04B542E9F
:0406CB00C047D0E074
:0406CC00C0445EA820
:0406CD00C040FE1219
:0406CE00C03DAD9BE3
:0406CF00C03A6DCAF6
:0406D000C0373E33BE
:0406D100C0341E20F3
:0406D200C0310CFC2B
:0406D300C02E0AD358
:0406D400C02B173DE3
:0406D500C028329275
:0406D600C0255BA23E
:0406D700C022924E5D
:0406D800C01FD74325
:0406D900C01D28D543
:0406DA00C01A873784
:0406DB00C017F2C290
:0406DC00C01569A636
:0406DD00C012EDC694
:0406DE00C0107D7952
:0406DF00C00E18ED44
:0406E000C00BBFE1AB
:0406E100C00970F4E8
:0406E200C0072DE739
:0406E300C004F55A00
:0406E400C002C75633
:0406E500C000A3E4CA
:0406E600BFFD143A06
:0406E700BFF8F3C99C
:0406E800BFF4E8561D
:0406E900BFF0EE3E32
:0406EA00BFED06CC8E
:0406EB00BFE9325DD4
:0406EC00BFE56F6F88
:0406ED00BFE1BEB3F8
:0406EE00BFDE1DB995
:0406EF00BFDA8DCF12
:0406F000BFD70DC0A3
:0406F100BFD39F7460
:0406F200BFD040CE67
:0406F300BFCCEF6128
:0406F400BFC9AF8C3F
:0406F500BFC67D04FB
:0406F600BFC35A4ED6
:0406F700BFC044FE3E
:0406F800BFBD3E093B
:0406F900BFBA439FA2
:0406FA00BFB75757D8
:0406FB00BFB4789B75
:0406FC00BFB1A6D60E
:0406FD00BFAEE21397
:0406FE00BFAC28CD98
:0406FF00BFA97C25EE
:04070000BFA5B9AF29
:04070100BFA0A516DA
:04070200BF9BBD2DAF
:04070300BF97001D7F
:04070400BF926CC173
:04070500BF8E00C3E0
:04070600BF89BB44A8
:04070700BF859A7C94
:04070800BF819D858B
:04070900BF7B84A886
:04070A00BF7410F2B6
:04070B00BF6CDC3CA7
:04070C00BF65E4667B
:04070D00BF5F27485B
:04070E00BF58A2DE50
:04070F00BF5255C5BB
:04071000BF4C3CB7E7
:04071100BF4655F892
:04071200BF40A156ED
:04071300BF3B1A923C
:04071400BF35C1F03C
:04071500BF30955705
:04071600BF2B9289DA
:04071700BF26B881C0
:04071800BF220623D3
:04071900BF1D79B4D3
:04071A00BF191228C9
:04071B00BF14CD72C8
:04071C00BF10AB4817
:04071D00BF0CA9C1A3
:04071E00BF08C82A1E
:04071F00BF05058687
:04072000BF01605C59
:04072100BEFBAF79F3
:04072200BEF4D680CB
:04072300BEEE320FE5
:04072400BEE7C1A6C5
:04072500BEE183802E
:04072600BEDB75B011
:04072700BED595D6D0
:04072800BECFE42735
:04072900BECA5D27C0
:04072A00BEC50095B3
:04072B00BEBFCCF091
:04072C00BEBAC0B9D8
:04072D00BEB5D9CCB0
:04072E00BEB118F64A
:04072F00BEAC7B24BD
:04073000BEA8005A05
:04073100BEA3A6714C
:04073200BE9F6D42B7
:04073300BE9B5366B0
:04073400BE97579E77
:04073500BE93797284
:04073600BE8FB77744
:04073700BE8C10E183
:04073800BE8884D023
:04073900BE851288DF
:04073A00BE81B9774C
:04073B00BE7CF1206F
:04073C00BE769DDC0C
:04073D00BE707845CD
:04073E00BE6A7E39D8
:04073F00BE64AF2ABB
:04074000BE5F0A315D
:04074100BE598D030D
:04074200BE54355814
:04074300BE4F03D1D1
:04074400BE49F70CA7
:04074500BE450DF4AC
:04074600BE40468AE1
:04074700BE3BA0CC49
:04074800BE371B534A
:04074900BE32B52ED9
:04074A00BE2E6D1C36
:04074B00BE2A42A0E0
:04074C00BE2634761B
:04074D00BE2242473F
:04074E00BE1E6B1D43
:04074F00BE1AAE4FD1
:04075000BE170A4581
:04075100BE137F1E36
:04075200BE100B8C3E
:04075300BE0CAF36F3
:04075400BE0969A8C9
:04075500BE063A247E
:04075600BE031F0AB5
:04075700BE001924A3
:04075800BDFA4E7127
:04075900BDF4915505
:04075A00BDEEFA2FC7
:04075B00BDE987C4A9
:04075C00BDE438AF11
:04075D00BDDF0C747C
:04075E00BDDA01FD02
:04075F00BDD517925B
:04076000BDD04DA615
:04076100BDCBA27EEC
:04076200BDC7157387
:04076300BDC2A591DD
:04076400BDBE522E96
:04076500BDBA1AA35C
:04076600BDB5FD30F0
:04076700BDB1FA1C0A
:04076800BDAE1155BC
:04076900BDAA40578E
:04076A00BDA6875F42
:04076B00BDA2E578CE
:04076C00BD9F5B27AB
:04076D00BD9BE688C2
:04076E00BD9887FAB1
:04076F00BD953D9463
:04077000BD9207E24D
:04077100BD8EE5B89C
:04077200BD8BD77EE6
:04077300BD88DB90D2
:04077400BD85F1B29C
:04077500BD831A6CBA
:04077600BD8053F8F7
:04077700BD7B3D13F6
:04077800BD75F291C8
:04077900BD70C83552
:04077A00BD6BBD8214
:04077B00BD66D1087E
:04077C00BD62015CFD
:04077D00BD5D4F35DA
:04077E00BD58B79B10
:04077F00BD543DBF69
:04078000BD4FDD3E4E
:04078100BD4B96D204
:04078200BD4769A363
:04078300BD435469B5
:04078400BD3F5824F9
:04078500BD3B72EC1A
:04078600BD37A3C117
:04078700BD33EC6A28
:04078800BD3049C077
:04078900BD2CBBFDCB
:04078A00BD29435BE7
:04078B00BD25DE1595
:04078C00BD228CB04E
:04078D00BD1F4E300E
:04078E00BD1C231556
:04078F00BD19092562
:04079000BD16015D34
:04079100BD130A8EFC
:04079200BD10251958
:04079300BD0D4F57F2
:04079400BD0A8A22EE
:04079500BD07D3AA1F
:04079600BD052D8AE6
:04079700BD0295F317
:04079800BD000CA7ED
:04079900BCFB22BEC5
:04079A00BCF6485B06
:04079B00BCF18946DE
:04079C00BCECE3C10D
:04079D00BCE858302C
:04079E00BCE3E522B1
:04079F00BCDF8C0E21
:0407A000BCDB49CCA9
:0407A100BCD71E990A
:0407A200BCD30AAE0C
:0407A300BCCF0D3684
:0407A400BCCB24B5F1
:0407A500BCC7516814
:0407A600BCC39387B6
:0407A700BCBFE8FEED
:0407A800BCBC52285B
:0407A900BCB8CF43C6
:0407AA00BCB55F6C0F
:0407AB00BCB2012DAE
:0407AC00BCAEB4E348
:0407AD00BCAB7A9DCA
:0407AE00BCA851A3EF
:0407AF00BCA539406C
:0407B000BCA2310CAA
:0407B100BC9F393A76
:0407B200BC9C4FD8C4
:0407B300BC9976C9AE
:0407B400BC96AC95AE
:0407B500BC93F0A55C
:0407B600BC914307A8
:0407B700BC8EA32928
:0407B800BC8C11B52F
:0407B900BC898D2842
:0407BA00BC8714F4F0
:0407BB00BC84A9E66B
:0407BC00BC824B911F
:0407BD00BC7FF1DA32
:0407BE00BC7B654259
:0407BF00BC76EEA670
:0407C000BC72904136
:0407C100BC6E47FFC4
:0407C200BC6A154EAA
:0407C300BC65F70C0E
:0407C400BC61ED9394
:0407C500BC5DF9E13D
:0407C600BC5A18A25F
:0407C700BC564BC30E
:0407C800BC52908609
:0407C900BC4EE9CA6F
:0407CA00BC4B542EA2
:0407CB00BC47D0E077
:0407CC00BC445EA823
:0407CD00BC40FE121C
:0407CE00BC3DAD9BE6
:0407CF00BC3A6DCAF9
:0407D000BC373E33C1
:0407D100BC341E20F6
:0407D200BC310CFC2E
:0407D300BC2E0AD35B
:0407D400BC2B173DE6
:0407D500BC28329278
:0407D600BC255BA241
:0407D700BC22924E60
:0407D800BC1FD74328
:0407D900BC1D28D546
:0407DA00BC1A873787
:0407DB00BC17F2C293
:0407DC00BC1569A639
:0407DD00BC12EDC697
:0407DE00BC107D7955
:0407DF00BC0E18ED47
:0407E000BC0BBFE1AE
:0407E100BC0970F4EB
:0407E200BC072DE73C
:0407E300BC04F55A03
:0407E400BC02C75636
:0407E500BC00A3E4CD
:0407E600BBFD143A09
:0407E700BBF8F3C99F
:0407E800BBF4E85620
:0407E900BBF0EE3E35
:0407EA00BBED06CC91
:0407EB00BBE9325DD7
:0407EC00BBE56F6F8B
:0407ED00BBE1BEB3FB
:0407EE00BBDE1DB998
:0407EF00BBDA8DCF15
:0407F000BBD70DC0A6
:0407F100BBD39F7463
:0407F200BBD040CE6A
:0407F300BBCCEF612B
:0407F400BBC9AF8C42
:0407F500BBC67D04FE
:0407F600BBC35A4ED9
:0407F700BBC044FE41
:0407F800BBBD3E093E
:0407F900BBBA439FA5
:0407FA00BBB75757DB
:0407FB00BBB4789B78
:0407FC00BBB1A6D611
:0407FD00BBAEE2139A
:0407FE00BBAC28CD9B
:0407FF00BBA97C25F1
:04080000BBA5B9AF2C
:04080100BBA0A516DD
:04080200BB9BBD2DB2
:04080300BB97001D82
:04080400BB926CC176
:04080500BB8E00C3E3
:04080600BB89BB44AB
:04080700BB859A7C97
:04080800BB819D858E
:04080900BB7B84A889
:04080A00BB7410F2B9
:04080B00BB6CDC3CAA
:04080C00BB65E4667E
:04080D00BB5F27485E
:04080E00BB58A2DE53
:04080F00BB5255C5BE
:04081000BB4C3CB7EA
:04081100BB4655F895
:04081200BB40A156F0
:04081300BB3B1A923F
:04081400BB35C1F03F
:04081500BB30955708
:04081600BB2B9289DD
:04081700BB26B881C3
:04081800BB220623D6
:04081900BB1D79B4D6
:04081A00BB191228CC
:04081B00BB14CD72CB
:04081C00BB10AB481A
:04081D00BB0CA9C1A6
:04081E00BB08C82A21
:04081F00BB0505868A
:04082000BB01605C5C
:04082100BAFBAF79F6
:04082200BAF4D680CE
:04082300BAEE320FE8
:04082400BAE7C1A6C8
:04082500BAE1838031
:04082600BADB75B014
:04082700BAD595D6D3
:04082800BACFE42738
:04082900BACA5D27C3
:04082A00BAC50095B6
:04082B00BABFCCF094
:04082C00BABAC0B9DB
:04082D00BAB5D9CCB3
:04082E00BAB118F64D
:04082F00BAAC7B24C0
:04083000BAA8005A08
:04083100BAA3A6714F
:04083200BA9F6D42BA
:04083300BA9B5366B3
:04083400BA97579E7A
:04083500BA93797287
:04083600BA8FB77747
:04083700BA8C10E186
:04083800BA8884D026
:04083900BA851288E2
:04083A00BA81B9774F
:04083B00BA7CF12072
:04083C00BA769DDC0F
:04083D00BA707845D0
:04083E00BA6A7E39DB
:04083F00BA64AF2ABE
:04084000BA5F0A3160
:04084100BA598D0310
:04084200BA54355817
:04084300BA4F03D1D4
:04084400BA49F70CAA
:04084500BA450DF4AF
:04084600BA40468AE4
:04084700BA3BA0CC4C
:04084800BA371B534D
:04084900BA32B52EDC
:04084A00BA2E6D1C39
:04084B00BA2A42A0E3
:04084C00BA2634761E
:04084D00BA22424742
:04084E00BA1E6B1D46
:04084F00BA1AAE4FD4
:04085000BA170A4584
:04085100BA137F1E39
:04085200BA100B8C41
:04085300BA0CAF36F6
:04085400BA0969A8CC
:04085500BA063A2481
:04085600BA031F0AB8
:04085700BA001924A6
:04085800B9FA4E712A
:04085900B9F4915508
:04085A00B9EEFA2FCA
:04085B00B9E987C4AC
:04085C00B9E438AF14
:04085D00B9DF0C747F
:04085E00B9DA01FD05
:04085F00B9D517925E
:04086000B9D04DA618
:04086100B9CBA27EEF
:04086200B9C715738A
:04086300B9C2A591E0
:04086400B9BE522E99
:04086500B9BA1AA35F
:04086600B9B5FD30F3
:04086700B9B1FA1C0D
:04086800B9AE1155BF
:04086900B9AA405791
:04086A00B9A6875F45
:04086B00B9A2E578D1
:04086C00B99F5B27AE
:04086D00B99BE688C5
:04086E00B99887FAB4
:04086F00B9953D9466
:04087000B99207E250
:04087100B98EE5B89F
:04087200B98BD77EE9
:04087300B988DB90D5
:04087400B985F1B29F
:04087500B9831A6CBD
:04087600B98053F8FA
:04087700B97B3D13F9
:04087800B975F291CB
:04087900B970C83555
:04087A00B96BBD8217
:04087B00B966D10881
:04087C00B962015C00
:04087D00B95D4F35DD
:04087E00B958B79B13
:04087F00B9543DBF6C
:04088000B94FDD3E51
:04088100B94B96D207
:04088200B94769A366
:04088300B9435469B8
:04088400B93F5824FC
:04088500B93B72EC1D
:04088600B937A3C11A
:04088700B933EC6A2B
:04088800B93049C07A
:04088900B92CBBFDCE
:04088A00B929435BEA
:04088B00B925DE1598
:04088C00B9228CB051
:04088D00B91F4E3011
:04088E00B91C231559
:04088F00B919092565
:04089000B916015D37
:04089100B9130A8EFF
:04089200B91025195B
:04089300B90D4F57F5
:04089400B90A8A22F1
:04089500B907D3AA22
:04089600B9052D8AE9
:04089700B90295F31A
:04089800B9000CA7F0
:04089900B8FB22BEC8
:04089A00B8F6485B09
:04089B00B8F18946E1
:04089C00B8ECE3C110
:04089D00B8E858302F
:04089E00B8E3E522B4
:04089F00B8DF8C0E24
:0408A000B8DB49CCAC
:0408A100B8D71E990D
:0408A200B8D30AAE0F
:0408A300B8CF0D3687
:0408A400B8CB24B5F4
:0408A500B8C7516817
:0408A600B8C39387B9
:0408A700B8BFE8FEF0
:0408A800B8BC52285E
:0408A900B8B8CF43C9
:0408AA00B8B55F6C12
:0408AB00B8B2012DB1
:0408AC00B8AEB4E34B
:0408AD00B8AB7A9DCD
:0408AE00B8A851A3F2
:0408AF00B8A539406F
:0408B000B8A2310CAD
:0408B100B89F393A79
:0408B200B89C4FD8C7
:0408B300B89976C9B1
:0408B400B896AC95B1
:0408B500B893F0A55F
:0408B600B8914307AB
:0408B700B88EA3292B
:0408B800B88C11B532
:0408B900B8898D2845
:0408BA00B88714F4F3
:0408BB00B884A9E66E
:0408BC00B8824B9122
:0408BD00B87FF1DA35
:0408BE00B87B65425C
:0408BF00B876EEA673
:0408C000B872904139
:0408C100B86E47FFC7
:0408C200B86A154EAD
:0408C300B865F70C11
:0408C400B861ED9397
:0408C500B85DF9E140
:0408C600B85A18A262
:0408C700B8564BC311
:0408C800B85290860C
:0408C900B84EE9CA72
:0408CA00B84B542EA5
:0408CB00B847D0E07A
:0408CC00B8445EA826
:0408CD00B840FE121F
:0408CE00B83DAD9BE9
:0408CF00B83A6DCAFC
:0408D000B8373E33C4
:0408D100B8341E20F9
:0408D200B8310CFC31
:0408D300B82E0AD35E
:0408D400B82B173DE9
:0408D500B82832927B
:0408D600B8255BA244
:0408D700B822924E63
:0408D800B81FD7432B
:0408D900B81D28D549
:0408DA00B81A87378A
:0408DB00B817F2C296
:0408DC00B81569A63C
:0408DD00B812EDC69A
:0408DE00B8107D7958
:0408DF00B80E18ED4A
:0408E000B80BBFE1B1
:0408E100B80970F4EE
:0408E200B8072DE73F
:0408E300B804F55A06
:0408E400B802C75639
:0408E500B800A3E4D0
:0408E600B7FD143A0C
:0408E700B7F8F3C9A2
:0408E800B7F4E85623
:0408E900B7F0EE3E38
:0408EA00B7ED06CC94
:0408EB00B7E9325DDA
:0408EC00B7E56F6F8E
:0408ED00B7E1BEB3FE
:0408EE00B7DE1DB99B
:0408EF00B7DA8DCF18
:0408F000B7D70DC0A9
:0408F100B7D39F7466
:0408F200B7D040CE6D
:0408F300B7CCEF612E
:0408F400B7C9AF8C45
:0408F500B7C67D0401
:0408F600B7C35A4EDC
:0408F700B7C044FE44
:0408F800B7BD3E0941
:0408F900B7BA439FA8
:0408FA00B7B75757DE
:0408FB00B7B4789B7B
:0408FC00B7B1A6D614
:0408FD00B7AEE2139D
:0408FE00B7AC28CD9E
:0408FF00B7A97C25F4
:04090000B7A5B9AF2F
:04090100B7A0A516E0
:04090200B79BBD2DB5
:04090300B797001D85
:04090400B7926CC179
:04090500B78E00C3E6
:04090600B789BB44AE
:04090700B7859A7C9A
:04090800B7819D8591
:04090900B77B84A88C
:04090A00B77410F2BC
:04090B00B76CDC3CAD
:04090C00B765E46681
:04090D00B75F274861
:04090E00B758A2DE56
:04090F00B75255C5C1
:04091000B74C3CB7ED
:04091100B74655F898
:04091200B740A156F3
:04091300B73B1A9242
:04091400B735C1F042
:04091500B73095570B
:04091600B72B9289E0
:04091700B726B881C6
:04091800B7220623D9
:04091900B71D79B4D9
:04091A00B7191228CF
:04091B00B714CD72CE
:04091C00B710AB481D
:04091D00B70CA9C1A9
:04091E00B708C82A24
:04091F00B70505868D
:04092000B701605C5F
:04092100B6FBAF79F9
:04092200B6F4D680D1
:04092300B6EE320FEB
:04092400B6E7C1A6CB
:04092500B6E1838034
:04092600B6DB75B017
:04092700B6D595D6D6
:04092800B6CFE4273B
:04092900B6CA5D27C6
:04092A00B6C50095B9
:04092B00B6BFCCF097
:04092C00B6BAC0B9DE
:04092D00B6B5D9CCB6
:04092E00B6B118F650
:04092F00B6AC7B24C3
:04093000B6A8005A0B
:04093100B6A3A67152
:04093200B69F6D42BD
:04093300B69B5366B6
:04093400B697579E7D
:04093500B69379728A
:04093600B68FB7774A
:04093700B68C10E189
:04093800B68884D029
:04093900B6851288E5
:04093A00B681B97752
:04093B00B67CF12075
:04093C00B6769DDC12
:04093D00B6707845D3
:04093E00B66A7E39DE
:04093F00B664AF2AC1
:04094000B65F0A3163
:04094100B6598D0313
:04094200B65435581A
:04094300B64F03D1D7
:04094400B649F70CAD
:04094500B6450DF4B2
:04094600B640468AE7
:04094700B63BA0CC4F
:04094800B6371B5350
:04094900B632B52EDF
:04094A00B62E6D1C3C
:04094B00B62A42A0E6
:04094C00B626347621
:04094D00B622424745
:04094E00B61E6B1D49
:04094F00B61AAE4FD7
:04095000B6170A4587
:04095100B6137F1E3C
:04095200B6100B8C44
:04095300B60CAF36F9
:04095400B60969A8CF
:04095500B6063A2484
:04095600B6031F0ABB
:04095700B6001924A9
:04095800B5FA4E712D
:04095900B5F491550B
:04095A00B5EEFA2FCD
:04095B00B5E987C4AF
:04095C00B5E438AF17
:04095D00B5DF0C7482
:04095E00B5DA01FD08
:04095F00B5D5179261
:04096000B5D04DA61B
:04096100B5CBA27EF2
:04096200B5C715738D
:04096300B5C2A591E3
:04096400B5BE522E9C
:04096500B5BA1AA362
:04096600B5B5FD30F6
:04096700B5B1FA1C10
:04096800B5AE1155C2
:04096900B5AA405794
:04096A00B5A6875F48
:04096B00B5A2E578D4
:04096C00B59F5B27B1
:04096D00B59BE688C8
:04096E00B59887FAB7
:04096F00B5953D9469
:04097000B59207E253
:04097100B58EE5B8A2
:04097200B58BD77EEC
:04097300B588DB90D8
:04097400B585F1B2A2
:04097500B5831A6CC0
:04097600B58053F8FD
:04097700B57B3D13FC
:04097800B575F291CE
:04097900B570C83558
:04097A00B56BBD821A
:04097B00B566D10884
:04097C00B562015C03
:04097D00B55D4F35E0
:04097E00B558B79B16
:04097F00B5543DBF6F
:04098000B54FDD3E54
:04098100B54B96D20A
:04098200B54769A369
:04098300B5435469BB
:04098400B53F5824FF
:04098500B53B72EC20
:04098600B537A3C11D
:04098700B533EC6A2E
:04098800B53049C07D
:04098900B52CBBFDD1
:04098A00B529435BED
:04098B00B525DE159B
:04098C00B5228CB054
:04098D00B51F4E3014
:04098E00B51C23155C
:04098F00B519092568
:04099000B516015D3A
:04099100B5130A8E02
:04099200B51025195E
:04099300B50D4F57F8
:04099400B50A8A22F4
:04099500B507D3AA25
:04099600B5052D8AEC
:04099700B50295F31D
:04099800B5000CA7F3
:04099900B4FB22BECB
:04099A00B4F6485B0C
:04099B00B4F18946E4
:04099C00B4ECE3C113
:04099D00B4E8583032
:04099E00B4E3E522B7
:04099F00B4DF8C0E27
:0409A000B4DB49CCAF
:0409A100B4D71E9910
:0409A200B4D30AAE12
:0409A300B4CF0D368A
:0409A400B4CB24B5F7
:0409A500B4C751681A
:0409A600B4C39387BC
:0409A700B4BFE8FEF3
:0409A800B4BC522861
:0409A900B4B8CF43CC
:0409AA00B4B55F6C15
:0409AB00B4B2012DB4
:0409AC00B4AEB4E34E
:0409AD00B4AB7A9DD0
:0409AE00B4A851A3F5
:0409AF00B4A5394072
:0409B000B4A2310CB0
:0409B100B49F393A7C
:0409B200B49C4FD8CA
:0409B300B49976C9B4
:0409B400B496AC95B4
:0409B500B493F0A562
:0409B600B4914307AE
:0409B700B48EA3292E
:0409B800B48C11B535
:0409B900B4898D2848
:0409BA00B48714F4F6
:0409BB00B484A9E671
:0409BC00B4824B9125
:0409BD00B47FF1DA38
:0409BE00B47B65425F
:0409BF00B476EEA676
:0409C000B47290413C
:0409C100B46E47FFCA
:0409C200B46A154EB0
:0409C300B465F70C14
:0409C400B461ED939A
:0409C500B45DF9E143
:0409C600B45A18A265
:0409C700B4564BC314
:0409C800B45290860F
:0409C900B44EE9CA75
:0409CA00B44B542EA8
:0409CB00B447D0E07D
:0409CC00B4445EA829
:0409CD00B440FE1222
:0409CE00B43DAD9BEC
:0409CF00B43A6DCAFF
:0409D000B4373E33C7
:0409D100B4341E20FC
:0409D200B4310CFC34
:0409D300B42E0AD361
:0409D400B42B173DEC
:0409D500B42832927E
:0409D600B4255BA247
:0409D700B422924E66
:0409D800B41FD7432E
:0409D900B41D28D54C
:0409DA00B41A87378D
:0409DB00B417F2C299
:0409DC00B41569A63F
:0409DD00B412EDC69D
:0409DE00B4107D795B
:0409DF00B40E18ED4D
:0409E000B40BBFE1B4
:0409E100B40970F4F1
:0409E200B4072DE742
:0409E300B404F55A09
:0409E400B402C7563C
:0409E500B400A3E4D3
:0409E600B3FD143A0F
:0409E700B3F8F3C9A5
:0409E800B3F4E85626
:0409E900B3F0EE3E3B
:0409EA00B3ED06CC97
:0409EB00B3E9325DDD
:0409EC00B3E56F6F91
:0409ED00B3E1BEB301
:0409EE00B3DE1DB99E
:0409EF00B3DA8DCF1B
:0409F000B3D70DC0AC
:0409F100B3D39F7469
:0409F200B3D040CE70
:0409F300B3CCEF6131
:0409F400B3C9AF8C48
:0409F500B3C67D0404
:0409F600B3C35A4EDF
:0409F700B3C044FE47
:0409F800B3BD3E0944
:0409F900B3BA439FAB
:0409FA00B3B75757E1
:0409FB00B3B4789B7E
:0409FC00B3B1A6D617
:0409FD00B3AEE213A0
:0409FE00B3AC28CDA1
:0409FF00B3A97C25F7
:040A0000B3A5B9AF32
:040A0100B3A0A516E3
:040A0200B39BBD2DB8
:040A0300B397001D88
:040A0400B3926CC17C
:040A0500B38E00C3E9
:040A0600B389BB44B1
:040A0700B3859A7C9D
:040A0800B3819D8594
:040A0900B37B84A88F
:040A0A00B37410F2BF
:040A0B00B36CDC3CB0
:040A0C00B365E46684
:040A0D00B35F274864
:040A0E00B358A2DE59
:040A0F00B35255C5C4
:040A1000B34C3CB7F0
:040A1100B34655F89B
:040A1200B340A156F6
:040A1300B33B1A9245
:040A1400B335C1F045
:040A1500B33095570E
:040A1600B32B9289E3
:040A1700B326B881C9
:040A1800B3220623DC
:040A1900B31D79B4DC
:040A1A00B3191228D2
:040A1B00B314CD72D1
:040A1C00B310AB4820
:040A1D00B30CA9C1AC
:040A1E00B308C82A27
:040A1F00B305058690
:040A2000B301605C62
:040A2100B2FBAF79FC
:040A2200B2F4D680D4
:040A2300B2EE320FEE
:040A2400B2E7C1A6CE
:040A2500B2E1838037
:040A2600B2DB75B01A
:040A2700B2D595D6D9
:040A2800B2CFE4273E
:040A2900B2CA5D27C9
:040A2A00B2C50095BC
:040A2B00B2BFCCF09A
:040A2C00B2BAC0B9E1
:040A2D00B2B5D9CCB9
:040A2E00B2B118F653
:040A2F00B2AC7B24C6
:040A3000B2A8005A0E
:040A3100B2A3A67155
:040A3200B29F6D42C0
:040A3300B29B5366B9
:040A3400B297579E80
:040A3500B29379728D
:040A3600B28FB7774D
:040A3700B28C10E18C
:040A3800B28884D02C
:040A3900B2851288E8
:040A3A00B281B97755
:040A3B00B27CF12078
:040A3C00B2769DDC15
:040A3D00B2707845D6
:040A3E00B26A7E39E1
:040A3F00B264AF2AC4
:040A4000B25F0A3166
:040A4100B2598D0316
:040A4200B25435581D
:040A4300B24F03D1DA
:040A4400B249F70CB0
:040A4500B2450DF4B5
:040A4600B240468AEA
:040A4700B23BA0CC52
:040A4800B2371B5353
:040A4900B232B52EE2
:040A4A00B22E6D1C3F
:040A4B00B22A42A0E9
:040A4C00B226347624
:040A4D00B222424748
:040A4E00B21E6B1D4C
:040A4F00B21AAE4FDA
:040A5000B2170A458A
:040A5100B2137F1E3F
:040A5200B2100B8C47
:040A5300B20CAF36FC
:040A5400B20969A8D2
:040A5500B2063A2487
:040A5600B2031F0ABE
:040A5700B2001924AC
:040A5800B1FA4E7130
:040A5900B1F491550E
:040A5A00B1EEFA2FD0
:040A5B00B1E987C4B2
:040A5C00B1E438AF1A
:040A5D00B1DF0C7485
:040A5E00B1DA01FD0B
:040A5F00B1D5179264
:040A6000B1D04DA61E
:040A6100B1CBA27EF5
:040A6200B1C7157390
:040A6300B1C2A591E6
:040A6400B1BE522E9F
:040A6500B1BA1AA365
:040A6600B1B5FD30F9
:040A6700B1B1FA1C13
:040A6800B1AE1155C5
:040A6900B1AA405797
:040A6A00B1A6875F4B
:040A6B00B1A2E578D7
:040A6C00B19F5B27B4
:040A6D00B19BE688CB
:040A6E00B19887FABA
:040A6F00B1953D946C
:040A7000B19207E256
:040A7100B18EE5B8A5
:040A7200B18BD77EEF
:040A7300B188DB90DB
:040A7400B185F1B2A5
:040A7500B1831A6CC3
:040A7600B18053F800
:040A7700B17B3D13FF
:040A7800B175F291D1
:040A7900B170C8355B
:040A7A00B16BBD821D
:040A7B00B166D10887
:040A7C00B162015C06
:040A7D00B15D4F35E3
:040A7E00B158B79B19
:040A7F00B1543DBF72
:040A8000B14FDD3E57
:040A8100B14B96D20D
:040A8200B14769A36C
:040A8300B1435469BE
:040A8400B13F582402
:040A8500B13B72EC23
:040A8600B137A3C120
:040A8700B133EC6A31
:040A8800B13049C080
:040A8900B12CBBFDD4
:040A8A00B129435BF0
:040A8B00B125DE159E
:040A8C00B1228CB057
:040A8D00B11F4E3017
:040A8E00B11C23155F
:040A8F00B11909256B
:040A9000B116015D3D
:040A9100B1130A8E05
:040A9200B110251961
:040A9300B10D4F57FB
:040A9400B10A8A22F7
:040A9500B107D3AA28
:040A9600B1052D8AEF
:040A9700B10295F320
:040A9800B1000CA7F6
:040A9900B0FB22BECE
:040A9A00B0F6485B0F
:040A9B00B0F18946E7
:040A9C00B0ECE3C116
:040A9D00B0E8583035
:040A9E00B0E3E522BA
:040A9F00B0DF8C0E2A
:040AA000B0DB49CCB2
:040AA100B0D71E9913
:040AA200B0D30AAE15
:040AA300B0CF0D368D
:040AA400B0CB24B5FA
:040AA500B0C751681D
:040AA600B0C39387BF
:040AA700B0BFE8FEF6
:040AA800B0BC522864
:040AA900B0B8CF43CF
:040AAA00B0B55F6C18
:040AAB00B0B2012DB7
:040AAC00B0AEB4E351
:040AAD00B0AB7A9DD3
:040AAE00B0A851A3F8
:040AAF00B0A5394075
:040AB000B0A2310CB3
:040AB100B09F393A7F
:040AB200B09C4FD8CD
:040AB300B09976C9B7
:040AB400B096AC95B7
:040AB500B093F0A565
:040AB600B0914307B1
:040AB700B08EA32931
:040AB800B08C11B538
:040AB900B0898D284B
:040ABA00B08714F4F9
:040ABB00B084A9E674
:040ABC00B0824B9128
:040ABD00B07FF1DA3B
:040ABE00B07B654262
:040ABF00B076EEA679
:040AC000B07290413F
:040AC100B06E47FFCD
:040AC200B06A154EB3
:040AC300B065F70C17
:040AC400B061ED939D
:040AC500B05DF9E146
:040AC600B05A18A268
:040AC700B0564BC317
:040AC800B052908612
:040AC900B04EE9CA78
:040ACA00B04B542EAB
:040ACB00B047D0E080
:040ACC00B0445EA82C
:040ACD00B040FE1225
:040ACE00B03DAD9BEF
:040ACF00B03A6DCA02
:040AD000B0373E33CA
:040AD100B0341E20FF
:040AD200B0310CFC37
:040AD300B02E0AD364
:040AD400B02B173DEF
:040AD500B028329281
:040AD600B0255BA24A
:040AD700B022924E69
:040AD800B01FD74331
:040AD900B01D28D54F
:040ADA00B01A873790
:040ADB00B017F2C29C
:040ADC00B01569A642
:040ADD00B012EDC6A0
:040ADE00B0107D795E
:040ADF00B00E18ED50
:040AE000B00BBFE1B7
:040AE100B00970F4F4
:040AE200B0072DE745
:040AE300B004F55A0C
:040AE400B002C7563F
:040AE500B000A3E4D6
:040AE600AFFD143A12
:040AE700AFF8F3C9A8
:040AE800AFF4E85629
:040AE900AFF0EE3E3E
:040AEA00AFED06CC9A
:040AEB00AFE9325DE0
:040AEC00AFE56F6F94
:040AED00AFE1BEB304
:040AEE00AFDE1DB9A1
:040AEF00AFDA8DCF1E
:040AF000AFD70DC0AF
:040AF100AFD39F746C
:040AF200AFD040CE73
:040AF300AFCCEF6134
:040AF400AFC9AF8C4B
:040AF500AFC67D0407
:040AF600AFC35A4EE2
:040AF700AFC044FE4A
:040AF800AFBD3E0947
:040AF900AFBA439FAE
:040AFA00AFB75757E4
:040AFB00AFB4789B81
:040AFC00AFB1A6D61A
:040AFD00AFAEE213A3
:040AFE00AFAC28CDA4
:040AFF00AFA97C25FA
:040B0000AFA5B9AF35
:040B0100AFA0A516E6
:040B0200AF9BBD2DBB
:040B0300AF97001D8B
:040B0400AF926CC17F
:040B0500AF8E00C3EC
:040B0600AF89BB44B4
:040B0700AF859A7CA0
:040B0800AF819D8597
:040B0900AF7B84A892
:040B0A00AF7410F2C2
:040B0B00AF6CDC3CB3
:040B0C00AF65E46687
:040B0D00AF5F274867
:040B0E00AF58A2DE5C
:040B0F00AF5255C5C7
:040B1000AF4C3CB7F3
:040B1100AF4655F89E
:040B1200AF40A156F9
:040B1300AF3B1A9248
:040B1400AF35C1F048
:040B1500AF30955711
:040B1600AF2B9289E6
:040B1700AF26B881CC
:040B1800AF220623DF
:040B1900AF1D79B4DF
:040B1A00AF191228D5
:040B1B00AF14CD72D4
:040B1C00AF10AB4823
:040B1D00AF0CA9C1AF
:040B1E00AF08C82A2A
:040B1F00AF05058693
:040B2000AF01605C65
:040B2100AEFBAF79FF
:040B2200AEF4D680D7
:040B2300AEEE320FF1
:040B2400AEE7C1A6D1
:040B2500AEE183803A
:040B2600AEDB75B01D
:040B2700AED595D6DC
:040B2800AECFE42741
:040B2900AECA5D27CC
:040B2A00AEC50095BF
:040B2B00AEBFCCF09D
:040B2C00AEBAC0B9E4
:040B2D00AEB5D9CCBC
:040B2E00AEB118F656
:040B2F00AEAC7B24C9
:040B3000AEA8005A11
:040B3100AEA3A67158
:040B3200AE9F6D42C3
:040B3300AE9B5366BC
:040B3400AE97579E83
:040B3500AE93797290
:040B3600AE8FB77750
:040B3700AE8C10E18F
:040B3800AE8884D02F
:040B3900AE851288EB
:040B3A00AE81B97758
:040B3B00AE7CF1207B
:040B3C00AE769DDC18
:040B3D00AE707845D9
:040B3E00AE6A7E39E4
:040B3F00AE64AF2AC7
:040B4000AE5F0A3169
:040B4100AE598D0319
:040B4200AE54355820
:040B4300AE4F03D1DD
:040B4400AE49F70CB3
:040B4500AE450DF4B8
:040B4600AE40468AED
:040B4700AE3BA0CC55
:040B4800AE371B5356
:040B4900AE32B52EE5
:040B4A00AE2E6D1C42
:040B4B00AE2A42A0EC
:040B4C00AE26347627
:040B4D00AE2242474B
:040B4E00AE1E6B1D4F
:040B4F00AE1AAE4FDD
:040B5000AE170A458D
:040B5100AE137F1E42
:040B5200AE100B8C4A
:040B5300AE0CAF36FF
:040B5400AE0969A8D5
:040B5500AE063A248A
:040B5600AE031F0AC1
:040B5700AE001924AF
:040B5800ADFA4E7133
:040B5900ADF4915511
:040B5A00ADEEFA2FD3
:040B5B00ADE987C4B5
:040B5C00ADE438AF1D
:040B5D00ADDF0C7488
:040B5E00ADDA01FD0E
:040B5F00ADD5179267
:040B6000ADD04DA621
:040B6100ADCBA27EF8
:040B6200ADC7157393
:040B6300ADC2A591E9
:040B6400ADBE522EA2
:040B6500ADBA1AA368
:040B6600ADB5FD30FC
:040B6700ADB1FA1C16
:040B6800ADAE1155C8
:040B6900ADAA40579A
:040B6A00ADA6875F4E
:040B6B00ADA2E578DA
:040B6C00AD9F5B27B7
:040B6D00AD9BE688CE
:040B6E00AD9887FABD
:040B6F00AD953D946F
:040B7000AD9207E259
:040B7100AD8EE5B8A8
:040B7200AD8BD77EF2
:040B7300AD88DB90DE
:040B7400AD85F1B2A8
:040B7500AD831A6CC6
:040B7600AD8053F803
:040B7700AD7B3D1302
:040B7800AD75F291D4
:040B7900AD70C8355E
:040B7A00AD6BBD8220
:040B7B00AD66D1088A
:040B7C00AD62015C09
:040B7D00AD5D4F35E6
:040B7E00AD58B79B1C
:040B7F00AD543DBF75
:040B8000AD4FDD3E5A
:040B8100AD4B96D210
:040B8200AD4769A36F
:040B8300AD435469C1
:040B8400AD3F582405
:040B8500AD3B72EC26
:040B8600AD37A3C123
:040B8700AD33EC6A34
:040B8800AD3049C083
:040B8900AD2CBBFDD7
:040B8A00AD29435BF3
:040B8B00AD25DE15A1
:040B8C00AD228CB05A
:040B8D00AD1F4E301A
:040B8E00AD1C231562
:040B8F00AD1909256E
:040B9000AD16015D40
:040B9100AD130A8E08
:040B9200AD10251964
:040B9300AD0D4F57FE
:040B9400AD0A8A22FA
:040B9500AD07D3AA2B
:040B9600AD052D8AF2
:040B9700AD0295F323
:040B9800AD000CA7F9
:040B9900ACFB22BED1
:040B9A00ACF6485B12
:040B9B00ACF18946EA
:040B9C00ACECE3C119
:040B9D00ACE8583038
:040B9E00ACE3E522BD
:040B9F00ACDF8C0E2D
:040BA000ACDB49CCB5
:040BA100ACD71E9916
:040BA200ACD30AAE18
:040BA300ACCF0D3690
:040BA400ACCB24B5FD
:040BA500ACC7516820
:040BA600ACC39387C2
:040BA700ACBFE8FEF9
:040BA800ACBC522867
:040BA900ACB8CF43D2
:040BAA00ACB55F6C1B
:040BAB00ACB2012DBA
:040BAC00ACAEB4E354
:040BAD00ACAB7A9DD6
:040BAE00ACA851A3FB
:040BAF00ACA5394078
:040BB000ACA2310CB6
:040BB100AC9F393A82
:040BB200AC9C4FD8D0
:040BB300AC9976C9BA
:040BB400AC96AC95BA
:040BB500AC93F0A568
:040BB600AC914307B4
:040BB700AC8EA32934
:040BB800AC8C11B53B
:040BB900AC898D284E
:040BBA00AC8714F4FC
:040BBB00AC84A9E677
:040BBC00AC824B912B
:040BBD00AC7FF1DA3E
:040BBE00AC7B654265
:040BBF00AC76EEA67C
:040BC000AC72904142
:040BC100AC6E47FFD0
:040BC200AC6A154EB6
:040BC300AC65F70C1A
:040BC400AC61ED93A0
:040BC500AC5DF9E149
:040BC600AC5A18A26B
:040BC700AC564BC31A
:040BC800AC52908615
:040BC900AC4EE9CA7B
:040BCA00AC4B542EAE
:040BCB00AC47D0E083
:040BCC00AC445EA82F
:040BCD00AC40FE1228
:040BCE00AC3DAD9BF2
:040BCF00AC3A6DCA05
:040BD000AC373E33CD
:040BD100AC341E2002
:040BD200AC310CFC3A
:040BD300AC2E0AD367
:040BD400AC2B173DF2
:040BD500AC28329284
:040BD600AC255BA24D
:040BD700AC22924E6C
:040BD800AC1FD74334
:040BD900AC1D28D552
:040BDA00AC1A873793
:040BDB00AC17F2C29F
:040BDC00AC1569A645
:040BDD00AC12EDC6A3
:040BDE00AC107D7961
:040BDF00AC0E18ED53
:040BE000AC0BBFE1BA
:040BE100AC0970F4F7
:040BE200AC072DE748
:040BE300AC04F55A0F
:040BE400AC02C75642
:040BE500AC00A3E4D9
:040BE600ABFD143A15
:040BE700ABF8F3C9AB
:040BE800ABF4E8562C
:040BE900ABF0EE3E41
:040BEA00ABED06CC9D
:040BEB00ABE9325DE3
:040BEC00ABE56F6F97
:040BED00ABE1BEB307
:040BEE00ABDE1DB9A4
:040BEF00ABDA8DCF21
:040BF000ABD70DC0B2
:040BF100ABD39F746F
:040BF200ABD040CE76
:040BF300ABCCEF6137
:040BF400ABC9AF8C4E
:040BF500ABC67D040A
:040BF600ABC35A4EE5
:040BF700ABC044FE4D
:040BF800ABBD3E094A
:040BF900ABBA439FB1
:040BFA00ABB75757E7
:040BFB00ABB4789B84
:040BFC00ABB1A6D61D
:040BFD00ABAEE213A6
:040BFE00ABAC28CDA7
:040BFF00ABA97C25FD
:040C0000ABA5B9AF38
:040C0100ABA0A516E9
:040C0200AB9BBD2DBE
:040C0300AB97001D8E
:040C0400AB926CC182
:040C0500AB8E00C3EF
:040C0600AB89BB44B7
:040C0700AB859A7CA3
:040C0800AB819D859A
:040C0900AB7B84A895
:040C0A00AB7410F2C5
:040C0B00AB6CDC3CB6
:040C0C00AB65E4668A
:040C0D00AB5F27486A
:040C0E00AB58A2DE5F
:040C0F00AB5255C5CA
:040C1000AB4C3CB7F6
:040C1100AB4655F8A1
:040C1200AB40A156FC
:040C1300AB3B1A924B
:040C1400AB35C1F04B
:040C1500AB30955714
:040C1600AB2B9289E9
:040C1700AB26B881CF
:040C1800AB220623E2
:040C1900AB1D79B4E2
:040C1A00AB191228D8
:040C1B00AB14CD72D7
:040C1C00AB10AB4826
:040C1D00AB0CA9C1B2
:040C1E00AB08C82A2D
:040C1F00AB05058696
:040C2000AB01605C68
:040C2100AAFBAF7902
:040C2200AAF4D680DA
:040C2300AAEE320FF4
:040C2400AAE7C1A6D4
:040C2500AAE183803D
:040C2600AADB75B020
:040C2700AAD595D6DF
:040C2800AACFE42744
:040C2900AACA5D27CF
:040C2A00AAC50095C2
:040C2B00AABFCCF0A0
:040C2C00AABAC0B9E7
:040C2D00AAB5D9CCBF
:040C2E00AAB118F659
:040C2F00AAAC7B24CC
:040C3000AAA8005A14
:040C3100AAA3A6715B
:040C3200AA9F6D42C6
:040C3300AA9B5366BF
:040C3400AA97579E86
:040C3500AA93797293
:040C3600AA8FB77753
:040C3700AA8C10E192
:040C3800AA8884D032
:040C3900AA851288EE
:040C3A00AA81B9775B
:040C3B00AA7CF1207E
:040C3C00AA769DDC1B
:040C3D00AA707845DC
:040C3E00AA6A7E39E7
:040C3F00AA64AF2ACA
:040C4000AA5F0A316C
:040C4100AA598D031C
:040C4200AA54355823
:040C4300AA4F03D1E0
:040C4400AA49F70CB6
:040C4500AA450DF4BB
:040C4600AA40468AF0
:040C4700AA3BA0CC58
:040C4800AA371B5359
:040C4900AA32B52EE8
:040C4A00AA2E6D1C45
:040C4B00AA2A42A0EF
:040C4C00AA2634762A
:040C4D00AA2242474E
:040C4E00AA1E6B1D52
:040C4F00AA1AAE4FE0
:040C5000AA170A4590
:040C5100AA137F1E45
:040C5200AA100B8C4D
:040C5300AA0CAF3602
:040C5400AA0969A8D8
:040C5500AA063A248D
:040C5600AA031F0AC4
:040C5700AA001924B2
:040C5800A9FA4E7136
:040C5900A9F4915514
:040C5A00A9EEFA2FD6
:040C5B00A9E987C4B8
:040C5C00A9E438AF20
:040C5D00A9DF0C748B
:040C5E00A9DA01FD11
:040C5F00A9D517926A
:040C6000A9D04DA624
:040C6100A9CBA27EFB
:040C6200A9C7157396
:040C6300A9C2A591EC
:040C6400A9BE522EA5
:040C6500A9BA1AA36B
:040C6600A9B5FD30FF
:040C6700A9B1FA1C19
:040C6800A9AE1155CB
:040C6900A9AA40579D
:040C6A00A9A6875F51
:040C6B00A9A2E578DD
:040C6C00A99F5B27BA
:040C6D00A99BE688D1
:040C6E00A99887FAC0
:040C6F00A9953D9472
:040C7000A99207E25C
:040C7100A98EE5B8AB
:040C7200A98BD77EF5
:040C7300A988DB90E1
:040C7400A985F1B2AB
:040C7500A9831A6CC9
:040C7600A98053F806
:040C7700A97B3D1305
:040C7800A975F291D7
:040C7900A970C83561
:040C7A00A96BBD8223
:040C7B00A966D1088D
:040C7C00A962015C0C
:040C7D00A95D4F35E9
:040C7E00A958B79B1F
:040C7F00A9543DBF78
