:04000000D1BE5ED936
:04000100D1BAB38E2F
:04000200D1B71E2C28
:04000300D1B39D4890
:04000400D1B030E562
:04000500D1ACD9475A
:04000600D1A994E008
:04000700D1A662E537
:04000800D1A34376C7
:04000900D1A035E964
:04000A00D19D3A3812
:04000B00D19A4F1A1D
:04000C00D197754AC9
:04000D00D194AABD23
:04000E00D191F09C00
:04000F00D18F4553F5
:04001000D18CA923C3
:04001100D18A1B3441
:04001200D1879C3EB8
:04001300D18529DF8B
:04001400D182C5E0F0
:04001500D1806ECB5D
:04001600D17C49BA96
:04001700D177CDDEF2
:04001800D1736B62D3
:04001900D16F20453E
:04001A00D16AEC6358
:04001B00D166CDFFDE
:04001C00D162C7677F
:04001D00D15ED55B80
:04001E00D15AF89922
:04001F00D15730562F
:04002000D1537B221B
:04002100D14FDAFAE7
:04002200D14C4DD19F
:04002300D148D19D52
:04002400D1456991C8
:04002500D14211C0F3
:04002600D13ECBD428
:04002700D13B960C27
:04002800D138725DFC
:04002900D1355D79F7
:04002A00D132590373
:04002B00D12F63D797
:04002C00D12C7D480E
:04002D00D129A590A0
:04002E00D126DCC734
:04002F00D124214E69
:04003000D12173DA8D
:04003100D11ED3DF2A
:04003200D11C400D90
:04003300D119BA50D5
:04003400D117401F81
:04003500D114D2C34D
:04003600D11271155D
:04003700D1101B24A5
:04003800D10DD0B264
:04003900D10B910A4C
:04003A00D1095C1577
:04003B00D10732A710
:04003C00D10512F6E2
:04003D00D102FD8669
:04003E00D100F2B447
:04003F00D0FDE1B956
:04004000D0F9F29170
:04004100D0F615914F
:04004200D0F24A8925
:04004300D0EE91402A
:04004400D0EAEA1BF9
:04004500D0E754E6C6
:04004600D0E3CEA293
:04004700D0E0593E6E
:04004800D0DCF434E0
:04004900D0D99EACC0
:04004A00D0D6590CA7
:04004B00D0D3222AC2
:04004C00D0CFF9CD4B
:04004D00D0CCE057DC
:04004E00D0C9D451F0
:04004F00D0C6D70838
:04005000D0C3E7F240
:04005100D0C104A96D
:04005200D0BE2F6687
:04005300D0BB65C4F5
:04005400D0B8A90E69
:04005500D0B5F9A584
:04005600D0B354814E
:04005700D0B0BC2B3E
:04005800D0AE2ED721
:04005900D0ABAE205A
:04005A00D0A9374CA6
:04005B00D0A6CBA6BA
:04005C00D0A46A03BF
:04005D00D0A2130911
:04005E00D09FC6C7A2
:04005F00D09D840E9E
:04006000D09B4B8D59
:04006100D0991C0E08
:04006200D096F5A09F
:04006300D094D8EC71
:04006400D092C64E22
:04006500D090BB304C
:04006600D08EB9502F
:04006700D08CBFF585
:04006800D08ACF2744
:04006900D088E62D28
:04006A00D08705AC8A
:04006B00D0852BD839
:04006C00D0835AE003
:04006D00D081916D40
:04006E00D07F9F5B45
:04006F00D07C288F8A
:04007000D078C1A0E3
:04007100D0756734AB
:04007200D0721D1813
:04007300D06EDF0765
:04007400D06BAEEAB5
:04007500D0688B9430
:04007600D06574CB12
:04007700D0626A9950
:04007800D05F6C7178
:04007900D05C7A617C
:04007A00D059956361
:04007B00D056BB118F
:04007C00D053EBC5AD
:04007D00D05129B283
:04007E00D04E70E808
:04007F00D04BC2FDA3
:04008000D0491F5EE6
:04008100D0468706D8
:04008200D043F8C4AB
:04008300D04174A450
:04008400D03EFA620E
:04008500D03C8AA73A
:04008600D03A23A7A2
:04008700D037C608A0
:04008800D035718777
:04008900D03325E16A
:04008A00D030E3B9D6
:04008B00D02EAA3099
:04008C00D02C7900FB
:04008D00D02A4EAA7D
:04008E00D0282FD176
:04008F00D026174A16
:04009000D02407DD94
:04009100D021FECFAD
:04009200D01FFEA0DD
:04009300D01E057CFA
:04009400D01C13BFAA
:04009500D01A2883D2
:04009600D01845A891
:04009700D01669AA6C
:04009800D014949755
:04009900D012C66E4D
:04009A00D010FF3E45
:04009B00D00F3E6BD9
:04009C00D00D8400FF
:04009D00D00BD000B4
:04009E00D00A21D78C
:04009F00D0087A7A91
:0400A000D006D8FEB0
:0400A100D0053D6CDD
:0400A200D003A7CA16
:0400A300D00217D19F
:0400A400D0008E708A
:0400A500CFFE11D6A3
:0400A600CFFB155126
:0400A700CFF8209AD4
:0400A800CFF538094F
:0400A900CFF25898A2
:0400AA00CFEF85FF10
:0400AB00CFECBBAE2D
:0400AC00CFE9FBD6C7
:0400AD00CFE745E470
:0400AE00CFE498A45F
:0400AF00CFE1F64C5B
:0400B000CFDF5B81C2
:0400B100CFDCCBAC29
:0400B200CFDA44B4A9
:0400B300CFD7C5B32B
:0400B400CFD54F9EB7
:0400B500CFD2E1E0E5
:0400B600CFD07DBF6B
:0400B700CFCE207B0D
:0400B800CFCBCC4995
:0400B900CFC97FF03C
:0400BA00CFC73B7CF5
:0400BB00CFC4FEF4BC
:0400BC00CFC2CA6085
:0400BD00CFC09D779C
:0400BE00CFBE7756E4
:0400BF00CFBC58A1B9
:0400C000CFBA41FF73
:0400C100CFB8323949
:0400C200CFB6290884
:0400C300CFB427107F
:0400C400CFB22ACEBF
:0400C500CFB03584FF
:0400C600CFAE47D69C
:0400C700CFAC6091C9
:0400C800CFAA7F6AD2
:0400C900CFA8A3CA4F
:0400CA00CFA6CF905E
:0400CB00CFA5009B22
:0400CC00CFA3387A0C
:0400CD00CFA174BD8E
:0400CE00CF9FB87D8B
:0400CF00CF9E00AC14
:0400D000CF9C4F274B
:0400D100CF9AA3A778
:0400D200CF98FCF4D3
:0400D300CF975B6305
:0400D400CF95BFE520
:0400D500CF94294358
:0400D600CF9297D45A
:0400D700CF910B9822
:0400D800CF8F8497AB
:0400D900CF8E01E7DE
:0400DA00CF8C83DE66
:0400DB00CF8B0BBB01
:0400DC00CF89975AD7
:0400DD00CF88284957
:0400DE00CF86BD0507
:0400DF00CF8557175B
:0400E000CF83F5EDE8
:0400E100CF8297A98A
:0400E200CF813F1C6F
:0400E300CF7FD441B6
:0400E400CF7D334950
:0400E500CF7A9A1F15
:0400E600CF7809695D
:0400E700CF75812E22
:0400E800CF7300D4FE
:0400E900CF70868FBF
:0400EA00CF6E14D9E8
:0400EB00CF6BAD9793
:0400EC00CF694A9EF0
:0400ED00CF66F04C9E
:0400EE00CF649C2E11
:0400EF00CF624EE8A6
:0400F000CF600AF8DB
:0400F100CF5DCDF121
:0400F200CF5B94BB91
:0400F300CF5964F18C
:0400F400CF573AE4C4
:0400F500CF551821AA
:0400F600CF52FAD714
:0400F700CF50E5857C
:0400F800CF4ED4C84B
:0400F900CF4CCB20FD
:0400FA00CF4AC7A67C
:0400FB00CF48C9BF62
:0400FC00CF46D2AE6B
:0400FD00CF44E1DB30
:0400FE00CF42F520D8
:0400FF00CF410F9B43
:04010000CF3E5ED9B7
:04010100CF3AB38EB0
:04010200CF371E2CA9
:04010300CF339D4811
:04010400CF3030E5E3
:04010500CF2CD947DB
:04010600CF2994E089
:04010700CF2662E5B8
:04010800CF23437648
:04010900CF2035E9E5
:04010A00CF1D3A3893
:04010B00CF1A4F1A9E
:04010C00CF17754A4A
:04010D00CF14AABDA4
:04010E00CF11F09C81
:04010F00CF0F455376
:04011000CF0CA92344
:04011100CF0A1B34C2
:04011200CF079C3E39
:04011300CF0529DF0C
:04011400CF02C5E071
:04011500CF006ECBDE
:04011600CEFC49BA18
:04011700CEF7CDDE74
:04011800CEF36B6255
:04011900CEEF2045C0
:04011A00CEEAEC63DA
:04011B00CEE6CDFF60
:04011C00CEE2C76701
:04011D00CEDED55B02
:04011E00CEDAF899A4
:04011F00CED73056B1
:04012000CED37B229D
:04012100CECFDAFA69
:04012200CECC4DD121
:04012300CEC8D19DD4
:04012400CEC569914A
:04012500CEC211C075
:04012600CEBECBD4AA
:04012700CEBB960CA9
:04012800CEB8725D7E
:04012900CEB55D7979
:04012A00CEB25903F5
:04012B00CEAF63D719
:04012C00CEAC7D4890
:04012D00CEA9A59022
:04012E00CEA6DCC7B6
:04012F00CEA4214EEB
:04013000CEA173DA0F
:04013100CE9ED3DFAC
:04013200CE9C400D12
:04013300CE99BA5057
:04013400CE97401F03
:04013500CE94D2C3CF
:04013600CE927115DF
:04013700CE901B2427
:04013800CE8DD0B2E6
:04013900CE8B910ACE
:04013A00CE895C15F9
:04013B00CE8732A792
:04013C00CE8512F664
:04013D00CE82FD86EB
:04013E00CE80F2B4C9
:04013F00CE7DE1B9D7
:04014000CE79F291F1
:04014100CE761591D0
:04014200CE724A89A6
:04014300CE6E9140AB
:04014400CE6AEA1B7A
:04014500CE6754E647
:04014600CE63CEA214
:04014700CE60593EEF
:04014800CE5CF43461
:04014900CE599EAC41
:04014A00CE56590C28
:04014B00CE53222A43
:04014C00CE4FF9CDCC
:04014D00CE4CE0575D
:04014E00CE49D45171
:04014F00CE46D708B9
:04015000CE43E7F2C1
:04015100CE4104A9EE
:04015200CE3E2F6608
:04015300CE3B65C476
:04015400CE38A90EEA
:04015500CE35F9A505
:04015600CE335481CF
:04015700CE30BC2BBF
:04015800CE2E2ED7A2
:04015900CE2BAE20DB
:04015A00CE29374C27
:04015B00CE26CBA63B
:04015C00CE246A0340
:04015D00CE22130992
:04015E00CE1FC6C723
:04015F00CE1D840E1F
:04016000CE1B4B8DDA
:04016100CE191C0E89
:04016200CE16F5A020
:04016300CE14D8ECF2
:04016400CE12C64EA3
:04016500CE10BB30CD
:04016600CE0EB950B0
:04016700CE0CBFF506
:04016800CE0ACF27C5
:04016900CE08E62DA9
:04016A00CE0705AC0B
:04016B00CE052BD8BA
:04016C00CE035AE084
:04016D00CE01916DC1
:04016E00CDFF9F5BC7
:04016F00CDFC288F0C
:04017000CDF8C1A065
:04017100CDF567342D
:04017200CDF21D1895
:04017300CDEEDF07E7
:04017400CDEBAEEA37
:04017500CDE88B94B2
:04017600CDE574CB94
:04017700CDE26A99D2
:04017800CDDF6C71FA
:04017900CDDC7A61FE
:04017A00CDD99563E3
:04017B00CDD6BB1111
:04017C00CDD3EBC52F
:04017D00CDD129B205
:04017E00CDCE70E88A
:04017F00CDCBC2FD25
:04018000CDC91F5E68
:04018100CDC687065A
:04018200CDC3F8C42D
:04018300CDC174A4D2
:04018400CDBEFA6290
:04018500CDBC8AA7BC
:04018600CDBA23A724
:04018700CDB7C60822
:04018800CDB57187F9
:04018900CDB325E1EC
:04018A00CDB0E3B958
:04018B00CDAEAA301B
:04018C00CDAC79007D
:04018D00CDAA4EAAFF
:04018E00CDA82FD1F8
:04018F00CDA6174A98
:04019000CDA407DD16
:04019100CDA1FECF2F
:04019200CD9FFEA05F
:04019300CD9E057C7C
:04019400CD9C13BF2C
:04019500CD9A288354
:04019600CD9845A813
:04019700CD9669AAEE
:04019800CD949497D7
:04019900CD92C66ECF
:04019A00CD90FF3EC7
:04019B00CD8F3E6B5B
:04019C00CD8D840081
:04019D00CD8BD00036
:04019E00CD8A21D70E
:04019F00CD887A7A13
:0401A000CD86D8FE32
:0401A100CD853D6C5F
:0401A200CD83A7CA98
:0401A300CD8217D121
:0401A400CD808E700C
:0401A500CD7E11D624
:0401A600CD7B1551A7
:0401A700CD78209A55
:0401A800CD753809D0
:0401A900CD72589823
:0401AA00CD6F85FF91
:0401AB00CD6CBBAEAE
:0401AC00CD69FBD648
:0401AD00CD6745E4F1
:0401AE00CD6498A4E0
:0401AF00CD61F64CDC
:0401B000CD5F5B8143
:0401B100CD5CCBACAA
:0401B200CD5A44B42A
:0401B300CD57C5B3AC
:0401B400CD554F9E38
:0401B500CD52E1E066
:0401B600CD507DBFEC
:0401B700CD4E207B8E
:0401B800CD4BCC4916
:0401B900CD497FF0BD
:0401BA00CD473B7C76
:0401BB00CD44FEF43D
:0401BC00CD42CA6006
:0401BD00CD409D771D
:0401BE00CD3E775665
:0401BF00CD3C58A13A
:0401C000CD3A41FFF4
:0401C100CD383239CA
:0401C200CD36290805
:0401C300CD34271000
:0401C400CD322ACE40
:0401C500CD30358480
:0401C600CD2E47D61D
:0401C700CD2C60914A
:0401C800CD2A7F6A53
:0401C900CD28A3CAD0
:0401CA00CD26CF90DF
:0401CB00CD25009BA3
:0401CC00CD23387A8D
:0401CD00CD2174BD0F
:0401CE00CD1FB87D0C
:0401CF00CD1E00AC95
:0401D000CD1C4F27CC
:0401D100CD1AA3A7F9
:0401D200CD18FCF454
:0401D300CD175B6386
:0401D400CD15BFE5A1
:0401D500CD142943D9
:0401D600CD1297D4DB
:0401D700CD110B98A3
:0401D800CD0F84972C
:0401D900CD0E01E75F
:0401DA00CD0C83DEE7
:0401DB00CD0B0BBB82
:0401DC00CD09975A58
:0401DD00CD082849D8
:0401DE00CD06BD0588
:0401DF00CD055717DC
:0401E000CD03F5ED69
:0401E100CD0297A90B
:0401E200CD013F1CF0
:0401E300CCFFD44138
:0401E400CCFD3349D2
:0401E500CCFA9A1F97
:0401E600CCF80969DF
:0401E700CCF5812EA4
:0401E800CCF300D480
:0401E900CCF0868F41
:0401EA00CCEE14D96A
:0401EB00CCEBAD9715
:0401EC00CCE94A9E72
:0401ED00CCE6F04C20
:0401EE00CCE49C2E93
:0401EF00CCE24EE828
:0401F000CCE00AF85D
:0401F100CCDDCDF1A3
:0401F200CCDB94BB13
:0401F300CCD964F10E
:0401F400CCD73AE446
:0401F500CCD518212C
:0401F600CCD2FAD796
:0401F700CCD0E585FE
:0401F800CCCED4C8CD
:0401F900CCCCCB207F
:0401FA00CCCAC7A6FE
:0401FB00CCC8C9BFE4
:0401FC00CCC6D2AEED
:0401FD00CCC4E1DBB2
:0401FE00CCC2F5205A
:0401FF00CCC10F9BC5
:04020000CCBE5ED939
:04020100CCBAB38E32
:04020200CCB71E2C2B
:04020300CCB39D4893
:04020400CCB030E565
:04020500CCACD9475D
:04020600CCA994E00B
:04020700CCA662E53A
:04020800CCA34376CA
:04020900CCA035E967
:04020A00CC9D3A3815
:04020B00CC9A4F1A20
:04020C00CC97754ACC
:04020D00CC94AABD26
:04020E00CC91F09C03
:04020F00CC8F4553F8
:04021000CC8CA923C6
:04021100CC8A1B3444
:04021200CC879C3EBB
:04021300CC8529DF8E
:04021400CC82C5E0F3
:04021500CC806ECB60
:04021600CC7C49BA99
:04021700CC77CDDEF5
:04021800CC736B62D6
:04021900CC6F204541
:04021A00CC6AEC635B
:04021B00CC66CDFFE1
:04021C00CC62C76782
:04021D00CC5ED55B83
:04021E00CC5AF89925
:04021F00CC57305632
:04022000CC537B221E
:04022100CC4FDAFAEA
:04022200CC4C4DD1A2
:04022300CC48D19D55
:04022400CC456991CB
:04022500CC4211C0F6
:04022600CC3ECBD42B
:04022700CC3B960C2A
:04022800CC38725DFF
:04022900CC355D79FA
:04022A00CC32590376
:04022B00CC2F63D79A
:04022C00CC2C7D4811
:04022D00CC29A590A3
:04022E00CC26DCC737
:04022F00CC24214E6C
:04023000CC2173DA90
:04023100CC1ED3DF2D
:04023200CC1C400D93
:04023300CC19BA50D8
:04023400CC17401F84
:04023500CC14D2C350
:04023600CC12711560
:04023700CC101B24A8
:04023800CC0DD0B267
:04023900CC0B910A4F
:04023A00CC095C157A
:04023B00CC0732A713
:04023C00CC0512F6E5
:04023D00CC02FD866C
:04023E00CC00F2B44A
:04023F00CBFDE1B959
:04024000CBF9F29173
:04024100CBF6159152
:04024200CBF24A8928
:04024300CBEE91402D
:04024400CBEAEA1BFC
:04024500CBE754E6C9
:04024600CBE3CEA296
:04024700CBE0593E71
:04024800CBDCF434E3
:04024900CBD99EACC3
:04024A00CBD6590CAA
:04024B00CBD3222AC5
:04024C00CBCFF9CD4E
:04024D00CBCCE057DF
:04024E00CBC9D451F3
:04024F00CBC6D7083B
:04025000CBC3E7F243
:04025100CBC104A970
:04025200CBBE2F668A
:04025300CBBB65C4F8
:04025400CBB8A90E6C
:04025500CBB5F9A587
:04025600CBB3548151
:04025700CBB0BC2B41
:04025800CBAE2ED724
:04025900CBABAE205D
:04025A00CBA9374CA9
:04025B00CBA6CBA6BD
:04025C00CBA46A03C2
:04025D00CBA2130914
:04025E00CB9FC6C7A5
:04025F00CB9D840EA1
:04026000CB9B4B8D5C
:04026100CB991C0E0B
:04026200CB96F5A0A2
:04026300CB94D8EC74
:04026400CB92C64E25
:04026500CB90BB304F
:04026600CB8EB95032
:04026700CB8CBFF588
:04026800CB8ACF2747
:04026900CB88E62D2B
:04026A00CB8705AC8D
:04026B00CB852BD83C
:04026C00CB835AE006
:04026D00CB81916D43
:04026E00CB7F9F5B48
:04026F00CB7C288F8D
:04027000CB78C1A0E6
:04027100CB756734AE
:04027200CB721D1816
:04027300CB6EDF0768
:04027400CB6BAEEAB8
:04027500CB688B9433
:04027600CB6574CB15
:04027700CB626A9953
:04027800CB5F6C717B
:04027900CB5C7A617F
:04027A00CB59956364
:04027B00CB56BB1192
:04027C00CB53EBC5B0
:04027D00CB5129B286
:04027E00CB4E70E80B
:04027F00CB4BC2FDA6
:04028000CB491F5EE9
:04028100CB468706DB
:04028200CB43F8C4AE
:04028300CB4174A453
:04028400CB3EFA6211
:04028500CB3C8AA73D
:04028600CB3A23A7A5
:04028700CB37C608A3
:04028800CB3571877A
:04028900CB3325E16D
:04028A00CB30E3B9D9
:04028B00CB2EAA309C
:04028C00CB2C7900FE
:04028D00CB2A4EAA80
:04028E00CB282FD179
:04028F00CB26174A19
:04029000CB2407DD97
:04029100CB21FECFB0
:04029200CB1FFEA0E0
:04029300CB1E057CFD
:04029400CB1C13BFAD
:04029500CB1A2883D5
:04029600CB1845A894
:04029700CB1669AA6F
:04029800CB14949758
:04029900CB12C66E50
:04029A00CB10FF3E48
:04029B00CB0F3E6BDC
:04029C00CB0D840002
:04029D00CB0BD000B7
:04029E00CB0A21D78F
:04029F00CB087A7A94
:0402A000CB06D8FEB3
:0402A100CB053D6CE0
:0402A200CB03A7CA19
:0402A300CB0217D1A2
:0402A400CB008E708D
:0402A500CAFE11D6A6
:0402A600CAFB155129
:0402A700CAF8209AD7
:0402A800CAF5380952
:0402A900CAF25898A5
:0402AA00CAEF85FF13
:0402AB00CAECBBAE30
:0402AC00CAE9FBD6CA
:0402AD00CAE745E473
:0402AE00CAE498A462
:0402AF00CAE1F64C5E
:0402B000CADF5B81C5
:0402B100CADCCBAC2C
:0402B200CADA44B4AC
:0402B300CAD7C5B32E
:0402B400CAD54F9EBA
:0402B500CAD2E1E0E8
:0402B600CAD07DBF6E
:0402B700CACE207B10
:0402B800CACBCC4998
:0402B900CAC97FF03F
:0402BA00CAC73B7CF8
:0402BB00CAC4FEF4BF
:0402BC00CAC2CA6088
:0402BD00CAC09D779F
:0402BE00CABE7756E7
:0402BF00CABC58A1BC
:0402C000CABA41FF76
:0402C100CAB832394C
:0402C200CAB6290887
:0402C300CAB4271082
:0402C400CAB22ACEC2
:0402C500CAB0358402
:0402C600CAAE47D69F
:0402C700CAAC6091CC
:0402C800CAAA7F6AD5
:0402C900CAA8A3CA52
:0402CA00CAA6CF9061
:0402CB00CAA5009B25
:0402CC00CAA3387A0F
:0402CD00CAA174BD91
:0402CE00CA9FB87D8E
:0402CF00CA9E00AC17
:0402D000CA9C4F274E
:0402D100CA9AA3A77B
:0402D200CA98FCF4D6
:0402D300CA975B6308
:0402D400CA95BFE523
:0402D500CA9429435B
:0402D600CA9297D45D
:0402D700CA910B9825
:0402D800CA8F8497AE
:0402D900CA8E01E7E1
:0402DA00CA8C83DE69
:0402DB00CA8B0BBB04
:0402DC00CA89975ADA
:0402DD00CA8828495A
:0402DE00CA86BD050A
:0402DF00CA8557175E
:0402E000CA83F5EDEB
:0402E100CA8297A98D
:0402E200CA813F1C72
:0402E300CA7FD441B9
:0402E400CA7D334953
:0402E500CA7A9A1F18
:0402E600CA78096960
:0402E700CA75812E25
:0402E800CA7300D401
:0402E900CA70868FC2
:0402EA00CA6E14D9EB
:0402EB00CA6BAD9796
:0402EC00CA694A9EF3
:0402ED00CA66F04CA1
:0402EE00CA649C2E14
:0402EF00CA624EE8A9
:0402F000CA600AF8DE
:0402F100CA5DCDF124
:0402F200CA5B94BB94
:0402F300CA5964F18F
:0402F400CA573AE4C7
:0402F500CA551821AD
:0402F600CA52FAD717
:0402F700CA50E5857F
:0402F800CA4ED4C84E
:0402F900CA4CCB2000
:0402FA00CA4AC7A67F
:0402FB00CA48C9BF65
:0402FC00CA46D2AE6E
:0402FD00CA44E1DB33
:0402FE00CA42F520DB
:0402FF00CA410F9B46
:04030000CA3E5ED9BA
:04030100CA3AB38EB3
:04030200CA371E2CAC
:04030300CA339D4814
:04030400CA3030E5E6
:04030500CA2CD947DE
:04030600CA2994E08C
:04030700CA2662E5BB
:04030800CA2343764B
:04030900CA2035E9E8
:04030A00CA1D3A3896
:04030B00CA1A4F1AA1
:04030C00CA17754A4D
:04030D00CA14AABDA7
:04030E00CA11F09C84
:04030F00CA0F455379
:04031000CA0CA92347
:04031100CA0A1B34C5
:04031200CA079C3E3C
:04031300CA0529DF0F
:04031400CA02C5E074
:04031500CA006ECBE1
:04031600C9FC49BA1B
:04031700C9F7CDDE77
:04031800C9F36B6258
:04031900C9EF2045C3
:04031A00C9EAEC63DD
:04031B00C9E6CDFF63
:04031C00C9E2C76704
:04031D00C9DED55B05
:04031E00C9DAF899A7
:04031F00C9D73056B4
:04032000C9D37B22A0
:04032100C9CFDAFA6C
:04032200C9CC4DD124
:04032300C9C8D19DD7
:04032400C9C569914D
:04032500C9C211C078
:04032600C9BECBD4AD
:04032700C9BB960CAC
:04032800C9B8725D81
:04032900C9B55D797C
:04032A00C9B25903F8
:04032B00C9AF63D71C
:04032C00C9AC7D4893
:04032D00C9A9A59025
:04032E00C9A6DCC7B9
:04032F00C9A4214EEE
:04033000C9A173DA12
:04033100C99ED3DFAF
:04033200C99C400D15
:04033300C999BA505A
:04033400C997401F06
:04033500C994D2C3D2
:04033600C9927115E2
:04033700C9901B242A
:04033800C98DD0B2E9
:04033900C98B910AD1
:04033A00C9895C15FC
:04033B00C98732A795
:04033C00C98512F667
:04033D00C982FD86EE
:04033E00C980F2B4CC
:04033F00C97DE1B9DA
:04034000C979F291F4
:04034100C9761591D3
:04034200C9724A89A9
:04034300C96E9140AE
:04034400C96AEA1B7D
:04034500C96754E64A
:04034600C963CEA217
:04034700C960593EF2
:04034800C95CF43464
:04034900C9599EAC44
:04034A00C956590C2B
:04034B00C953222A46
:04034C00C94FF9CDCF
:04034D00C94CE05760
:04034E00C949D45174
:04034F00C946D708BC
:04035000C943E7F2C4
:04035100C94104A9F1
:04035200C93E2F660B
:04035300C93B65C479
:04035400C938A90EED
:04035500C935F9A508
:04035600C9335481D2
:04035700C930BC2BC2
:04035800C92E2ED7A5
:04035900C92BAE20DE
:04035A00C929374C2A
:04035B00C926CBA63E
:04035C00C9246A0343
:04035D00C922130995
:04035E00C91FC6C726
:04035F00C91D840E22
:04036000C91B4B8DDD
:04036100C9191C0E8C
:04036200C916F5A023
:04036300C914D8ECF5
:04036400C912C64EA6
:04036500C910BB30D0
:04036600C90EB950B3
:04036700C90CBFF509
:04036800C90ACF27C8
:04036900C908E62DAC
:04036A00C90705AC0E
:04036B00C9052BD8BD
:04036C00C9035AE087
:04036D00C901916DC4
:04036E00C8FF9F5BCA
:04036F00C8FC288F0F
:04037000C8F8C1A068
:04037100C8F5673430
:04037200C8F21D1898
:04037300C8EEDF07EA
:04037400C8EBAEEA3A
:04037500C8E88B94B5
:04037600C8E574CB97
:04037700C8E26A99D5
:04037800C8DF6C71FD
:04037900C8DC7A6101
:04037A00C8D99563E6
:04037B00C8D6BB1114
:04037C00C8D3EBC532
:04037D00C8D129B208
:04037E00C8CE70E88D
:04037F00C8CBC2FD28
:04038000C8C91F5E6B
:04038100C8C687065D
:04038200C8C3F8C430
:04038300C8C174A4D5
:04038400C8BEFA6293
:04038500C8BC8AA7BF
:04038600C8BA23A727
:04038700C8B7C60825
:04038800C8B57187FC
:04038900C8B325E1EF
:04038A00C8B0E3B95B
:04038B00C8AEAA301E
:04038C00C8AC790080
:04038D00C8AA4EAA02
:04038E00C8A82FD1FB
:04038F00C8A6174A9B
:04039000C8A407DD19
:04039100C8A1FECF32
:04039200C89FFEA062
:04039300C89E057C7F
:04039400C89C13BF2F
:04039500C89A288357
:04039600C89845A816
:04039700C89669AAF1
:04039800C8949497DA
:04039900C892C66ED2
:04039A00C890FF3ECA
:04039B00C88F3E6B5E
:04039C00C88D840084
:04039D00C88BD00039
:04039E00C88A21D711
:04039F00C8887A7A16
:0403A000C886D8FE35
:0403A100C8853D6C62
:0403A200C883A7CA9B
:0403A300C88217D124
:0403A400C8808E700F
:0403A500C87E11D627
:0403A600C87B1551AA
:0403A700C878209A58
:0403A800C8753809D3
:0403A900C872589826
:0403AA00C86F85FF94
:0403AB00C86CBBAEB1
:0403AC00C869FBD64B
:0403AD00C86745E4F4
:0403AE00C86498A4E3
:0403AF00C861F64CDF
:0403B000C85F5B8146
:0403B100C85CCBACAD
:0403B200C85A44B42D
:0403B300C857C5B3AF
:0403B400C8554F9E3B
:0403B500C852E1E069
:0403B600C8507DBFEF
:0403B700C84E207B91
:0403B800C84BCC4919
:0403B900C8497FF0C0
:0403BA00C8473B7C79
:0403BB00C844FEF440
:0403BC00C842CA6009
:0403BD00C8409D7720
:0403BE00C83E775668
:0403BF00C83C58A13D
:0403C000C83A41FFF7
:0403C100C8383239CD
:0403C200C836290808
:0403C300C834271003
:0403C400C8322ACE43
:0403C500C830358483
:0403C600C82E47D620
:0403C700C82C60914D
:0403C800C82A7F6A56
:0403C900C828A3CAD3
:0403CA00C826CF90E2
:0403CB00C825009BA6
:0403CC00C823387A90
:0403CD00C82174BD12
:0403CE00C81FB87D0F
:0403CF00C81E00AC98
:0403D000C81C4F27CF
:0403D100C81AA3A7FC
:0403D200C818FCF457
:0403D300C8175B6389
:0403D400C815BFE5A4
:0403D500C8142943DC
:0403D600C81297D4DE
:0403D700C8110B98A6
:0403D800C80F84972F
:0403D900C80E01E762
:0403DA00C80C83DEEA
:0403DB00C80B0BBB85
:0403DC00C809975A5B
:0403DD00C8082849DB
:0403DE00C806BD058B
:0403DF00C8055717DF
:0403E000C803F5ED6C
:0403E100C80297A90E
:0403E200C8013F1CF3
:0403E300C7FFD4413B
:0403E400C7FD3349D5
:0403E500C7FA9A1F9A
:0403E600C7F80969E2
:0403E700C7F5812EA7
:0403E800C7F300D483
:0403E900C7F0868F44
:0403EA00C7EE14D96D
:0403EB00C7EBAD9718
:0403EC00C7E94A9E75
:0403ED00C7E6F04C23
:0403EE00C7E49C2E96
:0403EF00C7E24EE82B
:0403F000C7E00AF860
:0403F100C7DDCDF1A6
:0403F200C7DB94BB16
:0403F300C7D964F111
:0403F400C7D73AE449
:0403F500C7D518212F
:0403F600C7D2FAD799
:0403F700C7D0E58501
:0403F800C7CED4C8D0
:0403F900C7CCCB2082
:0403FA00C7CAC7A601
:0403FB00C7C8C9BFE7
:0403FC00C7C6D2AEF0
:0403FD00C7C4E1DBB5
:0403FE00C7C2F5205D
:0403FF00C7C10F9BC8
:04040000C7BE5ED93C
:04040100C7BAB38E35
:04040200C7B71E2C2E
:04040300C7B39D4896
:04040400C7B030E568
:04040500C7ACD94760
:04040600C7A994E00E
:04040700C7A662E53D
:04040800C7A34376CD
:04040900C7A035E96A
:04040A00C79D3A3818
:04040B00C79A4F1A23
:04040C00C797754ACF
:04040D00C794AABD29
:04040E00C791F09C06
:04040F00C78F4553FB
:04041000C78CA923C9
:04041100C78A1B3447
:04041200C7879C3EBE
:04041300C78529DF91
:04041400C782C5E0F6
:04041500C7806ECB63
:04041600C77C49BA9C
:04041700C777CDDEF8
:04041800C7736B62D9
:04041900C76F204544
:04041A00C76AEC635E
:04041B00C766CDFFE4
:04041C00C762C76785
:04041D00C75ED55B86
:04041E00C75AF89928
:04041F00C757305635
:04042000C7537B2221
:04042100C74FDAFAED
:04042200C74C4DD1A5
:04042300C748D19D58
:04042400C7456991CE
:04042500C74211C0F9
:04042600C73ECBD42E
:04042700C73B960C2D
:04042800C738725D02
:04042900C7355D79FD
:04042A00C732590379
:04042B00C72F63D79D
:04042C00C72C7D4814
:04042D00C729A590A6
:04042E00C726DCC73A
:04042F00C724214E6F
:04043000C72173DA93
:04043100C71ED3DF30
:04043200C71C400D96
:04043300C719BA50DB
:04043400C717401F87
:04043500C714D2C353
:04043600C712711563
:04043700C7101B24AB
:04043800C70DD0B26A
:04043900C70B910A52
:04043A00C7095C157D
:04043B00C70732A716
:04043C00C70512F6E8
:04043D00C702FD866F
:04043E00C700F2B44D
:04043F00C6FDE1B95C
:04044000C6F9F29176
:04044100C6F6159155
:04044200C6F24A892B
:04044300C6EE914030
:04044400C6EAEA1BFF
:04044500C6E754E6CC
:04044600C6E3CEA299
:04044700C6E0593E74
:04044800C6DCF434E6
:04044900C6D99EACC6
:04044A00C6D6590CAD
:04044B00C6D3222AC8
:04044C00C6CFF9CD51
:04044D00C6CCE057E2
:04044E00C6C9D451F6
:04044F00C6C6D7083E
:04045000C6C3E7F246
:04045100C6C104A973
:04045200C6BE2F668D
:04045300C6BB65C4FB
:04045400C6B8A90E6F
:04045500C6B5F9A58A
:04045600C6B3548154
:04045700C6B0BC2B44
:04045800C6AE2ED727
:04045900C6ABAE2060
:04045A00C6A9374CAC
:04045B00C6A6CBA6C0
:04045C00C6A46A03C5
:04045D00C6A2130917
:04045E00C69FC6C7A8
:04045F00C69D840EA4
:04046000C69B4B8D5F
:04046100C6991C0E0E
:04046200C696F5A0A5
:04046300C694D8EC77
:04046400C692C64E28
:04046500C690BB3052
:04046600C68EB95035
:04046700C68CBFF58B
:04046800C68ACF274A
:04046900C688E62D2E
:04046A00C68705AC90
:04046B00C6852BD83F
:04046C00C6835AE009
:04046D00C681916D46
:04046E00C67F9F5B4B
:04046F00C67C288F90
:04047000C678C1A0E9
:04047100C6756734B1
:04047200C6721D1819
:04047300C66EDF076B
:04047400C66BAEEABB
:04047500C6688B9436
:04047600C66574CB18
:04047700C6626A9956
:04047800C65F6C717E
:04047900C65C7A6182
:04047A00C659956367
:04047B00C656BB1195
:04047C00C653EBC5B3
:04047D00C65129B289
:04047E00C64E70E80E
:04047F00C64BC2FDA9
:04048000C6491F5EEC
:04048100C6468706DE
:04048200C643F8C4B1
:04048300C64174A456
:04048400C63EFA6214
:04048500C63C8AA740
:04048600C63A23A7A8
:04048700C637C608A6
:04048800C63571877D
:04048900C63325E170
:04048A00C630E3B9DC
:04048B00C62EAA309F
:04048C00C62C790001
:04048D00C62A4EAA83
:04048E00C6282FD17C
:04048F00C626174A1C
:04049000C62407DD9A
:04049100C621FECFB3
:04049200C61FFEA0E3
:04049300C61E057C00
:04049400C61C13BFB0
:04049500C61A2883D8
:04049600C61845A897
:04049700C61669AA72
:04049800C61494975B
:04049900C612C66E53
:04049A00C610FF3E4B
:04049B00C60F3E6BDF
:04049C00C60D840005
:04049D00C60BD000BA
:04049E00C60A21D792
:04049F00C6087A7A97
:0404A000C606D8FEB6
:0404A100C6053D6CE3
:0404A200C603A7CA1C
:0404A300C60217D1A5
:0404A400C6008E7090
:0404A500C5FE11D6A9
:0404A600C5FB15512C
:0404A700C5F8209ADA
:0404A800C5F5380955
:0404A900C5F25898A8
:0404AA00C5EF85FF16
:0404AB00C5ECBBAE33
:0404AC00C5E9FBD6CD
:0404AD00C5E745E476
:0404AE00C5E498A465
:0404AF00C5E1F64C61
:0404B000C5DF5B81C8
:0404B100C5DCCBAC2F
:0404B200C5DA44B4AF
:0404B300C5D7C5B331
:0404B400C5D54F9EBD
:0404B500C5D2E1E0EB
:0404B600C5D07DBF71
:0404B700C5CE207B13
:0404B800C5CBCC499B
:0404B900C5C97FF042
:0404BA00C5C73B7CFB
:0404BB00C5C4FEF4C2
:0404BC00C5C2CA608B
:0404BD00C5C09D77A2
:0404BE00C5BE7756EA
:0404BF00C5BC58A1BF
:0404C000C5BA41FF79
:0404C100C5B832394F
:0404C200C5B629088A
:0404C300C5B4271085
:0404C400C5B22ACEC5
:0404C500C5B0358405
:0404C600C5AE47D6A2
:0404C700C5AC6091CF
:0404C800C5AA7F6AD8
:0404C900C5A8A3CA55
:0404CA00C5A6CF9064
:0404CB00C5A5009B28
:0404CC00C5A3387A12
:0404CD00C5A174BD94
:0404CE00C59FB87D91
:0404CF00C59E00AC1A
:0404D000C59C4F2751
:0404D100C59AA3A77E
:0404D200C598FCF4D9
:0404D300C5975B630B
:0404D400C595BFE526
:0404D500C59429435E
:0404D600C59297D460
:0404D700C5910B9828
:0404D800C58F8497B1
:0404D900C58E01E7E4
:0404DA00C58C83DE6C
:0404DB00C58B0BBB07
:0404DC00C589975ADD
:0404DD00C58828495D
:0404DE00C586BD050D
:0404DF00C585571761
:0404E000C583F5EDEE
:0404E100C58297A990
:0404E200C5813F1C75
:0404E300C57FD441BC
:0404E400C57D334956
:0404E500C57A9A1F1B
:0404E600C578096963
:0404E700C575812E28
:0404E800C57300D404
:0404E900C570868FC5
:0404EA00C56E14D9EE
:0404EB00C56BAD9799
:0404EC00C5694A9EF6
:0404ED00C566F04CA4
:0404EE00C5649C2E17
:0404EF00C5624EE8AC
:0404F000C5600AF8E1
:0404F100C55DCDF127
:0404F200C55B94BB97
:0404F300C55964F192
:0404F400C5573AE4CA
:0404F500C5551821B0
:0404F600C552FAD71A
:0404F700C550E58582
:0404F800C54ED4C851
:0404F900C54CCB2003
:0404FA00C54AC7A682
:0404FB00C548C9BF68
:0404FC00C546D2AE71
:0404FD00C544E1DB36
:0404FE00C542F520DE
:0404FF00C5410F9B49
:04050000C53E5ED9BD
:04050100C53AB38EB6
:04050200C5371E2CAF
:04050300C5339D4817
:04050400C53030E5E9
:04050500C52CD947E1
:04050600C52994E08F
:04050700C52662E5BE
:04050800C52343764E
:04050900C52035E9EB
:04050A00C51D3A3899
:04050B00C51A4F1AA4
:04050C00C517754A50
:04050D00C514AABDAA
:04050E00C511F09C87
:04050F00C50F45537C
:04051000C50CA9234A
:04051100C50A1B34C8
:04051200C5079C3E3F
:04051300C50529DF12
:04051400C502C5E077
:04051500C5006ECBE4
:04051600C4FC49BA1E
:04051700C4F7CDDE7A
:04051800C4F36B625B
:04051900C4EF2045C6
:04051A00C4EAEC63E0
:04051B00C4E6CDFF66
:04051C00C4E2C76707
:04051D00C4DED55B08
:04051E00C4DAF899AA
:04051F00C4D73056B7
:04052000C4D37B22A3
:04052100C4CFDAFA6F
:04052200C4CC4DD127
:04052300C4C8D19DDA
:04052400C4C5699150
:04052500C4C211C07B
:04052600C4BECBD4B0
:04052700C4BB960CAF
:04052800C4B8725D84
:04052900C4B55D797F
:04052A00C4B25903FB
:04052B00C4AF63D71F
:04052C00C4AC7D4896
:04052D00C4A9A59028
:04052E00C4A6DCC7BC
:04052F00C4A4214EF1
:04053000C4A173DA15
:04053100C49ED3DFB2
:04053200C49C400D18
:04053300C499BA505D
:04053400C497401F09
:04053500C494D2C3D5
:04053600C4927115E5
:04053700C4901B242D
:04053800C48DD0B2EC
:04053900C48B910AD4
:04053A00C4895C15FF
:04053B00C48732A798
:04053C00C48512F66A
:04053D00C482FD86F1
:04053E00C480F2B4CF
:04053F00C47DE1B9DD
:04054000C479F291F7
:04054100C4761591D6
:04054200C4724A89AC
:04054300C46E9140B1
:04054400C46AEA1B80
:04054500C46754E64D
:04054600C463CEA21A
:04054700C460593EF5
:04054800C45CF43467
:04054900C4599EAC47
:04054A00C456590C2E
:04054B00C453222A49
:04054C00C44FF9CDD2
:04054D00C44CE05763
:04054E00C449D45177
:04054F00C446D708BF
:04055000C443E7F2C7
:04055100C44104A9F4
:04055200C43E2F660E
:04055300C43B65C47C
:04055400C438A90EF0
:04055500C435F9A50B
:04055600C4335481D5
:04055700C430BC2BC5
:04055800C42E2ED7A8
:04055900C42BAE20E1
:04055A00C429374C2D
:04055B00C426CBA641
:04055C00C4246A0346
:04055D00C422130998
:04055E00C41FC6C729
:04055F00C41D840E25
:04056000C41B4B8DE0
:04056100C4191C0E8F
:04056200C416F5A026
:04056300C414D8ECF8
:04056400C412C64EA9
:04056500C410BB30D3
:04056600C40EB950B6
:04056700C40CBFF50C
:04056800C40ACF27CB
:04056900C408E62DAF
:04056A00C40705AC11
:04056B00C4052BD8C0
:04056C00C4035AE08A
:04056D00C401916DC7
:04056E00C3FF9F5BCD
:04056F00C3FC288F12
:04057000C3F8C1A06B
:04057100C3F5673433
:04057200C3F21D189B
:04057300C3EEDF07ED
:04057400C3EBAEEA3D
:04057500C3E88B94B8
:04057600C3E574CB9A
:04057700C3E26A99D8
:04057800C3DF6C7100
:04057900C3DC7A6104
:04057A00C3D99563E9
:04057B00C3D6BB1117
:04057C00C3D3EBC535
:04057D00C3D129B20B
:04057E00C3CE70E890
:04057F00C3CBC2FD2B
:04058000C3C91F5E6E
:04058100C3C6870660
:04058200C3C3F8C433
:04058300C3C174A4D8
:04058400C3BEFA6296
:04058500C3BC8AA7C2
:04058600C3BA23A72A
:04058700C3B7C60828
:04058800C3B57187FF
:04058900C3B325E1F2
:04058A00C3B0E3B95E
:04058B00C3AEAA3021
:04058C00C3AC790083
:04058D00C3AA4EAA05
:04058E00C3A82FD1FE
:04058F00C3A6174A9E
:04059000C3A407DD1C
:04059100C3A1FECF35
:04059200C39FFEA065
:04059300C39E057C82
:04059400C39C13BF32
:04059500C39A28835A
:04059600C39845A819
:04059700C39669AAF4
:04059800C3949497DD
:04059900C392C66ED5
:04059A00C390FF3ECD
:04059B00C38F3E6B61
:04059C00C38D840087
:04059D00C38BD0003C
:04059E00C38A21D714
:04059F00C3887A7A19
:0405A000C386D8FE38
:0405A100C3853D6C65
:0405A200C383A7CA9E
:0405A300C38217D127
:0405A400C3808E7012
:0405A500C37E11D62A
:0405A600C37B1551AD
:0405A700C378209A5B
:0405A800C3753809D6
:0405A900C372589829
:0405AA00C36F85FF97
:0405AB00C36CBBAEB4
:0405AC00C369FBD64E
:0405AD00C36745E4F7
:0405AE00C36498A4E6
:0405AF00C361F64CE2
:0405B000C35F5B8149
:0405B100C35CCBACB0
:0405B200C35A44B430
:0405B300C357C5B3B2
:0405B400C3554F9E3E
:0405B500C352E1E06C
:0405B600C3507DBFF2
:0405B700C34E207B94
:0405B800C34BCC491C
:0405B900C3497FF0C3
:0405BA00C3473B7C7C
:0405BB00C344FEF443
:0405BC00C342CA600C
:0405BD00C3409D7723
:0405BE00C33E77566B
:0405BF00C33C58A140
:0405C000C33A41FFFA
:0405C100C3383239D0
:0405C200C33629080B
:0405C300C334271006
:0405C400C3322ACE46
:0405C500C330358486
:0405C600C32E47D623
:0405C700C32C609150
:0405C800C32A7F6A59
:0405C900C328A3CAD6
:0405CA00C326CF90E5
:0405CB00C325009BA9
:0405CC00C323387A93
:0405CD00C32174BD15
:0405CE00C31FB87D12
:0405CF00C31E00AC9B
:0405D000C31C4F27D2
:0405D100C31AA3A7FF
:0405D200C318FCF45A
:0405D300C3175B638C
:0405D400C315BFE5A7
:0405D500C3142943DF
:0405D600C31297D4E1
:0405D700C3110B98A9
:0405D800C30F849732
:0405D900C30E01E765
:0405DA00C30C83DEED
:0405DB00C30B0BBB88
:0405DC00C309975A5E
:0405DD00C3082849DE
:0405DE00C306BD058E
:0405DF00C3055717E2
:0405E000C303F5ED6F
:0405E100C30297A911
:0405E200C3013F1CF6
:0405E300C2FFD4413E
:0405E400C2FD3349D8
:0405E500C2FA9A1F9D
:0405E600C2F80969E5
:0405E700C2F5812EAA
:0405E800C2F300D486
:0405E900C2F0868F47
:0405EA00C2EE14D970
:0405EB00C2EBAD971B
:0405EC00C2E94A9E78
:0405ED00C2E6F04C26
:0405EE00C2E49C2E99
:0405EF00C2E24EE82E
:0405F000C2E00AF863
:0405F100C2DDCDF1A9
:0405F200C2DB94BB19
:0405F300C2D964F114
:0405F400C2D73AE44C
:0405F500C2D5182132
:0405F600C2D2FAD79C
:0405F700C2D0E58504
:0405F800C2CED4C8D3
:0405F900C2CCCB2085
:0405FA00C2CAC7A604
:0405FB00C2C8C9BFEA
:0405FC00C2C6D2AEF3
:0405FD00C2C4E1DBB8
:0405FE00C2C2F52060
:0405FF00C2C10F9BCB
:04060000C2BE5ED93F
:04060100C2BAB38E38
:04060200C2B71E2C31
:04060300C2B39D4899
:04060400C2B030E56B
:04060500C2ACD94763
:04060600C2A994E011
:04060700C2A662E540
:04060800C2A34376D0
:04060900C2A035E96D
:04060A00C29D3A381B
:04060B00C29A4F1A26
:04060C00C297754AD2
:04060D00C294AABD2C
:04060E00C291F09C09
:04060F00C28F4553FE
:04061000C28CA923CC
:04061100C28A1B344A
:04061200C2879C3EC1
:04061300C28529DF94
:04061400C282C5E0F9
:04061500C2806ECB66
:04061600C27C49BA9F
:04061700C277CDDEFB
:04061800C2736B62DC
:04061900C26F204547
:04061A00C26AEC6361
:04061B00C266CDFFE7
:04061C00C262C76788
:04061D00C25ED55B89
:04061E00C25AF8992B
:04061F00C257305638
:04062000C2537B2224
:04062100C24FDAFAF0
:04062200C24C4DD1A8
:04062300C248D19D5B
:04062400C2456991D1
:04062500C24211C0FC
:04062600C23ECBD431
:04062700C23B960C30
:04062800C238725D05
:04062900C2355D7900
:04062A00C23259037C
:04062B00C22F63D7A0
:04062C00C22C7D4817
:04062D00C229A590A9
:04062E00C226DCC73D
:04062F00C224214E72
:04063000C22173DA96
:04063100C21ED3DF33
:04063200C21C400D99
:04063300C219BA50DE
:04063400C217401F8A
:04063500C214D2C356
:04063600C212711566
:04063700C2101B24AE
:04063800C20DD0B26D
:04063900C20B910A55
:04063A00C2095C1580
:04063B00C20732A719
:04063C00C20512F6EB
:04063D00C202FD8672
:04063E00C200F2B450
:04063F00C1FDE1B95F
:04064000C1F9F29179
:04064100C1F6159158
:04064200C1F24A892E
:04064300C1EE914033
:04064400C1EAEA1B02
:04064500C1E754E6CF
:04064600C1E3CEA29C
:04064700C1E0593E77
:04064800C1DCF434E9
:04064900C1D99EACC9
:04064A00C1D6590CB0
:04064B00C1D3222ACB
:04064C00C1CFF9CD54
:04064D00C1CCE057E5
:04064E00C1C9D451F9
:04064F00C1C6D70841
:04065000C1C3E7F249
:04065100C1C104A976
:04065200C1BE2F6690
:04065300C1BB65C4FE
:04065400C1B8A90E72
:04065500C1B5F9A58D
:04065600C1B3548157
:04065700C1B0BC2B47
:04065800C1AE2ED72A
:04065900C1ABAE2063
:04065A00C1A9374CAF
:04065B00C1A6CBA6C3
:04065C00C1A46A03C8
:04065D00C1A213091A
:04065E00C19FC6C7AB
:04065F00C19D840EA7
:04066000C19B4B8D62
:04066100C1991C0E11
:04066200C196F5A0A8
:04066300C194D8EC7A
:04066400C192C64E2B
:04066500C190BB3055
:04066600C18EB95038
:04066700C18CBFF58E
:04066800C18ACF274D
:04066900C188E62D31
:04066A00C18705AC93
:04066B00C1852BD842
:04066C00C1835AE00C
:04066D00C181916D49
:04066E00C17F9F5B4E
:04066F00C17C288F93
:04067000C178C1A0EC
:04067100C1756734B4
:04067200C1721D181C
:04067300C16EDF076E
:04067400C16BAEEABE
:04067500C1688B9439
:04067600C16574CB1B
:04067700C1626A9959
:04067800C15F6C7181
:04067900C15C7A6185
:04067A00C15995636A
:04067B00C156BB1198
:04067C00C153EBC5B6
:04067D00C15129B28C
:04067E00C14E70E811
:04067F00C14BC2FDAC
:04068000C1491F5EEF
:04068100C1468706E1
:04068200C143F8C4B4
:04068300C14174A459
:04068400C13EFA6217
:04068500C13C8AA743
:04068600C13A23A7AB
:04068700C137C608A9
:04068800C135718780
:04068900C13325E173
:04068A00C130E3B9DF
:04068B00C12EAA30A2
:04068C00C12C790004
:04068D00C12A4EAA86
:04068E00C1282FD17F
:04068F00C126174A1F
:04069000C12407DD9D
:04069100C121FECFB6
:04069200C11FFEA0E6
:04069300C11E057C03
:04069400C11C13BFB3
:04069500C11A2883DB
:04069600C11845A89A
:04069700C11669AA75
:04069800C11494975E
:04069900C112C66E56
:04069A00C110FF3E4E
:04069B00C10F3E6BE2
:04069C00C10D840008
:04069D00C10BD000BD
:04069E00C10A21D795
:04069F00C1087A7A9A
:0406A000C106D8FEB9
:0406A100C1053D6CE6
:0406A200C103A7CA1F
:0406A300C10217D1A8
:0406A400C1008E7093
:0406A500C0FE11D6AC
:0406A600C0FB15512F
:0406A700C0F8209ADD
:0406A800C0F5380958
:0406A900C0F25898AB
:0406AA00C0EF85FF19
:0406AB00C0ECBBAE36
:0406AC00C0E9FBD6D0
:0406AD00C0E745E479
:0406AE00C0E498A468
:0406AF00C0E1F64C64
:0406B000C0DF5B81CB
:0406B100C0DCCBAC32
:0406B200C0DA44B4B2
:0406B300C0D7C5B334
:0406B400C0D54F9EC0
:0406B500C0D2E1E0EE
:0406B600C0D07DBF74
:0406B700C0CE207B16
:0406B800C0CBCC499E
:0406B900C0C97FF045
:0406BA00C0C73B7CFE
:0406BB00C0C4FEF4C5
:0406BC00C0C2CA608E
:0406BD00C0C09D77A5
:0406BE00C0BE7756ED
:0406BF00C0BC58A1C2
:0406C000C0BA41FF7C
:0406C100C0B8323952
:0406C200C0B629088D
:0406C300C0B4271088
:0406C400C0B22ACEC8
:0406C500C0B0358408
:0406C600C0AE47D6A5
:0406C700C0AC6091D2
:0406C800C0AA7F6ADB
:0406C900C0A8A3CA58
:0406CA00C0A6CF9067
:0406CB00C0A5009B2B
:0406CC00C0A3387A15
:0406CD00C0A174BD97
:0406CE00C09FB87D94
:0406CF00C09E00AC1D
:0406D000C09C4F2754
:0406D100C09AA3A781
:0406D200C098FCF4DC
:0406D300C0975B630E
:0406D400C095BFE529
:0406D500C094294361
:0406D600C09297D463
:0406D700C0910B982B
:0406D800C08F8497B4
:0406D900C08E01E7E7
:0406DA00C08C83DE6F
:0406DB00C08B0BBB0A
:0406DC00C089975AE0
:0406DD00C088284960
:0406DE00C086BD0510
:0406DF00C085571764
:0406E000C083F5EDF1
:0406E100C08297A993
:0406E200C0813F1C78
:0406E300C07FD441BF
:0406E400C07D334959
:0406E500C07A9A1F1E
:0406E600C078096966
:0406E700C075812E2B
:0406E800C07300D407
:0406E900C070868FC8
:0406EA00C06E14D9F1
:0406EB00C06BAD979C
:0406EC00C0694A9EF9
:0406ED00C066F04CA7
:0406EE00C0649C2E1A
:0406EF00C0624EE8AF
:0406F000C0600AF8E4
:0406F100C05DCDF12A
:0406F200C05B94BB9A
:0406F300C05964F195
:0406F400C0573AE4CD
:0406F500C0551821B3
:0406F600C052FAD71D
:0406F700C050E58585
:0406F800C04ED4C854
:0406F900C04CCB2006
:0406FA00C04AC7A685
:0406FB00C048C9BF6B
:0406FC00C046D2AE74
:0406FD00C044E1DB39
:0406FE00C042F520E1
:0406FF00C0410F9B4C
:04070000C03E5ED9C0
:04070100C03AB38EB9
:04070200C0371E2CB2
:04070300C0339D481A
:04070400C03030E5EC
:04070500C02CD947E4
:04070600C02994E092
:04070700C02662E5C1
:04070800C023437651
:04070900C02035E9EE
:04070A00C01D3A389C
:04070B00C01A4F1AA7
:04070C00C017754A53
:04070D00C014AABDAD
:04070E00C011F09C8A
:04070F00C00F45537F
:04071000C00CA9234D
:04071100C00A1B34CB
:04071200C0079C3E42
:04071300C00529DF15
:04071400C002C5E07A
:04071500C0006ECBE7
:04071600BFFC49BA21
:04071700BFF7CDDE7D
:04071800BFF36B625E
:04071900BFEF2045C9
:04071A00BFEAEC63E3
:04071B00BFE6CDFF69
:04071C00BFE2C7670A
:04071D00BFDED55B0B
:04071E00BFDAF899AD
:04071F00BFD73056BA
:04072000BFD37B22A6
:04072100BFCFDAFA72
:04072200BFCC4DD12A
:04072300BFC8D19DDD
:04072400BFC5699153
:04072500BFC211C07E
:04072600BFBECBD4B3
:04072700BFBB960CB2
:04072800BFB8725D87
:04072900BFB55D7982
:04072A00BFB25903FE
:04072B00BFAF63D722
:04072C00BFAC7D4899
:04072D00BFA9A5902B
:04072E00BFA6DCC7BF
:04072F00BFA4214EF4
:04073000BFA173DA18
:04073100BF9ED3DFB5
:04073200BF9C400D1B
:04073300BF99BA5060
:04073400BF97401F0C
:04073500BF94D2C3D8
:04073600BF927115E8
:04073700BF901B2430
:04073800BF8DD0B2EF
:04073900BF8B910AD7
:04073A00BF895C1502
:04073B00BF8732A79B
:04073C00BF8512F66D
:04073D00BF82FD86F4
:04073E00BF80F2B4D2
:04073F00BF7DE1B9E0
:04074000BF79F291FA
:04074100BF761591D9
:04074200BF724A89AF
:04074300BF6E9140B4
:04074400BF6AEA1B83
:04074500BF6754E650
:04074600BF63CEA21D
:04074700BF60593EF8
:04074800BF5CF4346A
:04074900BF599EAC4A
:04074A00BF56590C31
:04074B00BF53222A4C
:04074C00BF4FF9CDD5
:04074D00BF4CE05766
:04074E00BF49D4517A
:04074F00BF46D708C2
:04075000BF43E7F2CA
:04075100BF4104A9F7
:04075200BF3E2F6611
:04075300BF3B65C47F
:04075400BF38A90EF3
:04075500BF35F9A50E
:04075600BF335481D8
:04075700BF30BC2BC8
:04075800BF2E2ED7AB
:04075900BF2BAE20E4
:04075A00BF29374C30
:04075B00BF26CBA644
:04075C00BF246A0349
:04075D00BF2213099B
:04075E00BF1FC6C72C
:04075F00BF1D840E28
:04076000BF1B4B8DE3
:04076100BF191C0E92
:04076200BF16F5A029
:04076300BF14D8ECFB
:04076400BF12C64EAC
:04076500BF10BB30D6
:04076600BF0EB950B9
:04076700BF0CBFF50F
:04076800BF0ACF27CE
:04076900BF08E62DB2
:04076A00BF0705AC14
:04076B00BF052BD8C3
:04076C00BF035AE08D
:04076D00BF01916DCA
:04076E00BEFF9F5BD0
:04076F00BEFC288F15
:04077000BEF8C1A06E
:04077100BEF5673436
:04077200BEF21D189E
:04077300BEEEDF07F0
:04077400BEEBAEEA40
:04077500BEE88B94BB
:04077600BEE574CB9D
:04077700BEE26A99DB
:04077800BEDF6C7103
:04077900BEDC7A6107
:04077A00BED99563EC
:04077B00BED6BB111A
:04077C00BED3EBC538
:04077D00BED129B20E
:04077E00BECE70E893
:04077F00BECBC2FD2E
:04078000BEC91F5E71
:04078100BEC6870663
:04078200BEC3F8C436
:04078300BEC174A4DB
:04078400BEBEFA6299
:04078500BEBC8AA7C5
:04078600BEBA23A72D
:04078700BEB7C6082B
:04078800BEB5718702
:04078900BEB325E1F5
:04078A00BEB0E3B961
:04078B00BEAEAA3024
:04078C00BEAC790086
:04078D00BEAA4EAA08
:04078E00BEA82FD101
:04078F00BEA6174AA1
:04079000BEA407DD1F
:04079100BEA1FECF38
:04079200BE9FFEA068
:04079300BE9E057C85
:04079400BE9C13BF35
:04079500BE9A28835D
:04079600BE9845A81C
:04079700BE9669AAF7
:04079800BE949497E0
:04079900BE92C66ED8
:04079A00BE90FF3ED0
:04079B00BE8F3E6B64
:04079C00BE8D84008A
:04079D00BE8BD0003F
:04079E00BE8A21D717
:04079F00BE887A7A1C
:0407A000BE86D8FE3B
:0407A100BE853D6C68
:0407A200BE83A7CAA1
:0407A300BE8217D12A
:0407A400BE808E7015
:0407A500BE7E11D62D
:0407A600BE7B1551B0
:0407A700BE78209A5E
:0407A800BE753809D9
:0407A900BE7258982C
:0407AA00BE6F85FF9A
:0407AB00BE6CBBAEB7
:0407AC00BE69FBD651
:0407AD00BE6745E4FA
:0407AE00BE6498A4E9
:0407AF00BE61F64CE5
:0407B000BE5F5B814C
:0407B100BE5CCBACB3
:0407B200BE5A44B433
:0407B300BE57C5B3B5
:0407B400BE554F9E41
:0407B500BE52E1E06F
:0407B600BE507DBFF5
:0407B700BE4E207B97
:0407B800BE4BCC491F
:0407B900BE497FF0C6
:0407BA00BE473B7C7F
:0407BB00BE44FEF446
:0407BC00BE42CA600F
:0407BD00BE409D7726
:0407BE00BE3E77566E
:0407BF00BE3C58A143
:0407C000BE3A41FFFD
:0407C100BE383239D3
:0407C200BE3629080E
:0407C300BE34271009
:0407C400BE322ACE49
:0407C500BE30358489
:0407C600BE2E47D626
:0407C700BE2C609153
:0407C800BE2A7F6A5C
:0407C900BE28A3CAD9
:0407CA00BE26CF90E8
:0407CB00BE25009BAC
:0407CC00BE23387A96
:0407CD00BE2174BD18
:0407CE00BE1FB87D15
:0407CF00BE1E00AC9E
:0407D000BE1C4F27D5
:0407D100BE1AA3A702
:0407D200BE18FCF45D
:0407D300BE175B638F
:0407D400BE15BFE5AA
:0407D500BE142943E2
:0407D600BE1297D4E4
:0407D700BE110B98AC
:0407D800BE0F849735
:0407D900BE0E01E768
:0407DA00BE0C83DEF0
:0407DB00BE0B0BBB8B
:0407DC00BE09975A61
:0407DD00BE082849E1
:0407DE00BE06BD0591
:0407DF00BE055717E5
:0407E000BE03F5ED72
:0407E100BE0297A914
:0407E200BE013F1CF9
:0407E300BDFFD44141
:0407E400BDFD3349DB
:0407E500BDFA9A1FA0
:0407E600BDF80969E8
:0407E700BDF5812EAD
:0407E800BDF300D489
:0407E900BDF0868F4A
:0407EA00BDEE14D973
:0407EB00BDEBAD971E
:0407EC00BDE94A9E7B
:0407ED00BDE6F04C29
:0407EE00BDE49C2E9C
:0407EF00BDE24EE831
:0407F000BDE00AF866
:0407F100BDDDCDF1AC
:0407F200BDDB94BB1C
:0407F300BDD964F117
:0407F400BDD73AE44F
:0407F500BDD5182135
:0407F600BDD2FAD79F
:0407F700BDD0E58507
:0407F800BDCED4C8D6
:0407F900BDCCCB2088
:0407FA00BDCAC7A607
:0407FB00BDC8C9BFED
:0407FC00BDC6D2AEF6
:0407FD00BDC4E1DBBB
:0407FE00BDC2F52063
:0407FF00BDC10F9BCE
:04080000BDBE5ED942
:04080100BDBAB38E3B
:04080200BDB71E2C34
:04080300BDB39D489C
:04080400BDB030E56E
:04080500BDACD94766
:04080600BDA994E014
:04080700BDA662E543
:04080800BDA34376D3
:04080900BDA035E970
:04080A00BD9D3A381E
:04080B00BD9A4F1A29
:04080C00BD97754AD5
:04080D00BD94AABD2F
:04080E00BD91F09C0C
:04080F00BD8F455301
:04081000BD8CA923CF
:04081100BD8A1B344D
:04081200BD879C3EC4
:04081300BD8529DF97
:04081400BD82C5E0FC
:04081500BD806ECB69
:04081600BD7C49BAA2
:04081700BD77CDDEFE
:04081800BD736B62DF
:04081900BD6F20454A
:04081A00BD6AEC6364
:04081B00BD66CDFFEA
:04081C00BD62C7678B
:04081D00BD5ED55B8C
:04081E00BD5AF8992E
:04081F00BD5730563B
:04082000BD537B2227
:04082100BD4FDAFAF3
:04082200BD4C4DD1AB
:04082300BD48D19D5E
:04082400BD456991D4
:04082500BD4211C0FF
:04082600BD3ECBD434
:04082700BD3B960C33
:04082800BD38725D08
:04082900BD355D7903
:04082A00BD3259037F
:04082B00BD2F63D7A3
:04082C00BD2C7D481A
:04082D00BD29A590AC
:04082E00BD26DCC740
:04082F00BD24214E75
:04083000BD2173DA99
:04083100BD1ED3DF36
:04083200BD1C400D9C
:04083300BD19BA50E1
:04083400BD17401F8D
:04083500BD14D2C359
:04083600BD12711569
:04083700BD101B24B1
:04083800BD0DD0B270
:04083900BD0B910A58
:04083A00BD095C1583
:04083B00BD0732A71C
:04083C00BD0512F6EE
:04083D00BD02FD8675
:04083E00BD00F2B453
:04083F00BCFDE1B962
:04084000BCF9F2917C
:04084100BCF615915B
:04084200BCF24A8931
:04084300BCEE914036
:04084400BCEAEA1B05
:04084500BCE754E6D2
:04084600BCE3CEA29F
:04084700BCE0593E7A
:04084800BCDCF434EC
:04084900BCD99EACCC
:04084A00BCD6590CB3
:04084B00BCD3222ACE
:04084C00BCCFF9CD57
:04084D00BCCCE057E8
:04084E00BCC9D451FC
:04084F00BCC6D70844
:04085000BCC3E7F24C
:04085100BCC104A979
:04085200BCBE2F6693
:04085300BCBB65C401
:04085400BCB8A90E75
:04085500BCB5F9A590
:04085600BCB354815A
:04085700BCB0BC2B4A
:04085800BCAE2ED72D
:04085900BCABAE2066
:04085A00BCA9374CB2
:04085B00BCA6CBA6C6
:04085C00BCA46A03CB
:04085D00BCA213091D
:04085E00BC9FC6C7AE
:04085F00BC9D840EAA
:04086000BC9B4B8D65
:04086100BC991C0E14
:04086200BC96F5A0AB
:04086300BC94D8EC7D
:04086400BC92C64E2E
:04086500BC90BB3058
:04086600BC8EB9503B
:04086700BC8CBFF591
:04086800BC8ACF2750
:04086900BC88E62D34
:04086A00BC8705AC96
:04086B00BC852BD845
:04086C00BC835AE00F
:04086D00BC81916D4C
:04086E00BC7F9F5B51
:04086F00BC7C288F96
:04087000BC78C1A0EF
:04087100BC756734B7
:04087200BC721D181F
:04087300BC6EDF0771
:04087400BC6BAEEAC1
:04087500BC688B943C
:04087600BC6574CB1E
:04087700BC626A995C
:04087800BC5F6C7184
:04087900BC5C7A6188
:04087A00BC5995636D
:04087B00BC56BB119B
:04087C00BC53EBC5B9
:04087D00BC5129B28F
:04087E00BC4E70E814
:04087F00BC4BC2FDAF
:04088000BC491F5EF2
:04088100BC468706E4
:04088200BC43F8C4B7
:04088300BC4174A45C
:04088400BC3EFA621A
:04088500BC3C8AA746
:04088600BC3A23A7AE
:04088700BC37C608AC
:04088800BC35718783
:04088900BC3325E176
:04088A00BC30E3B9E2
:04088B00BC2EAA30A5
:04088C00BC2C790007
:04088D00BC2A4EAA89
:04088E00BC282FD182
:04088F00BC26174A22
:04089000BC2407DDA0
:04089100BC21FECFB9
:04089200BC1FFEA0E9
:04089300BC1E057C06
:04089400BC1C13BFB6
:04089500BC1A2883DE
:04089600BC1845A89D
:04089700BC1669AA78
:04089800BC14949761
:04089900BC12C66E59
:04089A00BC10FF3E51
:04089B00BC0F3E6BE5
:04089C00BC0D84000B
:04089D00BC0BD000C0
:04089E00BC0A21D798
:04089F00BC087A7A9D
:0408A000BC06D8FEBC
:0408A100BC053D6CE9
:0408A200BC03A7CA22
:0408A300BC0217D1AB
:0408A400BC008E7096
:0408A500BBFE11D6AF
:0408A600BBFB155132
:0408A700BBF8209AE0
:0408A800BBF538095B
:0408A900BBF25898AE
:0408AA00BBEF85FF1C
:0408AB00BBECBBAE39
:0408AC00BBE9FBD6D3
:0408AD00BBE745E47C
:0408AE00BBE498A46B
:0408AF00BBE1F64C67
:0408B000BBDF5B81CE
:0408B100BBDCCBAC35
:0408B200BBDA44B4B5
:0408B300BBD7C5B337
:0408B400BBD54F9EC3
:0408B500BBD2E1E0F1
:0408B600BBD07DBF77
:0408B700BBCE207B19
:0408B800BBCBCC49A1
:0408B900BBC97FF048
:0408BA00BBC73B7C01
:0408BB00BBC4FEF4C8
:0408BC00BBC2CA6091
:0408BD00BBC09D77A8
:0408BE00BBBE7756F0
:0408BF00BBBC58A1C5
:0408C000BBBA41FF7F
:0408C100BBB8323955
:0408C200BBB6290890
:0408C300BBB427108B
:0408C400BBB22ACECB
:0408C500BBB035840B
:0408C600BBAE47D6A8
:0408C700BBAC6091D5
:0408C800BBAA7F6ADE
:0408C900BBA8A3CA5B
:0408CA00BBA6CF906A
:0408CB00BBA5009B2E
:0408CC00BBA3387A18
:0408CD00BBA174BD9A
:0408CE00BB9FB87D97
:0408CF00BB9E00AC20
:0408D000BB9C4F2757
:0408D100BB9AA3A784
:0408D200BB98FCF4DF
:0408D300BB975B6311
:0408D400BB95BFE52C
:0408D500BB94294364
:0408D600BB9297D466
:0408D700BB910B982E
:0408D800BB8F8497B7
:0408D900BB8E01E7EA
:0408DA00BB8C83DE72
:0408DB00BB8B0BBB0D
:0408DC00BB89975AE3
:0408DD00BB88284963
:0408DE00BB86BD0513
:0408DF00BB85571767
:0408E000BB83F5EDF4
:0408E100BB8297A996
:0408E200BB813F1C7B
:0408E300BB7FD441C2
:0408E400BB7D33495C
:0408E500BB7A9A1F21
:0408E600BB78096969
:0408E700BB75812E2E
:0408E800BB7300D40A
:0408E900BB70868FCB
:0408EA00BB6E14D9F4
:0408EB00BB6BAD979F
:0408EC00BB694A9EFC
:0408ED00BB66F04CAA
:0408EE00BB649C2E1D
:0408EF00BB624EE8B2
:0408F000BB600AF8E7
:0408F100BB5DCDF12D
:0408F200BB5B94BB9D
:0408F300BB5964F198
:0408F400BB573AE4D0
:0408F500BB551821B6
:0408F600BB52FAD720
:0408F700BB50E58588
:0408F800BB4ED4C857
:0408F900BB4CCB2009
:0408FA00BB4AC7A688
:0408FB00BB48C9BF6E
:0408FC00BB46D2AE77
:0408FD00BB44E1DB3C
:0408FE00BB42F520E4
:0408FF00BB410F9B4F
:04090000BB3E5ED9C3
:04090100BB3AB38EBC
:04090200BB371E2CB5
:04090300BB339D481D
:04090400BB3030E5EF
:04090500BB2CD947E7
:04090600BB2994E095
:04090700BB2662E5C4
:04090800BB23437654
:04090900BB2035E9F1
:04090A00BB1D3A389F
:04090B00BB1A4F1AAA
:04090C00BB17754A56
:04090D00BB14AABDB0
:04090E00BB11F09C8D
:04090F00BB0F455382
:04091000BB0CA92350
:04091100BB0A1B34CE
:04091200BB079C3E45
:04091300BB0529DF18
:04091400BB02C5E07D
:04091500BB006ECBEA
:04091600BAFC49BA24
:04091700BAF7CDDE80
:04091800BAF36B6261
:04091900BAEF2045CC
:04091A00BAEAEC63E6
:04091B00BAE6CDFF6C
:04091C00BAE2C7670D
:04091D00BADED55B0E
:04091E00BADAF899B0
:04091F00BAD73056BD
:04092000BAD37B22A9
:04092100BACFDAFA75
:04092200BACC4DD12D
:04092300BAC8D19DE0
:04092400BAC5699156
:04092500BAC211C081
:04092600BABECBD4B6
:04092700BABB960CB5
:04092800BAB8725D8A
:04092900BAB55D7985
:04092A00BAB2590301
:04092B00BAAF63D725
:04092C00BAAC7D489C
:04092D00BAA9A5902E
:04092E00BAA6DCC7C2
:04092F00BAA4214EF7
:04093000BAA173DA1B
:04093100BA9ED3DFB8
:04093200BA9C400D1E
:04093300BA99BA5063
:04093400BA97401F0F
:04093500BA94D2C3DB
:04093600BA927115EB
:04093700BA901B2433
:04093800BA8DD0B2F2
:04093900BA8B910ADA
:04093A00BA895C1505
:04093B00BA8732A79E
:04093C00BA8512F670
:04093D00BA82FD86F7
:04093E00BA80F2B4D5
:04093F00BA7DE1B9E3
:04094000BA79F291FD
:04094100BA761591DC
:04094200BA724A89B2
:04094300BA6E9140B7
:04094400BA6AEA1B86
:04094500BA6754E653
:04094600BA63CEA220
:04094700BA60593EFB
:04094800BA5CF4346D
:04094900BA599EAC4D
:04094A00BA56590C34
:04094B00BA53222A4F
:04094C00BA4FF9CDD8
:04094D00BA4CE05769
:04094E00BA49D4517D
:04094F00BA46D708C5
:04095000BA43E7F2CD
:04095100BA4104A9FA
:04095200BA3E2F6614
:04095300BA3B65C482
:04095400BA38A90EF6
:04095500BA35F9A511
:04095600BA335481DB
:04095700BA30BC2BCB
:04095800BA2E2ED7AE
:04095900BA2BAE20E7
:04095A00BA29374C33
:04095B00BA26CBA647
:04095C00BA246A034C
:04095D00BA2213099E
:04095E00BA1FC6C72F
:04095F00BA1D840E2B
:04096000BA1B4B8DE6
:04096100BA191C0E95
:04096200BA16F5A02C
:04096300BA14D8ECFE
:04096400BA12C64EAF
:04096500BA10BB30D9
:04096600BA0EB950BC
:04096700BA0CBFF512
:04096800BA0ACF27D1
:04096900BA08E62DB5
:04096A00BA0705AC17
:04096B00BA052BD8C6
:04096C00BA035AE090
:04096D00BA01916DCD
:04096E00B9FF9F5BD3
:04096F00B9FC288F18
:04097000B9F8C1A071
:04097100B9F5673439
:04097200B9F21D18A1
:04097300B9EEDF07F3
:04097400B9EBAEEA43
:04097500B9E88B94BE
:04097600B9E574CBA0
:04097700B9E26A99DE
:04097800B9DF6C7106
:04097900B9DC7A610A
:04097A00B9D99563EF
:04097B00B9D6BB111D
:04097C00B9D3EBC53B
:04097D00B9D129B211
:04097E00B9CE70E896
:04097F00B9CBC2FD31
:04098000B9C91F5E74
:04098100B9C6870666
:04098200B9C3F8C439
:04098300B9C174A4DE
:04098400B9BEFA629C
:04098500B9BC8AA7C8
:04098600B9BA23A730
:04098700B9B7C6082E
:04098800B9B5718705
:04098900B9B325E1F8
:04098A00B9B0E3B964
:04098B00B9AEAA3027
:04098C00B9AC790089
:04098D00B9AA4EAA0B
:04098E00B9A82FD104
:04098F00B9A6174AA4
:04099000B9A407DD22
:04099100B9A1FECF3B
:04099200B99FFEA06B
:04099300B99E057C88
:04099400B99C13BF38
:04099500B99A288360
:04099600B99845A81F
:04099700B99669AAFA
:04099800B9949497E3
:04099900B992C66EDB
:04099A00B990FF3ED3
:04099B00B98F3E6B67
:04099C00B98D84008D
:04099D00B98BD00042
:04099E00B98A21D71A
:04099F00B9887A7A1F
:0409A000B986D8FE3E
:0409A100B9853D6C6B
:0409A200B983A7CAA4
:0409A300B98217D12D
:0409A400B9808E7018
:0409A500B97E11D630
:0409A600B97B1551B3
:0409A700B978209A61
:0409A800B9753809DC
:0409A900B97258982F
:0409AA00B96F85FF9D
:0409AB00B96CBBAEBA
:0409AC00B969FBD654
:0409AD00B96745E4FD
:0409AE00B96498A4EC
:0409AF00B961F64CE8
:0409B000B95F5B814F
:0409B100B95CCBACB6
:0409B200B95A44B436
:0409B300B957C5B3B8
:0409B400B9554F9E44
:0409B500B952E1E072
:0409B600B9507DBFF8
:0409B700B94E207B9A
:0409B800B94BCC4922
:0409B900B9497FF0C9
:0409BA00B9473B7C82
:0409BB00B944FEF449
:0409BC00B942CA6012
:0409BD00B9409D7729
:0409BE00B93E775671
:0409BF00B93C58A146
:0409C000B93A41FF00
:0409C100B9383239D6
:0409C200B936290811
:0409C300B93427100C
:0409C400B9322ACE4C
:0409C500B93035848C
:0409C600B92E47D629
:0409C700B92C609156
:0409C800B92A7F6A5F
:0409C900B928A3CADC
:0409CA00B926CF90EB
:0409CB00B925009BAF
:0409CC00B923387A99
:0409CD00B92174BD1B
:0409CE00B91FB87D18
:0409CF00B91E00ACA1
:0409D000B91C4F27D8
:0409D100B91AA3A705
:0409D200B918FCF460
:0409D300B9175B6392
:0409D400B915BFE5AD
:0409D500B9142943E5
:0409D600B91297D4E7
:0409D700B9110B98AF
:0409D800B90F849738
:0409D900B90E01E76B
:0409DA00B90C83DEF3
:0409DB00B90B0BBB8E
:0409DC00B909975A64
:0409DD00B9082849E4
:0409DE00B906BD0594
:0409DF00B9055717E8
:0409E000B903F5ED75
:0409E100B90297A917
:0409E200B9013F1CFC
:0409E300B8FFD44144
:0409E400B8FD3349DE
:0409E500B8FA9A1FA3
:0409E600B8F80969EB
:0409E700B8F5812EB0
:0409E800B8F300D48C
:0409E900B8F0868F4D
:0409EA00B8EE14D976
:0409EB00B8EBAD9721
:0409EC00B8E94A9E7E
:0409ED00B8E6F04C2C
:0409EE00B8E49C2E9F
:0409EF00B8E24EE834
:0409F000B8E00AF869
:0409F100B8DDCDF1AF
:0409F200B8DB94BB1F
:0409F300B8D964F11A
:0409F400B8D73AE452
:0409F500B8D5182138
:0409F600B8D2FAD7A2
:0409F700B8D0E5850A
:0409F800B8CED4C8D9
:0409F900B8CCCB208B
:0409FA00B8CAC7A60A
:0409FB00B8C8C9BFF0
:0409FC00B8C6D2AEF9
:0409FD00B8C4E1DBBE
:0409FE00B8C2F52066
:0409FF00B8C10F9BD1
:040A0000B8BE5ED945
:040A0100B8BAB38E3E
:040A0200B8B71E2C37
:040A0300B8B39D489F
:040A0400B8B030E571
:040A0500B8ACD94769
:040A0600B8A994E017
:040A0700B8A662E546
:040A0800B8A34376D6
:040A0900B8A035E973
:040A0A00B89D3A3821
:040A0B00B89A4F1A2C
:040A0C00B897754AD8
:040A0D00B894AABD32
:040A0E00B891F09C0F
:040A0F00B88F455304
:040A1000B88CA923D2
:040A1100B88A1B3450
:040A1200B8879C3EC7
:040A1300B88529DF9A
:040A1400B882C5E0FF
:040A1500B8806ECB6C
:040A1600B87C49BAA5
:040A1700B877CDDE01
:040A1800B8736B62E2
:040A1900B86F20454D
:040A1A00B86AEC6367
:040A1B00B866CDFFED
:040A1C00B862C7678E
:040A1D00B85ED55B8F
:040A1E00B85AF89931
:040A1F00B85730563E
:040A2000B8537B222A
:040A2100B84FDAFAF6
:040A2200B84C4DD1AE
:040A2300B848D19D61
:040A2400B8456991D7
:040A2500B84211C002
:040A2600B83ECBD437
:040A2700B83B960C36
:040A2800B838725D0B
:040A2900B8355D7906
:040A2A00B832590382
:040A2B00B82F63D7A6
:040A2C00B82C7D481D
:040A2D00B829A590AF
:040A2E00B826DCC743
:040A2F00B824214E78
:040A3000B82173DA9C
:040A3100B81ED3DF39
:040A3200B81C400D9F
:040A3300B819BA50E4
:040A3400B817401F90
:040A3500B814D2C35C
:040A3600B81271156C
:040A3700B8101B24B4
:040A3800B80DD0B273
:040A3900B80B910A5B
:040A3A00B8095C1586
:040A3B00B80732A71F
:040A3C00B80512F6F1
:040A3D00B802FD8678
:040A3E00B800F2B456
:040A3F00B7FDE1B965
:040A4000B7F9F2917F
:040A4100B7F615915E
:040A4200B7F24A8934
:040A4300B7EE914039
:040A4400B7EAEA1B08
:040A4500B7E754E6D5
:040A4600B7E3CEA2A2
:040A4700B7E0593E7D
:040A4800B7DCF434EF
:040A4900B7D99EACCF
:040A4A00B7D6590CB6
:040A4B00B7D3222AD1
:040A4C00B7CFF9CD5A
:040A4D00B7CCE057EB
:040A4E00B7C9D451FF
:040A4F00B7C6D70847
:040A5000B7C3E7F24F
:040A5100B7C104A97C
:040A5200B7BE2F6696
:040A5300B7BB65C404
:040A5400B7B8A90E78
:040A5500B7B5F9A593
:040A5600B7B354815D
:040A5700B7B0BC2B4D
:040A5800B7AE2ED730
:040A5900B7ABAE2069
:040A5A00B7A9374CB5
:040A5B00B7A6CBA6C9
:040A5C00B7A46A03CE
:040A5D00B7A2130920
:040A5E00B79FC6C7B1
:040A5F00B79D840EAD
:040A6000B79B4B8D68
:040A6100B7991C0E17
:040A6200B796F5A0AE
:040A6300B794D8EC80
:040A6400B792C64E31
:040A6500B790BB305B
:040A6600B78EB9503E
:040A6700B78CBFF594
:040A6800B78ACF2753
:040A6900B788E62D37
:040A6A00B78705AC99
:040A6B00B7852BD848
:040A6C00B7835AE012
:040A6D00B781916D4F
:040A6E00B77F9F5B54
:040A6F00B77C288F99
:040A7000B778C1A0F2
:040A7100B7756734BA
:040A7200B7721D1822
:040A7300B76EDF0774
:040A7400B76BAEEAC4
:040A7500B7688B943F
:040A7600B76574CB21
:040A7700B7626A995F
:040A7800B75F6C7187
:040A7900B75C7A618B
:040A7A00B759956370
:040A7B00B756BB119E
:040A7C00B753EBC5BC
:040A7D00B75129B292
:040A7E00B74E70E817
:040A7F00B74BC2FDB2
:040A8000B7491F5EF5
:040A8100B7468706E7
:040A8200B743F8C4BA
:040A8300B74174A45F
:040A8400B73EFA621D
:040A8500B73C8AA749
:040A8600B73A23A7B1
:040A8700B737C608AF
:040A8800B735718786
:040A8900B73325E179
:040A8A00B730E3B9E5
:040A8B00B72EAA30A8
:040A8C00B72C79000A
:040A8D00B72A4EAA8C
:040A8E00B7282FD185
:040A8F00B726174A25
:040A9000B72407DDA3
:040A9100B721FECFBC
:040A9200B71FFEA0EC
:040A9300B71E057C09
:040A9400B71C13BFB9
:040A9500B71A2883E1
:040A9600B71845A8A0
:040A9700B71669AA7B
:040A9800B714949764
:040A9900B712C66E5C
:040A9A00B710FF3E54
:040A9B00B70F3E6BE8
:040A9C00B70D84000E
:040A9D00B70BD000C3
:040A9E00B70A21D79B
:040A9F00B7087A7AA0
:040AA000B706D8FEBF
:040AA100B7053D6CEC
:040AA200B703A7CA25
:040AA300B70217D1AE
:040AA400B7008E7099
:040AA500B6FE11D6B2
:040AA600B6FB155135
:040AA700B6F8209AE3
:040AA800B6F538095E
:040AA900B6F25898B1
:040AAA00B6EF85FF1F
:040AAB00B6ECBBAE3C
:040AAC00B6E9FBD6D6
:040AAD00B6E745E47F
:040AAE00B6E498A46E
:040AAF00B6E1F64C6A
:040AB000B6DF5B81D1
:040AB100B6DCCBAC38
:040AB200B6DA44B4B8
:040AB300B6D7C5B33A
:040AB400B6D54F9EC6
:040AB500B6D2E1E0F4
:040AB600B6D07DBF7A
:040AB700B6CE207B1C
:040AB800B6CBCC49A4
:040AB900B6C97FF04B
:040ABA00B6C73B7C04
:040ABB00B6C4FEF4CB
:040ABC00B6C2CA6094
:040ABD00B6C09D77AB
:040ABE00B6BE7756F3
:040ABF00B6BC58A1C8
:040AC000B6BA41FF82
:040AC100B6B8323958
:040AC200B6B6290893
:040AC300B6B427108E
:040AC400B6B22ACECE
:040AC500B6B035840E
:040AC600B6AE47D6AB
:040AC700B6AC6091D8
:040AC800B6AA7F6AE1
:040AC900B6A8A3CA5E
:040ACA00B6A6CF906D
:040ACB00B6A5009B31
:040ACC00B6A3387A1B
:040ACD00B6A174BD9D
:040ACE00B69FB87D9A
:040ACF00B69E00AC23
:040AD000B69C4F275A
:040AD100B69AA3A787
:040AD200B698FCF4E2
:040AD300B6975B6314
:040AD400B695BFE52F
:040AD500B694294367
:040AD600B69297D469
:040AD700B6910B9831
:040AD800B68F8497BA
:040AD900B68E01E7ED
:040ADA00B68C83DE75
:040ADB00B68B0BBB10
:040ADC00B689975AE6
:040ADD00B688284966
:040ADE00B686BD0516
:040ADF00B68557176A
:040AE000B683F5EDF7
:040AE100B68297A999
:040AE200B6813F1C7E
:040AE300B67FD441C5
:040AE400B67D33495F
:040AE500B67A9A1F24
:040AE600B67809696C
:040AE700B675812E31
:040AE800B67300D40D
:040AE900B670868FCE
:040AEA00B66E14D9F7
:040AEB00B66BAD97A2
:040AEC00B6694A9EFF
:040AED00B666F04CAD
:040AEE00B6649C2E20
:040AEF00B6624EE8B5
:040AF000B6600AF8EA
:040AF100B65DCDF130
:040AF200B65B94BBA0
:040AF300B65964F19B
:040AF400B6573AE4D3
:040AF500B6551821B9
:040AF600B652FAD723
:040AF700B650E5858B
:040AF800B64ED4C85A
:040AF900B64CCB200C
:040AFA00B64AC7A68B
:040AFB00B648C9BF71
:040AFC00B646D2AE7A
:040AFD00B644E1DB3F
:040AFE00B642F520E7
:040AFF00B6410F9B52
:040B0000B63E5ED9C6
:040B0100B63AB38EBF
:040B0200B6371E2CB8
:040B0300B6339D4820
:040B0400B63030E5F2
:040B0500B62CD947EA
:040B0600B62994E098
:040B0700B62662E5C7
:040B0800B623437657
:040B0900B62035E9F4
:040B0A00B61D3A38A2
:040B0B00B61A4F1AAD
:040B0C00B617754A59
:040B0D00B614AABDB3
:040B0E00B611F09C90
:040B0F00B60F455385
:040B1000B60CA92353
:040B1100B60A1B34D1
:040B1200B6079C3E48
:040B1300B60529DF1B
:040B1400B602C5E080
:040B1500B6006ECBED
:040B1600B5FC49BA27
:040B1700B5F7CDDE83
:040B1800B5F36B6264
:040B1900B5EF2045CF
:040B1A00B5EAEC63E9
:040B1B00B5E6CDFF6F
:040B1C00B5E2C76710
:040B1D00B5DED55B11
:040B1E00B5DAF899B3
:040B1F00B5D73056C0
:040B2000B5D37B22AC
:040B2100B5CFDAFA78
:040B2200B5CC4DD130
:040B2300B5C8D19DE3
:040B2400B5C5699159
:040B2500B5C211C084
:040B2600B5BECBD4B9
:040B2700B5BB960CB8
:040B2800B5B8725D8D
:040B2900B5B55D7988
:040B2A00B5B2590304
:040B2B00B5AF63D728
:040B2C00B5AC7D489F
:040B2D00B5A9A59031
:040B2E00B5A6DCC7C5
:040B2F00B5A4214EFA
:040B3000B5A173DA1E
:040B3100B59ED3DFBB
:040B3200B59C400D21
:040B3300B599BA5066
:040B3400B597401F12
:040B3500B594D2C3DE
:040B3600B5927115EE
:040B3700B5901B2436
:040B3800B58DD0B2F5
:040B3900B58B910ADD
:040B3A00B5895C1508
:040B3B00B58732A7A1
:040B3C00B58512F673
:040B3D00B582FD86FA
:040B3E00B580F2B4D8
:040B3F00B57DE1B9E6
:040B4000B579F29100
:040B4100B5761591DF
:040B4200B5724A89B5
:040B4300B56E9140BA
:040B4400B56AEA1B89
:040B4500B56754E656
:040B4600B563CEA223
:040B4700B560593EFE
:040B4800B55CF43470
:040B4900B5599EAC50
:040B4A00B556590C37
:040B4B00B553222A52
:040B4C00B54FF9CDDB
:040B4D00B54CE0576C
:040B4E00B549D45180
:040B4F00B546D708C8
:040B5000B543E7F2D0
:040B5100B54104A9FD
:040B5200B53E2F6617
:040B5300B53B65C485
:040B5400B538A90EF9
:040B5500B535F9A514
:040B5600B5335481DE
:040B5700B530BC2BCE
:040B5800B52E2ED7B1
:040B5900B52BAE20EA
:040B5A00B529374C36
:040B5B00B526CBA64A
:040B5C00B5246A034F
:040B5D00B5221309A1
:040B5E00B51FC6C732
:040B5F00B51D840E2E
:040B6000B51B4B8DE9
:040B6100B5191C0E98
:040B6200B516F5A02F
:040B6300B514D8EC01
:040B6400B512C64EB2
:040B6500B510BB30DC
:040B6600B50EB950BF
:040B6700B50CBFF515
:040B6800B50ACF27D4
:040B6900B508E62DB8
:040B6A00B50705AC1A
:040B6B00B5052BD8C9
:040B6C00B5035AE093
:040B6D00B501916DD0
:040B6E00B4FF9F5BD6
:040B6F00B4FC288F1B
:040B7000B4F8C1A074
:040B7100B4F567343C
:040B7200B4F21D18A4
:040B7300B4EEDF07F6
:040B7400B4EBAEEA46
:040B7500B4E88B94C1
:040B7600B4E574CBA3
:040B7700B4E26A99E1
:040B7800B4DF6C7109
:040B7900B4DC7A610D
:040B7A00B4D99563F2
:040B7B00B4D6BB1120
:040B7C00B4D3EBC53E
:040B7D00B4D129B214
:040B7E00B4CE70E899
:040B7F00B4CBC2FD34
:040B8000B4C91F5E77
:040B8100B4C6870669
:040B8200B4C3F8C43C
:040B8300B4C174A4E1
:040B8400B4BEFA629F
:040B8500B4BC8AA7CB
:040B8600B4BA23A733
:040B8700B4B7C60831
:040B8800B4B5718708
:040B8900B4B325E1FB
:040B8A00B4B0E3B967
:040B8B00B4AEAA302A
:040B8C00B4AC79008C
:040B8D00B4AA4EAA0E
:040B8E00B4A82FD107
:040B8F00B4A6174AA7
:040B9000B4A407DD25
:040B9100B4A1FECF3E
:040B9200B49FFEA06E
:040B9300B49E057C8B
:040B9400B49C13BF3B
:040B9500B49A288363
:040B9600B49845A822
:040B9700B49669AAFD
:040B9800B4949497E6
:040B9900B492C66EDE
:040B9A00B490FF3ED6
:040B9B00B48F3E6B6A
:040B9C00B48D840090
:040B9D00B48BD00045
:040B9E00B48A21D71D
:040B9F00B4887A7A22
:040BA000B486D8FE41
:040BA100B4853D6C6E
:040BA200B483A7CAA7
:040BA300B48217D130
:040BA400B4808E701B
:040BA500B47E11D633
:040BA600B47B1551B6
:040BA700B478209A64
:040BA800B4753809DF
:040BA900B472589832
:040BAA00B46F85FFA0
:040BAB00B46CBBAEBD
:040BAC00B469FBD657
:040BAD00B46745E400
:040BAE00B46498A4EF
:040BAF00B461F64CEB
:040BB000B45F5B8152
:040BB100B45CCBACB9
:040BB200B45A44B439
:040BB300B457C5B3BB
:040BB400B4554F9E47
:040BB500B452E1E075
:040BB600B4507DBFFB
:040BB700B44E207B9D
:040BB800B44BCC4925
:040BB900B4497FF0CC
:040BBA00B4473B7C85
:040BBB00B444FEF44C
:040BBC00B442CA6015
:040BBD00B4409D772C
:040BBE00B43E775674
:040BBF00B43C58A149
:040BC000B43A41FF03
:040BC100B4383239D9
:040BC200B436290814
:040BC300B43427100F
:040BC400B4322ACE4F
:040BC500B43035848F
:040BC600B42E47D62C
:040BC700B42C609159
:040BC800B42A7F6A62
:040BC900B428A3CADF
:040BCA00B426CF90EE
:040BCB00B425009BB2
:040BCC00B423387A9C
:040BCD00B42174BD1E
:040BCE00B41FB87D1B
:040BCF00B41E00ACA4
:040BD000B41C4F27DB
:040BD100B41AA3A708
:040BD200B418FCF463
:040BD300B4175B6395
:040BD400B415BFE5B0
:040BD500B4142943E8
:040BD600B41297D4EA
:040BD700B4110B98B2
:040BD800B40F84973B
:040BD900B40E01E76E
:040BDA00B40C83DEF6
:040BDB00B40B0BBB91
:040BDC00B409975A67
:040BDD00B4082849E7
:040BDE00B406BD0597
:040BDF00B4055717EB
:040BE000B403F5ED78
:040BE100B40297A91A
:040BE200B4013F1CFF
:040BE300B3FFD44147
:040BE400B3FD3349E1
:040BE500B3FA9A1FA6
:040BE600B3F80969EE
:040BE700B3F5812EB3
:040BE800B3F300D48F
:040BE900B3F0868F50
:040BEA00B3EE14D979
:040BEB00B3EBAD9724
:040BEC00B3E94A9E81
:040BED00B3E6F04C2F
:040BEE00B3E49C2EA2
:040BEF00B3E24EE837
:040BF000B3E00AF86C
:040BF100B3DDCDF1B2
:040BF200B3DB94BB22
:040BF300B3D964F11D
:040BF400B3D73AE455
:040BF500B3D518213B
:040BF600B3D2FAD7A5
:040BF700B3D0E5850D
:040BF800B3CED4C8DC
:040BF900B3CCCB208E
:040BFA00B3CAC7A60D
:040BFB00B3C8C9BFF3
:040BFC00B3C6D2AEFC
:040BFD00B3C4E1DBC1
:040BFE00B3C2F52069
:040BFF00B3C10F9BD4
:040C0000B3BE5ED948
:040C0100B3BAB38E41
:040C0200B3B71E2C3A
:040C0300B3B39D48A2
:040C0400B3B030E574
:040C0500B3ACD9476C
:040C0600B3A994E01A
:040C0700B3A662E549
:040C0800B3A34376D9
:040C0900B3A035E976
:040C0A00B39D3A3824
:040C0B00B39A4F1A2F
:040C0C00B397754ADB
:040C0D00B394AABD35
:040C0E00B391F09C12
:040C0F00B38F455307
:040C1000B38CA923D5
:040C1100B38A1B3453
:040C1200B3879C3ECA
:040C1300B38529DF9D
:040C1400B382C5E002
:040C1500B3806ECB6F
:040C1600B37C49BAA8
:040C1700B377CDDE04
:040C1800B3736B62E5
:040C1900B36F204550
:040C1A00B36AEC636A
:040C1B00B366CDFFF0
:040C1C00B362C76791
:040C1D00B35ED55B92
:040C1E00B35AF89934
:040C1F00B357305641
:040C2000B3537B222D
:040C2100B34FDAFAF9
:040C2200B34C4DD1B1
:040C2300B348D19D64
:040C2400B3456991DA
:040C2500B34211C005
:040C2600B33ECBD43A
:040C2700B33B960C39
:040C2800B338725D0E
:040C2900B3355D7909
:040C2A00B332590385
:040C2B00B32F63D7A9
:040C2C00B32C7D4820
:040C2D00B329A590B2
:040C2E00B326DCC746
:040C2F00B324214E7B
:040C3000B32173DA9F
:040C3100B31ED3DF3C
:040C3200B31C400DA2
:040C3300B319BA50E7
:040C3400B317401F93
:040C3500B314D2C35F
:040C3600B31271156F
:040C3700B3101B24B7
:040C3800B30DD0B276
:040C3900B30B910A5E
:040C3A00B3095C1589
:040C3B00B30732A722
:040C3C00B30512F6F4
:040C3D00B302FD867B
:040C3E00B300F2B459
:040C3F00B2FDE1B968
:040C4000B2F9F29182
:040C4100B2F6159161
:040C4200B2F24A8937
:040C4300B2EE91403C
:040C4400B2EAEA1B0B
:040C4500B2E754E6D8
:040C4600B2E3CEA2A5
:040C4700B2E0593E80
:040C4800B2DCF434F2
:040C4900B2D99EACD2
:040C4A00B2D6590CB9
:040C4B00B2D3222AD4
:040C4C00B2CFF9CD5D
:040C4D00B2CCE057EE
:040C4E00B2C9D45102
:040C4F00B2C6D7084A
:040C5000B2C3E7F252
:040C5100B2C104A97F
:040C5200B2BE2F6699
:040C5300B2BB65C407
:040C5400B2B8A90E7B
:040C5500B2B5F9A596
:040C5600B2B3548160
:040C5700B2B0BC2B50
:040C5800B2AE2ED733
:040C5900B2ABAE206C
:040C5A00B2A9374CB8
:040C5B00B2A6CBA6CC
:040C5C00B2A46A03D1
:040C5D00B2A2130923
:040C5E00B29FC6C7B4
:040C5F00B29D840EB0
:040C6000B29B4B8D6B
:040C6100B2991C0E1A
:040C6200B296F5A0B1
:040C6300B294D8EC83
:040C6400B292C64E34
:040C6500B290BB305E
:040C6600B28EB95041
:040C6700B28CBFF597
:040C6800B28ACF2756
:040C6900B288E62D3A
:040C6A00B28705AC9C
:040C6B00B2852BD84B
:040C6C00B2835AE015
:040C6D00B281916D52
:040C6E00B27F9F5B57
:040C6F00B27C288F9C
:040C7000B278C1A0F5
:040C7100B2756734BD
:040C7200B2721D1825
:040C7300B26EDF0777
:040C7400B26BAEEAC7
:040C7500B2688B9442
:040C7600B26574CB24
:040C7700B2626A9962
:040C7800B25F6C718A
:040C7900B25C7A618E
:040C7A00B259956373
:040C7B00B256BB11A1
:040C7C00B253EBC5BF
:040C7D00B25129B295
:040C7E00B24E70E81A
:040C7F00B24BC2FDB5
