:040000003ECC1D963F
:040001003ECAEE9273
:040002003EC9C04AE9
:040003003EC8968CD1
:040004003EC76EA1E4
:040005003EC649D9D1
:040006003EC5284883
:040007003EC40912D8
:040008003EC2ED3ACD
:040009003EC1D29989
:04000A003EC0BAD862
:04000B003EBFA7A5A8
:04000C003EBE9588D7
:04000D003EBD862E40
:04000E003EBC795526
:04000F003EBB6F0F76
:040010003EBA671776
:040011003EB961286B
:040012003EB85E5244
:040013003EB75CF99F
:040014003EB65E8313
:040015003EB563AAE7
:040016003EB468CFBD
:040017003EB371047F
:040018003EB27B5524
:040019003EB1882646
:04001A003EB097E07D
:04001B003EAFA82B21
:04001C003EAEBB2118
:04001D003EADCFC85D
:04001E003EACE78D80
:04001F003EAC006C87
:040020003EAB1BD305
:040021003EAA397743
:040022003EA957FE9E
:040023003EA8798EEC
:040024003EA79C1740
:040025003EA6C10D25
:040026003EA5E822E9
:040027003EA50FF6ED
:040028003EA43B10A7
:040029003EA366FE8E
:04002A003EA2953825
:04002B003EA1C5111C
:04002C003EA0F6F10B
:04002D003EA02910B8
:04002E003E9F5DA7ED
:04002F003E9E9463FA
:040030003E9DCC9392
:040031003E9D0641A9
:040032003E9C41D3DC
:040033003E9B7E3939
:040034003E9ABDB47F
:040035003E99FDB53E
:040036003E993EA30E
:040037003E9881A4CA
:040038003E97C72404
:040039003E970DAA37
:04003A003E96547D1D
:04003B003E959DEA67
:04003C003E94E87492
:04003D003E94348732
:04003E003E9383501A
:04003F003E92D09F7E
:040040003E922117B4
:040041003E9172D3A7
:040042003E90C5DD4A
:040043003E9019D7FB
:040044003E8F6F2B51
:040045003E8EC646DF
:040046003E8E1E6666
:040047003E8D7792E1
:040048003E8CD236E2
:040049003E8C2EBEFD
:04004A003E8B8C025B
:04004B003E8AEA6D92
:04004C003E8A4A6C32
:04004D003E89AAD16D
:04004E003E890C716A
:04004F003E8870EF88
:040050003E87D4AF64
:040051003E8739BDF0
:040052003E86A085C1
:040053003E86083F9E
:040054003E8571591B
:040055003E84DB7199
:040056003E8446227C
:040057003E83B31819
:040058003E831FDEE6
:040059003E828E2233
:04005A003E81FD7F67
:04005B003E816E660E
:04005C003E80DF9B68
:04005D003E8051F997
:04005E003E7F8B75E1
:04005F003E7E72D897
:040060003E7D5DF292
:040061003E7C4D3D57
:040062003E7B3B3A6C
:040063003E7A2AEDCA
:040064003E791F6161
:040065003E78122DA2
:040066003E77096276
:040067003E760127B9
:040068003E74FBAF38
:040069003E73F7B833
:04006A003E72F546A7
:04006B003E71F4D618
:04006C003E70F6E10B
:04006D003E6FF93BAE
:04006E003E6EFE22C2
:04006F003E6E03D806
:040070003E6D0C9E37
:040071003E6C15D0FC
:040072003E6B22259A
:040073003E6A2D9F15
:040074003E693C4B5A
:040075003E684DC0D4
:040076003E675FC9B9
:040077003E6673511D
:040078003E6588D386
:040079003E64A05CE5
:04007A003E63B6BC6F
:04007B003E62CF2FE3
:04007C003E61EC04F1
:04007D003E61083A9E
:04007E003E60278435
:04007F003E5F45C5D6
:040080003E5E672A4F
:040081003E5D8968EF
:040082003E5CADEC47
:040083003E5BD3D03D
:040084003E5AF93AAD
:040085003E5A226657
:040086003E594B9DF7
:040087003E5876C3A6
:040088003E57A45CDF
:040089003E56D19678
:04008A003E55FFDF01
:04008B003E55312984
:04008C003E5462215B
:04008D003E53953118
:04008E003E52C8EE28
:04008F003E51FDDB06
:040090003E51347732
:040091003E506DBFB1
:040092003E4FA6D562
:040093003E4EE1AB51
:040094003E4E1CD3ED
:040095003E4D594B38
:040096003E4C981133
:040097003E4BD835CF
:040098003E4B174381
:040099003E4A583251
:04009A003E499B0C34
:04009B003E48DFD22A
:04009C003E482512A3
:04009D003E476B4B24
:04009E003E46B185A4
:04009F003E45FA439D
:0400A0003E45448B0A
:0400A1003E448F60EA
:0400A2003E43DA46B9
:0400A3003E4327C6EB
:0400A4003E42755F04
:0400A5003E41C49B79
:0400A6003E4114794A
:0400A7003E406581F1
:0400A8003E3FB838E7
:0400A9003E3F099439
:0400AA003E3E5FBCBB
:0400AB003E3DB3041F
:0400AC003E3D0AA229
:0400AD003E3C606A0B
:0400AE003E3BB779A5
:0400AF003E3B11E7DC
:0400B0003E3A6C9ECA
:0400B1003E39C6927C
:0400B2003E3922EBC6
:0400B3003E38801B38
:0400B4003E37DE26CF
:0400B5003E373C890D
:0400B6003E369B45F2
:0400B7003E35FC7F57
:0400B8003E355E1B58
:0400B9003E34C01BF6
:0400BA003E34239518
:0400BB003E33866AE0
:0400BC003E32EC598B
:0400BD003E3252BDC0
:0400BE003E31B88394
:0400BF003E3120E9C5
:0400C0003E3087192E
:0400C1003E2FF2A636
:0400C2003E2F5AEA89
:0400C3003E2EC66B9C
:0400C4003E2E327525
:0400C5003E2DA02309
:0400C6003E2D0C318E
:0400C7003E2C7B014F
:0400C8003E2BEA677A
:0400C9003E2B583141
:0400CA003E2AC9E41D
:0400CB003E2A3B1C72
:0400CC003E29AD829A
:0400CD003E29208D1B
:0400CE003E2893AF86
:0400CF003E2806EDD4
:0400D0003E277D1238
:0400D1003E26F2C90C
:0400D2003E266A5309
:0400D3003E25E0E105
:0400D4003E2559D993
:0400D5003E24D1D91B
:0400D6003E244BB9C0
:0400D7003E23C5C837
:0400D8003E234099EA
:0400D9003E22BDE620
:0400DA003E223890FA
:0400DB003E21B5BA53
:0400DC003E2133B3DB
:0400DD003E20B310FE
:0400DE003E2030F29E
:0400DF003E1FB164AB
:0400E0003E1F30F49B
:0400E1003E1EB1F01E
:0400E2003E1E34F595
:0400E3003E1DB7B156
:0400E4003E1D3A245F
:0400E5003E1CBD7B85
:0400E6003E1C41BAC1
:0400E7003E1BC6E412
:0400E8003E1B4CF976
:0400E9003E1AD2D118
:0400EA003E1A59025F
:0400EB003E19E0BE1C
:0400EC003E19684110
:0400ED003E18F15474
:0400EE003E187B63DA
:0400EF003E1804A60D
:0400F0003E178F80A8
:0400F1003E171AC5D7
:0400F2003E16A6749C
:0400F3003E1631F68E
:0400F4003E15C051A4
:0400F5003E154C1751
:0400F6003E14DABB1F
:0400F7003E14693A10
:0400F8003E13F82F8C
:0400F9003E13879D8E
:0400FA003E13178515
:0400FB003E12A88683
:0400FC003E123AA3D3
:0400FD003E11CC07DD
:0400FE003E115D4F03
:0400FF003E10F1912D
:040100003E1054F762
:040101003E0F7E4DE2
:040102003E0EA8E520
:040103003E0DD65D7A
:040104003E0D04E4C4
:040105003E0C36175F
:040106003E0B69B58E
:040107003E0A9E37D7
:040108003E09D59047
:040109003E090D940A
:04010A003E0848382B
:04010B003E078538EE
:04010C003E06C3AB3D
:04010D003E06039B0C
:04010E003E0545B9AC
:04010F003E04891A07
:040110003E03CE6D6F
:040111003E0315167E
:040112003E025E4A01
:040113003E01A8946D
:040114003E00F42B8A
:040115003E00424323
:040116003DFF23CFB7
:040117003DFDC4EDF9
:040118003DFC69A1A0
:040119003DFB125543
:04011A003DF9BDC727
:04011B003DF86AA899
:04011C003DF71A0F82
:04011D003DF5CF28B5
:04011E003DF485E641
:04011F003DF3401458
:040120003DF1FC09A8
:040121003DF0BADF14
:040122003DEF7DB47C
:040123003DEE4175F7
:040124003DED0AC2E1
:040125003DEBD2A03C
:040126003DEAA02DE1
:040127003DE96F98A7
:040128003DE8425B11
:040129003DE715ABEE
:04012A003DE5EC7152
:04012B003DE4C607E2
:04012C003DE3A337D5
:04012D003DE280CA65
:04012E003DE160430C
:04012F003DE043DE8E
:040130003DDF2A374E
:040131003DDE106B34
:040132003DDCFA8F27
:040133003DDBE6DCEE
:040134003DDAD501DA
:040135003DD9C56883
:040136003DD8B93EB9
:040137003DD7ADF112
:040138003DD6A56E9D
:040139003DD59E9E74
:04013A003DD499F126
:04013B003DD396AD6D
:04013C003DD296C654
:04013D003DD1979D7C
:04013E003DD09CAF65
:04013F003DCFA045CB
:040140003DCEA89078
:040141003DCDB28975
:040142003DCCBCAB49
:040143003DCBC95691
:040144003DCAD89345
:040145003DC9EA0ABC
:040146003DC8FC3480
:040147003DC811128C
:040148003DC727E5A3
:040149003DC63FEA86
:04014A003DC558C790
:04014B003DC474E655
:04014C003DC391EF2F
:04014D003DC2B11BE3
:04014E003DC1D20FCE
:04014F003DC0F33785
:040150003DC018A4F2
:040151003DBF3DEE83
:040152003DBE6451F9
:040153003DBD8CA77B
:040154003DBCB76394
:040155003DBBE3BB10
:040156003DBB10E5B8
:040157003DBA3FBAB4
:040158003DB970AF8E
:040159003DB8A220EB
:04015A003DB7D5C117
:04015B003DB70B9908
:04015C003DB640C3A9
:04015D003DB57975BE
:04015E003DB4B25C9E
:04015F003DB3ED9A25
:040160003DB32986FC
:040161003DB2676DD7
:040162003DB1A533D3
:040163003DB0E6B90C
:040164003DB0274F34
:040165003DAF6A69D7
:040166003DAEAD7B82
:040167003DADF2B206
:040168003DAD3A85EA
:040169003DAC8262C5
:04016A003DABCCE8F5
:04016B003DAB16A3EF
:04016C003DAA623610
:04016D003DA9B018E0
:04016E003DA8FE901A
:04016F003DA84DA0BA
:040170003DA79F14F4
:040171003DA6EF6454
:040172003DA6437CE7
:040173003DA596EB25
:040174003DA4EC6654
:040175003DA4430C56
:040176003DA39B58B2
:040177003DA2F4DCD5
:040178003DA24D58FF
:040179003DA1A95BA0
:04017A003DA105BCE2
:04017B003DA06197AB
:04017C003D9FC021C2
:04017D003D9F1F8DF6
:04017E003D9E7FDF44
:04017F003D9DE0A61C
:040180003D9D434A14
:040181003D9CA66B90
:040182003D9C0BEAAB
:040183003D9B71022D
:040184003D9AD79435
:040185003D9A3EB4AD
:040186003D99A66990
:040187003D99101D71
:040188003D987AE73D
:040189003D97E5D9E0
:04018A003D9751E765
:04018B003D96BE9D42
:04018C003D962E620C
:04018D003D959D6A95
:04018E003D950C2F60
:04018F003D947D1D01
:040190003D93EEC8E5
:040191003D9361AE8B
:040192003D92D46165
:040193003D92494E02
:040194003D91BF08D2
:040195003D913499CB
:040196003D90AB7875
:040197003D90223441
:040198003D8F9B42BA
:040199003D8F143250
:04019A003D8E8F0205
:04019B003D8E0AB6D5
:04019C003D8D85D838
:04019D003D8D02E3AF
:04019E003D8C7FE035
:04019F003D8BFED1C5
:0401A0003D8B7DB85E
:0401A1003D8AFC99FE
:0401A2003D8A7CF71F
:0401A3003D89FE573D
:0401A4003D8980BB56
:0401A5003D89032568
:0401A6003D88879E6B
:0401A7003D880B9FE5
:0401A8003D8790B24D
:0401A9003D87165820
:0401AA003D869C9260
:0401AB003D8622E18A
:0401AC003D85AB578B
:0401AD003D853362F7
:0401AE003D84BC923E
:0401AF003D844771D3
:0401B0003D83D27148
:0401B1003D835D9598
:0401B2003D82E8E0C2
:0401B3003D82755FB5
:0401B4003D820290F6
:0401B5003D81907484
:0401B6003D811FDB8D
:0401B7003D80AFB91F
:0401B8003D803F88BF
:0401B9003D7F9FA542
:0401BA003D7EC0AB1B
:0401BB003D7DE33A69
:0401BC003D7D08F08D
:0401BD003D7C2FB2A4
:0401BE003D7B5670BF
:0401BF003D7A7D2DDB
:0401C0003D79A83E9F
:0401C1003D78D2CFE4
:0401C2003D77FF0B7B
:0401C3003D772C6FE9
:0401C4003D765A72B8
:0401C5003D758A30CA
:0401C6003D74B97F4C
:0401C7003D73ECC4D4
:0401C8003D731F1351
:0401C9003D7252A68B
:0401CA003D71877D7F
:0401CB003D70BDA026
:0401CC003D6FF62D60
:0401CD003D6F2DD77E
:0401CE003D6E67F427
:0401CF003D6DA1C21F
:0401D0003D6CDE9D07
:0401D1003D6C1C5015
:0401D2003D6B56ED3E
:0401D3003D6A96E605
:0401D4003D69D6A00B
:0401D5003D69173F2A
:0401D6003D6859EA3D
:0401D7003D679C5E86
:0401D8003D66E17827
:0401D9003D66253F1B
:0401DA003D65696BAB
:0401DB003D64B201CC
:0401DC003D63F8B9CE
:0401DD003D634354E7
:0401DE003D628AEE06
:0401DF003D61D82F77
:0401E0003D61214C10
:0401E1003D606D34DC
:0401E2003D5FBC843D
:0401E3003D5F0BC6AB
:0401E4003D5E5A63BF
:0401E5003D5DA8F3E1
:0401E6003D5CFC2A56
:0401E7003D5C4D9995
:0401E8003D5BA032A9
:0401E9003D5AF36127
:0401EA003D5A47C073
:0401EB003D599D5489
:0401EC003D58F41E68
:0401ED003D584B8CA2
:0401EE003D57A26E69
:0401EF003D56FD8DEF
:0401F0003D56565BC7
:0401F1003D55B2D8EE
:0401F2003D550BD399
:0401F3003D5468828D
:0401F4003D53C5E9C9
:0401F5003D5324A4AE
:0401F6003D52841ED4
:0401F7003D51E45A38
:0401F8003D5142E94A
:0401F9003D50A3745E
:0401FA003D50042A46
:0401FB003D4F681DEF
:0401FC003D4ECC4266
:0401FD003D4E313909
:0401FE003D4D95C816
:0401FF003D4CFA90E9
:040200003D4C1D96BE
:040201003D4AEE92F2
:040202003D49C04A68
:040203003D48968C50
:040204003D476EA163
:040205003D4649D950
:040206003D45284802
:040207003D44091257
:040208003D42ED3A4C
:040209003D41D29908
:04020A003D40BAD8E1
:04020B003D3FA7A527
:04020C003D3E958856
:04020D003D3D862EBF
:04020E003D3C7955A5
:04020F003D3B6F0FF5
:040210003D3A6717F5
:040211003D396128EA
:040212003D385E52C3
:040213003D375CF91E
:040214003D365E8392
:040215003D3563AA66
:040216003D3468CF3C
:040217003D337104FE
:040218003D327B55A3
:040219003D318826C5
:04021A003D3097E0FC
:04021B003D2FA82BA0
:04021C003D2EBB2197
:04021D003D2DCFC8DC
:04021E003D2CE78DFF
:04021F003D2C006C06
:040220003D2B1BD384
:040221003D2A3977C2
:040222003D2957FE1D
:040223003D28798E6B
:040224003D279C17BF
:040225003D26C10DA4
:040226003D25E82268
:040227003D250FF66C
:040228003D243B1026
:040229003D2366FE0D
:04022A003D229538A4
:04022B003D21C5119B
:04022C003D20F6F18A
:04022D003D20291037
:04022E003D1F5DA76C
:04022F003D1E946379
:040230003D1DCC9311
:040231003D1D064128
:040232003D1C41D35B
:040233003D1B7E39B8
:040234003D1ABDB4FE
:040235003D19FDB5BD
:040236003D193EA38D
:040237003D1881A449
:040238003D17C72483
:040239003D170DAAB6
:04023A003D16547D9C
:04023B003D159DEAE6
:04023C003D14E87411
:04023D003D143487B1
:04023E003D13835099
:04023F003D12D09FFD
:040240003D12211733
:040241003D1172D326
:040242003D10C5DDC9
:040243003D1019D77A
:040244003D0F6F2BD0
:040245003D0EC6465E
:040246003D0E1E66E5
:040247003D0D779260
:040248003D0CD23661
:040249003D0C2EBE7C
:04024A003D0B8C02DA
:04024B003D0AEA6D11
:04024C003D0A4A6CB1
:04024D003D09AAD1EC
:04024E003D090C71E9
:04024F003D0870EF07
:040250003D07D4AFE3
:040251003D0739BD6F
:040252003D06A08540
:040253003D06083F1D
:040254003D0571599A
:040255003D04DB7118
:040256003D044622FB
:040257003D03B31898
:040258003D031FDE65
:040259003D028E22B2
:04025A003D01FD7FE6
:04025B003D016E668D
:04025C003D00DF9BE7
:04025D003D0051F916
:04025E003CFF8B7561
:04025F003CFE72D817
:040260003CFD5DF212
:040261003CFC4D3DD7
:040262003CFB3B3AEC
:040263003CFA2AED4A
:040264003CF91F61E1
:040265003CF8122D22
:040266003CF70962F6
:040267003CF6012739
:040268003CF4FBAFB8
:040269003CF3F7B8B3
:04026A003CF2F54627
:04026B003CF1F4D698
:04026C003CF0F6E18B
:04026D003CEFF93B2E
:04026E003CEEFE2242
:04026F003CEE03D886
:040270003CED0C9EB7
:040271003CEC15D07C
:040272003CEB22251A
:040273003CEA2D9F95
:040274003CE93C4BDA
:040275003CE84DC054
:040276003CE75FC939
:040277003CE673519D
:040278003CE588D306
:040279003CE4A05C65
:04027A003CE3B6BCEF
:04027B003CE2CF2F63
:04027C003CE1EC0471
:04027D003CE1083A1E
:04027E003CE02784B5
:04027F003CDF45C556
:040280003CDE672ACF
:040281003CDD89686F
:040282003CDCADECC7
:040283003CDBD3D0BD
:040284003CDAF93A2D
:040285003CDA2266D7
:040286003CD94B9D77
:040287003CD876C326
:040288003CD7A45C5F
:040289003CD6D196F8
:04028A003CD5FFDF81
:04028B003CD5312904
:04028C003CD46221DB
:04028D003CD3953198
:04028E003CD2C8EEA8
:04028F003CD1FDDB86
:040290003CD13477B2
:040291003CD06DBF31
:040292003CCFA6D5E2
:040293003CCEE1ABD1
:040294003CCE1CD36D
:040295003CCD594BB8
:040296003CCC9811B3
:040297003CCBD8354F
:040298003CCB174301
:040299003CCA5832D1
:04029A003CC99B0CB4
:04029B003CC8DFD2AA
:04029C003CC8251223
:04029D003CC76B4BA4
:04029E003CC6B18524
:04029F003CC5FA431D
:0402A0003CC5448B8A
:0402A1003CC48F606A
:0402A2003CC3DA4639
:0402A3003CC327C66B
:0402A4003CC2755F84
:0402A5003CC1C49BF9
:0402A6003CC11479CA
:0402A7003CC0658171
:0402A8003CBFB83867
:0402A9003CBF0994B9
:0402AA003CBE5FBC3B
:0402AB003CBDB3049F
:0402AC003CBD0AA2A9
:0402AD003CBC606A8B
:0402AE003CBBB77925
:0402AF003CBB11E75C
:0402B0003CBA6C9E4A
:0402B1003CB9C692FC
:0402B2003CB922EB46
:0402B3003CB8801BB8
:0402B4003CB7DE264F
:0402B5003CB73C898D
:0402B6003CB69B4572
:0402B7003CB5FC7FD7
:0402B8003CB55E1BD8
:0402B9003CB4C01B76
:0402BA003CB4239598
:0402BB003CB3866A60
:0402BC003CB2EC590B
:0402BD003CB252BD40
:0402BE003CB1B88314
:0402BF003CB120E945
:0402C0003CB08719AE
:0402C1003CAFF2A6B6
:0402C2003CAF5AEA09
:0402C3003CAEC66B1C
:0402C4003CAE3275A5
:0402C5003CADA02389
:0402C6003CAD0C310E
:0402C7003CAC7B01CF
:0402C8003CABEA67FA
:0402C9003CAB5831C1
:0402CA003CAAC9E49D
:0402CB003CAA3B1CF2
:0402CC003CA9AD821A
:0402CD003CA9208D9B
:0402CE003CA893AF06
:0402CF003CA806ED54
:0402D0003CA77D12B8
:0402D1003CA6F2C98C
:0402D2003CA66A5389
:0402D3003CA5E0E185
:0402D4003CA559D913
:0402D5003CA4D1D99B
:0402D6003CA44BB940
:0402D7003CA3C5C8B7
:0402D8003CA340996A
:0402D9003CA2BDE6A0
:0402DA003CA238907A
:0402DB003CA1B5BAD3
:0402DC003CA133B35B
:0402DD003CA0B3107E
:0402DE003CA030F21E
:0402DF003C9FB1642B
:0402E0003C9F30F41B
:0402E1003C9EB1F09E
:0402E2003C9E34F515
:0402E3003C9DB7B1D6
:0402E4003C9D3A24DF
:0402E5003C9CBD7B05
:0402E6003C9C41BA41
:0402E7003C9BC6E492
:0402E8003C9B4CF9F6
:0402E9003C9AD2D198
:0402EA003C9A5902DF
:0402EB003C99E0BE9C
:0402EC003C99684190
:0402ED003C98F154F4
:0402EE003C987B635A
:0402EF003C9804A68D
:0402F0003C978F8028
:0402F1003C971AC557
:0402F2003C96A6741C
:0402F3003C9631F60E
:0402F4003C95C05124
:0402F5003C954C17D1
:0402F6003C94DABB9F
:0402F7003C94693A90
:0402F8003C93F82F0C
:0402F9003C93879D0E
:0402FA003C93178595
:0402FB003C92A88603
:0402FC003C923AA353
:0402FD003C91CC075D
:0402FE003C915D4F83
:0402FF003C90F191AD
:040300003C9054F7E2
:040301003C8F7E4D62
:040302003C8EA8E5A0
:040303003C8DD65DFA
:040304003C8D04E444
:040305003C8C3617DF
:040306003C8B69B50E
:040307003C8A9E3757
:040308003C89D590C7
:040309003C890D948A
:04030A003C884838AB
:04030B003C8785386E
:04030C003C86C3ABBD
:04030D003C86039B8C
:04030E003C8545B92C
:04030F003C84891A87
:040310003C83CE6DEF
:040311003C831516FE
:040312003C825E4A81
:040313003C81A894ED
:040314003C80F42B0A
:040315003C804243A3
:040316003C7F23CF36
:040317003C7DC4ED78
:040318003C7C69A11F
:040319003C7B1255C2
:04031A003C79BDC7A6
:04031B003C786AA818
:04031C003C771A0F01
:04031D003C75CF2834
:04031E003C7485E6C0
:04031F003C734014D7
:040320003C71FC0927
:040321003C70BADF93
:040322003C6F7DB4FB
:040323003C6E417576
:040324003C6D0AC260
:040325003C6BD2A0BB
:040326003C6AA02D60
:040327003C696F9826
:040328003C68425B90
:040329003C6715AB6D
:04032A003C65EC71D1
:04032B003C64C60761
:04032C003C63A33754
:04032D003C6280CAE4
:04032E003C6160438B
:04032F003C6043DE0D
:040330003C5F2A37CD
:040331003C5E106BB3
:040332003C5CFA8FA6
:040333003C5BE6DC6D
:040334003C5AD50159
:040335003C59C56802
:040336003C58B93E38
:040337003C57ADF191
:040338003C56A56E1C
:040339003C559E9EF3
:04033A003C5499F1A5
:04033B003C5396ADEC
:04033C003C5296C6D3
:04033D003C51979DFB
:04033E003C509CAFE4
:04033F003C4FA0454A
:040340003C4EA890F7
:040341003C4DB289F4
:040342003C4CBCABC8
:040343003C4BC95610
:040344003C4AD893C4
:040345003C49EA0A3B
:040346003C48FC34FF
:040347003C4811120B
:040348003C4727E522
:040349003C463FEA05
:04034A003C4558C70F
:04034B003C4474E6D4
:04034C003C4391EFAE
:04034D003C42B11B62
:04034E003C41D20F4D
:04034F003C40F33704
:040350003C4018A471
:040351003C3F3DEE02
:040352003C3E645178
:040353003C3D8CA7FA
:040354003C3CB76313
:040355003C3BE3BB8F
:040356003C3B10E537
:040357003C3A3FBA33
:040358003C3970AF0D
:040359003C38A2206A
:04035A003C37D5C196
:04035B003C370B9987
:04035C003C3640C328
:04035D003C3579753D
:04035E003C34B25C1D
:04035F003C33ED9AA4
:040360003C3329867B
:040361003C32676D56
:040362003C31A53352
:040363003C30E6B98B
:040364003C30274FB3
:040365003C2F6A6956
:040366003C2EAD7B01
:040367003C2DF2B285
:040368003C2D3A8569
:040369003C2C826244
:04036A003C2BCCE874
:04036B003C2B16A36E
:04036C003C2A62368F
:04036D003C29B0185F
:04036E003C28FE9099
:04036F003C284DA039
:040370003C279F1473
:040371003C26EF64D3
:040372003C26437C66
:040373003C2596EBA4
:040374003C24EC66D3
:040375003C24430CD5
:040376003C239B5831
:040377003C22F4DC54
:040378003C224D587E
:040379003C21A95B1F
:04037A003C2105BC61
:04037B003C2061972A
:04037C003C1FC02141
:04037D003C1F1F8D75
:04037E003C1E7FDFC3
:04037F003C1DE0A69B
:040380003C1D434A93
:040381003C1CA66B0F
:040382003C1C0BEA2A
:040383003C1B7102AC
:040384003C1AD794B4
:040385003C1A3EB42C
:040386003C19A6690F
:040387003C19101DF0
:040388003C187AE7BC
:040389003C17E5D95F
:04038A003C1751E7E4
:04038B003C16BE9DC1
:04038C003C162E628B
:04038D003C159D6A14
:04038E003C150C2FDF
:04038F003C147D1D80
:040390003C13EEC864
:040391003C1361AE0A
:040392003C12D461E4
:040393003C12494E81
:040394003C11BF0851
:040395003C1134994A
:040396003C10AB78F4
:040397003C102234C0
:040398003C0F9B4239
:040399003C0F1432CF
:04039A003C0E8F0284
:04039B003C0E0AB654
:04039C003C0D85D8B7
:04039D003C0D02E32E
:04039E003C0C7FE0B4
:04039F003C0BFED144
:0403A0003C0B7DB8DD
:0403A1003C0AFC997D
:0403A2003C0A7CF79E
:0403A3003C09FE57BC
:0403A4003C0980BBD5
:0403A5003C090325E7
:0403A6003C08879EEA
:0403A7003C080B9F64
:0403A8003C0790B2CC
:0403A9003C0716589F
:0403AA003C069C92DF
:0403AB003C0622E109
:0403AC003C05AB570A
:0403AD003C05336276
:0403AE003C04BC92BD
:0403AF003C04477152
:0403B0003C03D271C7
:0403B1003C035D9517
:0403B2003C02E8E041
:0403B3003C02755F34
:0403B4003C02029075
:0403B5003C01907403
:0403B6003C011FDB0C
:0403B7003C00AFB99E
:0403B8003C003F883E
:0403B9003BFF9FA5C2
:0403BA003BFEC0AB9B
:0403BB003BFDE33AE9
:0403BC003BFD08F00D
:0403BD003BFC2FB224
:0403BE003BFB56703F
:0403BF003BFA7D2D5B
:0403C0003BF9A83E1F
:0403C1003BF8D2CF64
:0403C2003BF7FF0BFB
:0403C3003BF72C6F69
:0403C4003BF65A7238
:0403C5003BF58A304A
:0403C6003BF4B97FCC
:0403C7003BF3ECC454
:0403C8003BF31F13D1
:0403C9003BF252A60B
:0403CA003BF1877DFF
:0403CB003BF0BDA0A6
:0403CC003BEFF62DE0
:0403CD003BEF2DD7FE
:0403CE003BEE67F4A7
:0403CF003BEDA1C29F
:0403D0003BECDE9D87
:0403D1003BEC1C5095
:0403D2003BEB56EDBE
:0403D3003BEA96E685
:0403D4003BE9D6A08B
:0403D5003BE9173FAA
:0403D6003BE859EABD
:0403D7003BE79C5E06
:0403D8003BE6E178A7
:0403D9003BE6253F9B
:0403DA003BE5696B2B
:0403DB003BE4B2014C
:0403DC003BE3F8B94E
:0403DD003BE3435467
:0403DE003BE28AEE86
:0403DF003BE1D82FF7
:0403E0003BE1214C90
:0403E1003BE06D345C
:0403E2003BDFBC84BD
:0403E3003BDF0BC62B
:0403E4003BDE5A633F
:0403E5003BDDA8F361
:0403E6003BDCFC2AD6
:0403E7003BDC4D9915
:0403E8003BDBA03229
:0403E9003BDAF361A7
:0403EA003BDA47C0F3
:0403EB003BD99D5409
:0403EC003BD8F41EE8
:0403ED003BD84B8C22
:0403EE003BD7A26EE9
:0403EF003BD6FD8D6F
:0403F0003BD6565B47
:0403F1003BD5B2D86E
:0403F2003BD50BD319
:0403F3003BD468820D
:0403F4003BD3C5E949
:0403F5003BD324A42E
:0403F6003BD2841E54
:0403F7003BD1E45AB8
:0403F8003BD142E9CA
:0403F9003BD0A374DE
:0403FA003BD0042AC6
:0403FB003BCF681D6F
:0403FC003BCECC42E6
:0403FD003BCE313989
:0403FE003BCD95C896
:0403FF003BCCFA9069
:040400003BCC1D963E
:040401003BCAEE9272
:040402003BC9C04AE8
:040403003BC8968CD0
:040404003BC76EA1E3
:040405003BC649D9D0
:040406003BC5284882
:040407003BC40912D7
:040408003BC2ED3ACC
:040409003BC1D29988
:04040A003BC0BAD861
:04040B003BBFA7A5A7
:04040C003BBE9588D6
:04040D003BBD862E3F
:04040E003BBC795525
:04040F003BBB6F0F75
:040410003BBA671775
:040411003BB961286A
:040412003BB85E5243
:040413003BB75CF99E
:040414003BB65E8312
:040415003BB563AAE6
:040416003BB468CFBC
:040417003BB371047E
:040418003BB27B5523
:040419003BB1882645
:04041A003BB097E07C
:04041B003BAFA82B20
:04041C003BAEBB2117
:04041D003BADCFC85C
:04041E003BACE78D7F
:04041F003BAC006C86
:040420003BAB1BD304
:040421003BAA397742
:040422003BA957FE9D
:040423003BA8798EEB
:040424003BA79C173F
:040425003BA6C10D24
:040426003BA5E822E8
:040427003BA50FF6EC
:040428003BA43B10A6
:040429003BA366FE8D
:04042A003BA2953824
:04042B003BA1C5111B
:04042C003BA0F6F10A
:04042D003BA02910B7
:04042E003B9F5DA7EC
:04042F003B9E9463F9
:040430003B9DCC9391
:040431003B9D0641A8
:040432003B9C41D3DB
:040433003B9B7E3938
:040434003B9ABDB47E
:040435003B99FDB53D
:040436003B993EA30D
:040437003B9881A4C9
:040438003B97C72403
:040439003B970DAA36
:04043A003B96547D1C
:04043B003B959DEA66
:04043C003B94E87491
:04043D003B94348731
:04043E003B93835019
:04043F003B92D09F7D
:040440003B922117B3
:040441003B9172D3A6
:040442003B90C5DD49
:040443003B9019D7FA
:040444003B8F6F2B50
:040445003B8EC646DE
:040446003B8E1E6665
:040447003B8D7792E0
:040448003B8CD236E1
:040449003B8C2EBEFC
:04044A003B8B8C025A
:04044B003B8AEA6D91
:04044C003B8A4A6C31
:04044D003B89AAD16C
:04044E003B890C7169
:04044F003B8870EF87
:040450003B87D4AF63
:040451003B8739BDEF
:040452003B86A085C0
:040453003B86083F9D
:040454003B8571591A
:040455003B84DB7198
:040456003B8446227B
:040457003B83B31818
:040458003B831FDEE5
:040459003B828E2232
:04045A003B81FD7F66
:04045B003B816E660D
:04045C003B80DF9B67
:04045D003B8051F996
:04045E003B7F8B75E0
:04045F003B7E72D896
:040460003B7D5DF291
:040461003B7C4D3D56
:040462003B7B3B3A6B
:040463003B7A2AEDC9
:040464003B791F6160
:040465003B78122DA1
:040466003B77096275
:040467003B760127B8
:040468003B74FBAF37
:040469003B73F7B832
:04046A003B72F546A6
:04046B003B71F4D617
:04046C003B70F6E10A
:04046D003B6FF93BAD
:04046E003B6EFE22C1
:04046F003B6E03D805
:040470003B6D0C9E36
:040471003B6C15D0FB
:040472003B6B222599
:040473003B6A2D9F14
:040474003B693C4B59
:040475003B684DC0D3
:040476003B675FC9B8
:040477003B6673511C
:040478003B6588D385
:040479003B64A05CE4
:04047A003B63B6BC6E
:04047B003B62CF2FE2
:04047C003B61EC04F0
:04047D003B61083A9D
:04047E003B60278434
:04047F003B5F45C5D5
:040480003B5E672A4E
:040481003B5D8968EE
:040482003B5CADEC46
:040483003B5BD3D03C
:040484003B5AF93AAC
:040485003B5A226656
:040486003B594B9DF6
:040487003B5876C3A5
:040488003B57A45CDE
:040489003B56D19677
:04048A003B55FFDF00
:04048B003B55312983
:04048C003B5462215A
:04048D003B53953117
:04048E003B52C8EE27
:04048F003B51FDDB05
:040490003B51347731
:040491003B506DBFB0
:040492003B4FA6D561
:040493003B4EE1AB50
:040494003B4E1CD3EC
:040495003B4D594B37
:040496003B4C981132
:040497003B4BD835CE
:040498003B4B174380
:040499003B4A583250
:04049A003B499B0C33
:04049B003B48DFD229
:04049C003B482512A2
:04049D003B476B4B23
:04049E003B46B185A3
:04049F003B45FA439C
:0404A0003B45448B09
:0404A1003B448F60E9
:0404A2003B43DA46B8
:0404A3003B4327C6EA
:0404A4003B42755F03
:0404A5003B41C49B78
:0404A6003B41147949
:0404A7003B406581F0
:0404A8003B3FB838E6
:0404A9003B3F099438
:0404AA003B3E5FBCBA
:0404AB003B3DB3041E
:0404AC003B3D0AA228
:0404AD003B3C606A0A
:0404AE003B3BB779A4
:0404AF003B3B11E7DB
:0404B0003B3A6C9EC9
:0404B1003B39C6927B
:0404B2003B3922EBC5
:0404B3003B38801B37
:0404B4003B37DE26CE
:0404B5003B373C890C
:0404B6003B369B45F1
:0404B7003B35FC7F56
:0404B8003B355E1B57
:0404B9003B34C01BF5
:0404BA003B34239517
:0404BB003B33866ADF
:0404BC003B32EC598A
:0404BD003B3252BDBF
:0404BE003B31B88393
:0404BF003B3120E9C4
:0404C0003B3087192D
:0404C1003B2FF2A635
:0404C2003B2F5AEA88
:0404C3003B2EC66B9B
:0404C4003B2E327524
:0404C5003B2DA02308
:0404C6003B2D0C318D
:0404C7003B2C7B014E
:0404C8003B2BEA6779
:0404C9003B2B583140
:0404CA003B2AC9E41C
:0404CB003B2A3B1C71
:0404CC003B29AD8299
:0404CD003B29208D1A
:0404CE003B2893AF85
:0404CF003B2806EDD3
:0404D0003B277D1237
:0404D1003B26F2C90B
:0404D2003B266A5308
:0404D3003B25E0E104
:0404D4003B2559D992
:0404D5003B24D1D91A
:0404D6003B244BB9BF
:0404D7003B23C5C836
:0404D8003B234099E9
:0404D9003B22BDE61F
:0404DA003B223890F9
:0404DB003B21B5BA52
:0404DC003B2133B3DA
:0404DD003B20B310FD
:0404DE003B2030F29D
:0404DF003B1FB164AA
:0404E0003B1F30F49A
:0404E1003B1EB1F01D
:0404E2003B1E34F594
:0404E3003B1DB7B155
:0404E4003B1D3A245E
:0404E5003B1CBD7B84
:0404E6003B1C41BAC0
:0404E7003B1BC6E411
:0404E8003B1B4CF975
:0404E9003B1AD2D117
:0404EA003B1A59025E
:0404EB003B19E0BE1B
:0404EC003B1968410F
:0404ED003B18F15473
:0404EE003B187B63D9
:0404EF003B1804A60C
:0404F0003B178F80A7
:0404F1003B171AC5D6
:0404F2003B16A6749B
:0404F3003B1631F68D
:0404F4003B15C051A3
:0404F5003B154C1750
:0404F6003B14DABB1E
:0404F7003B14693A0F
:0404F8003B13F82F8B
:0404F9003B13879D8D
:0404FA003B13178514
:0404FB003B12A88682
:0404FC003B123AA3D2
:0404FD003B11CC07DC
:0404FE003B115D4F02
:0404FF003B10F1912C
:040500003B1054F761
:040501003B0F7E4DE1
:040502003B0EA8E51F
:040503003B0DD65D79
:040504003B0D04E4C3
:040505003B0C36175E
:040506003B0B69B58D
:040507003B0A9E37D6
:040508003B09D59046
:040509003B090D9409
:04050A003B0848382A
:04050B003B078538ED
:04050C003B06C3AB3C
:04050D003B06039B0B
:04050E003B0545B9AB
:04050F003B04891A06
:040510003B03CE6D6E
:040511003B0315167D
:040512003B025E4A00
:040513003B01A8946C
:040514003B00F42B89
:040515003B00424322
:040516003AFF23CFB6
:040517003AFDC4EDF8
:040518003AFC69A19F
:040519003AFB125542
:04051A003AF9BDC726
:04051B003AF86AA898
:04051C003AF71A0F81
:04051D003AF5CF28B4
:04051E003AF485E640
:04051F003AF3401457
:040520003AF1FC09A7
:040521003AF0BADF13
:040522003AEF7DB47B
:040523003AEE4175F6
:040524003AED0AC2E0
:040525003AEBD2A03B
:040526003AEAA02DE0
:040527003AE96F98A6
:040528003AE8425B10
:040529003AE715ABED
:04052A003AE5EC7151
:04052B003AE4C607E1
:04052C003AE3A337D4
:04052D003AE280CA64
:04052E003AE160430B
:04052F003AE043DE8D
:040530003ADF2A374D
:040531003ADE106B33
:040532003ADCFA8F26
:040533003ADBE6DCED
:040534003ADAD501D9
:040535003AD9C56882
:040536003AD8B93EB8
:040537003AD7ADF111
:040538003AD6A56E9C
:040539003AD59E9E73
:04053A003AD499F125
:04053B003AD396AD6C
:04053C003AD296C653
:04053D003AD1979D7B
:04053E003AD09CAF64
:04053F003ACFA045CA
:040540003ACEA89077
:040541003ACDB28974
:040542003ACCBCAB48
:040543003ACBC95690
:040544003ACAD89344
:040545003AC9EA0ABB
:040546003AC8FC347F
:040547003AC811128B
:040548003AC727E5A2
:040549003AC63FEA85
:04054A003AC558C78F
:04054B003AC474E654
:04054C003AC391EF2E
:04054D003AC2B11BE2
:04054E003AC1D20FCD
:04054F003AC0F33784
:040550003AC018A4F1
:040551003ABF3DEE82
:040552003ABE6451F8
:040553003ABD8CA77A
:040554003ABCB76393
:040555003ABBE3BB0F
:040556003ABB10E5B7
:040557003ABA3FBAB3
:040558003AB970AF8D
:040559003AB8A220EA
:04055A003AB7D5C116
:04055B003AB70B9907
:04055C003AB640C3A8
:04055D003AB57975BD
:04055E003AB4B25C9D
:04055F003AB3ED9A24
:040560003AB32986FB
:040561003AB2676DD6
:040562003AB1A533D2
:040563003AB0E6B90B
:040564003AB0274F33
:040565003AAF6A69D6
:040566003AAEAD7B81
:040567003AADF2B205
:040568003AAD3A85E9
:040569003AAC8262C4
:04056A003AABCCE8F4
:04056B003AAB16A3EE
:04056C003AAA62360F
:04056D003AA9B018DF
:04056E003AA8FE9019
:04056F003AA84DA0B9
:040570003AA79F14F3
:040571003AA6EF6453
:040572003AA6437CE6
:040573003AA596EB24
:040574003AA4EC6653
:040575003AA4430C55
:040576003AA39B58B1
:040577003AA2F4DCD4
:040578003AA24D58FE
:040579003AA1A95B9F
:04057A003AA105BCE1
:04057B003AA06197AA
:04057C003A9FC021C1
:04057D003A9F1F8DF5
:04057E003A9E7FDF43
:04057F003A9DE0A61B
:040580003A9D434A13
:040581003A9CA66B8F
:040582003A9C0BEAAA
:040583003A9B71022C
:040584003A9AD79434
:040585003A9A3EB4AC
:040586003A99A6698F
:040587003A99101D70
:040588003A987AE73C
:040589003A97E5D9DF
:04058A003A9751E764
:04058B003A96BE9D41
:04058C003A962E620B
:04058D003A959D6A94
:04058E003A950C2F5F
:04058F003A947D1D00
:040590003A93EEC8E4
:040591003A9361AE8A
:040592003A92D46164
:040593003A92494E01
:040594003A91BF08D1
:040595003A913499CA
:040596003A90AB7874
:040597003A90223440
:040598003A8F9B42B9
:040599003A8F14324F
:04059A003A8E8F0204
:04059B003A8E0AB6D4
:04059C003A8D85D837
:04059D003A8D02E3AE
:04059E003A8C7FE034
:04059F003A8BFED1C4
:0405A0003A8B7DB85D
:0405A1003A8AFC99FD
:0405A2003A8A7CF71E
:0405A3003A89FE573C
:0405A4003A8980BB55
:0405A5003A89032567
:0405A6003A88879E6A
:0405A7003A880B9FE4
:0405A8003A8790B24C
:0405A9003A8716581F
:0405AA003A869C925F
:0405AB003A8622E189
:0405AC003A85AB578A
:0405AD003A853362F6
:0405AE003A84BC923D
:0405AF003A844771D2
:0405B0003A83D27147
:0405B1003A835D9597
:0405B2003A82E8E0C1
:0405B3003A82755FB4
:0405B4003A820290F5
:0405B5003A81907483
:0405B6003A811FDB8C
:0405B7003A80AFB91E
:0405B8003A803F88BE
:0405B9003A7F9FA541
:0405BA003A7EC0AB1A
:0405BB003A7DE33A68
:0405BC003A7D08F08C
:0405BD003A7C2FB2A3
:0405BE003A7B5670BE
:0405BF003A7A7D2DDA
:0405C0003A79A83E9E
:0405C1003A78D2CFE3
:0405C2003A77FF0B7A
:0405C3003A772C6FE8
:0405C4003A765A72B7
:0405C5003A758A30C9
:0405C6003A74B97F4B
:0405C7003A73ECC4D3
:0405C8003A731F1350
:0405C9003A7252A68A
:0405CA003A71877D7E
:0405CB003A70BDA025
:0405CC003A6FF62D5F
:0405CD003A6F2DD77D
:0405CE003A6E67F426
:0405CF003A6DA1C21E
:0405D0003A6CDE9D06
:0405D1003A6C1C5014
:0405D2003A6B56ED3D
:0405D3003A6A96E604
:0405D4003A69D6A00A
:0405D5003A69173F29
:0405D6003A6859EA3C
:0405D7003A679C5E85
:0405D8003A66E17826
:0405D9003A66253F1A
:0405DA003A65696BAA
:0405DB003A64B201CB
:0405DC003A63F8B9CD
:0405DD003A634354E6
:0405DE003A628AEE05
:0405DF003A61D82F76
:0405E0003A61214C0F
:0405E1003A606D34DB
:0405E2003A5FBC843C
:0405E3003A5F0BC6AA
:0405E4003A5E5A63BE
:0405E5003A5DA8F3E0
:0405E6003A5CFC2A55
:0405E7003A5C4D9994
:0405E8003A5BA032A8
:0405E9003A5AF36126
:0405EA003A5A47C072
:0405EB003A599D5488
:0405EC003A58F41E67
:0405ED003A584B8CA1
:0405EE003A57A26E68
:0405EF003A56FD8DEE
:0405F0003A56565BC6
:0405F1003A55B2D8ED
:0405F2003A550BD398
:0405F3003A5468828C
:0405F4003A53C5E9C8
:0405F5003A5324A4AD
:0405F6003A52841ED3
:0405F7003A51E45A37
:0405F8003A5142E949
:0405F9003A50A3745D
:0405FA003A50042A45
:0405FB003A4F681DEE
:0405FC003A4ECC4265
:0405FD003A4E313908
:0405FE003A4D95C815
:0405FF003A4CFA90E8
:040600003A4C1D96BD
:040601003A4AEE92F1
:040602003A49C04A67
:040603003A48968C4F
:040604003A476EA162
:040605003A4649D94F
:040606003A45284801
:040607003A44091256
:040608003A42ED3A4B
:040609003A41D29907
:04060A003A40BAD8E0
:04060B003A3FA7A526
:04060C003A3E958855
:04060D003A3D862EBE
:04060E003A3C7955A4
:04060F003A3B6F0FF4
:040610003A3A6717F4
:040611003A396128E9
:040612003A385E52C2
:040613003A375CF91D
:040614003A365E8391
:040615003A3563AA65
:040616003A3468CF3B
:040617003A337104FD
:040618003A327B55A2
:040619003A318826C4
:04061A003A3097E0FB
:04061B003A2FA82B9F
:04061C003A2EBB2196
:04061D003A2DCFC8DB
:04061E003A2CE78DFE
:04061F003A2C006C05
:040620003A2B1BD383
:040621003A2A3977C1
:040622003A2957FE1C
:040623003A28798E6A
:040624003A279C17BE
:040625003A26C10DA3
:040626003A25E82267
:040627003A250FF66B
:040628003A243B1025
:040629003A2366FE0C
:04062A003A229538A3
:04062B003A21C5119A
:04062C003A20F6F189
:04062D003A20291036
:04062E003A1F5DA76B
:04062F003A1E946378
:040630003A1DCC9310
:040631003A1D064127
:040632003A1C41D35A
:040633003A1B7E39B7
:040634003A1ABDB4FD
:040635003A19FDB5BC
:040636003A193EA38C
:040637003A1881A448
:040638003A17C72482
:040639003A170DAAB5
:04063A003A16547D9B
:04063B003A159DEAE5
:04063C003A14E87410
:04063D003A143487B0
:04063E003A13835098
:04063F003A12D09FFC
:040640003A12211732
:040641003A1172D325
:040642003A10C5DDC8
:040643003A1019D779
:040644003A0F6F2BCF
:040645003A0EC6465D
:040646003A0E1E66E4
:040647003A0D77925F
:040648003A0CD23660
:040649003A0C2EBE7B
:04064A003A0B8C02D9
:04064B003A0AEA6D10
:04064C003A0A4A6CB0
:04064D003A09AAD1EB
:04064E003A090C71E8
:04064F003A0870EF06
:040650003A07D4AFE2
:040651003A0739BD6E
:040652003A06A0853F
:040653003A06083F1C
:040654003A05715999
:040655003A04DB7117
:040656003A044622FA
:040657003A03B31897
:040658003A031FDE64
:040659003A028E22B1
:04065A003A01FD7FE5
:04065B003A016E668C
:04065C003A00DF9BE6
:04065D003A0051F915
:04065E0039FF8B7560
:04065F0039FE72D816
:0406600039FD5DF211
:0406610039FC4D3DD6
:0406620039FB3B3AEB
:0406630039FA2AED49
:0406640039F91F61E0
:0406650039F8122D21
:0406660039F70962F5
:0406670039F6012738
:0406680039F4FBAFB7
:0406690039F3F7B8B2
:04066A0039F2F54626
:04066B0039F1F4D697
:04066C0039F0F6E18A
:04066D0039EFF93B2D
:04066E0039EEFE2241
:04066F0039EE03D885
:0406700039ED0C9EB6
:0406710039EC15D07B
:0406720039EB222519
:0406730039EA2D9F94
:0406740039E93C4BD9
:0406750039E84DC053
:0406760039E75FC938
:0406770039E673519C
:0406780039E588D305
:0406790039E4A05C64
:04067A0039E3B6BCEE
:04067B0039E2CF2F62
:04067C0039E1EC0470
:04067D0039E1083A1D
:04067E0039E02784B4
:04067F0039DF45C555
:0406800039DE672ACE
:0406810039DD89686E
:0406820039DCADECC6
:0406830039DBD3D0BC
:0406840039DAF93A2C
:0406850039DA2266D6
:0406860039D94B9D76
:0406870039D876C325
:0406880039D7A45C5E
:0406890039D6D196F7
:04068A0039D5FFDF80
:04068B0039D5312903
:04068C0039D46221DA
:04068D0039D3953197
:04068E0039D2C8EEA7
:04068F0039D1FDDB85
:0406900039D13477B1
:0406910039D06DBF30
:0406920039CFA6D5E1
:0406930039CEE1ABD0
:0406940039CE1CD36C
:0406950039CD594BB7
:0406960039CC9811B2
:0406970039CBD8354E
:0406980039CB174300
:0406990039CA5832D0
:04069A0039C99B0CB3
:04069B0039C8DFD2A9
:04069C0039C8251222
:04069D0039C76B4BA3
:04069E0039C6B18523
:04069F0039C5FA431C
:0406A00039C5448B89
:0406A10039C48F6069
:0406A20039C3DA4638
:0406A30039C327C66A
:0406A40039C2755F83
:0406A50039C1C49BF8
:0406A60039C11479C9
:0406A70039C0658170
:0406A80039BFB83866
:0406A90039BF0994B8
:0406AA0039BE5FBC3A
:0406AB0039BDB3049E
:0406AC0039BD0AA2A8
:0406AD0039BC606A8A
:0406AE0039BBB77924
:0406AF0039BB11E75B
:0406B00039BA6C9E49
:0406B10039B9C692FB
:0406B20039B922EB45
:0406B30039B8801BB7
:0406B40039B7DE264E
:0406B50039B73C898C
:0406B60039B69B4571
:0406B70039B5FC7FD6
:0406B80039B55E1BD7
:0406B90039B4C01B75
:0406BA0039B4239597
:0406BB0039B3866A5F
:0406BC0039B2EC590A
:0406BD0039B252BD3F
:0406BE0039B1B88313
:0406BF0039B120E944
:0406C00039B08719AD
:0406C10039AFF2A6B5
:0406C20039AF5AEA08
:0406C30039AEC66B1B
:0406C40039AE3275A4
:0406C50039ADA02388
:0406C60039AD0C310D
:0406C70039AC7B01CE
:0406C80039ABEA67F9
:0406C90039AB5831C0
:0406CA0039AAC9E49C
:0406CB0039AA3B1CF1
:0406CC0039A9AD8219
:0406CD0039A9208D9A
:0406CE0039A893AF05
:0406CF0039A806ED53
:0406D00039A77D12B7
:0406D10039A6F2C98B
:0406D20039A66A5388
:0406D30039A5E0E184
:0406D40039A559D912
:0406D50039A4D1D99A
:0406D60039A44BB93F
:0406D70039A3C5C8B6
:0406D80039A3409969
:0406D90039A2BDE69F
:0406DA0039A2389079
:0406DB0039A1B5BAD2
:0406DC0039A133B35A
:0406DD0039A0B3107D
:0406DE0039A030F21D
:0406DF00399FB1642A
:0406E000399F30F41A
:0406E100399EB1F09D
:0406E200399E34F514
:0406E300399DB7B1D5
:0406E400399D3A24DE
:0406E500399CBD7B04
:0406E600399C41BA40
:0406E700399BC6E491
:0406E800399B4CF9F5
:0406E900399AD2D197
:0406EA00399A5902DE
:0406EB003999E0BE9B
:0406EC00399968418F
:0406ED003998F154F3
:0406EE0039987B6359
:0406EF00399804A68C
:0406F00039978F8027
:0406F10039971AC556
:0406F2003996A6741B
:0406F300399631F60D
:0406F4003995C05123
:0406F50039954C17D0
:0406F6003994DABB9E
:0406F7003994693A8F
:0406F8003993F82F0B
:0406F9003993879D0D
:0406FA003993178594
:0406FB003992A88602
:0406FC0039923AA352
:0406FD003991CC075C
:0406FE0039915D4F82
:0406FF003990F191AC
:04070000399054F7E1
:04070100398F7E4D61
:04070200398EA8E59F
:04070300398DD65DF9
:04070400398D04E443
:04070500398C3617DE
:04070600398B69B50D
:04070700398A9E3756
:040708003989D590C6
:0407090039890D9489
:04070A0039884838AA
:04070B00398785386D
:04070C003986C3ABBC
:04070D003986039B8B
:04070E00398545B92B
:04070F003984891A86
:040710003983CE6DEE
:0407110039831516FD
:0407120039825E4A80
:040713003981A894EC
:040714003980F42B09
:0407150039804243A2
:04071600397F23CF35
:04071700397DC4ED77
:04071800397C69A11E
:04071900397B1255C1
:04071A003979BDC7A5
:04071B0039786AA817
:04071C0039771A0F00
:04071D003975CF2833
:04071E00397485E6BF
:04071F0039734014D6
:040720003971FC0926
:040721003970BADF92
:04072200396F7DB4FA
:04072300396E417575
:04072400396D0AC25F
:04072500396BD2A0BA
:04072600396AA02D5F
:0407270039696F9825
:040728003968425B8F
:04072900396715AB6C
:04072A003965EC71D0
:04072B003964C60760
:04072C003963A33753
:04072D00396280CAE3
:04072E00396160438A
:04072F00396043DE0C
:04073000395F2A37CC
:04073100395E106BB2
:04073200395CFA8FA5
:04073300395BE6DC6C
:04073400395AD50158
:040735003959C56801
:040736003958B93E37
:040737003957ADF190
:040738003956A56E1B
:0407390039559E9EF2
:04073A00395499F1A4
:04073B00395396ADEB
:04073C00395296C6D2
:04073D003951979DFA
:04073E0039509CAFE3
:04073F00394FA04549
:04074000394EA890F6
:04074100394DB289F3
:04074200394CBCABC7
:04074300394BC9560F
:04074400394AD893C3
:040745003949EA0A3A
:040746003948FC34FE
:04074700394811120A
:04074800394727E521
:0407490039463FEA04
:04074A00394558C70E
:04074B00394474E6D3
:04074C00394391EFAD
:04074D003942B11B61
:04074E003941D20F4C
:04074F003940F33703
:04075000394018A470
:04075100393F3DEE01
:04075200393E645177
:04075300393D8CA7F9
:04075400393CB76312
:04075500393BE3BB8E
:04075600393B10E536
:04075700393A3FBA32
:04075800393970AF0C
:040759003938A22069
:04075A003937D5C195
:04075B0039370B9986
:04075C00393640C327
:04075D00393579753C
:04075E003934B25C1C
:04075F003933ED9AA3
:04076000393329867A
:040761003932676D55
:040762003931A53351
:040763003930E6B98A
:040764003930274FB2
:04076500392F6A6955
:04076600392EAD7B00
:04076700392DF2B284
:04076800392D3A8568
:04076900392C826243
:04076A00392BCCE873
:04076B00392B16A36D
:04076C00392A62368E
:04076D003929B0185E
:04076E003928FE9098
:04076F0039284DA038
:0407700039279F1472
:040771003926EF64D2
:040772003926437C65
:04077300392596EBA3
:040774003924EC66D2
:040775003924430CD4
:0407760039239B5830
:040777003922F4DC53
:0407780039224D587D
:040779003921A95B1E
:04077A00392105BC60
:04077B003920619729
:04077C00391FC02140
:04077D00391F1F8D74
:04077E00391E7FDFC2
:04077F00391DE0A69A
:04078000391D434A92
:04078100391CA66B0E
:04078200391C0BEA29
:04078300391B7102AB
:04078400391AD794B3
:04078500391A3EB42B
:040786003919A6690E
:040787003919101DEF
:0407880039187AE7BB
:040789003917E5D95E
:04078A00391751E7E3
:04078B003916BE9DC0
:04078C0039162E628A
:04078D0039159D6A13
:04078E0039150C2FDE
:04078F0039147D1D7F
:040790003913EEC863
:04079100391361AE09
:040792003912D461E3
:040793003912494E80
:040794003911BF0850
:040795003911349949
:040796003910AB78F3
:0407970039102234BF
:04079800390F9B4238
:04079900390F1432CE
:04079A00390E8F0283
:04079B00390E0AB653
:04079C00390D85D8B6
:04079D00390D02E32D
:04079E00390C7FE0B3
:04079F00390BFED143
:0407A000390B7DB8DC
:0407A100390AFC997C
:0407A200390A7CF79D
:0407A3003909FE57BB
:0407A400390980BBD4
:0407A50039090325E6
:0407A6003908879EE9
:0407A70039080B9F63
:0407A800390790B2CB
:0407A900390716589E
:0407AA0039069C92DE
:0407AB00390622E108
:0407AC003905AB5709
:0407AD003905336275
:0407AE003904BC92BC
:0407AF003904477151
:0407B0003903D271C6
:0407B10039035D9516
:0407B2003902E8E040
:0407B3003902755F33
:0407B4003902029074
:0407B5003901907402
:0407B60039011FDB0B
:0407B7003900AFB99D
:0407B80039003F883D
:0407B90038FF9FA5C1
:0407BA0038FEC0AB9A
:0407BB0038FDE33AE8
:0407BC0038FD08F00C
:0407BD0038FC2FB223
:0407BE0038FB56703E
:0407BF0038FA7D2D5A
:0407C00038F9A83E1E
:0407C10038F8D2CF63
:0407C20038F7FF0BFA
:0407C30038F72C6F68
:0407C40038F65A7237
:0407C50038F58A3049
:0407C60038F4B97FCB
:0407C70038F3ECC453
:0407C80038F31F13D0
:0407C90038F252A60A
:0407CA0038F1877DFE
:0407CB0038F0BDA0A5
:0407CC0038EFF62DDF
:0407CD0038EF2DD7FD
:0407CE0038EE67F4A6
:0407CF0038EDA1C29E
:0407D00038ECDE9D86
:0407D10038EC1C5094
:0407D20038EB56EDBD
:0407D30038EA96E684
:0407D40038E9D6A08A
:0407D50038E9173FA9
:0407D60038E859EABC
:0407D70038E79C5E05
:0407D80038E6E178A6
:0407D90038E6253F9A
:0407DA0038E5696B2A
:0407DB0038E4B2014B
:0407DC0038E3F8B94D
:0407DD0038E3435466
:0407DE0038E28AEE85
:0407DF0038E1D82FF6
:0407E00038E1214C8F
:0407E10038E06D345B
:0407E20038DFBC84BC
:0407E30038DF0BC62A
:0407E40038DE5A633E
:0407E50038DDA8F360
:0407E60038DCFC2AD5
:0407E70038DC4D9914
:0407E80038DBA03228
:0407E90038DAF361A6
:0407EA0038DA47C0F2
:0407EB0038D99D5408
:0407EC0038D8F41EE7
:0407ED0038D84B8C21
:0407EE0038D7A26EE8
:0407EF0038D6FD8D6E
:0407F00038D6565B46
:0407F10038D5B2D86D
:0407F20038D50BD318
:0407F30038D468820C
:0407F40038D3C5E948
:0407F50038D324A42D
:0407F60038D2841E53
:0407F70038D1E45AB7
:0407F80038D142E9C9
:0407F90038D0A374DD
:0407FA0038D0042AC5
:0407FB0038CF681D6E
:0407FC0038CECC42E5
:0407FD0038CE313988
:0407FE0038CD95C895
:0407FF0038CCFA9068
:0408000038CC1D963D
:0408010038CAEE9271
:0408020038C9C04AE7
:0408030038C8968CCF
:0408040038C76EA1E2
:0408050038C649D9CF
:0408060038C5284881
:0408070038C40912D6
:0408080038C2ED3ACB
:0408090038C1D29987
:04080A0038C0BAD860
:04080B0038BFA7A5A6
:04080C0038BE9588D5
:04080D0038BD862E3E
:04080E0038BC795524
:04080F0038BB6F0F74
:0408100038BA671774
:0408110038B9612869
:0408120038B85E5242
:0408130038B75CF99D
:0408140038B65E8311
:0408150038B563AAE5
:0408160038B468CFBB
:0408170038B371047D
:0408180038B27B5522
:0408190038B1882644
:04081A0038B097E07B
:04081B0038AFA82B1F
:04081C0038AEBB2116
:04081D0038ADCFC85B
:04081E0038ACE78D7E
:04081F0038AC006C85
:0408200038AB1BD303
:0408210038AA397741
:0408220038A957FE9C
:0408230038A8798EEA
:0408240038A79C173E
:0408250038A6C10D23
:0408260038A5E822E7
:0408270038A50FF6EB
:0408280038A43B10A5
:0408290038A366FE8C
:04082A0038A2953823
:04082B0038A1C5111A
:04082C0038A0F6F109
:04082D0038A02910B6
:04082E00389F5DA7EB
:04082F00389E9463F8
:04083000389DCC9390
:04083100389D0641A7
:04083200389C41D3DA
:04083300389B7E3937
:04083400389ABDB47D
:040835003899FDB53C
:0408360038993EA30C
:04083700389881A4C8
:040838003897C72402
:0408390038970DAA35
:04083A003896547D1B
:04083B0038959DEA65
:04083C003894E87490
:04083D003894348730
:04083E003893835018
:04083F003892D09F7C
:0408400038922117B2
:04084100389172D3A5
:040842003890C5DD48
:04084300389019D7F9
:04084400388F6F2B4F
:04084500388EC646DD
:04084600388E1E6664
:04084700388D7792DF
:04084800388CD236E0
:04084900388C2EBEFB
:04084A00388B8C0259
:04084B00388AEA6D90
:04084C00388A4A6C30
:04084D003889AAD16B
:04084E0038890C7168
:04084F00388870EF86
:040850003887D4AF62
:04085100388739BDEE
:040852003886A085BF
:040853003886083F9C
:040854003885715919
:040855003884DB7197
:04085600388446227A
:040857003883B31817
:0408580038831FDEE4
:0408590038828E2231
:04085A003881FD7F65
:04085B0038816E660C
:04085C003880DF9B66
:04085D00388051F995
:04085E00387F8B75DF
:04085F00387E72D895
:04086000387D5DF290
:04086100387C4D3D55
:04086200387B3B3A6A
:04086300387A2AEDC8
:0408640038791F615F
:040865003878122DA0
:040866003877096274
:0408670038760127B7
:040868003874FBAF36
:040869003873F7B831
:04086A003872F546A5
:04086B003871F4D616
:04086C003870F6E109
:04086D00386FF93BAC
:04086E00386EFE22C0
:04086F00386E03D804
:04087000386D0C9E35
:04087100386C15D0FA
:04087200386B222598
:04087300386A2D9F13
:0408740038693C4B58
:0408750038684DC0D2
:0408760038675FC9B7
:04087700386673511B
:04087800386588D384
:040879003864A05CE3
:04087A003863B6BC6D
:04087B003862CF2FE1
:04087C003861EC04EF
:04087D003861083A9C
:04087E003860278433
:04087F00385F45C5D4
:04088000385E672A4D
:04088100385D8968ED
:04088200385CADEC45
:04088300385BD3D03B
:04088400385AF93AAB
:04088500385A226655
:0408860038594B9DF5
:04088700385876C3A4
:040888003857A45CDD
:040889003856D19676
:04088A003855FFDFFF
:04088B003855312982
:04088C003854622159
:04088D003853953116
:04088E003852C8EE26
:04088F003851FDDB04
:040890003851347730
:0408910038506DBFAF
:04089200384FA6D560
:04089300384EE1AB4F
:04089400384E1CD3EB
:04089500384D594B36
:04089600384C981131
:04089700384BD835CD
:04089800384B17437F
:04089900384A58324F
:04089A0038499B0C32
:04089B003848DFD228
:04089C0038482512A1
:04089D0038476B4B22
:04089E003846B185A2
:04089F003845FA439B
:0408A0003845448B08
:0408A10038448F60E8
:0408A2003843DA46B7
:0408A300384327C6E9
:0408A4003842755F02
:0408A5003841C49B77
:0408A6003841147948
:0408A70038406581EF
:0408A800383FB838E5
:0408A900383F099437
:0408AA00383E5FBCB9
:0408AB00383DB3041D
:0408AC00383D0AA227
:0408AD00383C606A09
:0408AE00383BB779A3
:0408AF00383B11E7DA
:0408B000383A6C9EC8
:0408B1003839C6927A
:0408B200383922EBC4
:0408B3003838801B36
:0408B4003837DE26CD
:0408B50038373C890B
:0408B60038369B45F0
:0408B7003835FC7F55
:0408B80038355E1B56
:0408B9003834C01BF4
:0408BA003834239516
:0408BB003833866ADE
:0408BC003832EC5989
:0408BD00383252BDBE
:0408BE003831B88392
:0408BF00383120E9C3
:0408C000383087192C
:0408C100382FF2A634
:0408C200382F5AEA87
:0408C300382EC66B9A
:0408C400382E327523
:0408C500382DA02307
:0408C600382D0C318C
:0408C700382C7B014D
:0408C800382BEA6778
:0408C900382B58313F
:0408CA00382AC9E41B
:0408CB00382A3B1C70
:0408CC003829AD8298
:0408CD003829208D19
:0408CE00382893AF84
:0408CF00382806EDD2
:0408D00038277D1236
:0408D1003826F2C90A
:0408D20038266A5307
:0408D3003825E0E103
:0408D400382559D991
:0408D5003824D1D919
:0408D60038244BB9BE
:0408D7003823C5C835
:0408D80038234099E8
:0408D9003822BDE61E
:0408DA0038223890F8
:0408DB003821B5BA51
:0408DC00382133B3D9
:0408DD003820B310FC
:0408DE00382030F29C
:0408DF00381FB164A9
:0408E000381F30F499
:0408E100381EB1F01C
:0408E200381E34F593
:0408E300381DB7B154
:0408E400381D3A245D
:0408E500381CBD7B83
:0408E600381C41BABF
:0408E700381BC6E410
:0408E800381B4CF974
:0408E900381AD2D116
:0408EA00381A59025D
:0408EB003819E0BE1A
:0408EC00381968410E
:0408ED003818F15472
:0408EE0038187B63D8
:0408EF00381804A60B
:0408F00038178F80A6
:0408F10038171AC5D5
:0408F2003816A6749A
:0408F300381631F68C
:0408F4003815C051A2
:0408F50038154C174F
:0408F6003814DABB1D
:0408F7003814693A0E
:0408F8003813F82F8A
:0408F9003813879D8C
:0408FA003813178513
:0408FB003812A88681
:0408FC0038123AA3D1
:0408FD003811CC07DB
:0408FE0038115D4F01
:0408FF003810F1912B
:00000001FF
