:04000000D31436C21D
:04000100D30FAB88E6
:04000200D30B48587C
:04000300D3070BA371
:04000400D302F3B47C
:04000500D2FDFE84A6
:04000600D2F65B28AB
:04000700D2EEF8E855
:04000800D2E7D6BBAA
:04000900D2E0F1420E
:04000A00D2DA46A65A
:04000B00D2D3D51067
:04000C00D2CD9A2C8B
:04000D00D2C79304BF
:04000E00D2C1BF6933
:04000F00D2BC1C390A
:04001000D2B6A801BB
:04001100D2B16128DF
:04001200D2AC46AE78
:04001300D2A75562B9
:04001400D2A28D9354
:04001500D29DECAEDE
:04001600D299715CAE
:04001700D2951B075C
:04001800D290E7B6E5
:04001900D28CD5CDE3
:04001A00D288E5B8EB
:04001B00D285143640
:04001C00D28161AF7D
:04001D00D27B9A17E1
:04001E00D274A88E62
:04001F00D26DEE4868
:04002000D2676988B2
:04002100D261179FF2
:04002200D25AF7BBFC
:04002300D25506D9D3
:04002400D24F44C5AE
:04002500D249AF10FD
:04002600D244455427
:04002700D23F043E82
:04002800D239EC4C91
:04002900D234FB6072
:04002A00D2302FA7FA
:04002B00D22B88B09C
:04002C00D2270520B2
:04002D00D222A2C970
:04002E00D21E627903
:04002F00D21A41A000
:04003000D2163FDCC9
:04003100D2125B9EEE
:04003200D20E95084D
:04003300D20AE9C63E
:04003400D2075A1F76
:04003500D203E41FEF
:04003600D20087F776
:04003700D1FA884A28
:04003800D1F42FB31D
:04003900D1EE0610EE
:04003A00D1E808D22F
:04003B00D1E2373C9B
:04003C00D1DC8F097B
:04003D00D1D70FA266
:04003E00D1D1B7ACB9
:04003F00D1CC85C6D5
:04004000D1C778901C
:04004100D1C2900D8B
:04004200D1BDC92A39
:04004300D1B9248487
:04004400D1B49FC4D0
:04004500D1B03B8774
:04004600D1ABF52A1B
:04004700D1A7CD95DB
:04004800D1A3C24836
:04004900D19FD2EC85
:04004A00D19BFEB494
:04004B00D198451DE6
:04004C00D194A4E3C4
:04004D00D1911DAA86
:04004E00D18DAE01A1
:04004F00D18A5604F8
:04005000D187147AC6
:04005100D183E9422C
:04005200D180D35E28
:04005300D17BA3A119
:04005400D175C96039
:04005500D1701671DF
:04005600D16A888360
:04005700D16520ADA2
:04005800D15FDB6237
:04005900D15ABA02BC
:04005A00D155B9EDD6
:04005B00D150DACBDB
:04005C00D14C1B1157
:04005D00D1477B0507
:04005E00D142F8741F
:04005F00D13E938279
:04006000D13A4B5CEA
:04006100D1361E7006
:04006200D1320BC2CA
:04006300D12E145E28
:04006400D12A365B0C
:04006500D126702010
:04006600D122C2B52C
:04006700D11F2C2E4B
:04006800D11BACCC30
:04006900D118431A4D
:04006A00D114EF04BA
:04006B00D111AF926E
:04006C00D10E8482AB
:04006D00D10B6D76D0
:04006E00D1086A0A41
:04006F00D1057877C8
:04007000D10299BC64
:04007100D0FF986EB6
:04007200D0FA21ACF3
:04007300D0F4CA8774
:04007400D0EF952014
:04007500D0EA8085C8
:04007600D0E58970D8
:04007700D0E0B160C4
:04007800D0DBF5AC38
:04007900D0D757374E
:04007A00D0D2D4B755
:04007B00D0CE6CBDBA
:04007C00D0CA1F8A3D
:04007D00D0C5ECE618
:04007E00D0C1D1FE1E
:04007F00D0BDD074AC
:04008000D0B9E5E826
:04008100D0B6135989
:04008200D0B2572E73
:04008300D0AEB0DE6D
:04008400D0AB20A33A
:04008500D0A7A4DF7D
:04008600D0A43CBB0B
:04008700D0A0E95AC2
:04008800D09DA9213D
:04008900D09A7BF797
:04008A00D097608922
:04008B00D094573B7B
:04008C00D0915FA10F
:04008D00D08E790B8D
:04008E00D08BA384EC
:04008F00D088DD94A4
:04009000D08627BF30
:04009100D083812374
:04009200D080E9D35E
:04009300D07CC1D884
:04009400D077CCABAA
:04009500D072F2FA39
:04009600D06E361BD7
:04009700D06993AFEA
:04009800D065097BAB
:04009900D06099E8B2
:04009A00D05C42955F
:04009B00D058036EC8
:04009C00D053DBED75
:04009D00D04FCBADC8
:04009E00D04BD16210
:04009F00D047ED1D3C
:0400A000D0441E2EFC
:0400A100D040645691
:0400A200D03CBE1A76
:0400A300D0392C57CD
:0400A400D035AE05A0
:0400A500D032424DC6
:0400A600D02EE8E987
:0400A700D02BA1EECB
:0400A800D0286CA54B
:0400A900D02547E037
:0400AA00D022350F1C
:0400AB00D01F31A78A
:0400AC00D01C3F3BEA
:0400AD00D0195C52B8
:0400AE00D016887E62
:0400AF00D013C3A9FE
:0400B000D0110DB5A9
:0400B100D00E65C147
:0400B200D00BCBB7ED
:0400B300D0093F4BE6
:0400B400D006C0DED4
:0400B500D0044E9E87
:0400B600D001E98309
:0400B700CFFF21F660
:0400B800CFFA8931C1
:0400B900CFF6082D49
:0400BA00CFF19DC322
:0400BB00CFED4AA398
:0400BC00CFE90F2F4A
:0400BD00CFE4E6D8CE
:0400BE00CFE0D4C5F6
:0400BF00CFDCD72D8E
:0400C000CFD8EFAEF8
:0400C100CFD519B7C7
:0400C200CFD158BA88
:0400C300CFCDAA53A0
:0400C400CFCA0E642D
:0400C500CFC68578A5
:0400C600CFC30D2374
:0400C700CFBFA6FF02
:0400C800CFBC513E1A
:0400C900CFB90C8F10
:0400CA00CFB5D88353
:0400CB00CFB2B37B82
:0400CC00CFAF9F090A
:0400CD00CFAC99B467
:0400CE00CFA9A26EA6
:0400CF00CFA6BAD12D
:0400D000CFA3E10CCD
:0400D100CFA1161A8B
:0400D200CF9E57B4B2
:0400D300CF9BA6D049
:0400D400CF9902DDE1
:0400D500CF966D2035
:0400D600CF93E2B52D
:0400D700CF91652E32
:0400D800CF8EF423B0
:0400D900CF8C8DE655
:0400DA00CF8A33484E
:0400DB00CF87E4A047
:0400DC00CF85A09498
:0400DD00CF8367A2C4
:0400DE00CF8138E6B0
:0400DF00CF7E2AA600
:0400E000CF79F7716C
:0400E100CF75D6F70A
:0400E200CF71CB2AE5
:0400E300CF6DD23CCF
:0400E400CF69EBEB0A
:0400E500CF6617A427
:0400E600CF6256B5DA
:0400E700CF5EA665DD
:0400E800CF5B075C87
:0400E900CF57790C68
:0400EA00CF53FAE115
:0400EB00CF508F1152
:0400EC00CF4D31A41F
:0400ED00CF49E4D241
:0400EE00CF46A5DB79
:0400EF00CF43760A7B
:0400F000CF4055B6F2
:0400F100CF3D4312AA
:0400F200CF3A3F635F
:0400F300CF37483D7E
:0400F400CF345FFAAC
:0400F500CF31845033
:0400F600CF2EB59CB8
:0400F700CF2BF45BBC
:0400F800CF293E9737
:0400F900CF2695E198
:0400FA00CF23F845D3
:0400FB00CF216702A8
:0400FC00CF1EE10F23
:0400FD00CF1C678924
:0400FE00CF19F7D847
:0400FF00CF17933F45
:04010000CF1436C220
:04010100CF0FAB88E9
:04010200CF0B48587F
:04010300CF070BA374
:04010400CF02F3B47F
:04010500CEFDFE84A9
:04010600CEF65B28AE
:04010700CEEEF8E858
:04010800CEE7D6BBAD
:04010900CEE0F14211
:04010A00CEDA46A65D
:04010B00CED3D5106A
:04010C00CECD9A2C8E
:04010D00CEC79304C2
:04010E00CEC1BF6936
:04010F00CEBC1C390D
:04011000CEB6A801BE
:04011100CEB16128E2
:04011200CEAC46AE7B
:04011300CEA75562BC
:04011400CEA28D9357
:04011500CE9DECAEE1
:04011600CE99715CB1
:04011700CE951B075F
:04011800CE90E7B6E8
:04011900CE8CD5CDE6
:04011A00CE88E5B8EE
:04011B00CE85143643
:04011C00CE8161AF80
:04011D00CE7B9A17E4
:04011E00CE74A88E65
:04011F00CE6DEE486B
:04012000CE676988B5
:04012100CE61179FF5
:04012200CE5AF7BBFF
:04012300CE5506D9D6
:04012400CE4F44C5B1
:04012500CE49AF1000
:04012600CE4445542A
:04012700CE3F043E85
:04012800CE39EC4C94
:04012900CE34FB6075
:04012A00CE302FA7FD
:04012B00CE2B88B09F
:04012C00CE270520B5
:04012D00CE22A2C973
:04012E00CE1E627906
:04012F00CE1A41A003
:04013000CE163FDCCC
:04013100CE125B9EF1
:04013200CE0E950850
:04013300CE0AE9C641
:04013400CE075A1F79
:04013500CE03E41FF2
:04013600CE0087F779
:04013700CDFA884A2B
:04013800CDF42FB320
:04013900CDEE0610F1
:04013A00CDE808D232
:04013B00CDE2373C9E
:04013C00CDDC8F097E
:04013D00CDD70FA269
:04013E00CDD1B7ACBC
:04013F00CDCC85C6D8
:04014000CDC778901F
:04014100CDC2900D8E
:04014200CDBDC92A3C
:04014300CDB924848A
:04014400CDB49FC4D3
:04014500CDB03B8777
:04014600CDABF52A1E
:04014700CDA7CD95DE
:04014800CDA3C24839
:04014900CD9FD2EC88
:04014A00CD9BFEB497
:04014B00CD98451DE9
:04014C00CD94A4E3C7
:04014D00CD911DAA89
:04014E00CD8DAE01A4
:04014F00CD8A5604FB
:04015000CD87147AC9
:04015100CD83E9422F
:04015200CD80D35E2B
:04015300CD7BA3A11C
:04015400CD75C9603C
:04015500CD701671E2
:04015600CD6A888363
:04015700CD6520ADA5
:04015800CD5FDB623A
:04015900CD5ABA02BF
:04015A00CD55B9EDD9
:04015B00CD50DACBDE
:04015C00CD4C1B115A
:04015D00CD477B050A
:04015E00CD42F87422
:04015F00CD3E93827C
:04016000CD3A4B5CED
:04016100CD361E7009
:04016200CD320BC2CD
:04016300CD2E145E2B
:04016400CD2A365B0F
:04016500CD26702013
:04016600CD22C2B52F
:04016700CD1F2C2E4E
:04016800CD1BACCC33
:04016900CD18431A50
:04016A00CD14EF04BD
:04016B00CD11AF9271
:04016C00CD0E8482AE
:04016D00CD0B6D76D3
:04016E00CD086A0A44
:04016F00CD057877CB
:04017000CD0299BC67
:04017100CCFF986EB9
:04017200CCFA21ACF6
:04017300CCF4CA8777
:04017400CCEF952017
:04017500CCEA8085CB
:04017600CCE58970DB
:04017700CCE0B160C7
:04017800CCDBF5AC3B
:04017900CCD7573751
:04017A00CCD2D4B758
:04017B00CCCE6CBDBD
:04017C00CCCA1F8A40
:04017D00CCC5ECE61B
:04017E00CCC1D1FE21
:04017F00CCBDD074AF
:04018000CCB9E5E829
:04018100CCB613598C
:04018200CCB2572E76
:04018300CCAEB0DE70
:04018400CCAB20A33D
:04018500CCA7A4DF80
:04018600CCA43CBB0E
:04018700CCA0E95AC5
:04018800CC9DA92140
:04018900CC9A7BF79A
:04018A00CC97608925
:04018B00CC94573B7E
:04018C00CC915FA112
:04018D00CC8E790B90
:04018E00CC8BA384EF
:04018F00CC88DD94A7
:04019000CC8627BF33
:04019100CC83812377
:04019200CC80E9D361
:04019300CC7CC1D887
:04019400CC77CCABAD
:04019500CC72F2FA3C
:04019600CC6E361BDA
:04019700CC6993AFED
:04019800CC65097BAE
:04019900CC6099E8B5
:04019A00CC5C429562
:04019B00CC58036ECB
:04019C00CC53DBED78
:04019D00CC4FCBADCB
:04019E00CC4BD16213
:04019F00CC47ED1D3F
:0401A000CC441E2EFF
:0401A100CC40645694
:0401A200CC3CBE1A79
:0401A300CC392C57D0
:0401A400CC35AE05A3
:0401A500CC32424DC9
:0401A600CC2EE8E98A
:0401A700CC2BA1EECE
:0401A800CC286CA54E
:0401A900CC2547E03A
:0401AA00CC22350F1F
:0401AB00CC1F31A78D
:0401AC00CC1C3F3BED
:0401AD00CC195C52BB
:0401AE00CC16887E65
:0401AF00CC13C3A901
:0401B000CC110DB5AC
:0401B100CC0E65C14A
:0401B200CC0BCBB7F0
:0401B300CC093F4BE9
:0401B400CC06C0DED7
:0401B500CC044E9E8A
:0401B600CC01E9830C
:0401B700CBFF21F663
:0401B800CBFA8931C4
:0401B900CBF6082D4C
:0401BA00CBF19DC325
:0401BB00CBED4AA39B
:0401BC00CBE90F2F4D
:0401BD00CBE4E6D8D1
:0401BE00CBE0D4C5F9
:0401BF00CBDCD72D91
:0401C000CBD8EFAEFB
:0401C100CBD519B7CA
:0401C200CBD158BA8B
:0401C300CBCDAA53A3
:0401C400CBCA0E6430
:0401C500CBC68578A8
:0401C600CBC30D2377
:0401C700CBBFA6FF05
:0401C800CBBC513E1D
:0401C900CBB90C8F13
:0401CA00CBB5D88356
:0401CB00CBB2B37B85
:0401CC00CBAF9F090D
:0401CD00CBAC99B46A
:0401CE00CBA9A26EA9
:0401CF00CBA6BAD130
:0401D000CBA3E10CD0
:0401D100CBA1161A8E
:0401D200CB9E57B4B5
:0401D300CB9BA6D04C
:0401D400CB9902DDE4
:0401D500CB966D2038
:0401D600CB93E2B530
:0401D700CB91652E35
:0401D800CB8EF423B3
:0401D900CB8C8DE658
:0401DA00CB8A334851
:0401DB00CB87E4A04A
:0401DC00CB85A0949B
:0401DD00CB8367A2C7
:0401DE00CB8138E6B3
:0401DF00CB7E2AA603
:0401E000CB79F7716F
:0401E100CB75D6F70D
:0401E200CB71CB2AE8
:0401E300CB6DD23CD2
:0401E400CB69EBEB0D
:0401E500CB6617A42A
:0401E600CB6256B5DD
:0401E700CB5EA665E0
:0401E800CB5B075C8A
:0401E900CB57790C6B
:0401EA00CB53FAE118
:0401EB00CB508F1155
:0401EC00CB4D31A422
:0401ED00CB49E4D244
:0401EE00CB46A5DB7C
:0401EF00CB43760A7E
:0401F000CB4055B6F5
:0401F100CB3D4312AD
:0401F200CB3A3F6362
:0401F300CB37483D81
:0401F400CB345FFAAF
:0401F500CB31845036
:0401F600CB2EB59CBB
:0401F700CB2BF45BBF
:0401F800CB293E973A
:0401F900CB2695E19B
:0401FA00CB23F845D6
:0401FB00CB216702AB
:0401FC00CB1EE10F26
:0401FD00CB1C678927
:0401FE00CB19F7D84A
:0401FF00CB17933F48
:04020000CB1436C223
:04020100CB0FAB88EC
:04020200CB0B485882
:04020300CB070BA377
:04020400CB02F3B482
:04020500CAFDFE84AC
:04020600CAF65B28B1
:04020700CAEEF8E85B
:04020800CAE7D6BBB0
:04020900CAE0F14214
:04020A00CADA46A660
:04020B00CAD3D5106D
:04020C00CACD9A2C91
:04020D00CAC79304C5
:04020E00CAC1BF6939
:04020F00CABC1C3910
:04021000CAB6A801C1
:04021100CAB16128E5
:04021200CAAC46AE7E
:04021300CAA75562BF
:04021400CAA28D935A
:04021500CA9DECAEE4
:04021600CA99715CB4
:04021700CA951B0762
:04021800CA90E7B6EB
:04021900CA8CD5CDE9
:04021A00CA88E5B8F1
:04021B00CA85143646
:04021C00CA8161AF83
:04021D00CA7B9A17E7
:04021E00CA74A88E68
:04021F00CA6DEE486E
:04022000CA676988B8
:04022100CA61179FF8
:04022200CA5AF7BB02
:04022300CA5506D9D9
:04022400CA4F44C5B4
:04022500CA49AF1003
:04022600CA4445542D
:04022700CA3F043E88
:04022800CA39EC4C97
:04022900CA34FB6078
:04022A00CA302FA700
:04022B00CA2B88B0A2
:04022C00CA270520B8
:04022D00CA22A2C976
:04022E00CA1E627909
:04022F00CA1A41A006
:04023000CA163FDCCF
:04023100CA125B9EF4
:04023200CA0E950853
:04023300CA0AE9C644
:04023400CA075A1F7C
:04023500CA03E41FF5
:04023600CA0087F77C
:04023700C9FA884A2E
:04023800C9F42FB323
:04023900C9EE0610F4
:04023A00C9E808D235
:04023B00C9E2373CA1
:04023C00C9DC8F0981
:04023D00C9D70FA26C
:04023E00C9D1B7ACBF
:04023F00C9CC85C6DB
:04024000C9C7789022
:04024100C9C2900D91
:04024200C9BDC92A3F
:04024300C9B924848D
:04024400C9B49FC4D6
:04024500C9B03B877A
:04024600C9ABF52A21
:04024700C9A7CD95E1
:04024800C9A3C2483C
:04024900C99FD2EC8B
:04024A00C99BFEB49A
:04024B00C998451DEC
:04024C00C994A4E3CA
:04024D00C9911DAA8C
:04024E00C98DAE01A7
:04024F00C98A5604FE
:04025000C987147ACC
:04025100C983E94232
:04025200C980D35E2E
:04025300C97BA3A11F
:04025400C975C9603F
:04025500C9701671E5
:04025600C96A888366
:04025700C96520ADA8
:04025800C95FDB623D
:04025900C95ABA02C2
:04025A00C955B9EDDC
:04025B00C950DACBE1
:04025C00C94C1B115D
:04025D00C9477B050D
:04025E00C942F87425
:04025F00C93E93827F
:04026000C93A4B5CF0
:04026100C9361E700C
:04026200C9320BC2D0
:04026300C92E145E2E
:04026400C92A365B12
:04026500C926702016
:04026600C922C2B532
:04026700C91F2C2E51
:04026800C91BACCC36
:04026900C918431A53
:04026A00C914EF04C0
:04026B00C911AF9274
:04026C00C90E8482B1
:04026D00C90B6D76D6
:04026E00C9086A0A47
:04026F00C9057877CE
:04027000C90299BC6A
:04027100C8FF986EBC
:04027200C8FA21ACF9
:04027300C8F4CA877A
:04027400C8EF95201A
:04027500C8EA8085CE
:04027600C8E58970DE
:04027700C8E0B160CA
:04027800C8DBF5AC3E
:04027900C8D7573754
:04027A00C8D2D4B75B
:04027B00C8CE6CBDC0
:04027C00C8CA1F8A43
:04027D00C8C5ECE61E
:04027E00C8C1D1FE24
:04027F00C8BDD074B2
:04028000C8B9E5E82C
:04028100C8B613598F
:04028200C8B2572E79
:04028300C8AEB0DE73
:04028400C8AB20A340
:04028500C8A7A4DF83
:04028600C8A43CBB11
:04028700C8A0E95AC8
:04028800C89DA92143
:04028900C89A7BF79D
:04028A00C897608928
:04028B00C894573B81
:04028C00C8915FA115
:04028D00C88E790B93
:04028E00C88BA384F2
:04028F00C888DD94AA
:04029000C88627BF36
:04029100C88381237A
:04029200C880E9D364
:04029300C87CC1D88A
:04029400C877CCABB0
:04029500C872F2FA3F
:04029600C86E361BDD
:04029700C86993AFF0
:04029800C865097BB1
:04029900C86099E8B8
:04029A00C85C429565
:04029B00C858036ECE
:04029C00C853DBED7B
:04029D00C84FCBADCE
:04029E00C84BD16216
:04029F00C847ED1D42
:0402A000C8441E2E02
:0402A100C840645697
:0402A200C83CBE1A7C
:0402A300C8392C57D3
:0402A400C835AE05A6
:0402A500C832424DCC
:0402A600C82EE8E98D
:0402A700C82BA1EED1
:0402A800C8286CA551
:0402A900C82547E03D
:0402AA00C822350F22
:0402AB00C81F31A790
:0402AC00C81C3F3BF0
:0402AD00C8195C52BE
:0402AE00C816887E68
:0402AF00C813C3A904
:0402B000C8110DB5AF
:0402B100C80E65C14D
:0402B200C80BCBB7F3
:0402B300C8093F4BEC
:0402B400C806C0DEDA
:0402B500C8044E9E8D
:0402B600C801E9830F
:0402B700C7FF21F666
:0402B800C7FA8931C7
:0402B900C7F6082D4F
:0402BA00C7F19DC328
:0402BB00C7ED4AA39E
:0402BC00C7E90F2F50
:0402BD00C7E4E6D8D4
:0402BE00C7E0D4C5FC
:0402BF00C7DCD72D94
:0402C000C7D8EFAEFE
:0402C100C7D519B7CD
:0402C200C7D158BA8E
:0402C300C7CDAA53A6
:0402C400C7CA0E6433
:0402C500C7C68578AB
:0402C600C7C30D237A
:0402C700C7BFA6FF08
:0402C800C7BC513E20
:0402C900C7B90C8F16
:0402CA00C7B5D88359
:0402CB00C7B2B37B88
:0402CC00C7AF9F0910
:0402CD00C7AC99B46D
:0402CE00C7A9A26EAC
:0402CF00C7A6BAD133
:0402D000C7A3E10CD3
:0402D100C7A1161A91
:0402D200C79E57B4B8
:0402D300C79BA6D04F
:0402D400C79902DDE7
:0402D500C7966D203B
:0402D600C793E2B533
:0402D700C791652E38
:0402D800C78EF423B6
:0402D900C78C8DE65B
:0402DA00C78A334854
:0402DB00C787E4A04D
:0402DC00C785A0949E
:0402DD00C78367A2CA
:0402DE00C78138E6B6
:0402DF00C77E2AA606
:0402E000C779F77172
:0402E100C775D6F710
:0402E200C771CB2AEB
:0402E300C76DD23CD5
:0402E400C769EBEB10
:0402E500C76617A42D
:0402E600C76256B5E0
:0402E700C75EA665E3
:0402E800C75B075C8D
:0402E900C757790C6E
:0402EA00C753FAE11B
:0402EB00C7508F1158
:0402EC00C74D31A425
:0402ED00C749E4D247
:0402EE00C746A5DB7F
:0402EF00C743760A81
:0402F000C74055B6F8
:0402F100C73D4312B0
:0402F200C73A3F6365
:0402F300C737483D84
:0402F400C7345FFAB2
:0402F500C731845039
:0402F600C72EB59CBE
:0402F700C72BF45BC2
:0402F800C7293E973D
:0402F900C72695E19E
:0402FA00C723F845D9
:0402FB00C7216702AE
:0402FC00C71EE10F29
:0402FD00C71C67892A
:0402FE00C719F7D84D
:0402FF00C717933F4B
:04030000C71436C226
:04030100C70FAB88EF
:04030200C70B485885
:04030300C7070BA37A
:04030400C702F3B485
:04030500C6FDFE84AF
:04030600C6F65B28B4
:04030700C6EEF8E85E
:04030800C6E7D6BBB3
:04030900C6E0F14217
:04030A00C6DA46A663
:04030B00C6D3D51070
:04030C00C6CD9A2C94
:04030D00C6C79304C8
:04030E00C6C1BF693C
:04030F00C6BC1C3913
:04031000C6B6A801C4
:04031100C6B16128E8
:04031200C6AC46AE81
:04031300C6A75562C2
:04031400C6A28D935D
:04031500C69DECAEE7
:04031600C699715CB7
:04031700C6951B0765
:04031800C690E7B6EE
:04031900C68CD5CDEC
:04031A00C688E5B8F4
:04031B00C685143649
:04031C00C68161AF86
:04031D00C67B9A17EA
:04031E00C674A88E6B
:04031F00C66DEE4871
:04032000C6676988BB
:04032100C661179FFB
:04032200C65AF7BB05
:04032300C65506D9DC
:04032400C64F44C5B7
:04032500C649AF1006
:04032600C644455430
:04032700C63F043E8B
:04032800C639EC4C9A
:04032900C634FB607B
:04032A00C6302FA703
:04032B00C62B88B0A5
:04032C00C6270520BB
:04032D00C622A2C979
:04032E00C61E62790C
:04032F00C61A41A009
:04033000C6163FDCD2
:04033100C6125B9EF7
:04033200C60E950856
:04033300C60AE9C647
:04033400C6075A1F7F
:04033500C603E41FF8
:04033600C60087F77F
:04033700C5FA884A31
:04033800C5F42FB326
:04033900C5EE0610F7
:04033A00C5E808D238
:04033B00C5E2373CA4
:04033C00C5DC8F0984
:04033D00C5D70FA26F
:04033E00C5D1B7ACC2
:04033F00C5CC85C6DE
:04034000C5C7789025
:04034100C5C2900D94
:04034200C5BDC92A42
:04034300C5B9248490
:04034400C5B49FC4D9
:04034500C5B03B877D
:04034600C5ABF52A24
:04034700C5A7CD95E4
:04034800C5A3C2483F
:04034900C59FD2EC8E
:04034A00C59BFEB49D
:04034B00C598451DEF
:04034C00C594A4E3CD
:04034D00C5911DAA8F
:04034E00C58DAE01AA
:04034F00C58A560401
:04035000C587147ACF
:04035100C583E94235
:04035200C580D35E31
:04035300C57BA3A122
:04035400C575C96042
:04035500C5701671E8
:04035600C56A888369
:04035700C56520ADAB
:04035800C55FDB6240
:04035900C55ABA02C5
:04035A00C555B9EDDF
:04035B00C550DACBE4
:04035C00C54C1B1160
:04035D00C5477B0510
:04035E00C542F87428
:04035F00C53E938282
:04036000C53A4B5CF3
:04036100C5361E700F
:04036200C5320BC2D3
:04036300C52E145E31
:04036400C52A365B15
:04036500C526702019
:04036600C522C2B535
:04036700C51F2C2E54
:04036800C51BACCC39
:04036900C518431A56
:04036A00C514EF04C3
:04036B00C511AF9277
:04036C00C50E8482B4
:04036D00C50B6D76D9
:04036E00C5086A0A4A
:04036F00C5057877D1
:04037000C50299BC6D
:04037100C4FF986EBF
:04037200C4FA21ACFC
:04037300C4F4CA877D
:04037400C4EF95201D
:04037500C4EA8085D1
:04037600C4E58970E1
:04037700C4E0B160CD
:04037800C4DBF5AC41
:04037900C4D7573757
:04037A00C4D2D4B75E
:04037B00C4CE6CBDC3
:04037C00C4CA1F8A46
:04037D00C4C5ECE621
:04037E00C4C1D1FE27
:04037F00C4BDD074B5
:04038000C4B9E5E82F
:04038100C4B6135992
:04038200C4B2572E7C
:04038300C4AEB0DE76
:04038400C4AB20A343
:04038500C4A7A4DF86
:04038600C4A43CBB14
:04038700C4A0E95ACB
:04038800C49DA92146
:04038900C49A7BF7A0
:04038A00C49760892B
:04038B00C494573B84
:04038C00C4915FA118
:04038D00C48E790B96
:04038E00C48BA384F5
:04038F00C488DD94AD
:04039000C48627BF39
:04039100C48381237D
:04039200C480E9D367
:04039300C47CC1D88D
:04039400C477CCABB3
:04039500C472F2FA42
:04039600C46E361BE0
:04039700C46993AFF3
:04039800C465097BB4
:04039900C46099E8BB
:04039A00C45C429568
:04039B00C458036ED1
:04039C00C453DBED7E
:04039D00C44FCBADD1
:04039E00C44BD16219
:04039F00C447ED1D45
:0403A000C4441E2E05
:0403A100C44064569A
:0403A200C43CBE1A7F
:0403A300C4392C57D6
:0403A400C435AE05A9
:0403A500C432424DCF
:0403A600C42EE8E990
:0403A700C42BA1EED4
:0403A800C4286CA554
:0403A900C42547E040
:0403AA00C422350F25
:0403AB00C41F31A793
:0403AC00C41C3F3BF3
:0403AD00C4195C52C1
:0403AE00C416887E6B
:0403AF00C413C3A907
:0403B000C4110DB5B2
:0403B100C40E65C150
:0403B200C40BCBB7F6
:0403B300C4093F4BEF
:0403B400C406C0DEDD
:0403B500C4044E9E90
:0403B600C401E98312
:0403B700C3FF21F669
:0403B800C3FA8931CA
:0403B900C3F6082D52
:0403BA00C3F19DC32B
:0403BB00C3ED4AA3A1
:0403BC00C3E90F2F53
:0403BD00C3E4E6D8D7
:0403BE00C3E0D4C5FF
:0403BF00C3DCD72D97
:0403C000C3D8EFAE01
:0403C100C3D519B7D0
:0403C200C3D158BA91
:0403C300C3CDAA53A9
:0403C400C3CA0E6436
:0403C500C3C68578AE
:0403C600C3C30D237D
:0403C700C3BFA6FF0B
:0403C800C3BC513E23
:0403C900C3B90C8F19
:0403CA00C3B5D8835C
:0403CB00C3B2B37B8B
:0403CC00C3AF9F0913
:0403CD00C3AC99B470
:0403CE00C3A9A26EAF
:0403CF00C3A6BAD136
:0403D000C3A3E10CD6
:0403D100C3A1161A94
:0403D200C39E57B4BB
:0403D300C39BA6D052
:0403D400C39902DDEA
:0403D500C3966D203E
:0403D600C393E2B536
:0403D700C391652E3B
:0403D800C38EF423B9
:0403D900C38C8DE65E
:0403DA00C38A334857
:0403DB00C387E4A050
:0403DC00C385A094A1
:0403DD00C38367A2CD
:0403DE00C38138E6B9
:0403DF00C37E2AA609
:0403E000C379F77175
:0403E100C375D6F713
:0403E200C371CB2AEE
:0403E300C36DD23CD8
:0403E400C369EBEB13
:0403E500C36617A430
:0403E600C36256B5E3
:0403E700C35EA665E6
:0403E800C35B075C90
:0403E900C357790C71
:0403EA00C353FAE11E
:0403EB00C3508F115B
:0403EC00C34D31A428
:0403ED00C349E4D24A
:0403EE00C346A5DB82
:0403EF00C343760A84
:0403F000C34055B6FB
:0403F100C33D4312B3
:0403F200C33A3F6368
:0403F300C337483D87
:0403F400C3345FFAB5
:0403F500C33184503C
:0403F600C32EB59CC1
:0403F700C32BF45BC5
:0403F800C3293E9740
:0403F900C32695E1A1
:0403FA00C323F845DC
:0403FB00C3216702B1
:0403FC00C31EE10F2C
:0403FD00C31C67892D
:0403FE00C319F7D850
:0403FF00C317933F4E
:04040000C31436C229
:04040100C30FAB88F2
:04040200C30B485888
:04040300C3070BA37D
:04040400C302F3B488
:04040500C2FDFE84B2
:04040600C2F65B28B7
:04040700C2EEF8E861
:04040800C2E7D6BBB6
:04040900C2E0F1421A
:04040A00C2DA46A666
:04040B00C2D3D51073
:04040C00C2CD9A2C97
:04040D00C2C79304CB
:04040E00C2C1BF693F
:04040F00C2BC1C3916
:04041000C2B6A801C7
:04041100C2B16128EB
:04041200C2AC46AE84
:04041300C2A75562C5
:04041400C2A28D9360
:04041500C29DECAEEA
:04041600C299715CBA
:04041700C2951B0768
:04041800C290E7B6F1
:04041900C28CD5CDEF
:04041A00C288E5B8F7
:04041B00C28514364C
:04041C00C28161AF89
:04041D00C27B9A17ED
:04041E00C274A88E6E
:04041F00C26DEE4874
:04042000C2676988BE
:04042100C261179FFE
:04042200C25AF7BB08
:04042300C25506D9DF
:04042400C24F44C5BA
:04042500C249AF1009
:04042600C244455433
:04042700C23F043E8E
:04042800C239EC4C9D
:04042900C234FB607E
:04042A00C2302FA706
:04042B00C22B88B0A8
:04042C00C2270520BE
:04042D00C222A2C97C
:04042E00C21E62790F
:04042F00C21A41A00C
:04043000C2163FDCD5
:04043100C2125B9EFA
:04043200C20E950859
:04043300C20AE9C64A
:04043400C2075A1F82
:04043500C203E41FFB
:04043600C20087F782
:04043700C1FA884A34
:04043800C1F42FB329
:04043900C1EE0610FA
:04043A00C1E808D23B
:04043B00C1E2373CA7
:04043C00C1DC8F0987
:04043D00C1D70FA272
:04043E00C1D1B7ACC5
:04043F00C1CC85C6E1
:04044000C1C7789028
:04044100C1C2900D97
:04044200C1BDC92A45
:04044300C1B9248493
:04044400C1B49FC4DC
:04044500C1B03B8780
:04044600C1ABF52A27
:04044700C1A7CD95E7
:04044800C1A3C24842
:04044900C19FD2EC91
:04044A00C19BFEB4A0
:04044B00C198451DF2
:04044C00C194A4E3D0
:04044D00C1911DAA92
:04044E00C18DAE01AD
:04044F00C18A560404
:04045000C187147AD2
:04045100C183E94238
:04045200C180D35E34
:04045300C17BA3A125
:04045400C175C96045
:04045500C1701671EB
:04045600C16A88836C
:04045700C16520ADAE
:04045800C15FDB6243
:04045900C15ABA02C8
:04045A00C155B9EDE2
:04045B00C150DACBE7
:04045C00C14C1B1163
:04045D00C1477B0513
:04045E00C142F8742B
:04045F00C13E938285
:04046000C13A4B5CF6
:04046100C1361E7012
:04046200C1320BC2D6
:04046300C12E145E34
:04046400C12A365B18
:04046500C12670201C
:04046600C122C2B538
:04046700C11F2C2E57
:04046800C11BACCC3C
:04046900C118431A59
:04046A00C114EF04C6
:04046B00C111AF927A
:04046C00C10E8482B7
:04046D00C10B6D76DC
:04046E00C1086A0A4D
:04046F00C1057877D4
:04047000C10299BC70
:04047100C0FF986EC2
:04047200C0FA21ACFF
:04047300C0F4CA8780
:04047400C0EF952020
:04047500C0EA8085D4
:04047600C0E58970E4
:04047700C0E0B160D0
:04047800C0DBF5AC44
:04047900C0D757375A
:04047A00C0D2D4B761
:04047B00C0CE6CBDC6
:04047C00C0CA1F8A49
:04047D00C0C5ECE624
:04047E00C0C1D1FE2A
:04047F00C0BDD074B8
:04048000C0B9E5E832
:04048100C0B6135995
:04048200C0B2572E7F
:04048300C0AEB0DE79
:04048400C0AB20A346
:04048500C0A7A4DF89
:04048600C0A43CBB17
:04048700C0A0E95ACE
:04048800C09DA92149
:04048900C09A7BF7A3
:04048A00C09760892E
:04048B00C094573B87
:04048C00C0915FA11B
:04048D00C08E790B99
:04048E00C08BA384F8
:04048F00C088DD94B0
:04049000C08627BF3C
:04049100C083812380
:04049200C080E9D36A
:04049300C07CC1D890
:04049400C077CCABB6
:04049500C072F2FA45
:04049600C06E361BE3
:04049700C06993AFF6
:04049800C065097BB7
:04049900C06099E8BE
:04049A00C05C42956B
:04049B00C058036ED4
:04049C00C053DBED81
:04049D00C04FCBADD4
:04049E00C04BD1621C
:04049F00C047ED1D48
:0404A000C0441E2E08
:0404A100C04064569D
:0404A200C03CBE1A82
:0404A300C0392C57D9
:0404A400C035AE05AC
:0404A500C032424DD2
:0404A600C02EE8E993
:0404A700C02BA1EED7
:0404A800C0286CA557
:0404A900C02547E043
:0404AA00C022350F28
:0404AB00C01F31A796
:0404AC00C01C3F3BF6
:0404AD00C0195C52C4
:0404AE00C016887E6E
:0404AF00C013C3A90A
:0404B000C0110DB5B5
:0404B100C00E65C153
:0404B200C00BCBB7F9
:0404B300C0093F4BF2
:0404B400C006C0DEE0
:0404B500C0044E9E93
:0404B600C001E98315
:0404B700BFFF21F66C
:0404B800BFFA8931CD
:0404B900BFF6082D55
:0404BA00BFF19DC32E
:0404BB00BFED4AA3A4
:0404BC00BFE90F2F56
:0404BD00BFE4E6D8DA
:0404BE00BFE0D4C502
:0404BF00BFDCD72D9A
:0404C000BFD8EFAE04
:0404C100BFD519B7D3
:0404C200BFD158BA94
:0404C300BFCDAA53AC
:0404C400BFCA0E6439
:0404C500BFC68578B1
:0404C600BFC30D2380
:0404C700BFBFA6FF0E
:0404C800BFBC513E26
:0404C900BFB90C8F1C
:0404CA00BFB5D8835F
:0404CB00BFB2B37B8E
:0404CC00BFAF9F0916
:0404CD00BFAC99B473
:0404CE00BFA9A26EB2
:0404CF00BFA6BAD139
:0404D000BFA3E10CD9
:0404D100BFA1161A97
:0404D200BF9E57B4BE
:0404D300BF9BA6D055
:0404D400BF9902DDED
:0404D500BF966D2041
:0404D600BF93E2B539
:0404D700BF91652E3E
:0404D800BF8EF423BC
:0404D900BF8C8DE661
:0404DA00BF8A33485A
:0404DB00BF87E4A053
:0404DC00BF85A094A4
:0404DD00BF8367A2D0
:0404DE00BF8138E6BC
:0404DF00BF7E2AA60C
:0404E000BF79F77178
:0404E100BF75D6F716
:0404E200BF71CB2AF1
:0404E300BF6DD23CDB
:0404E400BF69EBEB16
:0404E500BF6617A433
:0404E600BF6256B5E6
:0404E700BF5EA665E9
:0404E800BF5B075C93
:0404E900BF57790C74
:0404EA00BF53FAE121
:0404EB00BF508F115E
:0404EC00BF4D31A42B
:0404ED00BF49E4D24D
:0404EE00BF46A5DB85
:0404EF00BF43760A87
:0404F000BF4055B6FE
:0404F100BF3D4312B6
:0404F200BF3A3F636B
:0404F300BF37483D8A
:0404F400BF345FFAB8
:0404F500BF3184503F
:0404F600BF2EB59CC4
:0404F700BF2BF45BC8
:0404F800BF293E9743
:0404F900BF2695E1A4
:0404FA00BF23F845DF
:0404FB00BF216702B4
:0404FC00BF1EE10F2F
:0404FD00BF1C678930
:0404FE00BF19F7D853
:0404FF00BF17933F51
:04050000BF1436C22C
:04050100BF0FAB88F5
:04050200BF0B48588B
:04050300BF070BA380
:04050400BF02F3B48B
:04050500BEFDFE84B5
:04050600BEF65B28BA
:04050700BEEEF8E864
:04050800BEE7D6BBB9
:04050900BEE0F1421D
:04050A00BEDA46A669
:04050B00BED3D51076
:04050C00BECD9A2C9A
:04050D00BEC79304CE
:04050E00BEC1BF6942
:04050F00BEBC1C3919
:04051000BEB6A801CA
:04051100BEB16128EE
:04051200BEAC46AE87
:04051300BEA75562C8
:04051400BEA28D9363
:04051500BE9DECAEED
:04051600BE99715CBD
:04051700BE951B076B
:04051800BE90E7B6F4
:04051900BE8CD5CDF2
:04051A00BE88E5B8FA
:04051B00BE8514364F
:04051C00BE8161AF8C
:04051D00BE7B9A17F0
:04051E00BE74A88E71
:04051F00BE6DEE4877
:04052000BE676988C1
:04052100BE61179F01
:04052200BE5AF7BB0B
:04052300BE5506D9E2
:04052400BE4F44C5BD
:04052500BE49AF100C
:04052600BE44455436
:04052700BE3F043E91
:04052800BE39EC4CA0
:04052900BE34FB6081
:04052A00BE302FA709
:04052B00BE2B88B0AB
:04052C00BE270520C1
:04052D00BE22A2C97F
:04052E00BE1E627912
:04052F00BE1A41A00F
:04053000BE163FDCD8
:04053100BE125B9EFD
:04053200BE0E95085C
:04053300BE0AE9C64D
:04053400BE075A1F85
:04053500BE03E41FFE
:04053600BE0087F785
:04053700BDFA884A37
:04053800BDF42FB32C
:04053900BDEE0610FD
:04053A00BDE808D23E
:04053B00BDE2373CAA
:04053C00BDDC8F098A
:04053D00BDD70FA275
:04053E00BDD1B7ACC8
:04053F00BDCC85C6E4
:04054000BDC778902B
:04054100BDC2900D9A
:04054200BDBDC92A48
:04054300BDB9248496
:04054400BDB49FC4DF
:04054500BDB03B8783
:04054600BDABF52A2A
:04054700BDA7CD95EA
:04054800BDA3C24845
:04054900BD9FD2EC94
:04054A00BD9BFEB4A3
:04054B00BD98451DF5
:04054C00BD94A4E3D3
:04054D00BD911DAA95
:04054E00BD8DAE01B0
:04054F00BD8A560407
:04055000BD87147AD5
:04055100BD83E9423B
:04055200BD80D35E37
:04055300BD7BA3A128
:04055400BD75C96048
:04055500BD701671EE
:04055600BD6A88836F
:04055700BD6520ADB1
:04055800BD5FDB6246
:04055900BD5ABA02CB
:04055A00BD55B9EDE5
:04055B00BD50DACBEA
:04055C00BD4C1B1166
:04055D00BD477B0516
:04055E00BD42F8742E
:04055F00BD3E938288
:04056000BD3A4B5CF9
:04056100BD361E7015
:04056200BD320BC2D9
:04056300BD2E145E37
:04056400BD2A365B1B
:04056500BD2670201F
:04056600BD22C2B53B
:04056700BD1F2C2E5A
:04056800BD1BACCC3F
:04056900BD18431A5C
:04056A00BD14EF04C9
:04056B00BD11AF927D
:04056C00BD0E8482BA
:04056D00BD0B6D76DF
:04056E00BD086A0A50
:04056F00BD057877D7
:04057000BD0299BC73
:04057100BCFF986EC5
:04057200BCFA21AC02
:04057300BCF4CA8783
:04057400BCEF952023
:04057500BCEA8085D7
:04057600BCE58970E7
:04057700BCE0B160D3
:04057800BCDBF5AC47
:04057900BCD757375D
:04057A00BCD2D4B764
:04057B00BCCE6CBDC9
:04057C00BCCA1F8A4C
:04057D00BCC5ECE627
:04057E00BCC1D1FE2D
:04057F00BCBDD074BB
:04058000BCB9E5E835
:04058100BCB6135998
:04058200BCB2572E82
:04058300BCAEB0DE7C
:04058400BCAB20A349
:04058500BCA7A4DF8C
:04058600BCA43CBB1A
:04058700BCA0E95AD1
:04058800BC9DA9214C
:04058900BC9A7BF7A6
:04058A00BC97608931
:04058B00BC94573B8A
:04058C00BC915FA11E
:04058D00BC8E790B9C
:04058E00BC8BA384FB
:04058F00BC88DD94B3
:04059000BC8627BF3F
:04059100BC83812383
:04059200BC80E9D36D
:04059300BC7CC1D893
:04059400BC77CCABB9
:04059500BC72F2FA48
:04059600BC6E361BE6
:04059700BC6993AFF9
:04059800BC65097BBA
:04059900BC6099E8C1
:04059A00BC5C42956E
:04059B00BC58036ED7
:04059C00BC53DBED84
:04059D00BC4FCBADD7
:04059E00BC4BD1621F
:04059F00BC47ED1D4B
:0405A000BC441E2E0B
:0405A100BC406456A0
:0405A200BC3CBE1A85
:0405A300BC392C57DC
:0405A400BC35AE05AF
:0405A500BC32424DD5
:0405A600BC2EE8E996
:0405A700BC2BA1EEDA
:0405A800BC286CA55A
:0405A900BC2547E046
:0405AA00BC22350F2B
:0405AB00BC1F31A799
:0405AC00BC1C3F3BF9
:0405AD00BC195C52C7
:0405AE00BC16887E71
:0405AF00BC13C3A90D
:0405B000BC110DB5B8
:0405B100BC0E65C156
:0405B200BC0BCBB7FC
:0405B300BC093F4BF5
:0405B400BC06C0DEE3
:0405B500BC044E9E96
:0405B600BC01E98318
:0405B700BBFF21F66F
:0405B800BBFA8931D0
:0405B900BBF6082D58
:0405BA00BBF19DC331
:0405BB00BBED4AA3A7
:0405BC00BBE90F2F59
:0405BD00BBE4E6D8DD
:0405BE00BBE0D4C505
:0405BF00BBDCD72D9D
:0405C000BBD8EFAE07
:0405C100BBD519B7D6
:0405C200BBD158BA97
:0405C300BBCDAA53AF
:0405C400BBCA0E643C
:0405C500BBC68578B4
:0405C600BBC30D2383
:0405C700BBBFA6FF11
:0405C800BBBC513E29
:0405C900BBB90C8F1F
:0405CA00BBB5D88362
:0405CB00BBB2B37B91
:0405CC00BBAF9F0919
:0405CD00BBAC99B476
:0405CE00BBA9A26EB5
:0405CF00BBA6BAD13C
:0405D000BBA3E10CDC
:0405D100BBA1161A9A
:0405D200BB9E57B4C1
:0405D300BB9BA6D058
:0405D400BB9902DDF0
:0405D500BB966D2044
:0405D600BB93E2B53C
:0405D700BB91652E41
:0405D800BB8EF423BF
:0405D900BB8C8DE664
:0405DA00BB8A33485D
:0405DB00BB87E4A056
:0405DC00BB85A094A7
:0405DD00BB8367A2D3
:0405DE00BB8138E6BF
:0405DF00BB7E2AA60F
:0405E000BB79F7717B
:0405E100BB75D6F719
:0405E200BB71CB2AF4
:0405E300BB6DD23CDE
:0405E400BB69EBEB19
:0405E500BB6617A436
:0405E600BB6256B5E9
:0405E700BB5EA665EC
:0405E800BB5B075C96
:0405E900BB57790C77
:0405EA00BB53FAE124
:0405EB00BB508F1161
:0405EC00BB4D31A42E
:0405ED00BB49E4D250
:0405EE00BB46A5DB88
:0405EF00BB43760A8A
:0405F000BB4055B601
:0405F100BB3D4312B9
:0405F200BB3A3F636E
:0405F300BB37483D8D
:0405F400BB345FFABB
:0405F500BB31845042
:0405F600BB2EB59CC7
:0405F700BB2BF45BCB
:0405F800BB293E9746
:0405F900BB2695E1A7
:0405FA00BB23F845E2
:0405FB00BB216702B7
:0405FC00BB1EE10F32
:0405FD00BB1C678933
:0405FE00BB19F7D856
:0405FF00BB17933F54
:04060000BB1436C22F
:04060100BB0FAB88F8
:04060200BB0B48588E
:04060300BB070BA383
:04060400BB02F3B48E
:04060500BAFDFE84B8
:04060600BAF65B28BD
:04060700BAEEF8E867
:04060800BAE7D6BBBC
:04060900BAE0F14220
:04060A00BADA46A66C
:04060B00BAD3D51079
:04060C00BACD9A2C9D
:04060D00BAC79304D1
:04060E00BAC1BF6945
:04060F00BABC1C391C
:04061000BAB6A801CD
:04061100BAB16128F1
:04061200BAAC46AE8A
:04061300BAA75562CB
:04061400BAA28D9366
:04061500BA9DECAEF0
:04061600BA99715CC0
:04061700BA951B076E
:04061800BA90E7B6F7
:04061900BA8CD5CDF5
:04061A00BA88E5B8FD
:04061B00BA85143652
:04061C00BA8161AF8F
:04061D00BA7B9A17F3
:04061E00BA74A88E74
:04061F00BA6DEE487A
:04062000BA676988C4
:04062100BA61179F04
:04062200BA5AF7BB0E
:04062300BA5506D9E5
:04062400BA4F44C5C0
:04062500BA49AF100F
:04062600BA44455439
:04062700BA3F043E94
:04062800BA39EC4CA3
:04062900BA34FB6084
:04062A00BA302FA70C
:04062B00BA2B88B0AE
:04062C00BA270520C4
:04062D00BA22A2C982
:04062E00BA1E627915
:04062F00BA1A41A012
:04063000BA163FDCDB
:04063100BA125B9E00
:04063200BA0E95085F
:04063300BA0AE9C650
:04063400BA075A1F88
:04063500BA03E41F01
:04063600BA0087F788
:04063700B9FA884A3A
:04063800B9F42FB32F
:04063900B9EE061000
:04063A00B9E808D241
:04063B00B9E2373CAD
:04063C00B9DC8F098D
:04063D00B9D70FA278
:04063E00B9D1B7ACCB
:04063F00B9CC85C6E7
:04064000B9C778902E
:04064100B9C2900D9D
:04064200B9BDC92A4B
:04064300B9B9248499
:04064400B9B49FC4E2
:04064500B9B03B8786
:04064600B9ABF52A2D
:04064700B9A7CD95ED
:04064800B9A3C24848
:04064900B99FD2EC97
:04064A00B99BFEB4A6
:04064B00B998451DF8
:04064C00B994A4E3D6
:04064D00B9911DAA98
:04064E00B98DAE01B3
:04064F00B98A56040A
:04065000B987147AD8
:04065100B983E9423E
:04065200B980D35E3A
:04065300B97BA3A12B
:04065400B975C9604B
:04065500B9701671F1
:04065600B96A888372
:04065700B96520ADB4
:04065800B95FDB6249
:04065900B95ABA02CE
:04065A00B955B9EDE8
:04065B00B950DACBED
:04065C00B94C1B1169
:04065D00B9477B0519
:04065E00B942F87431
:04065F00B93E93828B
:04066000B93A4B5CFC
:04066100B9361E7018
:04066200B9320BC2DC
:04066300B92E145E3A
:04066400B92A365B1E
:04066500B926702022
:04066600B922C2B53E
:04066700B91F2C2E5D
:04066800B91BACCC42
:04066900B918431A5F
:04066A00B914EF04CC
:04066B00B911AF9280
:04066C00B90E8482BD
:04066D00B90B6D76E2
:04066E00B9086A0A53
:04066F00B9057877DA
:04067000B90299BC76
:04067100B8FF986EC8
:04067200B8FA21AC05
:04067300B8F4CA8786
:04067400B8EF952026
:04067500B8EA8085DA
:04067600B8E58970EA
:04067700B8E0B160D6
:04067800B8DBF5AC4A
:04067900B8D7573760
:04067A00B8D2D4B767
:04067B00B8CE6CBDCC
:04067C00B8CA1F8A4F
:04067D00B8C5ECE62A
:04067E00B8C1D1FE30
:04067F00B8BDD074BE
:04068000B8B9E5E838
:04068100B8B613599B
:04068200B8B2572E85
:04068300B8AEB0DE7F
:04068400B8AB20A34C
:04068500B8A7A4DF8F
:04068600B8A43CBB1D
:04068700B8A0E95AD4
:04068800B89DA9214F
:04068900B89A7BF7A9
:04068A00B897608934
:04068B00B894573B8D
:04068C00B8915FA121
:04068D00B88E790B9F
:04068E00B88BA384FE
:04068F00B888DD94B6
:04069000B88627BF42
:04069100B883812386
:04069200B880E9D370
:04069300B87CC1D896
:04069400B877CCABBC
:04069500B872F2FA4B
:04069600B86E361BE9
:04069700B86993AFFC
:04069800B865097BBD
:04069900B86099E8C4
:04069A00B85C429571
:04069B00B858036EDA
:04069C00B853DBED87
:04069D00B84FCBADDA
:04069E00B84BD16222
:04069F00B847ED1D4E
:0406A000B8441E2E0E
:0406A100B8406456A3
:0406A200B83CBE1A88
:0406A300B8392C57DF
:0406A400B835AE05B2
:0406A500B832424DD8
:0406A600B82EE8E999
:0406A700B82BA1EEDD
:0406A800B8286CA55D
:0406A900B82547E049
:0406AA00B822350F2E
:0406AB00B81F31A79C
:0406AC00B81C3F3BFC
:0406AD00B8195C52CA
:0406AE00B816887E74
:0406AF00B813C3A910
:0406B000B8110DB5BB
:0406B100B80E65C159
:0406B200B80BCBB7FF
:0406B300B8093F4BF8
:0406B400B806C0DEE6
:0406B500B8044E9E99
:0406B600B801E9831B
:0406B700B7FF21F672
:0406B800B7FA8931D3
:0406B900B7F6082D5B
:0406BA00B7F19DC334
:0406BB00B7ED4AA3AA
:0406BC00B7E90F2F5C
:0406BD00B7E4E6D8E0
:0406BE00B7E0D4C508
:0406BF00B7DCD72DA0
:0406C000B7D8EFAE0A
:0406C100B7D519B7D9
:0406C200B7D158BA9A
:0406C300B7CDAA53B2
:0406C400B7CA0E643F
:0406C500B7C68578B7
:0406C600B7C30D2386
:0406C700B7BFA6FF14
:0406C800B7BC513E2C
:0406C900B7B90C8F22
:0406CA00B7B5D88365
:0406CB00B7B2B37B94
:0406CC00B7AF9F091C
:0406CD00B7AC99B479
:0406CE00B7A9A26EB8
:0406CF00B7A6BAD13F
:0406D000B7A3E10CDF
:0406D100B7A1161A9D
:0406D200B79E57B4C4
:0406D300B79BA6D05B
:0406D400B79902DDF3
:0406D500B7966D2047
:0406D600B793E2B53F
:0406D700B791652E44
:0406D800B78EF423C2
:0406D900B78C8DE667
:0406DA00B78A334860
:0406DB00B787E4A059
:0406DC00B785A094AA
:0406DD00B78367A2D6
:0406DE00B78138E6C2
:0406DF00B77E2AA612
:0406E000B779F7717E
:0406E100B775D6F71C
:0406E200B771CB2AF7
:0406E300B76DD23CE1
:0406E400B769EBEB1C
:0406E500B76617A439
:0406E600B76256B5EC
:0406E700B75EA665EF
:0406E800B75B075C99
:0406E900B757790C7A
:0406EA00B753FAE127
:0406EB00B7508F1164
:0406EC00B74D31A431
:0406ED00B749E4D253
:0406EE00B746A5DB8B
:0406EF00B743760A8D
:0406F000B74055B604
:0406F100B73D4312BC
:0406F200B73A3F6371
:0406F300B737483D90
:0406F400B7345FFABE
:0406F500B731845045
:0406F600B72EB59CCA
:0406F700B72BF45BCE
:0406F800B7293E9749
:0406F900B72695E1AA
:0406FA00B723F845E5
:0406FB00B7216702BA
:0406FC00B71EE10F35
:0406FD00B71C678936
:0406FE00B719F7D859
:0406FF00B717933F57
:04070000B71436C232
:04070100B70FAB88FB
:04070200B70B485891
:04070300B7070BA386
:04070400B702F3B491
:04070500B6FDFE84BB
:04070600B6F65B28C0
:04070700B6EEF8E86A
:04070800B6E7D6BBBF
:04070900B6E0F14223
:04070A00B6DA46A66F
:04070B00B6D3D5107C
:04070C00B6CD9A2CA0
:04070D00B6C79304D4
:04070E00B6C1BF6948
:04070F00B6BC1C391F
:04071000B6B6A801D0
:04071100B6B16128F4
:04071200B6AC46AE8D
:04071300B6A75562CE
:04071400B6A28D9369
:04071500B69DECAEF3
:04071600B699715CC3
:04071700B6951B0771
:04071800B690E7B6FA
:04071900B68CD5CDF8
:04071A00B688E5B800
:04071B00B685143655
:04071C00B68161AF92
:04071D00B67B9A17F6
:04071E00B674A88E77
:04071F00B66DEE487D
:04072000B6676988C7
:04072100B661179F07
:04072200B65AF7BB11
:04072300B65506D9E8
:04072400B64F44C5C3
:04072500B649AF1012
:04072600B64445543C
:04072700B63F043E97
:04072800B639EC4CA6
:04072900B634FB6087
:04072A00B6302FA70F
:04072B00B62B88B0B1
:04072C00B6270520C7
:04072D00B622A2C985
:04072E00B61E627918
:04072F00B61A41A015
:04073000B6163FDCDE
:04073100B6125B9E03
:04073200B60E950862
:04073300B60AE9C653
:04073400B6075A1F8B
:04073500B603E41F04
:04073600B60087F78B
:04073700B5FA884A3D
:04073800B5F42FB332
:04073900B5EE061003
:04073A00B5E808D244
:04073B00B5E2373CB0
:04073C00B5DC8F0990
:04073D00B5D70FA27B
:04073E00B5D1B7ACCE
:04073F00B5CC85C6EA
:04074000B5C7789031
:04074100B5C2900DA0
:04074200B5BDC92A4E
:04074300B5B924849C
:04074400B5B49FC4E5
:04074500B5B03B8789
:04074600B5ABF52A30
:04074700B5A7CD95F0
:04074800B5A3C2484B
:04074900B59FD2EC9A
:04074A00B59BFEB4A9
:04074B00B598451DFB
:04074C00B594A4E3D9
:04074D00B5911DAA9B
:04074E00B58DAE01B6
:04074F00B58A56040D
:04075000B587147ADB
:04075100B583E94241
:04075200B580D35E3D
:04075300B57BA3A12E
:04075400B575C9604E
:04075500B5701671F4
:04075600B56A888375
:04075700B56520ADB7
:04075800B55FDB624C
:04075900B55ABA02D1
:04075A00B555B9EDEB
:04075B00B550DACBF0
:04075C00B54C1B116C
:04075D00B5477B051C
:04075E00B542F87434
:04075F00B53E93828E
:04076000B53A4B5CFF
:04076100B5361E701B
:04076200B5320BC2DF
:04076300B52E145E3D
:04076400B52A365B21
:04076500B526702025
:04076600B522C2B541
:04076700B51F2C2E60
:04076800B51BACCC45
:04076900B518431A62
:04076A00B514EF04CF
:04076B00B511AF9283
:04076C00B50E8482C0
:04076D00B50B6D76E5
:04076E00B5086A0A56
:04076F00B5057877DD
:04077000B50299BC79
:04077100B4FF986ECB
:04077200B4FA21AC08
:04077300B4F4CA8789
:04077400B4EF952029
:04077500B4EA8085DD
:04077600B4E58970ED
:04077700B4E0B160D9
:04077800B4DBF5AC4D
:04077900B4D7573763
:04077A00B4D2D4B76A
:04077B00B4CE6CBDCF
:04077C00B4CA1F8A52
:04077D00B4C5ECE62D
:04077E00B4C1D1FE33
:04077F00B4BDD074C1
:04078000B4B9E5E83B
:04078100B4B613599E
:04078200B4B2572E88
:04078300B4AEB0DE82
:04078400B4AB20A34F
:04078500B4A7A4DF92
:04078600B4A43CBB20
:04078700B4A0E95AD7
:04078800B49DA92152
:04078900B49A7BF7AC
:04078A00B497608937
:04078B00B494573B90
:04078C00B4915FA124
:04078D00B48E790BA2
:04078E00B48BA38401
:04078F00B488DD94B9
:04079000B48627BF45
:04079100B483812389
:04079200B480E9D373
:04079300B47CC1D899
:04079400B477CCABBF
:04079500B472F2FA4E
:04079600B46E361BEC
:04079700B46993AFFF
:04079800B465097BC0
:04079900B46099E8C7
:04079A00B45C429574
:04079B00B458036EDD
:04079C00B453DBED8A
:04079D00B44FCBADDD
:04079E00B44BD16225
:04079F00B447ED1D51
:0407A000B4441E2E11
:0407A100B4406456A6
:0407A200B43CBE1A8B
:0407A300B4392C57E2
:0407A400B435AE05B5
:0407A500B432424DDB
:0407A600B42EE8E99C
:0407A700B42BA1EEE0
:0407A800B4286CA560
:0407A900B42547E04C
:0407AA00B422350F31
:0407AB00B41F31A79F
:0407AC00B41C3F3BFF
:0407AD00B4195C52CD
:0407AE00B416887E77
:0407AF00B413C3A913
:0407B000B4110DB5BE
:0407B100B40E65C15C
:0407B200B40BCBB702
:0407B300B4093F4BFB
:0407B400B406C0DEE9
:0407B500B4044E9E9C
:0407B600B401E9831E
:0407B700B3FF21F675
:0407B800B3FA8931D6
:0407B900B3F6082D5E
:0407BA00B3F19DC337
:0407BB00B3ED4AA3AD
:0407BC00B3E90F2F5F
:0407BD00B3E4E6D8E3
:0407BE00B3E0D4C50B
:0407BF00B3DCD72DA3
:0407C000B3D8EFAE0D
:0407C100B3D519B7DC
:0407C200B3D158BA9D
:0407C300B3CDAA53B5
:0407C400B3CA0E6442
:0407C500B3C68578BA
:0407C600B3C30D2389
:0407C700B3BFA6FF17
:0407C800B3BC513E2F
:0407C900B3B90C8F25
:0407CA00B3B5D88368
:0407CB00B3B2B37B97
:0407CC00B3AF9F091F
:0407CD00B3AC99B47C
:0407CE00B3A9A26EBB
:0407CF00B3A6BAD142
:0407D000B3A3E10CE2
:0407D100B3A1161AA0
:0407D200B39E57B4C7
:0407D300B39BA6D05E
:0407D400B39902DDF6
:0407D500B3966D204A
:0407D600B393E2B542
:0407D700B391652E47
:0407D800B38EF423C5
:0407D900B38C8DE66A
:0407DA00B38A334863
:0407DB00B387E4A05C
:0407DC00B385A094AD
:0407DD00B38367A2D9
:0407DE00B38138E6C5
:0407DF00B37E2AA615
:0407E000B379F77181
:0407E100B375D6F71F
:0407E200B371CB2AFA
:0407E300B36DD23CE4
:0407E400B369EBEB1F
:0407E500B36617A43C
:0407E600B36256B5EF
:0407E700B35EA665F2
:0407E800B35B075C9C
:0407E900B357790C7D
:0407EA00B353FAE12A
:0407EB00B3508F1167
:0407EC00B34D31A434
:0407ED00B349E4D256
:0407EE00B346A5DB8E
:0407EF00B343760A90
:0407F000B34055B607
:0407F100B33D4312BF
:0407F200B33A3F6374
:0407F300B337483D93
:0407F400B3345FFAC1
:0407F500B331845048
:0407F600B32EB59CCD
:0407F700B32BF45BD1
:0407F800B3293E974C
:0407F900B32695E1AD
:0407FA00B323F845E8
:0407FB00B3216702BD
:0407FC00B31EE10F38
:0407FD00B31C678939
:0407FE00B319F7D85C
:0407FF00B317933F5A
:04080000B31436C235
:04080100B30FAB88FE
:04080200B30B485894
:04080300B3070BA389
:04080400B302F3B494
:04080500B2FDFE84BE
:04080600B2F65B28C3
:04080700B2EEF8E86D
:04080800B2E7D6BBC2
:04080900B2E0F14226
:04080A00B2DA46A672
:04080B00B2D3D5107F
:04080C00B2CD9A2CA3
:04080D00B2C79304D7
:04080E00B2C1BF694B
:04080F00B2BC1C3922
:04081000B2B6A801D3
:04081100B2B16128F7
:04081200B2AC46AE90
:04081300B2A75562D1
:04081400B2A28D936C
:04081500B29DECAEF6
:04081600B299715CC6
:04081700B2951B0774
:04081800B290E7B6FD
:04081900B28CD5CDFB
:04081A00B288E5B803
:04081B00B285143658
:04081C00B28161AF95
:04081D00B27B9A17F9
:04081E00B274A88E7A
:04081F00B26DEE4880
:04082000B2676988CA
:04082100B261179F0A
:04082200B25AF7BB14
:04082300B25506D9EB
:04082400B24F44C5C6
:04082500B249AF1015
:04082600B24445543F
:04082700B23F043E9A
:04082800B239EC4CA9
:04082900B234FB608A
:04082A00B2302FA712
:04082B00B22B88B0B4
:04082C00B2270520CA
:04082D00B222A2C988
:04082E00B21E62791B
:04082F00B21A41A018
:04083000B2163FDCE1
:04083100B2125B9E06
:04083200B20E950865
:04083300B20AE9C656
:04083400B2075A1F8E
:04083500B203E41F07
:04083600B20087F78E
:04083700B1FA884A40
:04083800B1F42FB335
:04083900B1EE061006
:04083A00B1E808D247
:04083B00B1E2373CB3
:04083C00B1DC8F0993
:04083D00B1D70FA27E
:04083E00B1D1B7ACD1
:04083F00B1CC85C6ED
:04084000B1C7789034
:04084100B1C2900DA3
:04084200B1BDC92A51
:04084300B1B924849F
:04084400B1B49FC4E8
:04084500B1B03B878C
:04084600B1ABF52A33
:04084700B1A7CD95F3
:04084800B1A3C2484E
:04084900B19FD2EC9D
:04084A00B19BFEB4AC
:04084B00B198451DFE
:04084C00B194A4E3DC
:04084D00B1911DAA9E
:04084E00B18DAE01B9
:04084F00B18A560410
:04085000B187147ADE
:04085100B183E94244
:04085200B180D35E40
:04085300B17BA3A131
:04085400B175C96051
:04085500B1701671F7
:04085600B16A888378
:04085700B16520ADBA
:04085800B15FDB624F
:04085900B15ABA02D4
:04085A00B155B9EDEE
:04085B00B150DACBF3
:04085C00B14C1B116F
:04085D00B1477B051F
:04085E00B142F87437
:04085F00B13E938291
:04086000B13A4B5C02
:04086100B1361E701E
:04086200B1320BC2E2
:04086300B12E145E40
:04086400B12A365B24
:04086500B126702028
:04086600B122C2B544
:04086700B11F2C2E63
:04086800B11BACCC48
:04086900B118431A65
:04086A00B114EF04D2
:04086B00B111AF9286
:04086C00B10E8482C3
:04086D00B10B6D76E8
:04086E00B1086A0A59
:04086F00B1057877E0
:04087000B10299BC7C
:04087100B0FF986ECE
:04087200B0FA21AC0B
:04087300B0F4CA878C
:04087400B0EF95202C
:04087500B0EA8085E0
:04087600B0E58970F0
:04087700B0E0B160DC
:04087800B0DBF5AC50
:04087900B0D7573766
:04087A00B0D2D4B76D
:04087B00B0CE6CBDD2
:04087C00B0CA1F8A55
:04087D00B0C5ECE630
:04087E00B0C1D1FE36
:04087F00B0BDD074C4
:04088000B0B9E5E83E
:04088100B0B61359A1
:04088200B0B2572E8B
:04088300B0AEB0DE85
:04088400B0AB20A352
:04088500B0A7A4DF95
:04088600B0A43CBB23
:04088700B0A0E95ADA
:04088800B09DA92155
:04088900B09A7BF7AF
:04088A00B09760893A
:04088B00B094573B93
:04088C00B0915FA127
:04088D00B08E790BA5
:04088E00B08BA38404
:04088F00B088DD94BC
:04089000B08627BF48
:04089100B08381238C
:04089200B080E9D376
:04089300B07CC1D89C
:04089400B077CCABC2
:04089500B072F2FA51
:04089600B06E361BEF
:04089700B06993AF02
:04089800B065097BC3
:04089900B06099E8CA
:04089A00B05C429577
:04089B00B058036EE0
:04089C00B053DBED8D
:04089D00B04FCBADE0
:04089E00B04BD16228
:04089F00B047ED1D54
:0408A000B0441E2E14
:0408A100B0406456A9
:0408A200B03CBE1A8E
:0408A300B0392C57E5
:0408A400B035AE05B8
:0408A500B032424DDE
:0408A600B02EE8E99F
:0408A700B02BA1EEE3
:0408A800B0286CA563
:0408A900B02547E04F
:0408AA00B022350F34
:0408AB00B01F31A7A2
:0408AC00B01C3F3B02
:0408AD00B0195C52D0
:0408AE00B016887E7A
:0408AF00B013C3A916
:0408B000B0110DB5C1
:0408B100B00E65C15F
:0408B200B00BCBB705
:0408B300B0093F4BFE
:0408B400B006C0DEEC
:0408B500B0044E9E9F
:0408B600B001E98321
:0408B700AFFF21F678
:0408B800AFFA8931D9
:0408B900AFF6082D61
:0408BA00AFF19DC33A
:0408BB00AFED4AA3B0
:0408BC00AFE90F2F62
:0408BD00AFE4E6D8E6
:0408BE00AFE0D4C50E
:0408BF00AFDCD72DA6
:0408C000AFD8EFAE10
:0408C100AFD519B7DF
:0408C200AFD158BAA0
:0408C300AFCDAA53B8
:0408C400AFCA0E6445
:0408C500AFC68578BD
:0408C600AFC30D238C
:0408C700AFBFA6FF1A
:0408C800AFBC513E32
:0408C900AFB90C8F28
:0408CA00AFB5D8836B
:0408CB00AFB2B37B9A
:0408CC00AFAF9F0922
:0408CD00AFAC99B47F
:0408CE00AFA9A26EBE
:0408CF00AFA6BAD145
:0408D000AFA3E10CE5
:0408D100AFA1161AA3
:0408D200AF9E57B4CA
:0408D300AF9BA6D061
:0408D400AF9902DDF9
:0408D500AF966D204D
:0408D600AF93E2B545
:0408D700AF91652E4A
:0408D800AF8EF423C8
:0408D900AF8C8DE66D
:0408DA00AF8A334866
:0408DB00AF87E4A05F
:0408DC00AF85A094B0
:0408DD00AF8367A2DC
:0408DE00AF8138E6C8
:0408DF00AF7E2AA618
:0408E000AF79F77184
:0408E100AF75D6F722
:0408E200AF71CB2AFD
:0408E300AF6DD23CE7
:0408E400AF69EBEB22
:0408E500AF6617A43F
:0408E600AF6256B5F2
:0408E700AF5EA665F5
:0408E800AF5B075C9F
:0408E900AF57790C80
:0408EA00AF53FAE12D
:0408EB00AF508F116A
:0408EC00AF4D31A437
:0408ED00AF49E4D259
:0408EE00AF46A5DB91
:0408EF00AF43760A93
:0408F000AF4055B60A
:0408F100AF3D4312C2
:0408F200AF3A3F6377
:0408F300AF37483D96
:0408F400AF345FFAC4
:0408F500AF3184504B
:0408F600AF2EB59CD0
:0408F700AF2BF45BD4
:0408F800AF293E974F
:0408F900AF2695E1B0
:0408FA00AF23F845EB
:0408FB00AF216702C0
:0408FC00AF1EE10F3B
:0408FD00AF1C67893C
:0408FE00AF19F7D85F
:0408FF00AF17933F5D
:00000001FF
