:04000000BF7484FC49
:04000100BF72292B76
:04000200BF6FD124D7
:04000300BF6D8469E0
:04000400BF6B3D8908
:04000500BF68FF0EC3
:04000600BF66C90DFB
:04000700BF6499C772
:04000800BF62732A36
:04000900BF6050F88C
:04000A00BF5E36603F
:04000B00BF5C268729
:04000C00BF5A1AB904
:04000D00BF581622A0
:04000E00BF5618338E
:04000F00BF542102B7
:04001000BF523003A8
:04001100BF5044A8F0
:04001200BF4E60E19C
:04001300BF4C81A4B9
:04001400BF4AA97DB9
:04001500BF48D9B94E
:04001600BF470B9B3A
:04001700BF4544C5D8
:04001800BF43836CF3
:04001900BF41C83AE1
:04001A00BF4013E2EE
:04001B00BF3E621D65
:04001C00BF3CB6AE81
:04001D00BF3B0FCA0C
:04001E00BF396FF483
:04001F00BF37D38A8A
:04002000BF363D0F9B
:04002100BF34ABF14C
:04002200BF331DC704
:04002300BF319655FE
:04002400BF3011EEEA
:04002500BF2E931740
:04002600BF2D193F92
:04002700BF2BA1FB4F
:04002800BF2A31A515
:04002900BF28C3FA2F
:04002A00BF275B7C15
:04002B00BF25F6F9FE
:04002C00BF24971C3A
:04002D00BF2338D5E0
:04002E00BF21DFE827
:04002F00BF208BBEA5
:04003000BF1F3B268D
:04003100BF1DEE28D9
:04003200BF1CA56CDE
:04003300BF1B5F256B
:04003400BF1A1F0CC4
:04003500BF18E0D838
:04003600BF17A53615
:04003700BF166E0181
:04003800BF153BE4D1
:04003900BF140C6E76
:04003A00BF12DE6DA6
:04003B00BF11B59D9F
:04003C00BF108F8BD7
:04003D00BF0F6CE1A4
:04003E00BF0E4F7E24
:04003F00BF0D30A120
:04004000BF0C17BA20
:04004100BF0B01B63A
:04004200BF09EEA55F
:04004300BF08DDE82D
:04004400BF07D026FC
:04004500BF06C60725
:04004600BF05BE51E3
:04004700BF04B90F2A
:04004800BF03B6E359
:04004900BF02B872C8
:04004A00BF01BBE94E
:04004B00BF00C1EC45
:04004C00BEFF963E1F
:04004D00BEFDAB58F1
:04004E00BEFBC5B37D
:04004F00BEF9EA43C9
:04005000BEF80DFAEF
:04005100BEF63713AD
:04005200BEF466CDC5
:04005300BEF29ABFA0
:04005400BEF0D432F4
:04005500BEEF11F3F6
:04005600BEED52D3D6
:04005700BEEB9BC49D
:04005800BEE9E56EAA
:04005900BEE834CDFC
:04005A00BEE688A8CE
:04005B00BEE4E24DD0
:04005C00BEE33E0DB4
:04005D00BEE19E69F9
:04005E00BEE00407F5
:04005F00BEDE6AA0F7
:04006000BEDCD7CC5F
:04006100BEDB4C2F87
:04006200BED9BFCC78
:04006300BED83702CA
:04006400BED6B62727
:04006500BED533FFD2
:04006600BED3B93B11
:04006700BED2405471
:04006800BED0CC66D4
:04006900BECF5BA10A
:04006A00BECDEE0613
:04006B00BECC84473C
:04006C00BECB1EFFEA
:04006D00BEC9BB212C
:04006E00BEC85BCEDF
:04006F00BEC6FE9279
:04007000BEC5A68CD7
:04007100BEC45007B2
:04007200BEC2FECC40
:04007300BEC1AD4716
:04007400BEC0611396
:04007500BEBF19955C
:04007600BEBDD3C276
:04007700BEBC90D8A3
:04007800BEBB517B3F
:04007900BEBA15B640
:04007A00BEB8D936FD
:04007B00BEB7A05A12
:04007C00BEB66E3B63
:04007D00BEB53C10C0
:04007E00BEB40ED529
:04007F00BEB2E1012B
:04008000BEB1B8262F
:04008100BEB091314B
:04008200BEAF6E049B
:04008300BEAE4D6957
:04008400BEAD2CEBF6
:04008500BEAC121FDC
:04008600BEAAF819FD
:04008700BEA9E156D7
:04008800BEA8CE7BC5
:04008900BEA7BBD67D
:04008A00BEA6AB451E
:04008B00BEA59F4A25
:04008C00BEA49390EB
:04008D00BEA38B384B
:04008E00BEA2846921
:04008F00BEA17FC8C7
:04009000BEA07DF79A
:04009100BE9F80335B
:04009200BE9E82D1BB
:04009300BE9D88493D
:04009400BE9C8EC9B7
:04009500BE9B978DEA
:04009600BE9AA3D794
:04009700BE99B271EB
:04009800BE98C04707
:04009900BE97D10E2F
:04009A00BE96E4D258
:04009B00BE95FB8D86
:04009C00BE9513708A
:04009D00BE942D17C9
:04009E00BE93475076
:04009F00BE92653078
:0400A000BE91858008
:0400A100BE90A7075F
:0400A200BE8FC92A1A
:0400A300BE8EEF041A
:0400A400BE8E158077
:0400A500BE8D3E7F4F
:0400A600BE8C68C4E0
:0400A700BE8B94F484
:0400A800BE8AC3AC9D
:0400A900BE89F141DA
:0400AA00BE892517CF
:0400AB00BE8855F5C1
:0400AC00BE878C80FF
:0400AD00BE86C152F8
:0400AE00BE85F821F2
:0400AF00BE85336B6C
:0400B000BE846F7F1C
:0400B100BE83AB203F
:0400B200BE82EA0917
:0400B300BE822A607F
:0400B400BE816C2875
:0400B500BE80AEC794
:0400B600BE7FE479AC
:0400B700BE7E721285
:0400B800BE7D0166A2
:0400B900BE7B927800
:0400BA00BE7A27CA19
:0400BB00BE78BC70DF
:0400BC00BE775911A1
:0400BD00BE75F78B8A
:0400BE00BE74956413
:0400BF00BE733A0CC6
:0400C000BE71DA6EC5
:0400C100BE7087D6B0
:0400C200BE6F2E805F
:0400C300BE6DDD4CE5
:0400C400BE6C8E0D73
:0400C500BE6B43408B
:0400C600BE69F58199
:0400C700BE68AEB6AB
:0400C800BE6769F1B5
:0400C900BE66224AA3
:0400CA00BE64E41715
:0400CB00BE63A583E8
:0400CC00BE626A4066
:0400CD00BE61311BC4
:0400CE00BE5FF8D544
:0400CF00BE5EC17ED2
:0400D000BE5D913947
:0400D100BE5C60A809
:0400D200BE5B34C21B
:0400D300BE5A0756B4
:0400D400BE58DFD95A
:0400D500BE57B6DF7D
:0400D600BE56929DE3
:0400D700BE556F5E45
:0400D800BE544E655F
:0400D900BE53336877
:0400DA00BE521350AF
:0400DB00BE50F939E1
:0400DC00BE4FE178BA
:0400DD00BE4ECD4600
:0400DE00BE4DB67FDE
:0400DF00BE4CA5C5A9
:0400E000BE4B93BDC3
:0400E100BE4A854D41
:0400E200BE497BC0D8
:0400E300BE4872237E
:0400E400BE47687932
:0400E500BE46613D75
:0400E600BE455C7542
:0400E700BE445A2594
:0400E800BE435A4772
:0400E900BE425A7247
:0400EA00BE415BDADE
:0400EB00BE406100B2
:0400EC00BE3F663479
:0400ED00BE3E6F277D
:0400EE00BE3D7AA4F5
:0400EF00BE3C84FB94
:0400F000BE3B931868
:0400F100BE3AA28EE3
:0400F200BE39B35A06
:0400F300BE38C4440B
:0400F400BE37DB7FB9
:0400F500BE36EDE73F
:0400F600BE3606A468
:0400F700BE351F896A
:0400F800BE3439D603
:0400F900BE33558B32
:0400FA00BE3272ADF3
:0400FB00BE3192760A
:0400FC00BE30B4EE70
:0400FD00BE2FD661DB
:0400FE00BE2EF80C0E
:0400FF00BE2E201CD5
:04010000BE2CE6F437
:04010100BE2B3B31A5
:04010200BE299395EA
:04010300BE27F34BD5
:04010400BE2656B30A
:04010500BE24C0EC68
:04010600BE23316C77
:04010700BE21A52C44
:04010800BE201FEE08
:04010900BE1E9D7405
:04010A00BE1D217C79
:04010B00BE1BAB77F5
:04010C00BE1A399C42
:04010D00BE18CBF756
:04010E00BE1763CEE7
:04010F00BE15FF5CBE
:04011000BE149FE298
:04011100BE1344369F
:04011200BE11EE8F9D
:04011300BE109C2A54
:04011400BE0F4D6A63
:04011500BE0E048294
:04011600BE0CBFA1BB
:04011700BE0B7D9905
:04011800BE0A3FFFDD
:04011900BE09072CE8
:04011A00BE07D1F259
:04011B00BE069F1B62
:04011C00BE056FA10C
:04011D00BE04465680
:04011E00BE031F8D70
:04011F00BE01FCDC45
:04012000BE00DCC37E
:04012100BDFF806935
:04012200BDFD50537C
:04012300BDFB23CA33
:04012400BDF902E33C
:04012500BDF6E155ED
:04012600BDF4CB8CCD
:04012700BDF2BACC9F
:04012800BDF0B1A0D5
:04012900BDEEAB2656
:04012A00BDECAC601C
:04012B00BDEAB41F56
:04012C00BDE8C3B4B3
:04012D00BDE6D594C2
:04012E00BDE4EC51EF
:04012F00BDE30BA879
:04013000BDE13132CA
:04013100BDDF580CCA
:04013200BDDD870A9E
:04013300BDDBBB2550
:04013400BDD9F3D16D
:04013500BDD831B34D
:04013600BDD676B507
:04013700BDD4BE90E5
:04013800BDD30C66C1
:04013900BDD15E696D
:04013A00BDCFB5463A
:04013B00BDCE0FC95D
:04013C00BDCC7112B3
:04013D00BDCAD4DE85
:04013E00BDC940C631
:04013F00BDC7AB91FC
:04014000BDC61F28F1
:04014100BDC496A9FA
:04014200BDC30FA486
:04014300BDC18DDAD3
:04014400BDC01153D6
:04014500BDBE99762C
:04014600BDBD23DC3C
:04014700BDBBB3A0E9
:04014800BDBA479362
:04014900BDB8DE7EE1
:04014A00BDB777CFF7
:04014B00BDB61740E6
:04014C00BDB4B92A5B
:04014D00BDB35F6A75
:04014E00BDB2096FC6
:04014F00BDB0B4C8C3
:04015000BDAF67A632
:04015100BDAE1B4DD7
:04015200BDACD199D6
:04015300BDAB8BD0E5
:04015400BDAA4A9B5B
:04015500BDA90CBF75
:04015600BDA7D10E62
:04015700BDA698C4E5
:04015800BDA5648E4F
:04015900BDA431F51B
:04015A00BDA3037AC4
:04015B00BDA1D92346
:04015C00BDA0AEA9EB
:04015D00BD9F8A3781
:04015E00BD9E66E9F3
:04015F00BD9D47DA21
:04016000BD9C2A9781
:04016100BD9B11042D
:04016200BD99F80D3E
:04016300BD98E54915
:04016400BD97D1F181
:04016500BD96C2FA87
:04016600BD95B4BBD4
:04016700BD94AA4D4C
:04016800BD93A4514E
:04016900BD929F1E86
:04016A00BD919E6540
:04016B00BD909D4561
:04016C00BD8F9F7034
:04016D00BD8EA58B13
:04016E00BD8DAD2670
:04016F00BD8CB6424B
:04017000BD8BC35F21
:04017100BD8ACF8EE6
:04017200BD89E1A3BF
:04017300BD88F372DE
:04017400BD8808B783
:04017500BD872036EC
:04017600BD863A9870
:04017700BD85573EAD
:04017800BD847318B7
:04017900BD83945955
:04017A00BD82B6AFDD
:04017B00BD81D8E585
:04017C00BD80FF50F3
:04017D00BD80277C9E
:04017E00BD7EA2DEC2
:04017F00BD7CF91733
:04018000BD7B556787
:04018100BD79B41878
:04018200BD781A2604
:04018300BD76803491
:04018400BD74EB3427
:04018500BD7358B638
:04018600BD71C8C8B7
:04018700BD703F1BED
:04018800BD6EB9424D
:04018900BD6D34D440
:04018A00BD6BB44055
:04018B00BD6A365EB5
:04018C00BD68C15732
:04018D00BD674B5BA4
:04018E00BD65D5A2D4
:04018F00BD6466677E
:04019000BD62F9FA59
:04019100BD61919823
:04019200BD60299D86
:04019300BD5EC82C59
:04019400BD5D69A440
:04019500BD5C0B92B0
:04019600BD5AB1A8F5
:04019700BD59583FB7
:04019800BD580582C7
:04019900BD56B34F4D
:04019A00BD55669D4C
:04019B00BD541CF241
:04019C00BD52D2ABD3
:04019D00BD518DEBD8
:04019E00BD5049D136
:04019F00BD4F0B53F2
:0401A000BD4DCD7D07
:0401A100BD4C906061
:0401A200BD4B57A951
:0401A300BD4A222807
:0401A400BD48EFDD86
:0401A500BD47BE5C38
:0401A600BD46929030
:0401A700BD45665A92
:0401A800BD443D6FA6
:0401A900BD431698A4
:0401AA00BD41F1D78B
:0401AB00BD40CDF78F
:0401AC00BD3FAFEDB7
:0401AD00BD3E918F33
:0401AE00BD3D769449
:0401AF00BD3C6042B1
:0401B000BD3B4AE227
:0401B100BD3A367BA2
:0401B200BD3923131D
:0401B300BD3813231D
:0401B400BD370576D8
:0401B500BD35FA0951
:0401B600BD34F2C2A0
:0401B700BD33ED293E
:0401B800BD32E80567
:0401B900BD31E497D9
:0401BA00BD30E2432F
:0401BB00BD2FE24A28
:0401BC00BD2EE689E5
:0401BD00BD2DEC8CDC
:0401BE00BD2CF31A47
:0401BF00BD2BFA3723
:0401C000BD2B06D479
:0401C100BD2A136BD5
:0401C200BD292270C1
:0401C300BD283350D0
:0401C400BD274569A5
:0401C500BD265A00F9
:0401C600BD256E9C49
:0401C700BD24883596
:0401C800BD23A13979
:0401C900BD22BC2A6D
:0401CA00BD21D90575
:0401CB00BD20F7D28A
:0401CC00BD2019CB6E
:0401CD00BD1F3B44D3
:0401CE00BD1E5FED06
:0401CF00BD1D84BB13
:0401D000BD1CAD5F46
:0401D100BD1BD76714
:0401D200BD1AFE80D4
:0401D300BD1A2BF135
:0401D400BD19599167
:0401D500BD18889D2C
:0401D600BD17BA5641
:0401D700BD16EC4223
:0401D800BD16217EB1
:0401D900BD1555B942
:0401DA00BD148AD1F5
:0401DB00BD13C51675
:0401DC00BD12FDC58E
:0401DD00BD123B090B
:0401DE00BD11757F5B
:0401DF00BD10B66831
:0401E000BD0FF34D0F
:0401E100BD0F339487
:0401E200BD0E77E0F7
:0401E300BD0DBC7E14
:0401E400BD0D00D17C
:0401E500BD0C457B8D
:0401E600BD0B8F6D51
:0401E700BD0AD7E096
:0401E800BD0A21EB40
:0401E900BD096CF4EC
:0401EA00BD08B998FB
:0401EB00BD0807DD67
:0401EC00BD0757C133
:0401ED00BD06A8AAF9
:0401EE00BD05F95EF4
:0401EF00BD054ECD2F
:0401F000BD04A23078
:0401F100BD03F9B899
:0401F200BD034DFB01
:0401F300BD02A6643F
:0401F400BD01FFE06A
:0401F500BD015B0AE3
:0401F600BD00B74C45
:0401F700BD0014A68D
:0401F800BCFEE13E2A
:0401F900BCFD9DDDCF
:0401FA00BCFC5B7A74
:0401FB00BCFB2042E7
:0401FC00BCF9E60D57
:0401FD00BCF8AE1A82
:0401FE00BCF775F7DE
:0401FF00BCF63EDF2D
:04020000BCF484FCCA
:04020100BCF2292BF7
:04020200BCEFD12458
:04020300BCED846961
:04020400BCEB3D8989
:04020500BCE8FF0E44
:04020600BCE6C90D7C
:04020700BCE499C7F3
:04020800BCE2732AB7
:04020900BCE050F80D
:04020A00BCDE3660C0
:04020B00BCDC2687AA
:04020C00BCDA1AB985
:04020D00BCD8162221
:04020E00BCD618330F
:04020F00BCD4210238
:04021000BCD2300329
:04021100BCD044A871
:04021200BCCE60E11D
:04021300BCCC81A43A
:04021400BCCAA97D3A
:04021500BCC8D9B9CF
:04021600BCC70B9BBB
:04021700BCC544C559
:04021800BCC3836C74
:04021900BCC1C83A62
:04021A00BCC013E26F
:04021B00BCBE621DE6
:04021C00BCBCB6AE02
:04021D00BCBB0FCA8D
:04021E00BCB96FF404
:04021F00BCB7D38A0B
:04022000BCB63D0F1C
:04022100BCB4ABF1CD
:04022200BCB31DC785
:04022300BCB196557F
:04022400BCB011EE6B
:04022500BCAE9317C1
:04022600BCAD193F13
:04022700BCABA1FBD0
:04022800BCAA31A596
:04022900BCA8C3FAB0
:04022A00BCA75B7C96
:04022B00BCA5F6F97F
:04022C00BCA4971CBB
:04022D00BCA338D561
:04022E00BCA1DFE8A8
:04022F00BCA08BBE26
:04023000BC9F3B260E
:04023100BC9DEE285A
:04023200BC9CA56C5F
:04023300BC9B5F25EC
:04023400BC9A1F0C45
:04023500BC98E0D8B9
:04023600BC97A53696
:04023700BC966E0102
:04023800BC953BE452
:04023900BC940C6EF7
:04023A00BC92DE6D27
:04023B00BC91B59D20
:04023C00BC908F8B58
:04023D00BC8F6CE125
:04023E00BC8E4F7EA5
:04023F00BC8D30A1A1
:04024000BC8C17BAA1
:04024100BC8B01B6BB
:04024200BC89EEA5E0
:04024300BC88DDE8AE
:04024400BC87D0267D
:04024500BC86C607A6
:04024600BC85BE5164
:04024700BC84B90FAB
:04024800BC83B6E3DA
:04024900BC82B87249
:04024A00BC81BBE9CF
:04024B00BC80C1ECC6
:04024C00BC7F963E9F
:04024D00BC7DAB5871
:04024E00BC7BC5B3FD
:04024F00BC79EA4349
:04025000BC780DFA6F
:04025100BC7637132D
:04025200BC7466CD45
:04025300BC729ABF20
:04025400BC70D43274
:04025500BC6F11F376
:04025600BC6D52D356
:04025700BC6B9BC41D
:04025800BC69E56E2A
:04025900BC6834CD7C
:04025A00BC6688A84E
:04025B00BC64E24D50
:04025C00BC633E0D34
:04025D00BC619E6979
:04025E00BC60040775
:04025F00BC5E6AA077
:04026000BC5CD7CCDF
:04026100BC5B4C2F07
:04026200BC59BFCCF8
:04026300BC5837024A
:04026400BC56B627A7
:04026500BC5533FF52
:04026600BC53B93B91
:04026700BC524054F1
:04026800BC50CC6654
:04026900BC4F5BA18A
:04026A00BC4DEE0693
:04026B00BC4C8447BC
:04026C00BC4B1EFF6A
:04026D00BC49BB21AC
:04026E00BC485BCE5F
:04026F00BC46FE92F9
:04027000BC45A68C57
:04027100BC44500732
:04027200BC42FECCC0
:04027300BC41AD4796
:04027400BC40611316
:04027500BC3F1995DC
:04027600BC3DD3C2F6
:04027700BC3C90D823
:04027800BC3B517BBF
:04027900BC3A15B6C0
:04027A00BC38D9367D
:04027B00BC37A05A92
:04027C00BC366E3BE3
:04027D00BC353C1040
:04027E00BC340ED5A9
:04027F00BC32E101AB
:04028000BC31B826AF
:04028100BC309131CB
:04028200BC2F6E041B
:04028300BC2E4D69D7
:04028400BC2D2CEB76
:04028500BC2C121F5C
:04028600BC2AF8197D
:04028700BC29E15657
:04028800BC28CE7B45
:04028900BC27BBD6FD
:04028A00BC26AB459E
:04028B00BC259F4AA5
:04028C00BC2493906B
:04028D00BC238B38CB
:04028E00BC228469A1
:04028F00BC217FC847
:04029000BC207DF71A
:04029100BC1F8033DB
:04029200BC1E82D13B
:04029300BC1D8849BD
:04029400BC1C8EC937
:04029500BC1B978D6A
:04029600BC1AA3D714
:04029700BC19B2716B
:04029800BC18C04787
:04029900BC17D10EAF
:04029A00BC16E4D2D8
:04029B00BC15FB8D06
:04029C00BC1513700A
:04029D00BC142D1749
:04029E00BC134750F6
:04029F00BC126530F8
:0402A000BC11858088
:0402A100BC10A707DF
:0402A200BC0FC92A9A
:0402A300BC0EEF049A
:0402A400BC0E1580F7
:0402A500BC0D3E7FCF
:0402A600BC0C68C460
:0402A700BC0B94F404
:0402A800BC0AC3AC1D
:0402A900BC09F1415A
:0402AA00BC0925174F
:0402AB00BC0855F541
:0402AC00BC078C807F
:0402AD00BC06C15278
:0402AE00BC05F82172
:0402AF00BC05336BEC
:0402B000BC046F7F9C
:0402B100BC03AB20BF
:0402B200BC02EA0997
:0402B300BC022A60FF
:0402B400BC016C28F5
:0402B500BC00AEC714
:0402B600BBFFE4792D
:0402B700BBFE721206
:0402B800BBFD016623
:0402B900BBFB927881
:0402BA00BBFA27CA9A
:0402BB00BBF8BC7060
:0402BC00BBF7591122
:0402BD00BBF5F78B0B
:0402BE00BBF4956494
:0402BF00BBF33A0C47
:0402C000BBF1DA6E46
:0402C100BBF087D631
:0402C200BBEF2E80E0
:0402C300BBEDDD4C66
:0402C400BBEC8E0DF4
:0402C500BBEB43400C
:0402C600BBE9F5811A
:0402C700BBE8AEB62C
:0402C800BBE769F136
:0402C900BBE6224A24
:0402CA00BBE4E41796
:0402CB00BBE3A58369
:0402CC00BBE26A40E7
:0402CD00BBE1311B45
:0402CE00BBDFF8D5C5
:0402CF00BBDEC17E53
:0402D000BBDD9139C8
:0402D100BBDC60A88A
:0402D200BBDB34C29C
:0402D300BBDA075635
:0402D400BBD8DFD9DB
:0402D500BBD7B6DFFE
:0402D600BBD6929D64
:0402D700BBD56F5EC6
:0402D800BBD44E65E0
:0402D900BBD33368F8
:0402DA00BBD2135030
:0402DB00BBD0F93962
:0402DC00BBCFE1783B
:0402DD00BBCECD4681
:0402DE00BBCDB67F5F
:0402DF00BBCCA5C52A
:0402E000BBCB93BD44
:0402E100BBCA854DC2
:0402E200BBC97BC059
:0402E300BBC87223FF
:0402E400BBC76879B3
:0402E500BBC6613DF6
:0402E600BBC55C75C3
:0402E700BBC45A2515
:0402E800BBC35A47F3
:0402E900BBC25A72C8
:0402EA00BBC15BDA5F
:0402EB00BBC0610033
:0402EC00BBBF6634FA
:0402ED00BBBE6F27FE
:0402EE00BBBD7AA476
:0402EF00BBBC84FB15
:0402F000BBBB9318E9
:0402F100BBBAA28E64
:0402F200BBB9B35A87
:0402F300BBB8C4448C
:0402F400BBB7DB7F3A
:0402F500BBB6EDE7C0
:0402F600BBB606A4E9
:0402F700BBB51F89EB
:0402F800BBB439D684
:0402F900BBB3558BB3
:0402FA00BBB272AD74
:0402FB00BBB192768B
:0402FC00BBB0B4EEF1
:0402FD00BBAFD6615C
:0402FE00BBAEF80C8F
:0402FF00BBAE201C56
:04030000BBACE6F4B8
:04030100BBAB3B3126
:04030200BBA993956B
:04030300BBA7F34B56
:04030400BBA656B38B
:04030500BBA4C0ECE9
:04030600BBA3316CF8
:04030700BBA1A52CC5
:04030800BBA01FEE89
:04030900BB9E9D7486
:04030A00BB9D217CFA
:04030B00BB9BAB7776
:04030C00BB9A399CC3
:04030D00BB98CBF7D7
:04030E00BB9763CE68
:04030F00BB95FF5C3F
:04031000BB949FE219
:04031100BB93443620
:04031200BB91EE8F1E
:04031300BB909C2AD5
:04031400BB8F4D6AE4
:04031500BB8E048215
:04031600BB8CBFA13C
:04031700BB8B7D9986
:04031800BB8A3FFF5E
:04031900BB89072C69
:04031A00BB87D1F2DA
:04031B00BB869F1BE3
:04031C00BB856FA18D
:04031D00BB84465601
:04031E00BB831F8DF1
:04031F00BB81FCDCC6
:04032000BB80DCC3FF
:04032100BB7F8069B5
:04032200BB7D5053FC
:04032300BB7B23CAB3
:04032400BB7902E3BC
:04032500BB76E1556D
:04032600BB74CB8C4D
:04032700BB72BACC1F
:04032800BB70B1A055
:04032900BB6EAB26D6
:04032A00BB6CAC609C
:04032B00BB6AB41FD6
:04032C00BB68C3B433
:04032D00BB66D59442
:04032E00BB64EC516F
:04032F00BB630BA8F9
:04033000BB6131324A
:04033100BB5F580C4A
:04033200BB5D870A1E
:04033300BB5BBB25D0
:04033400BB59F3D1ED
:04033500BB5831B3CD
:04033600BB5676B587
:04033700BB54BE9065
:04033800BB530C6641
:04033900BB515E69ED
:04033A00BB4FB546BA
:04033B00BB4E0FC9DD
:04033C00BB4C711233
:04033D00BB4AD4DE05
:04033E00BB4940C6B1
:04033F00BB47AB917C
:04034000BB461F2871
:04034100BB4496A97A
:04034200BB430FA406
:04034300BB418DDA53
:04034400BB40115356
:04034500BB3E9976AC
:04034600BB3D23DCBC
:04034700BB3BB3A069
:04034800BB3A4793E2
:04034900BB38DE7E61
:04034A00BB3777CF77
:04034B00BB36174066
:04034C00BB34B92ADB
:04034D00BB335F6AF5
:04034E00BB32096F46
:04034F00BB30B4C843
:04035000BB2F67A6B2
:04035100BB2E1B4D57
:04035200BB2CD19956
:04035300BB2B8BD065
:04035400BB2A4A9BDB
:04035500BB290CBFF5
:04035600BB27D10EE2
:04035700BB2698C465
:04035800BB25648ECF
:04035900BB2431F59B
:04035A00BB23037A44
:04035B00BB21D923C6
:04035C00BB20AEA96B
:04035D00BB1F8A3701
:04035E00BB1E66E973
:04035F00BB1D47DAA1
:04036000BB1C2A9701
:04036100BB1B1104AD
:04036200BB19F80DBE
:04036300BB18E54995
:04036400BB17D1F101
:04036500BB16C2FA07
:04036600BB15B4BB54
:04036700BB14AA4DCC
:04036800BB13A451CE
:04036900BB129F1E06
:04036A00BB119E65C0
:04036B00BB109D45E1
:04036C00BB0F9F70B4
:04036D00BB0EA58B93
:04036E00BB0DAD26F0
:04036F00BB0CB642CB
:04037000BB0BC35FA1
:04037100BB0ACF8E66
:04037200BB09E1A33F
:04037300BB08F3725E
:04037400BB0808B703
:04037500BB0720366C
:04037600BB063A98F0
:04037700BB05573E2D
:04037800BB04731837
:04037900BB039459D5
:04037A00BB02B6AF5D
:04037B00BB01D8E505
:04037C00BB00FF5073
:04037D00BB00277C1E
:04037E00BAFEA2DE43
:04037F00BAFCF917B4
:04038000BAFB556708
:04038100BAF9B418F9
:04038200BAF81A2685
:04038300BAF6803412
:04038400BAF4EB34A8
:04038500BAF358B6B9
:04038600BAF1C8C838
:04038700BAF03F1B6E
:04038800BAEEB942CE
:04038900BAED34D4C1
:04038A00BAEBB440D6
:04038B00BAEA365E36
:04038C00BAE8C157B3
:04038D00BAE74B5B25
:04038E00BAE5D5A255
:04038F00BAE46667FF
:04039000BAE2F9FADA
:04039100BAE19198A4
:04039200BAE0299D07
:04039300BADEC82CDA
:04039400BADD69A4C1
:04039500BADC0B9231
:04039600BADAB1A876
:04039700BAD9583F38
:04039800BAD8058248
:04039900BAD6B34FCE
:04039A00BAD5669DCD
:04039B00BAD41CF2C2
:04039C00BAD2D2AB54
:04039D00BAD18DEB59
:04039E00BAD049D1B7
:04039F00BACF0B5373
:0403A000BACDCD7D88
:0403A100BACC9060E2
:0403A200BACB57A9D2
:0403A300BACA222888
:0403A400BAC8EFDD07
:0403A500BAC7BE5CB9
:0403A600BAC69290B1
:0403A700BAC5665A13
:0403A800BAC43D6F27
:0403A900BAC3169825
:0403AA00BAC1F1D70C
:0403AB00BAC0CDF710
:0403AC00BABFAFED38
:0403AD00BABE918FB4
:0403AE00BABD7694CA
:0403AF00BABC604232
:0403B000BABB4AE2A8
:0403B100BABA367B23
:0403B200BAB923139E
:0403B300BAB813239E
:0403B400BAB7057659
:0403B500BAB5FA09D2
:0403B600BAB4F2C221
:0403B700BAB3ED29BF
:0403B800BAB2E805E8
:0403B900BAB1E4975A
:0403BA00BAB0E243B0
:0403BB00BAAFE24AA9
:0403BC00BAAEE68966
:0403BD00BAADEC8C5D
:0403BE00BAACF31AC8
:0403BF00BAABFA37A4
:0403C000BAAB06D4FA
:0403C100BAAA136B56
:0403C200BAA9227042
:0403C300BAA8335051
:0403C400BAA7456926
:0403C500BAA65A007A
:0403C600BAA56E9CCA
:0403C700BAA4883517
:0403C800BAA3A139FA
:0403C900BAA2BC2AEE
:0403CA00BAA1D905F6
:0403CB00BAA0F7D20B
:0403CC00BAA019CBEF
:0403CD00BA9F3B4454
:0403CE00BA9E5FED87
:0403CF00BA9D84BB94
:0403D000BA9CAD5FC7
:0403D100BA9BD76795
:0403D200BA9AFE8055
:0403D300BA9A2BF1B6
:0403D400BA995991E8
:0403D500BA98889DAD
:0403D600BA97BA56C2
:0403D700BA96EC42A4
:0403D800BA96217E32
:0403D900BA9555B9C3
:0403DA00BA948AD176
:0403DB00BA93C516F6
:0403DC00BA92FDC50F
:0403DD00BA923B098C
:0403DE00BA91757FDC
:0403DF00BA90B668B2
:0403E000BA8FF34D90
:0403E100BA8F339408
:0403E200BA8E77E078
:0403E300BA8DBC7E95
:0403E400BA8D00D1FD
:0403E500BA8C457B0E
:0403E600BA8B8F6DD2
:0403E700BA8AD7E017
:0403E800BA8A21EBC1
:0403E900BA896CF46D
:0403EA00BA88B9987C
:0403EB00BA8807DDE8
:0403EC00BA8757C1B4
:0403ED00BA86A8AA7A
:0403EE00BA85F95E75
:0403EF00BA854ECDB0
:0403F000BA84A230F9
:0403F100BA83F9B81A
:0403F200BA834DFB82
:0403F300BA82A664C0
:0403F400BA81FFE0EB
:0403F500BA815B0A64
:0403F600BA80B74CC6
:0403F700BA8014A60E
:0403F800BA7EE13EAA
:0403F900BA7D9DDD4F
:0403FA00BA7C5B7AF4
:0403FB00BA7B204267
:0403FC00BA79E60DD7
:0403FD00BA78AE1A02
:0403FE00BA7775F75E
:0403FF00BA763EDFAD
:04040000BA7484FC4A
:04040100BA72292B77
:04040200BA6FD124D8
:04040300BA6D8469E1
:04040400BA6B3D8909
:04040500BA68FF0EC4
:04040600BA66C90DFC
:04040700BA6499C773
:04040800BA62732A37
:04040900BA6050F88D
:04040A00BA5E366040
:04040B00BA5C26872A
:04040C00BA5A1AB905
:04040D00BA581622A1
:04040E00BA5618338F
:04040F00BA542102B8
:04041000BA523003A9
:04041100BA5044A8F1
:04041200BA4E60E19D
:04041300BA4C81A4BA
:04041400BA4AA97DBA
:04041500BA48D9B94F
:04041600BA470B9B3B
:04041700BA4544C5D9
:04041800BA43836CF4
:04041900BA41C83AE2
:04041A00BA4013E2EF
:04041B00BA3E621D66
:04041C00BA3CB6AE82
:04041D00BA3B0FCA0D
:04041E00BA396FF484
:04041F00BA37D38A8B
:04042000BA363D0F9C
:04042100BA34ABF14D
:04042200BA331DC705
:04042300BA319655FF
:04042400BA3011EEEB
:04042500BA2E931741
:04042600BA2D193F93
:04042700BA2BA1FB50
:04042800BA2A31A516
:04042900BA28C3FA30
:04042A00BA275B7C16
:04042B00BA25F6F9FF
:04042C00BA24971C3B
:04042D00BA2338D5E1
:04042E00BA21DFE828
:04042F00BA208BBEA6
:04043000BA1F3B268E
:04043100BA1DEE28DA
:04043200BA1CA56CDF
:04043300BA1B5F256C
:04043400BA1A1F0CC5
:04043500BA18E0D839
:04043600BA17A53616
:04043700BA166E0182
:04043800BA153BE4D2
:04043900BA140C6E77
:04043A00BA12DE6DA7
:04043B00BA11B59DA0
:04043C00BA108F8BD8
:04043D00BA0F6CE1A5
:04043E00BA0E4F7E25
:04043F00BA0D30A121
:04044000BA0C17BA21
:04044100BA0B01B63B
:04044200BA09EEA560
:04044300BA08DDE82E
:04044400BA07D026FD
:04044500BA06C60726
:04044600BA05BE51E4
:04044700BA04B90F2B
:04044800BA03B6E35A
:04044900BA02B872C9
:04044A00BA01BBE94F
:04044B00BA00C1EC46
:04044C00B9FF963E20
:04044D00B9FDAB58F2
:04044E00B9FBC5B37E
:04044F00B9F9EA43CA
:04045000B9F80DFAF0
:04045100B9F63713AE
:04045200B9F466CDC6
:04045300B9F29ABFA1
:04045400B9F0D432F5
:04045500B9EF11F3F7
:04045600B9ED52D3D7
:04045700B9EB9BC49E
:04045800B9E9E56EAB
:04045900B9E834CDFD
:04045A00B9E688A8CF
:04045B00B9E4E24DD1
:04045C00B9E33E0DB5
:04045D00B9E19E69FA
:04045E00B9E00407F6
:04045F00B9DE6AA0F8
:04046000B9DCD7CC60
:04046100B9DB4C2F88
:04046200B9D9BFCC79
:04046300B9D83702CB
:04046400B9D6B62728
:04046500B9D533FFD3
:04046600B9D3B93B12
:04046700B9D2405472
:04046800B9D0CC66D5
:04046900B9CF5BA10B
:04046A00B9CDEE0614
:04046B00B9CC84473D
:04046C00B9CB1EFFEB
:04046D00B9C9BB212D
:04046E00B9C85BCEE0
:04046F00B9C6FE927A
:04047000B9C5A68CD8
:04047100B9C45007B3
:04047200B9C2FECC41
:04047300B9C1AD4717
:04047400B9C0611397
:04047500B9BF19955D
:04047600B9BDD3C277
:04047700B9BC90D8A4
:04047800B9BB517B40
:04047900B9BA15B641
:04047A00B9B8D936FE
:04047B00B9B7A05A13
:04047C00B9B66E3B64
:04047D00B9B53C10C1
:04047E00B9B40ED52A
:04047F00B9B2E1012C
:04048000B9B1B82630
:04048100B9B091314C
:04048200B9AF6E049C
:04048300B9AE4D6958
:04048400B9AD2CEBF7
:04048500B9AC121FDD
:04048600B9AAF819FE
:04048700B9A9E156D8
:04048800B9A8CE7BC6
:04048900B9A7BBD67E
:04048A00B9A6AB451F
:04048B00B9A59F4A26
:04048C00B9A49390EC
:04048D00B9A38B384C
:04048E00B9A2846922
:04048F00B9A17FC8C8
:04049000B9A07DF79B
:04049100B99F80335C
:04049200B99E82D1BC
:04049300B99D88493E
:04049400B99C8EC9B8
:04049500B99B978DEB
:04049600B99AA3D795
:04049700B999B271EC
:04049800B998C04708
:04049900B997D10E30
:04049A00B996E4D259
:04049B00B995FB8D87
:04049C00B99513708B
:04049D00B9942D17CA
:04049E00B993475077
:04049F00B992653079
:0404A000B991858009
:0404A100B990A70760
:0404A200B98FC92A1B
:0404A300B98EEF041B
:0404A400B98E158078
:0404A500B98D3E7F50
:0404A600B98C68C4E1
:0404A700B98B94F485
:0404A800B98AC3AC9E
:0404A900B989F141DB
:0404AA00B9892517D0
:0404AB00B98855F5C2
:0404AC00B9878C8000
:0404AD00B986C152F9
:0404AE00B985F821F3
:0404AF00B985336B6D
:0404B000B9846F7F1D
:0404B100B983AB2040
:0404B200B982EA0918
:0404B300B9822A6080
:0404B400B9816C2876
:0404B500B980AEC795
:0404B600B97FE479AD
:0404B700B97E721286
:0404B800B97D0166A3
:0404B900B97B927801
:0404BA00B97A27CA1A
:0404BB00B978BC70E0
:0404BC00B9775911A2
:0404BD00B975F78B8B
:0404BE00B974956414
:0404BF00B9733A0CC7
:0404C000B971DA6EC6
:0404C100B97087D6B1
:0404C200B96F2E8060
:0404C300B96DDD4CE6
:0404C400B96C8E0D74
:0404C500B96B43408C
:0404C600B969F5819A
:0404C700B968AEB6AC
:0404C800B96769F1B6
:0404C900B966224AA4
:0404CA00B964E41716
:0404CB00B963A583E9
:0404CC00B9626A4067
:0404CD00B961311BC5
:0404CE00B95FF8D545
:0404CF00B95EC17ED3
:0404D000B95D913948
:0404D100B95C60A80A
:0404D200B95B34C21C
:0404D300B95A0756B5
:0404D400B958DFD95B
:0404D500B957B6DF7E
:0404D600B956929DE4
:0404D700B9556F5E46
:0404D800B9544E6560
:0404D900B953336878
:0404DA00B9521350B0
:0404DB00B950F939E2
:0404DC00B94FE178BB
:0404DD00B94ECD4601
:0404DE00B94DB67FDF
:0404DF00B94CA5C5AA
:0404E000B94B93BDC4
:0404E100B94A854D42
:0404E200B9497BC0D9
:0404E300B94872237F
:0404E400B947687933
:0404E500B946613D76
:0404E600B9455C7543
:0404E700B9445A2595
:0404E800B9435A4773
:0404E900B9425A7248
:0404EA00B9415BDADF
:0404EB00B9406100B3
:0404EC00B93F66347A
:0404ED00B93E6F277E
:0404EE00B93D7AA4F6
:0404EF00B93C84FB95
:0404F000B93B931869
:0404F100B93AA28EE4
:0404F200B939B35A07
:0404F300B938C4440C
:0404F400B937DB7FBA
:0404F500B936EDE740
:0404F600B93606A469
:0404F700B9351F896B
:0404F800B93439D604
:0404F900B933558B33
:0404FA00B93272ADF4
:0404FB00B93192760B
:0404FC00B930B4EE71
:0404FD00B92FD661DC
:0404FE00B92EF80C0F
:0404FF00B92E201CD6
:04050000B92CE6F438
:04050100B92B3B31A6
:04050200B9299395EB
:04050300B927F34BD6
:04050400B92656B30B
:04050500B924C0EC69
:04050600B923316C78
:04050700B921A52C45
:04050800B9201FEE09
:04050900B91E9D7406
:04050A00B91D217C7A
:04050B00B91BAB77F6
:04050C00B91A399C43
:04050D00B918CBF757
:04050E00B91763CEE8
:04050F00B915FF5CBF
:04051000B9149FE299
:04051100B9134436A0
:04051200B911EE8F9E
:04051300B9109C2A55
:04051400B90F4D6A64
:04051500B90E048295
:04051600B90CBFA1BC
:04051700B90B7D9906
:04051800B90A3FFFDE
:04051900B909072CE9
:04051A00B907D1F25A
:04051B00B9069F1B63
:04051C00B9056FA10D
:04051D00B904465681
:04051E00B9031F8D71
:04051F00B901FCDC46
:04052000B900DCC37F
:04052100B8FF806936
:04052200B8FD50537D
:04052300B8FB23CA34
:04052400B8F902E33D
:04052500B8F6E155EE
:04052600B8F4CB8CCE
:04052700B8F2BACCA0
:04052800B8F0B1A0D6
:04052900B8EEAB2657
:04052A00B8ECAC601D
:04052B00B8EAB41F57
:04052C00B8E8C3B4B4
:04052D00B8E6D594C3
:04052E00B8E4EC51F0
:04052F00B8E30BA87A
:04053000B8E13132CB
:04053100B8DF580CCB
:04053200B8DD870A9F
:04053300B8DBBB2551
:04053400B8D9F3D16E
:04053500B8D831B34E
:04053600B8D676B508
:04053700B8D4BE90E6
:04053800B8D30C66C2
:04053900B8D15E696E
:04053A00B8CFB5463B
:04053B00B8CE0FC95E
:04053C00B8CC7112B4
:04053D00B8CAD4DE86
:04053E00B8C940C632
:04053F00B8C7AB91FD
:04054000B8C61F28F2
:04054100B8C496A9FB
:04054200B8C30FA487
:04054300B8C18DDAD4
:04054400B8C01153D7
:04054500B8BE99762D
:04054600B8BD23DC3D
:04054700B8BBB3A0EA
:04054800B8BA479363
:04054900B8B8DE7EE2
:04054A00B8B777CFF8
:04054B00B8B61740E7
:04054C00B8B4B92A5C
:04054D00B8B35F6A76
:04054E00B8B2096FC7
:04054F00B8B0B4C8C4
:04055000B8AF67A633
:04055100B8AE1B4DD8
:04055200B8ACD199D7
:04055300B8AB8BD0E6
:04055400B8AA4A9B5C
:04055500B8A90CBF76
:04055600B8A7D10E63
:04055700B8A698C4E6
:04055800B8A5648E50
:04055900B8A431F51C
:04055A00B8A3037AC5
:04055B00B8A1D92347
:04055C00B8A0AEA9EC
:04055D00B89F8A3782
:04055E00B89E66E9F4
:04055F00B89D47DA22
:04056000B89C2A9782
:04056100B89B11042E
:04056200B899F80D3F
:04056300B898E54916
:04056400B897D1F182
:04056500B896C2FA88
:04056600B895B4BBD5
:04056700B894AA4D4D
:04056800B893A4514F
:04056900B8929F1E87
:04056A00B8919E6541
:04056B00B8909D4562
:04056C00B88F9F7035
:04056D00B88EA58B14
:04056E00B88DAD2671
:04056F00B88CB6424C
:04057000B88BC35F22
:04057100B88ACF8EE7
:04057200B889E1A3C0
:04057300B888F372DF
:04057400B88808B784
:04057500B8872036ED
:04057600B8863A9871
:04057700B885573EAE
:04057800B8847318B8
:04057900B883945956
:04057A00B882B6AFDE
:04057B00B881D8E586
:04057C00B880FF50F4
:04057D00B880277C9F
:04057E00B87EA2DEC3
:04057F00B87CF91734
:04058000B87B556788
:04058100B879B41879
:04058200B8781A2605
:04058300B876803492
:04058400B874EB3428
:04058500B87358B639
:04058600B871C8C8B8
:04058700B8703F1BEE
:04058800B86EB9424E
:04058900B86D34D441
:04058A00B86BB44056
:04058B00B86A365EB6
:04058C00B868C15733
:04058D00B8674B5BA5
:04058E00B865D5A2D5
:04058F00B86466677F
:04059000B862F9FA5A
:04059100B861919824
:04059200B860299D87
:04059300B85EC82C5A
:04059400B85D69A441
:04059500B85C0B92B1
:04059600B85AB1A8F6
:04059700B859583FB8
:04059800B8580582C8
:04059900B856B34F4E
:04059A00B855669D4D
:04059B00B8541CF242
:04059C00B852D2ABD4
:04059D00B8518DEBD9
:04059E00B85049D137
:04059F00B84F0B53F3
:0405A000B84DCD7D08
:0405A100B84C906062
:0405A200B84B57A952
:0405A300B84A222808
:0405A400B848EFDD87
:0405A500B847BE5C39
:0405A600B846929031
:0405A700B845665A93
:0405A800B8443D6FA7
:0405A900B8431698A5
:0405AA00B841F1D78C
:0405AB00B840CDF790
:0405AC00B83FAFEDB8
:0405AD00B83E918F34
:0405AE00B83D76944A
:0405AF00B83C6042B2
:0405B000B83B4AE228
:0405B100B83A367BA3
:0405B200B83923131E
:0405B300B83813231E
:0405B400B8370576D9
:0405B500B835FA0952
:0405B600B834F2C2A1
:0405B700B833ED293F
:0405B800B832E80568
:0405B900B831E497DA
:0405BA00B830E24330
:0405BB00B82FE24A29
:0405BC00B82EE689E6
:0405BD00B82DEC8CDD
:0405BE00B82CF31A48
:0405BF00B82BFA3724
:0405C000B82B06D47A
:0405C100B82A136BD6
:0405C200B8292270C2
:0405C300B8283350D1
:0405C400B8274569A6
:0405C500B8265A00FA
:0405C600B8256E9C4A
:0405C700B824883597
:0405C800B823A1397A
:0405C900B822BC2A6E
:0405CA00B821D90576
:0405CB00B820F7D28B
:0405CC00B82019CB6F
:0405CD00B81F3B44D4
:0405CE00B81E5FED07
:0405CF00B81D84BB14
:0405D000B81CAD5F47
:0405D100B81BD76715
:0405D200B81AFE80D5
:0405D300B81A2BF136
:0405D400B819599168
:0405D500B818889D2D
:0405D600B817BA5642
:0405D700B816EC4224
:0405D800B816217EB2
:0405D900B81555B943
:0405DA00B8148AD1F6
:0405DB00B813C51676
:0405DC00B812FDC58F
:0405DD00B8123B090C
:0405DE00B811757F5C
:0405DF00B810B66832
:0405E000B80FF34D10
:0405E100B80F339488
:0405E200B80E77E0F8
:0405E300B80DBC7E15
:0405E400B80D00D17D
:0405E500B80C457B8E
:0405E600B80B8F6D52
:0405E700B80AD7E097
:0405E800B80A21EB41
:0405E900B8096CF4ED
:0405EA00B808B998FC
:0405EB00B80807DD68
:0405EC00B80757C134
:0405ED00B806A8AAFA
:0405EE00B805F95EF5
:0405EF00B8054ECD30
:0405F000B804A23079
:0405F100B803F9B89A
:0405F200B8034DFB02
:0405F300B802A66440
:0405F400B801FFE06B
:0405F500B8015B0AE4
:0405F600B800B74C46
:0405F700B80014A68E
:0405F800B7FEE13E2B
:0405F900B7FD9DDDD0
:0405FA00B7FC5B7A75
:0405FB00B7FB2042E8
:0405FC00B7F9E60D58
:0405FD00B7F8AE1A83
:0405FE00B7F775F7DF
:0405FF00B7F63EDF2E
:04060000B7F484FCCB
:04060100B7F2292BF8
:04060200B7EFD12459
:04060300B7ED846962
:04060400B7EB3D898A
:04060500B7E8FF0E45
:04060600B7E6C90D7D
:04060700B7E499C7F4
:04060800B7E2732AB8
:04060900B7E050F80E
:04060A00B7DE3660C1
:04060B00B7DC2687AB
:04060C00B7DA1AB986
:04060D00B7D8162222
:04060E00B7D6183310
:04060F00B7D4210239
:04061000B7D230032A
:04061100B7D044A872
:04061200B7CE60E11E
:04061300B7CC81A43B
:04061400B7CAA97D3B
:04061500B7C8D9B9D0
:04061600B7C70B9BBC
:04061700B7C544C55A
:04061800B7C3836C75
:04061900B7C1C83A63
:04061A00B7C013E270
:04061B00B7BE621DE7
:04061C00B7BCB6AE03
:04061D00B7BB0FCA8E
:04061E00B7B96FF405
:04061F00B7B7D38A0C
:04062000B7B63D0F1D
:04062100B7B4ABF1CE
:04062200B7B31DC786
:04062300B7B1965580
:04062400B7B011EE6C
:04062500B7AE9317C2
:04062600B7AD193F14
:04062700B7ABA1FBD1
:04062800B7AA31A597
:04062900B7A8C3FAB1
:04062A00B7A75B7C97
:04062B00B7A5F6F980
:04062C00B7A4971CBC
:04062D00B7A338D562
:04062E00B7A1DFE8A9
:04062F00B7A08BBE27
:04063000B79F3B260F
:04063100B79DEE285B
:04063200B79CA56C60
:04063300B79B5F25ED
:04063400B79A1F0C46
:04063500B798E0D8BA
:04063600B797A53697
:04063700B7966E0103
:04063800B7953BE453
:04063900B7940C6EF8
:04063A00B792DE6D28
:04063B00B791B59D21
:04063C00B7908F8B59
:04063D00B78F6CE126
:04063E00B78E4F7EA6
:04063F00B78D30A1A2
:04064000B78C17BAA2
:04064100B78B01B6BC
:04064200B789EEA5E1
:04064300B788DDE8AF
:04064400B787D0267E
:04064500B786C607A7
:04064600B785BE5165
:04064700B784B90FAC
:04064800B783B6E3DB
:04064900B782B8724A
:04064A00B781BBE9D0
:04064B00B780C1ECC7
:04064C00B77F963EA0
:04064D00B77DAB5872
:04064E00B77BC5B3FE
:04064F00B779EA434A
:04065000B7780DFA70
:04065100B77637132E
:04065200B77466CD46
:04065300B7729ABF21
:04065400B770D43275
:04065500B76F11F377
:04065600B76D52D357
:04065700B76B9BC41E
:04065800B769E56E2B
:04065900B76834CD7D
:04065A00B76688A84F
:04065B00B764E24D51
:04065C00B7633E0D35
:04065D00B7619E697A
:04065E00B760040776
:04065F00B75E6AA078
:04066000B75CD7CCE0
:04066100B75B4C2F08
:04066200B759BFCCF9
:04066300B75837024B
:04066400B756B627A8
:04066500B75533FF53
:04066600B753B93B92
:04066700B7524054F2
:04066800B750CC6655
:04066900B74F5BA18B
:04066A00B74DEE0694
:04066B00B74C8447BD
:04066C00B74B1EFF6B
:04066D00B749BB21AD
:04066E00B7485BCE60
:04066F00B746FE92FA
:04067000B745A68C58
:04067100B744500733
:04067200B742FECCC1
:04067300B741AD4797
:04067400B740611317
:04067500B73F1995DD
:04067600B73DD3C2F7
:04067700B73C90D824
:04067800B73B517BC0
:04067900B73A15B6C1
:04067A00B738D9367E
:04067B00B737A05A93
:04067C00B7366E3BE4
:04067D00B7353C1041
:04067E00B7340ED5AA
:04067F00B732E101AC
:04068000B731B826B0
:04068100B7309131CC
:04068200B72F6E041C
:04068300B72E4D69D8
:04068400B72D2CEB77
:04068500B72C121F5D
:04068600B72AF8197E
:04068700B729E15658
:04068800B728CE7B46
:04068900B727BBD6FE
:04068A00B726AB459F
:04068B00B7259F4AA6
:04068C00B72493906C
:04068D00B7238B38CC
:04068E00B7228469A2
:04068F00B7217FC848
:04069000B7207DF71B
:04069100B71F8033DC
:04069200B71E82D13C
:04069300B71D8849BE
:04069400B71C8EC938
:04069500B71B978D6B
:04069600B71AA3D715
:04069700B719B2716C
:04069800B718C04788
:04069900B717D10EB0
:04069A00B716E4D2D9
:04069B00B715FB8D07
:04069C00B71513700B
:04069D00B7142D174A
:04069E00B7134750F7
:04069F00B7126530F9
:0406A000B711858089
:0406A100B710A707E0
:0406A200B70FC92A9B
:0406A300B70EEF049B
:0406A400B70E1580F8
:0406A500B70D3E7FD0
:0406A600B70C68C461
:0406A700B70B94F405
:0406A800B70AC3AC1E
:0406A900B709F1415B
:0406AA00B709251750
:0406AB00B70855F542
:0406AC00B7078C8080
:0406AD00B706C15279
:0406AE00B705F82173
:0406AF00B705336BED
:0406B000B7046F7F9D
:0406B100B703AB20C0
:0406B200B702EA0998
:0406B300B7022A6000
:0406B400B7016C28F6
:0406B500B700AEC715
:0406B600B6FFE4792E
:0406B700B6FE721207
:0406B800B6FD016624
:0406B900B6FB927882
:0406BA00B6FA27CA9B
:0406BB00B6F8BC7061
:0406BC00B6F7591123
:0406BD00B6F5F78B0C
:0406BE00B6F4956495
:0406BF00B6F33A0C48
:0406C000B6F1DA6E47
:0406C100B6F087D632
:0406C200B6EF2E80E1
:0406C300B6EDDD4C67
:0406C400B6EC8E0DF5
:0406C500B6EB43400D
:0406C600B6E9F5811B
:0406C700B6E8AEB62D
:0406C800B6E769F137
:0406C900B6E6224A25
:0406CA00B6E4E41797
:0406CB00B6E3A5836A
:0406CC00B6E26A40E8
:0406CD00B6E1311B46
:0406CE00B6DFF8D5C6
:0406CF00B6DEC17E54
:0406D000B6DD9139C9
:0406D100B6DC60A88B
:0406D200B6DB34C29D
:0406D300B6DA075636
:0406D400B6D8DFD9DC
:0406D500B6D7B6DFFF
:0406D600B6D6929D65
:0406D700B6D56F5EC7
:0406D800B6D44E65E1
:0406D900B6D33368F9
:0406DA00B6D2135031
:0406DB00B6D0F93963
:0406DC00B6CFE1783C
:0406DD00B6CECD4682
:0406DE00B6CDB67F60
:0406DF00B6CCA5C52B
:0406E000B6CB93BD45
:0406E100B6CA854DC3
:0406E200B6C97BC05A
:0406E300B6C8722300
:0406E400B6C76879B4
:0406E500B6C6613DF7
:0406E600B6C55C75C4
:0406E700B6C45A2516
:0406E800B6C35A47F4
:0406E900B6C25A72C9
:0406EA00B6C15BDA60
:0406EB00B6C0610034
:0406EC00B6BF6634FB
:0406ED00B6BE6F27FF
:0406EE00B6BD7AA477
:0406EF00B6BC84FB16
:0406F000B6BB9318EA
:0406F100B6BAA28E65
:0406F200B6B9B35A88
:0406F300B6B8C4448D
:0406F400B6B7DB7F3B
:0406F500B6B6EDE7C1
:0406F600B6B606A4EA
:0406F700B6B51F89EC
:0406F800B6B439D685
:0406F900B6B3558BB4
:0406FA00B6B272AD75
:0406FB00B6B192768C
:0406FC00B6B0B4EEF2
:0406FD00B6AFD6615D
:0406FE00B6AEF80C90
:0406FF00B6AE201C57
:04070000B6ACE6F4B9
:04070100B6AB3B3127
:04070200B6A993956C
:04070300B6A7F34B57
:04070400B6A656B38C
:04070500B6A4C0ECEA
:04070600B6A3316CF9
:04070700B6A1A52CC6
:04070800B6A01FEE8A
:04070900B69E9D7487
:04070A00B69D217CFB
:04070B00B69BAB7777
:04070C00B69A399CC4
:04070D00B698CBF7D8
:04070E00B69763CE69
:04070F00B695FF5C40
:04071000B6949FE21A
:04071100B693443621
:04071200B691EE8F1F
:04071300B6909C2AD6
:04071400B68F4D6AE5
:04071500B68E048216
:04071600B68CBFA13D
:04071700B68B7D9987
:04071800B68A3FFF5F
:04071900B689072C6A
:04071A00B687D1F2DB
:04071B00B6869F1BE4
:04071C00B6856FA18E
:04071D00B684465602
:04071E00B6831F8DF2
:04071F00B681FCDCC7
:04072000B680DCC300
:04072100B67F8069B6
:04072200B67D5053FD
:04072300B67B23CAB4
:04072400B67902E3BD
:04072500B676E1556E
:04072600B674CB8C4E
:04072700B672BACC20
:04072800B670B1A056
:04072900B66EAB26D7
:04072A00B66CAC609D
:04072B00B66AB41FD7
:04072C00B668C3B434
:04072D00B666D59443
:04072E00B664EC5170
:04072F00B6630BA8FA
:04073000B66131324B
:04073100B65F580C4B
:04073200B65D870A1F
:04073300B65BBB25D1
:04073400B659F3D1EE
:04073500B65831B3CE
:04073600B65676B588
:04073700B654BE9066
:04073800B6530C6642
:04073900B6515E69EE
:04073A00B64FB546BB
:04073B00B64E0FC9DE
:04073C00B64C711234
:04073D00B64AD4DE06
:04073E00B64940C6B2
:04073F00B647AB917D
:04074000B6461F2872
:04074100B64496A97B
:04074200B6430FA407
:04074300B6418DDA54
:04074400B640115357
:04074500B63E9976AD
:04074600B63D23DCBD
:04074700B63BB3A06A
:04074800B63A4793E3
:04074900B638DE7E62
:04074A00B63777CF78
:04074B00B636174067
:04074C00B634B92ADC
:04074D00B6335F6AF6
:04074E00B632096F47
:04074F00B630B4C844
:04075000B62F67A6B3
:04075100B62E1B4D58
:04075200B62CD19957
:04075300B62B8BD066
:04075400B62A4A9BDC
:04075500B6290CBFF6
:04075600B627D10EE3
:04075700B62698C466
:04075800B625648ED0
:04075900B62431F59C
:04075A00B623037A45
:04075B00B621D923C7
:04075C00B620AEA96C
:04075D00B61F8A3702
:04075E00B61E66E974
:04075F00B61D47DAA2
:04076000B61C2A9702
:04076100B61B1104AE
:04076200B619F80DBF
:04076300B618E54996
:04076400B617D1F102
:04076500B616C2FA08
:04076600B615B4BB55
:04076700B614AA4DCD
:04076800B613A451CF
:04076900B6129F1E07
:04076A00B6119E65C1
:04076B00B6109D45E2
:04076C00B60F9F70B5
:04076D00B60EA58B94
:04076E00B60DAD26F1
:04076F00B60CB642CC
:04077000B60BC35FA2
:04077100B60ACF8E67
:04077200B609E1A340
:04077300B608F3725F
:04077400B60808B704
:04077500B60720366D
:04077600B6063A98F1
:04077700B605573E2E
:04077800B604731838
:04077900B6039459D6
:04077A00B602B6AF5E
:04077B00B601D8E506
:04077C00B600FF5074
:04077D00B600277C1F
:04077E00B5FEA2DE44
:04077F00B5FCF917B5
:04078000B5FB556709
:04078100B5F9B418FA
:04078200B5F81A2686
:04078300B5F6803413
:04078400B5F4EB34A9
:04078500B5F358B6BA
:04078600B5F1C8C839
:04078700B5F03F1B6F
:04078800B5EEB942CF
:04078900B5ED34D4C2
:04078A00B5EBB440D7
:04078B00B5EA365E37
:04078C00B5E8C157B4
:04078D00B5E74B5B26
:04078E00B5E5D5A256
:04078F00B5E4666700
:04079000B5E2F9FADB
:04079100B5E19198A5
:04079200B5E0299D08
:04079300B5DEC82CDB
:04079400B5DD69A4C2
:04079500B5DC0B9232
:04079600B5DAB1A877
:04079700B5D9583F39
:04079800B5D8058249
:04079900B5D6B34FCF
:04079A00B5D5669DCE
:04079B00B5D41CF2C3
:04079C00B5D2D2AB55
:04079D00B5D18DEB5A
:04079E00B5D049D1B8
:04079F00B5CF0B5374
:0407A000B5CDCD7D89
:0407A100B5CC9060E3
:0407A200B5CB57A9D3
:0407A300B5CA222889
:0407A400B5C8EFDD08
:0407A500B5C7BE5CBA
:0407A600B5C69290B2
:0407A700B5C5665A14
:0407A800B5C43D6F28
:0407A900B5C3169826
:0407AA00B5C1F1D70D
:0407AB00B5C0CDF711
:0407AC00B5BFAFED39
:0407AD00B5BE918FB5
:0407AE00B5BD7694CB
:0407AF00B5BC604233
:0407B000B5BB4AE2A9
:0407B100B5BA367B24
:0407B200B5B923139F
:0407B300B5B813239F
:0407B400B5B705765A
:0407B500B5B5FA09D3
:0407B600B5B4F2C222
:0407B700B5B3ED29C0
:0407B800B5B2E805E9
:0407B900B5B1E4975B
:0407BA00B5B0E243B1
:0407BB00B5AFE24AAA
:0407BC00B5AEE68967
:0407BD00B5ADEC8C5E
:0407BE00B5ACF31AC9
:0407BF00B5ABFA37A5
:0407C000B5AB06D4FB
:0407C100B5AA136B57
:0407C200B5A9227043
:0407C300B5A8335052
:0407C400B5A7456927
:0407C500B5A65A007B
:0407C600B5A56E9CCB
:0407C700B5A4883518
:0407C800B5A3A139FB
:0407C900B5A2BC2AEF
:0407CA00B5A1D905F7
:0407CB00B5A0F7D20C
:0407CC00B5A019CBF0
:0407CD00B59F3B4455
:0407CE00B59E5FED88
:0407CF00B59D84BB95
:0407D000B59CAD5FC8
:0407D100B59BD76796
:0407D200B59AFE8056
:0407D300B59A2BF1B7
:0407D400B5995991E9
:0407D500B598889DAE
:0407D600B597BA56C3
:0407D700B596EC42A5
:0407D800B596217E33
:0407D900B59555B9C4
:0407DA00B5948AD177
:0407DB00B593C516F7
:0407DC00B592FDC510
:0407DD00B5923B098D
:0407DE00B591757FDD
:0407DF00B590B668B3
:0407E000B58FF34D91
:0407E100B58F339409
:0407E200B58E77E079
:0407E300B58DBC7E96
:0407E400B58D00D1FE
:0407E500B58C457B0F
:0407E600B58B8F6DD3
:0407E700B58AD7E018
:0407E800B58A21EBC2
:0407E900B5896CF46E
:0407EA00B588B9987D
:0407EB00B58807DDE9
:0407EC00B58757C1B5
:0407ED00B586A8AA7B
:0407EE00B585F95E76
:0407EF00B5854ECDB1
:0407F000B584A230FA
:0407F100B583F9B81B
:0407F200B5834DFB83
:0407F300B582A664C1
:0407F400B581FFE0EC
:0407F500B5815B0A65
:0407F600B580B74CC7
:0407F700B58014A60F
:0407F800B57EE13EAB
:0407F900B57D9DDD50
:0407FA00B57C5B7AF5
:0407FB00B57B204268
:0407FC00B579E60DD8
:0407FD00B578AE1A03
:0407FE00B57775F75F
:0407FF00B5763EDFAE
:04080000B57484FC4B
:04080100B572292B78
:04080200B56FD124D9
:04080300B56D8469E2
:04080400B56B3D890A
:04080500B568FF0EC5
:04080600B566C90DFD
:04080700B56499C774
:04080800B562732A38
:04080900B56050F88E
:04080A00B55E366041
:04080B00B55C26872B
:04080C00B55A1AB906
:04080D00B5581622A2
:04080E00B556183390
:04080F00B5542102B9
:04081000B5523003AA
:04081100B55044A8F2
:04081200B54E60E19E
:04081300B54C81A4BB
:04081400B54AA97DBB
:04081500B548D9B950
:04081600B5470B9B3C
:04081700B54544C5DA
:04081800B543836CF5
:04081900B541C83AE3
:04081A00B54013E2F0
:04081B00B53E621D67
:04081C00B53CB6AE83
:04081D00B53B0FCA0E
:04081E00B5396FF485
:04081F00B537D38A8C
:04082000B5363D0F9D
:04082100B534ABF14E
:04082200B5331DC706
:04082300B531965500
:04082400B53011EEEC
:04082500B52E931742
:04082600B52D193F94
:04082700B52BA1FB51
:04082800B52A31A517
:04082900B528C3FA31
:04082A00B5275B7C17
:04082B00B525F6F900
:04082C00B524971C3C
:04082D00B52338D5E2
:04082E00B521DFE829
:04082F00B5208BBEA7
:04083000B51F3B268F
:04083100B51DEE28DB
:04083200B51CA56CE0
:04083300B51B5F256D
:04083400B51A1F0CC6
:04083500B518E0D83A
:04083600B517A53617
:04083700B5166E0183
:04083800B5153BE4D3
:04083900B5140C6E78
:04083A00B512DE6DA8
:04083B00B511B59DA1
:04083C00B5108F8BD9
:04083D00B50F6CE1A6
:04083E00B50E4F7E26
:04083F00B50D30A122
:04084000B50C17BA22
:04084100B50B01B63C
:04084200B509EEA561
:04084300B508DDE82F
:04084400B507D026FE
:04084500B506C60727
:04084600B505BE51E5
:04084700B504B90F2C
:04084800B503B6E35B
:04084900B502B872CA
:04084A00B501BBE950
:04084B00B500C1EC47
:04084C00B4FF963E21
:04084D00B4FDAB58F3
:04084E00B4FBC5B37F
:04084F00B4F9EA43CB
:04085000B4F80DFAF1
:04085100B4F63713AF
:04085200B4F466CDC7
:04085300B4F29ABFA2
:04085400B4F0D432F6
:04085500B4EF11F3F8
:04085600B4ED52D3D8
:04085700B4EB9BC49F
:04085800B4E9E56EAC
:04085900B4E834CDFE
:04085A00B4E688A8D0
:04085B00B4E4E24DD2
:04085C00B4E33E0DB6
:04085D00B4E19E69FB
:04085E00B4E00407F7
:04085F00B4DE6AA0F9
:04086000B4DCD7CC61
:04086100B4DB4C2F89
:04086200B4D9BFCC7A
:04086300B4D83702CC
:04086400B4D6B62729
:04086500B4D533FFD4
:04086600B4D3B93B13
:04086700B4D2405473
:04086800B4D0CC66D6
:04086900B4CF5BA10C
:04086A00B4CDEE0615
:04086B00B4CC84473E
:04086C00B4CB1EFFEC
:04086D00B4C9BB212E
:04086E00B4C85BCEE1
:04086F00B4C6FE927B
:04087000B4C5A68CD9
:04087100B4C45007B4
:04087200B4C2FECC42
:04087300B4C1AD4718
:04087400B4C0611398
:04087500B4BF19955E
:04087600B4BDD3C278
:04087700B4BC90D8A5
:04087800B4BB517B41
:04087900B4BA15B642
:04087A00B4B8D936FF
:04087B00B4B7A05A14
:04087C00B4B66E3B65
:04087D00B4B53C10C2
:04087E00B4B40ED52B
:04087F00B4B2E1012D
:04088000B4B1B82631
:04088100B4B091314D
:04088200B4AF6E049D
:04088300B4AE4D6959
:04088400B4AD2CEBF8
:04088500B4AC121FDE
:04088600B4AAF819FF
:04088700B4A9E156D9
:04088800B4A8CE7BC7
:04088900B4A7BBD67F
:04088A00B4A6AB4520
:04088B00B4A59F4A27
:04088C00B4A49390ED
:04088D00B4A38B384D
:04088E00B4A2846923
:04088F00B4A17FC8C9
:04089000B4A07DF79C
:04089100B49F80335D
:04089200B49E82D1BD
:04089300B49D88493F
:04089400B49C8EC9B9
:04089500B49B978DEC
:04089600B49AA3D796
:04089700B499B271ED
:04089800B498C04709
:04089900B497D10E31
:04089A00B496E4D25A
:04089B00B495FB8D88
:04089C00B49513708C
:04089D00B4942D17CB
:04089E00B493475078
:04089F00B49265307A
:0408A000B49185800A
:0408A100B490A70761
:0408A200B48FC92A1C
:0408A300B48EEF041C
:0408A400B48E158079
:0408A500B48D3E7F51
:0408A600B48C68C4E2
:0408A700B48B94F486
:0408A800B48AC3AC9F
:0408A900B489F141DC
:0408AA00B4892517D1
:0408AB00B48855F5C3
:0408AC00B4878C8001
:0408AD00B486C152FA
:0408AE00B485F821F4
:0408AF00B485336B6E
:0408B000B4846F7F1E
:0408B100B483AB2041
:0408B200B482EA0919
:0408B300B4822A6081
:0408B400B4816C2877
:0408B500B480AEC796
:0408B600B47FE479AE
:0408B700B47E721287
:0408B800B47D0166A4
:0408B900B47B927802
:0408BA00B47A27CA1B
:0408BB00B478BC70E1
:0408BC00B4775911A3
:0408BD00B475F78B8C
:0408BE00B474956415
:0408BF00B4733A0CC8
:0408C000B471DA6EC7
:0408C100B47087D6B2
:0408C200B46F2E8061
:0408C300B46DDD4CE7
:0408C400B46C8E0D75
:0408C500B46B43408D
:0408C600B469F5819B
:0408C700B468AEB6AD
:0408C800B46769F1B7
:0408C900B466224AA5
:0408CA00B464E41717
:0408CB00B463A583EA
:0408CC00B4626A4068
:0408CD00B461311BC6
:0408CE00B45FF8D546
:0408CF00B45EC17ED4
:0408D000B45D913949
:0408D100B45C60A80B
:0408D200B45B34C21D
:0408D300B45A0756B6
:0408D400B458DFD95C
:0408D500B457B6DF7F
:0408D600B456929DE5
:0408D700B4556F5E47
:0408D800B4544E6561
:0408D900B453336879
:0408DA00B4521350B1
:0408DB00B450F939E3
:0408DC00B44FE178BC
:0408DD00B44ECD4602
:0408DE00B44DB67FE0
:0408DF00B44CA5C5AB
:0408E000B44B93BDC5
:0408E100B44A854D43
:0408E200B4497BC0DA
:0408E300B448722380
:0408E400B447687934
:0408E500B446613D77
:0408E600B4455C7544
:0408E700B4445A2596
:0408E800B4435A4774
:0408E900B4425A7249
:0408EA00B4415BDAE0
:0408EB00B4406100B4
:0408EC00B43F66347B
:0408ED00B43E6F277F
:0408EE00B43D7AA4F7
:0408EF00B43C84FB96
:0408F000B43B93186A
:0408F100B43AA28EE5
:0408F200B439B35A08
:0408F300B438C4440D
:0408F400B437DB7FBB
:0408F500B436EDE741
:0408F600B43606A46A
:0408F700B4351F896C
:0408F800B43439D605
:0408F900B433558B34
:0408FA00B43272ADF5
:0408FB00B43192760C
:0408FC00B430B4EE72
:0408FD00B42FD661DD
:0408FE00B42EF80C10
:0408FF00B42E201CD7
:00000001FF
