:04000000CBFE188398
:04000100CBF932CE37
:04000200CBF4695F73
:04000300CBEFBCB3D0
:04000400CBEB2B77A0
:04000500CBE6B4E2B0
:04000600CBE2583AB7
:04000700CBDE14BF79
:04000800CBD9EA491D
:04000900CBD5D6D8A5
:04000A00CBD1DB85F6
:04000B00CBCDF64A19
:04000C00CBCA279E96
:04000D00CBC66E40B0
:04000E00CBC2CA5443
:04000F00CBBF3A2108
:04001000CBBBBEB9EF
:04001100CBB85638DA
:04001200CBB500BFAB
:04001300CBB1BD7E32
:04001400CBAE8C459E
:04001500CBAB6C44C1
:04001600CBA85E8392
:04001700CBA560F520
:04001800CBA273659F
:04001900CB9F954E96
:04001A00CB9CC7B9FB
:04001B00CB9A084232
:04001C00CB9757F037
:04001D00CB94B68D3D
:04001E00CB9222500F
:04001F00CB8F9C19CE
:04002000CB8D235C05
:04002100CB8AB6F4DC
:04002200CB88587EB1
:04002300CB8604F78D
:04002400CB83BEC606
:04002500CB818421E6
:04002600CB7EA99351
:04002700CB7A6155DA
:04002800CB762FABB9
:04002900CB7213790A
:04002A00CB6E0B543A
:04002B00CB6A19D3B0
:04002C00CB663B154F
:04002D00CB626EE054
:04002E00CB5EB6E609
:04002F00CB5B129EF7
:04003000CB577E72BA
:04003100CB53FD4769
:04003200CB508DF32F
:04003300CB4D2FA7DB
:04003400CB49E19043
:04003500CB46A3749F
:04003600CB4375BA89
:04003700CB40582B37
:04003800CB3D486410
:04003900CB3A48F284
:04003A00CB375775F4
:04003B00CB34744E00
:04003C00CB319DB96E
:04003D00CB2ED63EB2
:04003E00CB2C1C6A41
:04003F00CB296F5DFD
:04004000CB26CE19E4
:04004100CB243B266B
:04004200CB21B244D8
:04004300CB1F367227
:04004400CB1CC5E428
:04004500CB1A61254C
:04004600CB1807C903
:04004700CB15B8F726
:04004800CB1374BBA7
:04004900CB113C118A
:04004A00CB0F0C6765
:04004B00CB0CE730C3
:04004C00CB0ACBB45C
:04004D00CB08B9FE25
:04004E00CB06B21D0E
:04004F00CB04B3A586
:04005000CB02BDDF43
:04005100CB00D08789
:04005200CAFDD8DA31
:04005300CAFA207550
:04005400CAF679313E
:04005500CAF2E2D435
:04005600CAEF5C345D
:04005700CAEBE51BF0
:04005800CAE87DEF86
:04005900CAE5261DB1
:04005A00CAE1DB4AD2
:04005B00CADEA0E574
:04005C00CADB730583
:04005D00CAD8547E2B
:04005E00CAD541AE10
:04005F00CAD23DBF05
:04006000CACF469726
:04006100CACC5BF9B1
:04006200CAC97E4247
:04006300CAC6ABF866
:04006400CAC3E7051F
:04006500CAC12D9B44
:04006600CABE7FCEC1
:04006700CABBDCBB79
:04006800CAB945AD1F
:04006900CAB6B8DA81
:04006A00CAB437D409
:04006B00CAB1BF9CBB
:04006C00CAAF52B015
:04006D00CAACF080A9
:04006E00CAAA982B57
:04006F00CAA8488350
:04007000CAA602CF4B
:04007100CAA3C6C791
:04007200CAA194CDBE
:04007300CA9F69D1E6
:04007400CA9D49E3F5
:04007500CA9B31A64B
:04007600CA9921778B
:04007700CA971A49C1
:04007800CA951B3DCD
:04007900CA93245BA7
:04007A00CA91355D95
:04007B00CA8F4D607B
:04007C00CA8D6DA913
:04007D00CA8B95A1F4
:04007E00CA89C55313
:04007F00CA87FBDC55
:04008000CA8639E013
:04008100CA847D8D23
:04008200CA82C98BDA
:04008300CA811AF420
:04008400CA7EE92B1C
:04008500CA7BA71477
:04008600CA78718A39
:04008700CA7549D815
:04008800CA722DE526
:04008900CA6F1DBE5F
:04008A00CA6C19BB68
:04008B00CA69210419
:04008C00CA6635C843
:04008D00CA6351A051
:04008E00CA607D8344
:04008F00CA5DB09303
:04009000CA5AF01741
:04009100CA5838B45D
:04009200CA558C556A
:04009300CA52EA1053
:04009400CA50515AA3
:04009500CA4DC23A54
:04009600CA4B3E49CA
:04009700CA48C2C6CB
:04009800CA46500FF5
:04009900CA43E8521C
:04009A00CA41888946
:04009B00CA3F310621
:04009C00CA3CE22850
:04009D00CA3A9C8F30
:04009E00CA385EC13D
:04009F00CA3628C570
:0400A000CA33FCC89B
:0400A100CA31D72564
:0400A200CA2FB91A8E
:0400A300CA2DA3536C
:0400A400CA2B96735A
:0400A500CA298F6E67
:0400A600CA279024B1
:0400A700CA2597B11E
:0400A800CA23A6BA07
:0400A900CA21BCA903
:0400AA00CA1FDA236C
:0400AB00CA1DFCB6B8
:0400AC00CA1C2780C3
:0400AD00CA1A57C153
:0400AE00CA188F0BD2
:0400AF00CA16CC772A
:0400B000CA15100D50
:0400B100CA135A20F4
:0400B200CA11AA1BAA
:0400B300CA0FFFB2BF
:0400B400CA0E5B3ED7
:0400B500CA0CBC7144
:0400B600CA0B23F35B
:0400B700CA09903DA5
:0400B800CA080291DF
:0400B900CA067A07F2
:0400BA00CA04F6A6D8
:0400BB00CA037822DA
:0400BC00CA01FF7006
:0400BD00CA008B5595
:0400BE00C9FE37B789
:0400BF00C9FB6344D2
:0400C000C9F89B38A8
:0400C100C9F5DA1192
:0400C200C9F322E973
:0400C300C9F073F31A
:0400C400C9EDCF11A2
:0400C500C9EB31D67C
:0400C600C9E89D8167
:0400C700C9E6149AD8
:0400C800C9E39058A0
:0400C900C9E116AAC9
:0400CA00C9DEA65095
:0400CB00C9DC3C4808
:0400CC00C9D9D97C39
:0400CD00C9D780759A
:0400CE00C9D52F5908
:0400CF00C9D2E3C0EF
:0400D000C9D0A10EE4
:0400D100C9CE674FDE
:0400D200C9CC3372F0
:0400D300C9CA06BAD6
:0400D400C9C7E09424
:0400D500C9C5C14E8A
:0400D600C9C3A8589A
:0400D700C9C1987B88
:0400D800C9BF8E0C02
:0400D900C9BD8AE82B
:0400DA00C9BB8CA36F
:0400DB00C9B996A267
:0400DC00C9B7A67684
:0400DD00C9B5BC7372
:0400DE00C9B3D67953
:0400DF00C9B1F9C6E4
:0400E000C9B021760C
:0400E100C9AE4F1540
:0400E200C9AC82AD76
:0400E300C9AABBF1FA
:0400E400C9A8FA9716
:0400E500C9A73DB9B1
:0400E600C9A5890E11
:0400E700C9A3D7AE24
:0400E800C9A22C126B
:0400E900C9A085A481
:0400EA00C99EE32B9D
:0400EB00C99D47C4A0
:0400EC00C99BB19764
:0400ED00C99A1F1F6E
:0400EE00C99890AE6F
:0400EF00C997082481
:0400F000C99584E545
:0400F100C994060D9B
:0400F200C9928B4DD7
:0400F300C99114F7A4
:0400F400C98FA3B35A
:0400F500C98E3690EA
:0400F600C98CCD984C
:0400F700C98B68CE7B
:0400F800C98A08D1D8
:0400F900C988AC1CEA
:0400FA00C98753EE71
:0400FB00C985FFAC08
:0400FC00C984B0976C
:0400FD00C983643A15
:0400FE00C9821B3662
:0400FF00C980D7B726
:04010000C97E188319
:04010100C97932CEB8
:04010200C974695FF4
:04010300C96FBCB351
:04010400C96B2B7721
:04010500C966B4E231
:04010600C962583A38
:04010700C95E14BFFA
:04010800C959EA499E
:04010900C955D6D826
:04010A00C951DB8577
:04010B00C94DF64A9A
:04010C00C94A279E17
:04010D00C9466E4031
:04010E00C942CA54C4
:04010F00C93F3A2189
:04011000C93BBEB970
:04011100C93856385B
:04011200C93500BF2C
:04011300C931BD7EB3
:04011400C92E8C451F
:04011500C92B6C4442
:04011600C9285E8313
:04011700C92560F5A1
:04011800C922736520
:04011900C91F954E17
:04011A00C91CC7B97C
:04011B00C91A0842B3
:04011C00C91757F0B8
:04011D00C914B68DBE
:04011E00C912225090
:04011F00C90F9C194F
:04012000C90D235C86
:04012100C90AB6F45D
:04012200C908587E32
:04012300C90604F70E
:04012400C903BEC687
:04012500C901842167
:04012600C8FEA993D3
:04012700C8FA61555C
:04012800C8F62FAB3B
:04012900C8F213798C
:04012A00C8EE0B54BC
:04012B00C8EA19D332
:04012C00C8E63B15D1
:04012D00C8E26EE0D6
:04012E00C8DEB6E68B
:04012F00C8DB129E79
:04013000C8D77E723C
:04013100C8D3FD47EB
:04013200C8D08DF3B1
:04013300C8CD2FA75D
:04013400C8C9E190C5
:04013500C8C6A37421
:04013600C8C375BA0B
:04013700C8C0582BB9
:04013800C8BD486492
:04013900C8BA48F206
:04013A00C8B7577576
:04013B00C8B4744E82
:04013C00C8B19DB9F0
:04013D00C8AED63E34
:04013E00C8AC1C6AC3
:04013F00C8A96F5D7F
:04014000C8A6CE1966
:04014100C8A43B26ED
:04014200C8A1B2445A
:04014300C89F3672A9
:04014400C89CC5E4AA
:04014500C89A6125CE
:04014600C89807C985
:04014700C895B8F7A8
:04014800C89374BB29
:04014900C8913C110C
:04014A00C88F0C67E7
:04014B00C88CE73045
:04014C00C88ACBB4DE
:04014D00C888B9FEA7
:04014E00C886B21D90
:04014F00C884B3A508
:04015000C882BDDFC5
:04015100C880D0870B
:04015200C87DD8DAB2
:04015300C87A2075D1
:04015400C8767931BF
:04015500C872E2D4B6
:04015600C86F5C34DE
:04015700C86BE51B71
:04015800C8687DEF07
:04015900C865261D32
:04015A00C861DB4A53
:04015B00C85EA0E5F5
:04015C00C85B730504
:04015D00C858547EAC
:04015E00C85541AE91
:04015F00C8523DBF86
:04016000C84F4697A7
:04016100C84C5BF932
:04016200C8497E42C8
:04016300C846ABF8E7
:04016400C843E705A0
:04016500C8412D9BC5
:04016600C83E7FCE42
:04016700C83BDCBBFA
:04016800C83945ADA0
:04016900C836B8DA02
:04016A00C83437D48A
:04016B00C831BF9C3C
:04016C00C82F52B096
:04016D00C82CF0802A
:04016E00C82A982BD8
:04016F00C8284883D1
:04017000C82602CFCC
:04017100C823C6C712
:04017200C82194CD3F
:04017300C81F69D167
:04017400C81D49E376
:04017500C81B31A6CC
:04017600C81921770C
:04017700C8171A4942
:04017800C8151B3D4E
:04017900C813245B28
:04017A00C811355D16
:04017B00C80F4D60FC
:04017C00C80D6DA994
:04017D00C80B95A175
:04017E00C809C55394
:04017F00C807FBDCD6
:04018000C80639E094
:04018100C8047D8DA4
:04018200C802C98B5B
:04018300C8011AF4A1
:04018400C7FEE92B9E
:04018500C7FBA714F9
:04018600C7F8718ABB
:04018700C7F549D897
:04018800C7F22DE5A8
:04018900C7EF1DBEE1
:04018A00C7EC19BBEA
:04018B00C7E921049B
:04018C00C7E635C8C5
:04018D00C7E351A0D3
:04018E00C7E07D83C6
:04018F00C7DDB09385
:04019000C7DAF017C3
:04019100C7D838B4DF
:04019200C7D58C55EC
:04019300C7D2EA10D5
:04019400C7D0515A25
:04019500C7CDC23AD6
:04019600C7CB3E494C
:04019700C7C8C2C64D
:04019800C7C6500F77
:04019900C7C3E8529E
:04019A00C7C18889C8
:04019B00C7BF3106A3
:04019C00C7BCE228D2
:04019D00C7BA9C8FB2
:04019E00C7B85EC1BF
:04019F00C7B628C5F2
:0401A000C7B3FCC81D
:0401A100C7B1D725E6
:0401A200C7AFB91A10
:0401A300C7ADA353EE
:0401A400C7AB9673DC
:0401A500C7A98F6EE9
:0401A600C7A7902433
:0401A700C7A597B1A0
:0401A800C7A3A6BA89
:0401A900C7A1BCA985
:0401AA00C79FDA23EE
:0401AB00C79DFCB63A
:0401AC00C79C278045
:0401AD00C79A57C1D5
:0401AE00C7988F0B54
:0401AF00C796CC77AC
:0401B000C795100DD2
:0401B100C7935A2076
:0401B200C791AA1B2C
:0401B300C78FFFB241
:0401B400C78E5B3E59
:0401B500C78CBC71C6
:0401B600C78B23F3DD
:0401B700C789903D27
:0401B800C788029161
:0401B900C7867A0774
:0401BA00C784F6A65A
:0401BB00C78378225C
:0401BC00C781FF7088
:0401BD00C7808B5517
:0401BE00C77E37B70A
:0401BF00C77B634453
:0401C000C7789B3829
:0401C100C775DA1113
:0401C200C77322E9F4
:0401C300C77073F39B
:0401C400C76DCF1123
:0401C500C76B31D6FD
:0401C600C7689D81E8
:0401C700C766149A59
:0401C800C763905821
:0401C900C76116AA4A
:0401CA00C75EA65016
:0401CB00C75C3C4889
:0401CC00C759D97CBA
:0401CD00C75780751B
:0401CE00C7552F5989
:0401CF00C752E3C070
:0401D000C750A10E65
:0401D100C74E674F5F
:0401D200C74C337271
:0401D300C74A06BA57
:0401D400C747E094A5
:0401D500C745C14E0B
:0401D600C743A8581B
:0401D700C741987B09
:0401D800C73F8E0C83
:0401D900C73D8AE8AC
:0401DA00C73B8CA3F0
:0401DB00C73996A2E8
:0401DC00C737A67605
:0401DD00C735BC73F3
:0401DE00C733D679D4
:0401DF00C731F9C665
:0401E000C73021768D
:0401E100C72E4F15C1
:0401E200C72C82ADF7
:0401E300C72ABBF17B
:0401E400C728FA9797
:0401E500C7273DB932
:0401E600C725890E92
:0401E700C723D7AEA5
:0401E800C7222C12EC
:0401E900C72085A402
:0401EA00C71EE32B1E
:0401EB00C71D47C421
:0401EC00C71BB197E5
:0401ED00C71A1F1FEF
:0401EE00C71890AEF0
:0401EF00C717082402
:0401F000C71584E5C6
:0401F100C714060D1C
:0401F200C7128B4D58
:0401F300C71114F725
:0401F400C70FA3B3DB
:0401F500C70E36906B
:0401F600C70CCD98CD
:0401F700C70B68CEFC
:0401F800C70A08D159
:0401F900C708AC1C6B
:0401FA00C70753EEF2
:0401FB00C705FFAC89
:0401FC00C704B097ED
:0401FD00C703643A96
:0401FE00C7021B36E3
:0401FF00C700D7B7A7
:04020000C6FE18839B
:04020100C6F932CE3A
:04020200C6F4695F76
:04020300C6EFBCB3D3
:04020400C6EB2B77A3
:04020500C6E6B4E2B3
:04020600C6E2583ABA
:04020700C6DE14BF7C
:04020800C6D9EA4920
:04020900C6D5D6D8A8
:04020A00C6D1DB85F9
:04020B00C6CDF64A1C
:04020C00C6CA279E99
:04020D00C6C66E40B3
:04020E00C6C2CA5446
:04020F00C6BF3A210B
:04021000C6BBBEB9F2
:04021100C6B85638DD
:04021200C6B500BFAE
:04021300C6B1BD7E35
:04021400C6AE8C45A1
:04021500C6AB6C44C4
:04021600C6A85E8395
:04021700C6A560F523
:04021800C6A27365A2
:04021900C69F954E99
:04021A00C69CC7B9FE
:04021B00C69A084235
:04021C00C69757F03A
:04021D00C694B68D40
:04021E00C692225012
:04021F00C68F9C19D1
:04022000C68D235C08
:04022100C68AB6F4DF
:04022200C688587EB4
:04022300C68604F790
:04022400C683BEC609
:04022500C6818421E9
:04022600C67EA99354
:04022700C67A6155DD
:04022800C6762FABBC
:04022900C67213790D
:04022A00C66E0B543D
:04022B00C66A19D3B3
:04022C00C6663B1552
:04022D00C6626EE057
:04022E00C65EB6E60C
:04022F00C65B129EFA
:04023000C6577E72BD
:04023100C653FD476C
:04023200C6508DF332
:04023300C64D2FA7DE
:04023400C649E19046
:04023500C646A374A2
:04023600C64375BA8C
:04023700C640582B3A
:04023800C63D486413
:04023900C63A48F287
:04023A00C6375775F7
:04023B00C634744E03
:04023C00C6319DB971
:04023D00C62ED63EB5
:04023E00C62C1C6A44
:04023F00C6296F5D00
:04024000C626CE19E7
:04024100C6243B266E
:04024200C621B244DB
:04024300C61F36722A
:04024400C61CC5E42B
:04024500C61A61254F
:04024600C61807C906
:04024700C615B8F729
:04024800C61374BBAA
:04024900C6113C118D
:04024A00C60F0C6768
:04024B00C60CE730C6
:04024C00C60ACBB45F
:04024D00C608B9FE28
:04024E00C606B21D11
:04024F00C604B3A589
:04025000C602BDDF46
:04025100C600D0878C
:04025200C5FDD8DA34
:04025300C5FA207553
:04025400C5F6793141
:04025500C5F2E2D438
:04025600C5EF5C3460
:04025700C5EBE51BF3
:04025800C5E87DEF89
:04025900C5E5261DB4
:04025A00C5E1DB4AD5
:04025B00C5DEA0E577
:04025C00C5DB730586
:04025D00C5D8547E2E
:04025E00C5D541AE13
:04025F00C5D23DBF08
:04026000C5CF469729
:04026100C5CC5BF9B4
:04026200C5C97E424A
:04026300C5C6ABF869
:04026400C5C3E70522
:04026500C5C12D9B47
:04026600C5BE7FCEC4
:04026700C5BBDCBB7C
:04026800C5B945AD22
:04026900C5B6B8DA84
:04026A00C5B437D40C
:04026B00C5B1BF9CBE
:04026C00C5AF52B018
:04026D00C5ACF080AC
:04026E00C5AA982B5A
:04026F00C5A8488353
:04027000C5A602CF4E
:04027100C5A3C6C794
:04027200C5A194CDC1
:04027300C59F69D1E9
:04027400C59D49E3F8
:04027500C59B31A64E
:04027600C59921778E
:04027700C5971A49C4
:04027800C5951B3DD0
:04027900C593245BAA
:04027A00C591355D98
:04027B00C58F4D607E
:04027C00C58D6DA916
:04027D00C58B95A1F7
:04027E00C589C55316
:04027F00C587FBDC58
:04028000C58639E016
:04028100C5847D8D26
:04028200C582C98BDD
:04028300C5811AF423
:04028400C57EE92B1F
:04028500C57BA7147A
:04028600C578718A3C
:04028700C57549D818
:04028800C5722DE529
:04028900C56F1DBE62
:04028A00C56C19BB6B
:04028B00C56921041C
:04028C00C56635C846
:04028D00C56351A054
:04028E00C5607D8347
:04028F00C55DB09306
:04029000C55AF01744
:04029100C55838B460
:04029200C5558C556D
:04029300C552EA1056
:04029400C550515AA6
:04029500C54DC23A57
:04029600C54B3E49CD
:04029700C548C2C6CE
:04029800C546500FF8
:04029900C543E8521F
:04029A00C541888949
:04029B00C53F310624
:04029C00C53CE22853
:04029D00C53A9C8F33
:04029E00C5385EC140
:04029F00C53628C573
:0402A000C533FCC89E
:0402A100C531D72567
:0402A200C52FB91A91
:0402A300C52DA3536F
:0402A400C52B96735D
:0402A500C5298F6E6A
:0402A600C5279024B4
:0402A700C52597B121
:0402A800C523A6BA0A
:0402A900C521BCA906
:0402AA00C51FDA236F
:0402AB00C51DFCB6BB
:0402AC00C51C2780C6
:0402AD00C51A57C156
:0402AE00C5188F0BD5
:0402AF00C516CC772D
:0402B000C515100D53
:0402B100C5135A20F7
:0402B200C511AA1BAD
:0402B300C50FFFB2C2
:0402B400C50E5B3EDA
:0402B500C50CBC7147
:0402B600C50B23F35E
:0402B700C509903DA8
:0402B800C5080291E2
:0402B900C5067A07F5
:0402BA00C504F6A6DB
:0402BB00C5037822DD
:0402BC00C501FF7009
:0402BD00C5008B5598
:0402BE00C4FE37B78C
:0402BF00C4FB6344D5
:0402C000C4F89B38AB
:0402C100C4F5DA1195
:0402C200C4F322E976
:0402C300C4F073F31D
:0402C400C4EDCF11A5
:0402C500C4EB31D67F
:0402C600C4E89D816A
:0402C700C4E6149ADB
:0402C800C4E39058A3
:0402C900C4E116AACC
:0402CA00C4DEA65098
:0402CB00C4DC3C480B
:0402CC00C4D9D97C3C
:0402CD00C4D780759D
:0402CE00C4D52F590B
:0402CF00C4D2E3C0F2
:0402D000C4D0A10EE7
:0402D100C4CE674FE1
:0402D200C4CC3372F3
:0402D300C4CA06BAD9
:0402D400C4C7E09427
:0402D500C4C5C14E8D
:0402D600C4C3A8589D
:0402D700C4C1987B8B
:0402D800C4BF8E0C05
:0402D900C4BD8AE82E
:0402DA00C4BB8CA372
:0402DB00C4B996A26A
:0402DC00C4B7A67687
:0402DD00C4B5BC7375
:0402DE00C4B3D67956
:0402DF00C4B1F9C6E7
:0402E000C4B021760F
:0402E100C4AE4F1543
:0402E200C4AC82AD79
:0402E300C4AABBF1FD
:0402E400C4A8FA9719
:0402E500C4A73DB9B4
:0402E600C4A5890E14
:0402E700C4A3D7AE27
:0402E800C4A22C126E
:0402E900C4A085A484
:0402EA00C49EE32BA0
:0402EB00C49D47C4A3
:0402EC00C49BB19767
:0402ED00C49A1F1F71
:0402EE00C49890AE72
:0402EF00C497082484
:0402F000C49584E548
:0402F100C494060D9E
:0402F200C4928B4DDA
:0402F300C49114F7A7
:0402F400C48FA3B35D
:0402F500C48E3690ED
:0402F600C48CCD984F
:0402F700C48B68CE7E
:0402F800C48A08D1DB
:0402F900C488AC1CED
:0402FA00C48753EE74
:0402FB00C485FFAC0B
:0402FC00C484B0976F
:0402FD00C483643A18
:0402FE00C4821B3665
:0402FF00C480D7B729
:04030000C47E18831C
:04030100C47932CEBB
:04030200C474695FF7
:04030300C46FBCB354
:04030400C46B2B7724
:04030500C466B4E234
:04030600C462583A3B
:04030700C45E14BFFD
:04030800C459EA49A1
:04030900C455D6D829
:04030A00C451DB857A
:04030B00C44DF64A9D
:04030C00C44A279E1A
:04030D00C4466E4034
:04030E00C442CA54C7
:04030F00C43F3A218C
:04031000C43BBEB973
:04031100C43856385E
:04031200C43500BF2F
:04031300C431BD7EB6
:04031400C42E8C4522
:04031500C42B6C4445
:04031600C4285E8316
:04031700C42560F5A4
:04031800C422736523
:04031900C41F954E1A
:04031A00C41CC7B97F
:04031B00C41A0842B6
:04031C00C41757F0BB
:04031D00C414B68DC1
:04031E00C412225093
:04031F00C40F9C1952
:04032000C40D235C89
:04032100C40AB6F460
:04032200C408587E35
:04032300C40604F711
:04032400C403BEC68A
:04032500C40184216A
:04032600C3FEA993D6
:04032700C3FA61555F
:04032800C3F62FAB3E
:04032900C3F213798F
:04032A00C3EE0B54BF
:04032B00C3EA19D335
:04032C00C3E63B15D4
:04032D00C3E26EE0D9
:04032E00C3DEB6E68E
:04032F00C3DB129E7C
:04033000C3D77E723F
:04033100C3D3FD47EE
:04033200C3D08DF3B4
:04033300C3CD2FA760
:04033400C3C9E190C8
:04033500C3C6A37424
:04033600C3C375BA0E
:04033700C3C0582BBC
:04033800C3BD486495
:04033900C3BA48F209
:04033A00C3B7577579
:04033B00C3B4744E85
:04033C00C3B19DB9F3
:04033D00C3AED63E37
:04033E00C3AC1C6AC6
:04033F00C3A96F5D82
:04034000C3A6CE1969
:04034100C3A43B26F0
:04034200C3A1B2445D
:04034300C39F3672AC
:04034400C39CC5E4AD
:04034500C39A6125D1
:04034600C39807C988
:04034700C395B8F7AB
:04034800C39374BB2C
:04034900C3913C110F
:04034A00C38F0C67EA
:04034B00C38CE73048
:04034C00C38ACBB4E1
:04034D00C388B9FEAA
:04034E00C386B21D93
:04034F00C384B3A50B
:04035000C382BDDFC8
:04035100C380D0870E
:04035200C37DD8DAB5
:04035300C37A2075D4
:04035400C3767931C2
:04035500C372E2D4B9
:04035600C36F5C34E1
:04035700C36BE51B74
:04035800C3687DEF0A
:04035900C365261D35
:04035A00C361DB4A56
:04035B00C35EA0E5F8
:04035C00C35B730507
:04035D00C358547EAF
:04035E00C35541AE94
:04035F00C3523DBF89
:04036000C34F4697AA
:04036100C34C5BF935
:04036200C3497E42CB
:04036300C346ABF8EA
:04036400C343E705A3
:04036500C3412D9BC8
:04036600C33E7FCE45
:04036700C33BDCBBFD
:04036800C33945ADA3
:04036900C336B8DA05
:04036A00C33437D48D
:04036B00C331BF9C3F
:04036C00C32F52B099
:04036D00C32CF0802D
:04036E00C32A982BDB
:04036F00C3284883D4
:04037000C32602CFCF
:04037100C323C6C715
:04037200C32194CD42
:04037300C31F69D16A
:04037400C31D49E379
:04037500C31B31A6CF
:04037600C31921770F
:04037700C3171A4945
:04037800C3151B3D51
:04037900C313245B2B
:04037A00C311355D19
:04037B00C30F4D60FF
:04037C00C30D6DA997
:04037D00C30B95A178
:04037E00C309C55397
:04037F00C307FBDCD9
:04038000C30639E097
:04038100C3047D8DA7
:04038200C302C98B5E
:04038300C3011AF4A4
:04038400C2FEE92BA1
:04038500C2FBA714FC
:04038600C2F8718ABE
:04038700C2F549D89A
:04038800C2F22DE5AB
:04038900C2EF1DBEE4
:04038A00C2EC19BBED
:04038B00C2E921049E
:04038C00C2E635C8C8
:04038D00C2E351A0D6
:04038E00C2E07D83C9
:04038F00C2DDB09388
:04039000C2DAF017C6
:04039100C2D838B4E2
:04039200C2D58C55EF
:04039300C2D2EA10D8
:04039400C2D0515A28
:04039500C2CDC23AD9
:04039600C2CB3E494F
:04039700C2C8C2C650
:04039800C2C6500F7A
:04039900C2C3E852A1
:04039A00C2C18889CB
:04039B00C2BF3106A6
:04039C00C2BCE228D5
:04039D00C2BA9C8FB5
:04039E00C2B85EC1C2
:04039F00C2B628C5F5
:0403A000C2B3FCC820
:0403A100C2B1D725E9
:0403A200C2AFB91A13
:0403A300C2ADA353F1
:0403A400C2AB9673DF
:0403A500C2A98F6EEC
:0403A600C2A7902436
:0403A700C2A597B1A3
:0403A800C2A3A6BA8C
:0403A900C2A1BCA988
:0403AA00C29FDA23F1
:0403AB00C29DFCB63D
:0403AC00C29C278048
:0403AD00C29A57C1D8
:0403AE00C2988F0B57
:0403AF00C296CC77AF
:0403B000C295100DD5
:0403B100C2935A2079
:0403B200C291AA1B2F
:0403B300C28FFFB244
:0403B400C28E5B3E5C
:0403B500C28CBC71C9
:0403B600C28B23F3E0
:0403B700C289903D2A
:0403B800C288029164
:0403B900C2867A0777
:0403BA00C284F6A65D
:0403BB00C28378225F
:0403BC00C281FF708B
:0403BD00C2808B551A
:0403BE00C27E37B70D
:0403BF00C27B634456
:0403C000C2789B382C
:0403C100C275DA1116
:0403C200C27322E9F7
:0403C300C27073F39E
:0403C400C26DCF1126
:0403C500C26B31D600
:0403C600C2689D81EB
:0403C700C266149A5C
:0403C800C263905824
:0403C900C26116AA4D
:0403CA00C25EA65019
:0403CB00C25C3C488C
:0403CC00C259D97CBD
:0403CD00C25780751E
:0403CE00C2552F598C
:0403CF00C252E3C073
:0403D000C250A10E68
:0403D100C24E674F62
:0403D200C24C337274
:0403D300C24A06BA5A
:0403D400C247E094A8
:0403D500C245C14E0E
:0403D600C243A8581E
:0403D700C241987B0C
:0403D800C23F8E0C86
:0403D900C23D8AE8AF
:0403DA00C23B8CA3F3
:0403DB00C23996A2EB
:0403DC00C237A67608
:0403DD00C235BC73F6
:0403DE00C233D679D7
:0403DF00C231F9C668
:0403E000C230217690
:0403E100C22E4F15C4
:0403E200C22C82ADFA
:0403E300C22ABBF17E
:0403E400C228FA979A
:0403E500C2273DB935
:0403E600C225890E95
:0403E700C223D7AEA8
:0403E800C2222C12EF
:0403E900C22085A405
:0403EA00C21EE32B21
:0403EB00C21D47C424
:0403EC00C21BB197E8
:0403ED00C21A1F1FF2
:0403EE00C21890AEF3
:0403EF00C217082405
:0403F000C21584E5C9
:0403F100C214060D1F
:0403F200C2128B4D5B
:0403F300C21114F728
:0403F400C20FA3B3DE
:0403F500C20E36906E
:0403F600C20CCD98D0
:0403F700C20B68CEFF
:0403F800C20A08D15C
:0403F900C208AC1C6E
:0403FA00C20753EEF5
:0403FB00C205FFAC8C
:0403FC00C204B097F0
:0403FD00C203643A99
:0403FE00C2021B36E6
:0403FF00C200D7B7AA
:04040000C1FE18839E
:04040100C1F932CE3D
:04040200C1F4695F79
:04040300C1EFBCB3D6
:04040400C1EB2B77A6
:04040500C1E6B4E2B6
:04040600C1E2583ABD
:04040700C1DE14BF7F
:04040800C1D9EA4923
:04040900C1D5D6D8AB
:04040A00C1D1DB85FC
:04040B00C1CDF64A1F
:04040C00C1CA279E9C
:04040D00C1C66E40B6
:04040E00C1C2CA5449
:04040F00C1BF3A210E
:04041000C1BBBEB9F5
:04041100C1B85638E0
:04041200C1B500BFB1
:04041300C1B1BD7E38
:04041400C1AE8C45A4
:04041500C1AB6C44C7
:04041600C1A85E8398
:04041700C1A560F526
:04041800C1A27365A5
:04041900C19F954E9C
:04041A00C19CC7B901
:04041B00C19A084238
:04041C00C19757F03D
:04041D00C194B68D43
:04041E00C192225015
:04041F00C18F9C19D4
:04042000C18D235C0B
:04042100C18AB6F4E2
:04042200C188587EB7
:04042300C18604F793
:04042400C183BEC60C
:04042500C1818421EC
:04042600C17EA99357
:04042700C17A6155E0
:04042800C1762FABBF
:04042900C172137910
:04042A00C16E0B5440
:04042B00C16A19D3B6
:04042C00C1663B1555
:04042D00C1626EE05A
:04042E00C15EB6E60F
:04042F00C15B129EFD
:04043000C1577E72C0
:04043100C153FD476F
:04043200C1508DF335
:04043300C14D2FA7E1
:04043400C149E19049
:04043500C146A374A5
:04043600C14375BA8F
:04043700C140582B3D
:04043800C13D486416
:04043900C13A48F28A
:04043A00C1375775FA
:04043B00C134744E06
:04043C00C1319DB974
:04043D00C12ED63EB8
:04043E00C12C1C6A47
:04043F00C1296F5D03
:04044000C126CE19EA
:04044100C1243B2671
:04044200C121B244DE
:04044300C11F36722D
:04044400C11CC5E42E
:04044500C11A612552
:04044600C11807C909
:04044700C115B8F72C
:04044800C11374BBAD
:04044900C1113C1190
:04044A00C10F0C676B
:04044B00C10CE730C9
:04044C00C10ACBB462
:04044D00C108B9FE2B
:04044E00C106B21D14
:04044F00C104B3A58C
:04045000C102BDDF49
:04045100C100D0878F
:04045200C0FDD8DA37
:04045300C0FA207556
:04045400C0F6793144
:04045500C0F2E2D43B
:04045600C0EF5C3463
:04045700C0EBE51BF6
:04045800C0E87DEF8C
:04045900C0E5261DB7
:04045A00C0E1DB4AD8
:04045B00C0DEA0E57A
:04045C00C0DB730589
:04045D00C0D8547E31
:04045E00C0D541AE16
:04045F00C0D23DBF0B
:04046000C0CF46972C
:04046100C0CC5BF9B7
:04046200C0C97E424D
:04046300C0C6ABF86C
:04046400C0C3E70525
:04046500C0C12D9B4A
:04046600C0BE7FCEC7
:04046700C0BBDCBB7F
:04046800C0B945AD25
:04046900C0B6B8DA87
:04046A00C0B437D40F
:04046B00C0B1BF9CC1
:04046C00C0AF52B01B
:04046D00C0ACF080AF
:04046E00C0AA982B5D
:04046F00C0A8488356
:04047000C0A602CF51
:04047100C0A3C6C797
:04047200C0A194CDC4
:04047300C09F69D1EC
:04047400C09D49E3FB
:04047500C09B31A651
:04047600C099217791
:04047700C0971A49C7
:04047800C0951B3DD3
:04047900C093245BAD
:04047A00C091355D9B
:04047B00C08F4D6081
:04047C00C08D6DA919
:04047D00C08B95A1FA
:04047E00C089C55319
:04047F00C087FBDC5B
:04048000C08639E019
:04048100C0847D8D29
:04048200C082C98BE0
:04048300C0811AF426
:04048400C07EE92B22
:04048500C07BA7147D
:04048600C078718A3F
:04048700C07549D81B
:04048800C0722DE52C
:04048900C06F1DBE65
:04048A00C06C19BB6E
:04048B00C06921041F
:04048C00C06635C849
:04048D00C06351A057
:04048E00C0607D834A
:04048F00C05DB09309
:04049000C05AF01747
:04049100C05838B463
:04049200C0558C5570
:04049300C052EA1059
:04049400C050515AA9
:04049500C04DC23A5A
:04049600C04B3E49D0
:04049700C048C2C6D1
:04049800C046500FFB
:04049900C043E85222
:04049A00C04188894C
:04049B00C03F310627
:04049C00C03CE22856
:04049D00C03A9C8F36
:04049E00C0385EC143
:04049F00C03628C576
:0404A000C033FCC8A1
:0404A100C031D7256A
:0404A200C02FB91A94
:0404A300C02DA35372
:0404A400C02B967360
:0404A500C0298F6E6D
:0404A600C0279024B7
:0404A700C02597B124
:0404A800C023A6BA0D
:0404A900C021BCA909
:0404AA00C01FDA2372
:0404AB00C01DFCB6BE
:0404AC00C01C2780C9
:0404AD00C01A57C159
:0404AE00C0188F0BD8
:0404AF00C016CC7730
:0404B000C015100D56
:0404B100C0135A20FA
:0404B200C011AA1BB0
:0404B300C00FFFB2C5
:0404B400C00E5B3EDD
:0404B500C00CBC714A
:0404B600C00B23F361
:0404B700C009903DAB
:0404B800C0080291E5
:0404B900C0067A07F8
:0404BA00C004F6A6DE
:0404BB00C0037822E0
:0404BC00C001FF700C
:0404BD00C0008B559B
:0404BE00BFFE37B78F
:0404BF00BFFB6344D8
:0404C000BFF89B38AE
:0404C100BFF5DA1198
:0404C200BFF322E979
:0404C300BFF073F320
:0404C400BFEDCF11A8
:0404C500BFEB31D682
:0404C600BFE89D816D
:0404C700BFE6149ADE
:0404C800BFE39058A6
:0404C900BFE116AACF
:0404CA00BFDEA6509B
:0404CB00BFDC3C480E
:0404CC00BFD9D97C3F
:0404CD00BFD78075A0
:0404CE00BFD52F590E
:0404CF00BFD2E3C0F5
:0404D000BFD0A10EEA
:0404D100BFCE674FE4
:0404D200BFCC3372F6
:0404D300BFCA06BADC
:0404D400BFC7E0942A
:0404D500BFC5C14E90
:0404D600BFC3A858A0
:0404D700BFC1987B8E
:0404D800BFBF8E0C08
:0404D900BFBD8AE831
:0404DA00BFBB8CA375
:0404DB00BFB996A26D
:0404DC00BFB7A6768A
:0404DD00BFB5BC7378
:0404DE00BFB3D67959
:0404DF00BFB1F9C6EA
:0404E000BFB0217612
:0404E100BFAE4F1546
:0404E200BFAC82AD7C
:0404E300BFAABBF100
:0404E400BFA8FA971C
:0404E500BFA73DB9B7
:0404E600BFA5890E17
:0404E700BFA3D7AE2A
:0404E800BFA22C1271
:0404E900BFA085A487
:0404EA00BF9EE32BA3
:0404EB00BF9D47C4A6
:0404EC00BF9BB1976A
:0404ED00BF9A1F1F74
:0404EE00BF9890AE75
:0404EF00BF97082487
:0404F000BF9584E54B
:0404F100BF94060DA1
:0404F200BF928B4DDD
:0404F300BF9114F7AA
:0404F400BF8FA3B360
:0404F500BF8E3690F0
:0404F600BF8CCD9852
:0404F700BF8B68CE81
:0404F800BF8A08D1DE
:0404F900BF88AC1CF0
:0404FA00BF8753EE77
:0404FB00BF85FFAC0E
:0404FC00BF84B09772
:0404FD00BF83643A1B
:0404FE00BF821B3668
:0404FF00BF80D7B72C
:04050000BF7E18831F
:04050100BF7932CEBE
:04050200BF74695FFA
:04050300BF6FBCB357
:04050400BF6B2B7727
:04050500BF66B4E237
:04050600BF62583A3E
:04050700BF5E14BF00
:04050800BF59EA49A4
:04050900BF55D6D82C
:04050A00BF51DB857D
:04050B00BF4DF64AA0
:04050C00BF4A279E1D
:04050D00BF466E4037
:04050E00BF42CA54CA
:04050F00BF3F3A218F
:04051000BF3BBEB976
:04051100BF38563861
:04051200BF3500BF32
:04051300BF31BD7EB9
:04051400BF2E8C4525
:04051500BF2B6C4448
:04051600BF285E8319
:04051700BF2560F5A7
:04051800BF22736526
:04051900BF1F954E1D
:04051A00BF1CC7B982
:04051B00BF1A0842B9
:04051C00BF1757F0BE
:04051D00BF14B68DC4
:04051E00BF12225096
:04051F00BF0F9C1955
:04052000BF0D235C8C
:04052100BF0AB6F463
:04052200BF08587E38
:04052300BF0604F714
:04052400BF03BEC68D
:04052500BF0184216D
:04052600BEFEA993D9
:04052700BEFA615562
:04052800BEF62FAB41
:04052900BEF2137992
:04052A00BEEE0B54C2
:04052B00BEEA19D338
:04052C00BEE63B15D7
:04052D00BEE26EE0DC
:04052E00BEDEB6E691
:04052F00BEDB129E7F
:04053000BED77E7242
:04053100BED3FD47F1
:04053200BED08DF3B7
:04053300BECD2FA763
:04053400BEC9E190CB
:04053500BEC6A37427
:04053600BEC375BA11
:04053700BEC0582BBF
:04053800BEBD486498
:04053900BEBA48F20C
:04053A00BEB757757C
:04053B00BEB4744E88
:04053C00BEB19DB9F6
:04053D00BEAED63E3A
:04053E00BEAC1C6AC9
:04053F00BEA96F5D85
:04054000BEA6CE196C
:04054100BEA43B26F3
:04054200BEA1B24460
:04054300BE9F3672AF
:04054400BE9CC5E4B0
:04054500BE9A6125D4
:04054600BE9807C98B
:04054700BE95B8F7AE
:04054800BE9374BB2F
:04054900BE913C1112
:04054A00BE8F0C67ED
:04054B00BE8CE7304B
:04054C00BE8ACBB4E4
:04054D00BE88B9FEAD
:04054E00BE86B21D96
:04054F00BE84B3A50E
:04055000BE82BDDFCB
:04055100BE80D08711
:04055200BE7DD8DAB8
:04055300BE7A2075D7
:04055400BE767931C5
:04055500BE72E2D4BC
:04055600BE6F5C34E4
:04055700BE6BE51B77
:04055800BE687DEF0D
:04055900BE65261D38
:04055A00BE61DB4A59
:04055B00BE5EA0E5FB
:04055C00BE5B73050A
:04055D00BE58547EB2
:04055E00BE5541AE97
:04055F00BE523DBF8C
:04056000BE4F4697AD
:04056100BE4C5BF938
:04056200BE497E42CE
:04056300BE46ABF8ED
:04056400BE43E705A6
:04056500BE412D9BCB
:04056600BE3E7FCE48
:04056700BE3BDCBB00
:04056800BE3945ADA6
:04056900BE36B8DA08
:04056A00BE3437D490
:04056B00BE31BF9C42
:04056C00BE2F52B09C
:04056D00BE2CF08030
:04056E00BE2A982BDE
:04056F00BE284883D7
:04057000BE2602CFD2
:04057100BE23C6C718
:04057200BE2194CD45
:04057300BE1F69D16D
:04057400BE1D49E37C
:04057500BE1B31A6D2
:04057600BE19217712
:04057700BE171A4948
:04057800BE151B3D54
:04057900BE13245B2E
:04057A00BE11355D1C
:04057B00BE0F4D6002
:04057C00BE0D6DA99A
:04057D00BE0B95A17B
:04057E00BE09C5539A
:04057F00BE07FBDCDC
:04058000BE0639E09A
:04058100BE047D8DAA
:04058200BE02C98B61
:04058300BE011AF4A7
:04058400BDFEE92BA4
:04058500BDFBA714FF
:04058600BDF8718AC1
:04058700BDF549D89D
:04058800BDF22DE5AE
:04058900BDEF1DBEE7
:04058A00BDEC19BBF0
:04058B00BDE92104A1
:04058C00BDE635C8CB
:04058D00BDE351A0D9
:04058E00BDE07D83CC
:04058F00BDDDB0938B
:04059000BDDAF017C9
:04059100BDD838B4E5
:04059200BDD58C55F2
:04059300BDD2EA10DB
:04059400BDD0515A2B
:04059500BDCDC23ADC
:04059600BDCB3E4952
:04059700BDC8C2C653
:04059800BDC6500F7D
:04059900BDC3E852A4
:04059A00BDC18889CE
:04059B00BDBF3106A9
:04059C00BDBCE228D8
:04059D00BDBA9C8FB8
:04059E00BDB85EC1C5
:04059F00BDB628C5F8
:0405A000BDB3FCC823
:0405A100BDB1D725EC
:0405A200BDAFB91A16
:0405A300BDADA353F4
:0405A400BDAB9673E2
:0405A500BDA98F6EEF
:0405A600BDA7902439
:0405A700BDA597B1A6
:0405A800BDA3A6BA8F
:0405A900BDA1BCA98B
:0405AA00BD9FDA23F4
:0405AB00BD9DFCB640
:0405AC00BD9C27804B
:0405AD00BD9A57C1DB
:0405AE00BD988F0B5A
:0405AF00BD96CC77B2
:0405B000BD95100DD8
:0405B100BD935A207C
:0405B200BD91AA1B32
:0405B300BD8FFFB247
:0405B400BD8E5B3E5F
:0405B500BD8CBC71CC
:0405B600BD8B23F3E3
:0405B700BD89903D2D
:0405B800BD88029167
:0405B900BD867A077A
:0405BA00BD84F6A660
:0405BB00BD83782262
:0405BC00BD81FF708E
:0405BD00BD808B551D
:0405BE00BD7E37B710
:0405BF00BD7B634459
:0405C000BD789B382F
:0405C100BD75DA1119
:0405C200BD7322E9FA
:0405C300BD7073F3A1
:0405C400BD6DCF1129
:0405C500BD6B31D603
:0405C600BD689D81EE
:0405C700BD66149A5F
:0405C800BD63905827
:0405C900BD6116AA50
:0405CA00BD5EA6501C
:0405CB00BD5C3C488F
:0405CC00BD59D97CC0
:0405CD00BD57807521
:0405CE00BD552F598F
:0405CF00BD52E3C076
:0405D000BD50A10E6B
:0405D100BD4E674F65
:0405D200BD4C337277
:0405D300BD4A06BA5D
:0405D400BD47E094AB
:0405D500BD45C14E11
:0405D600BD43A85821
:0405D700BD41987B0F
:0405D800BD3F8E0C89
:0405D900BD3D8AE8B2
:0405DA00BD3B8CA3F6
:0405DB00BD3996A2EE
:0405DC00BD37A6760B
:0405DD00BD35BC73F9
:0405DE00BD33D679DA
:0405DF00BD31F9C66B
:0405E000BD30217693
:0405E100BD2E4F15C7
:0405E200BD2C82ADFD
:0405E300BD2ABBF181
:0405E400BD28FA979D
:0405E500BD273DB938
:0405E600BD25890E98
:0405E700BD23D7AEAB
:0405E800BD222C12F2
:0405E900BD2085A408
:0405EA00BD1EE32B24
:0405EB00BD1D47C427
:0405EC00BD1BB197EB
:0405ED00BD1A1F1FF5
:0405EE00BD1890AEF6
:0405EF00BD17082408
:0405F000BD1584E5CC
:0405F100BD14060D22
:0405F200BD128B4D5E
:0405F300BD1114F72B
:0405F400BD0FA3B3E1
:0405F500BD0E369071
:0405F600BD0CCD98D3
:0405F700BD0B68CE02
:0405F800BD0A08D15F
:0405F900BD08AC1C71
:0405FA00BD0753EEF8
:0405FB00BD05FFAC8F
:0405FC00BD04B097F3
:0405FD00BD03643A9C
:0405FE00BD021B36E9
:0405FF00BD00D7B7AD
:04060000BCFE1883A1
:04060100BCF932CE40
:04060200BCF4695F7C
:04060300BCEFBCB3D9
:04060400BCEB2B77A9
:04060500BCE6B4E2B9
:04060600BCE2583AC0
:04060700BCDE14BF82
:04060800BCD9EA4926
:04060900BCD5D6D8AE
:04060A00BCD1DB85FF
:04060B00BCCDF64A22
:04060C00BCCA279E9F
:04060D00BCC66E40B9
:04060E00BCC2CA544C
:04060F00BCBF3A2111
:04061000BCBBBEB9F8
:04061100BCB85638E3
:04061200BCB500BFB4
:04061300BCB1BD7E3B
:04061400BCAE8C45A7
:04061500BCAB6C44CA
:04061600BCA85E839B
:04061700BCA560F529
:04061800BCA27365A8
:04061900BC9F954E9F
:04061A00BC9CC7B904
:04061B00BC9A08423B
:04061C00BC9757F040
:04061D00BC94B68D46
:04061E00BC92225018
:04061F00BC8F9C19D7
:04062000BC8D235C0E
:04062100BC8AB6F4E5
:04062200BC88587EBA
:04062300BC8604F796
:04062400BC83BEC60F
:04062500BC818421EF
:04062600BC7EA9935A
:04062700BC7A6155E3
:04062800BC762FABC2
:04062900BC72137913
:04062A00BC6E0B5443
:04062B00BC6A19D3B9
:04062C00BC663B1558
:04062D00BC626EE05D
:04062E00BC5EB6E612
:04062F00BC5B129E00
:04063000BC577E72C3
:04063100BC53FD4772
:04063200BC508DF338
:04063300BC4D2FA7E4
:04063400BC49E1904C
:04063500BC46A374A8
:04063600BC4375BA92
:04063700BC40582B40
:04063800BC3D486419
:04063900BC3A48F28D
:04063A00BC375775FD
:04063B00BC34744E09
:04063C00BC319DB977
:04063D00BC2ED63EBB
:04063E00BC2C1C6A4A
:04063F00BC296F5D06
:04064000BC26CE19ED
:04064100BC243B2674
:04064200BC21B244E1
:04064300BC1F367230
:04064400BC1CC5E431
:04064500BC1A612555
:04064600BC1807C90C
:04064700BC15B8F72F
:04064800BC1374BBB0
:04064900BC113C1193
:04064A00BC0F0C676E
:04064B00BC0CE730CC
:04064C00BC0ACBB465
:04064D00BC08B9FE2E
:04064E00BC06B21D17
:04064F00BC04B3A58F
:04065000BC02BDDF4C
:04065100BC00D08792
:04065200BBFDD8DA3A
:04065300BBFA207559
:04065400BBF6793147
:04065500BBF2E2D43E
:04065600BBEF5C3466
:04065700BBEBE51BF9
:04065800BBE87DEF8F
:04065900BBE5261DBA
:04065A00BBE1DB4ADB
:04065B00BBDEA0E57D
:04065C00BBDB73058C
:04065D00BBD8547E34
:04065E00BBD541AE19
:04065F00BBD23DBF0E
:04066000BBCF46972F
:04066100BBCC5BF9BA
:04066200BBC97E4250
:04066300BBC6ABF86F
:04066400BBC3E70528
:04066500BBC12D9B4D
:04066600BBBE7FCECA
:04066700BBBBDCBB82
:04066800BBB945AD28
:04066900BBB6B8DA8A
:04066A00BBB437D412
:04066B00BBB1BF9CC4
:04066C00BBAF52B01E
:04066D00BBACF080B2
:04066E00BBAA982B60
:04066F00BBA8488359
:04067000BBA602CF54
:04067100BBA3C6C79A
:04067200BBA194CDC7
:04067300BB9F69D1EF
:04067400BB9D49E3FE
:04067500BB9B31A654
:04067600BB99217794
:04067700BB971A49CA
:04067800BB951B3DD6
:04067900BB93245BB0
:04067A00BB91355D9E
:04067B00BB8F4D6084
:04067C00BB8D6DA91C
:04067D00BB8B95A1FD
:04067E00BB89C5531C
:04067F00BB87FBDC5E
:04068000BB8639E01C
:04068100BB847D8D2C
:04068200BB82C98BE3
:04068300BB811AF429
:04068400BB7EE92B25
:04068500BB7BA71480
:04068600BB78718A42
:04068700BB7549D81E
:04068800BB722DE52F
:04068900BB6F1DBE68
:04068A00BB6C19BB71
:04068B00BB69210422
:04068C00BB6635C84C
:04068D00BB6351A05A
:04068E00BB607D834D
:04068F00BB5DB0930C
:04069000BB5AF0174A
:04069100BB5838B466
:04069200BB558C5573
:04069300BB52EA105C
:04069400BB50515AAC
:04069500BB4DC23A5D
:04069600BB4B3E49D3
:04069700BB48C2C6D4
:04069800BB46500FFE
:04069900BB43E85225
:04069A00BB4188894F
:04069B00BB3F31062A
:04069C00BB3CE22859
:04069D00BB3A9C8F39
:04069E00BB385EC146
:04069F00BB3628C579
:0406A000BB33FCC8A4
:0406A100BB31D7256D
:0406A200BB2FB91A97
:0406A300BB2DA35375
:0406A400BB2B967363
:0406A500BB298F6E70
:0406A600BB279024BA
:0406A700BB2597B127
:0406A800BB23A6BA10
:0406A900BB21BCA90C
:0406AA00BB1FDA2375
:0406AB00BB1DFCB6C1
:0406AC00BB1C2780CC
:0406AD00BB1A57C15C
:0406AE00BB188F0BDB
:0406AF00BB16CC7733
:0406B000BB15100D59
:0406B100BB135A20FD
:0406B200BB11AA1BB3
:0406B300BB0FFFB2C8
:0406B400BB0E5B3EE0
:0406B500BB0CBC714D
:0406B600BB0B23F364
:0406B700BB09903DAE
:0406B800BB080291E8
:0406B900BB067A07FB
:0406BA00BB04F6A6E1
:0406BB00BB037822E3
:0406BC00BB01FF700F
:0406BD00BB008B559E
:0406BE00BAFE37B792
:0406BF00BAFB6344DB
:0406C000BAF89B38B1
:0406C100BAF5DA119B
:0406C200BAF322E97C
:0406C300BAF073F323
:0406C400BAEDCF11AB
:0406C500BAEB31D685
:0406C600BAE89D8170
:0406C700BAE6149AE1
:0406C800BAE39058A9
:0406C900BAE116AAD2
:0406CA00BADEA6509E
:0406CB00BADC3C4811
:0406CC00BAD9D97C42
:0406CD00BAD78075A3
:0406CE00BAD52F5911
:0406CF00BAD2E3C0F8
:0406D000BAD0A10EED
:0406D100BACE674FE7
:0406D200BACC3372F9
:0406D300BACA06BADF
:0406D400BAC7E0942D
:0406D500BAC5C14E93
:0406D600BAC3A858A3
:0406D700BAC1987B91
:0406D800BABF8E0C0B
:0406D900BABD8AE834
:0406DA00BABB8CA378
:0406DB00BAB996A270
:0406DC00BAB7A6768D
:0406DD00BAB5BC737B
:0406DE00BAB3D6795C
:0406DF00BAB1F9C6ED
:0406E000BAB0217615
:0406E100BAAE4F1549
:0406E200BAAC82AD7F
:0406E300BAAABBF103
:0406E400BAA8FA971F
:0406E500BAA73DB9BA
:0406E600BAA5890E1A
:0406E700BAA3D7AE2D
:0406E800BAA22C1274
:0406E900BAA085A48A
:0406EA00BA9EE32BA6
:0406EB00BA9D47C4A9
:0406EC00BA9BB1976D
:0406ED00BA9A1F1F77
:0406EE00BA9890AE78
:0406EF00BA9708248A
:0406F000BA9584E54E
:0406F100BA94060DA4
:0406F200BA928B4DE0
:0406F300BA9114F7AD
:0406F400BA8FA3B363
:0406F500BA8E3690F3
:0406F600BA8CCD9855
:0406F700BA8B68CE84
:0406F800BA8A08D1E1
:0406F900BA88AC1CF3
:0406FA00BA8753EE7A
:0406FB00BA85FFAC11
:0406FC00BA84B09775
:0406FD00BA83643A1E
:0406FE00BA821B366B
:0406FF00BA80D7B72F
:04070000BA7E188322
:04070100BA7932CEC1
:04070200BA74695FFD
:04070300BA6FBCB35A
:04070400BA6B2B772A
:04070500BA66B4E23A
:04070600BA62583A41
:04070700BA5E14BF03
:04070800BA59EA49A7
:04070900BA55D6D82F
:04070A00BA51DB8580
:04070B00BA4DF64AA3
:04070C00BA4A279E20
:04070D00BA466E403A
:04070E00BA42CA54CD
:04070F00BA3F3A2192
:04071000BA3BBEB979
:04071100BA38563864
:04071200BA3500BF35
:04071300BA31BD7EBC
:04071400BA2E8C4528
:04071500BA2B6C444B
:04071600BA285E831C
:04071700BA2560F5AA
:04071800BA22736529
:04071900BA1F954E20
:04071A00BA1CC7B985
:04071B00BA1A0842BC
:04071C00BA1757F0C1
:04071D00BA14B68DC7
:04071E00BA12225099
:04071F00BA0F9C1958
:04072000BA0D235C8F
:04072100BA0AB6F466
:04072200BA08587E3B
:04072300BA0604F717
:04072400BA03BEC690
:04072500BA01842170
:04072600B9FEA993DC
:04072700B9FA615565
:04072800B9F62FAB44
:04072900B9F2137995
:04072A00B9EE0B54C5
:04072B00B9EA19D33B
:04072C00B9E63B15DA
:04072D00B9E26EE0DF
:04072E00B9DEB6E694
:04072F00B9DB129E82
:04073000B9D77E7245
:04073100B9D3FD47F4
:04073200B9D08DF3BA
:04073300B9CD2FA766
:04073400B9C9E190CE
:04073500B9C6A3742A
:04073600B9C375BA14
:04073700B9C0582BC2
:04073800B9BD48649B
:04073900B9BA48F20F
:04073A00B9B757757F
:04073B00B9B4744E8B
:04073C00B9B19DB9F9
:04073D00B9AED63E3D
:04073E00B9AC1C6ACC
:04073F00B9A96F5D88
:04074000B9A6CE196F
:04074100B9A43B26F6
:04074200B9A1B24463
:04074300B99F3672B2
:04074400B99CC5E4B3
:04074500B99A6125D7
:04074600B99807C98E
:04074700B995B8F7B1
:04074800B99374BB32
:04074900B9913C1115
:04074A00B98F0C67F0
:04074B00B98CE7304E
:04074C00B98ACBB4E7
:04074D00B988B9FEB0
:04074E00B986B21D99
:04074F00B984B3A511
:04075000B982BDDFCE
:04075100B980D08714
:04075200B97DD8DABB
:04075300B97A2075DA
:04075400B9767931C8
:04075500B972E2D4BF
:04075600B96F5C34E7
:04075700B96BE51B7A
:04075800B9687DEF10
:04075900B965261D3B
:04075A00B961DB4A5C
:04075B00B95EA0E5FE
:04075C00B95B73050D
:04075D00B958547EB5
:04075E00B95541AE9A
:04075F00B9523DBF8F
:04076000B94F4697B0
:04076100B94C5BF93B
:04076200B9497E42D1
:04076300B946ABF8F0
:04076400B943E705A9
:04076500B9412D9BCE
:04076600B93E7FCE4B
:04076700B93BDCBB03
:04076800B93945ADA9
:04076900B936B8DA0B
:04076A00B93437D493
:04076B00B931BF9C45
:04076C00B92F52B09F
:04076D00B92CF08033
:04076E00B92A982BE1
:04076F00B9284883DA
:04077000B92602CFD5
:04077100B923C6C71B
:04077200B92194CD48
:04077300B91F69D170
:04077400B91D49E37F
:04077500B91B31A6D5
:04077600B919217715
:04077700B9171A494B
:04077800B9151B3D57
:04077900B913245B31
:04077A00B911355D1F
:04077B00B90F4D6005
:04077C00B90D6DA99D
:04077D00B90B95A17E
:04077E00B909C5539D
:04077F00B907FBDCDF
:04078000B90639E09D
:04078100B9047D8DAD
:04078200B902C98B64
:04078300B9011AF4AA
:04078400B8FEE92BA7
:04078500B8FBA71402
:04078600B8F8718AC4
:04078700B8F549D8A0
:04078800B8F22DE5B1
:04078900B8EF1DBEEA
:04078A00B8EC19BBF3
:04078B00B8E92104A4
:04078C00B8E635C8CE
:04078D00B8E351A0DC
:04078E00B8E07D83CF
:04078F00B8DDB0938E
:04079000B8DAF017CC
:04079100B8D838B4E8
:04079200B8D58C55F5
:04079300B8D2EA10DE
:04079400B8D0515A2E
:04079500B8CDC23ADF
:04079600B8CB3E4955
:04079700B8C8C2C656
:04079800B8C6500F80
:04079900B8C3E852A7
:04079A00B8C18889D1
:04079B00B8BF3106AC
:04079C00B8BCE228DB
:04079D00B8BA9C8FBB
:04079E00B8B85EC1C8
:04079F00B8B628C5FB
:0407A000B8B3FCC826
:0407A100B8B1D725EF
:0407A200B8AFB91A19
:0407A300B8ADA353F7
:0407A400B8AB9673E5
:0407A500B8A98F6EF2
:0407A600B8A790243C
:0407A700B8A597B1A9
:0407A800B8A3A6BA92
:0407A900B8A1BCA98E
:0407AA00B89FDA23F7
:0407AB00B89DFCB643
:0407AC00B89C27804E
:0407AD00B89A57C1DE
:0407AE00B8988F0B5D
:0407AF00B896CC77B5
:0407B000B895100DDB
:0407B100B8935A207F
:0407B200B891AA1B35
:0407B300B88FFFB24A
:0407B400B88E5B3E62
:0407B500B88CBC71CF
:0407B600B88B23F3E6
:0407B700B889903D30
:0407B800B88802916A
:0407B900B8867A077D
:0407BA00B884F6A663
:0407BB00B883782265
:0407BC00B881FF7091
:0407BD00B8808B5520
:0407BE00B87E37B713
:0407BF00B87B63445C
:0407C000B8789B3832
:0407C100B875DA111C
:0407C200B87322E9FD
:0407C300B87073F3A4
:0407C400B86DCF112C
:0407C500B86B31D606
:0407C600B8689D81F1
:0407C700B866149A62
:0407C800B86390582A
:0407C900B86116AA53
:0407CA00B85EA6501F
:0407CB00B85C3C4892
:0407CC00B859D97CC3
:0407CD00B857807524
:0407CE00B8552F5992
:0407CF00B852E3C079
:0407D000B850A10E6E
:0407D100B84E674F68
:0407D200B84C33727A
:0407D300B84A06BA60
:0407D400B847E094AE
:0407D500B845C14E14
:0407D600B843A85824
:0407D700B841987B12
:0407D800B83F8E0C8C
:0407D900B83D8AE8B5
:0407DA00B83B8CA3F9
:0407DB00B83996A2F1
:0407DC00B837A6760E
:0407DD00B835BC73FC
:0407DE00B833D679DD
:0407DF00B831F9C66E
:0407E000B830217696
:0407E100B82E4F15CA
:0407E200B82C82AD00
:0407E300B82ABBF184
:0407E400B828FA97A0
:0407E500B8273DB93B
:0407E600B825890E9B
:0407E700B823D7AEAE
:0407E800B8222C12F5
:0407E900B82085A40B
:0407EA00B81EE32B27
:0407EB00B81D47C42A
:0407EC00B81BB197EE
:0407ED00B81A1F1FF8
:0407EE00B81890AEF9
:0407EF00B81708240B
:0407F000B81584E5CF
:0407F100B814060D25
:0407F200B8128B4D61
:0407F300B81114F72E
:0407F400B80FA3B3E4
:0407F500B80E369074
:0407F600B80CCD98D6
:0407F700B80B68CE05
:0407F800B80A08D162
:0407F900B808AC1C74
:0407FA00B80753EEFB
:0407FB00B805FFAC92
:0407FC00B804B097F6
:0407FD00B803643A9F
:0407FE00B8021B36EC
:0407FF00B800D7B7B0
:04080000B7FE1883A4
:04080100B7F932CE43
:04080200B7F4695F7F
:04080300B7EFBCB3DC
:04080400B7EB2B77AC
:04080500B7E6B4E2BC
:04080600B7E2583AC3
:04080700B7DE14BF85
:04080800B7D9EA4929
:04080900B7D5D6D8B1
:04080A00B7D1DB8502
:04080B00B7CDF64A25
:04080C00B7CA279EA2
:04080D00B7C66E40BC
:04080E00B7C2CA544F
:04080F00B7BF3A2114
:04081000B7BBBEB9FB
:04081100B7B85638E6
:04081200B7B500BFB7
:04081300B7B1BD7E3E
:04081400B7AE8C45AA
:04081500B7AB6C44CD
:04081600B7A85E839E
:04081700B7A560F52C
:04081800B7A27365AB
:04081900B79F954EA2
:04081A00B79CC7B907
:04081B00B79A08423E
:04081C00B79757F043
:04081D00B794B68D49
:04081E00B79222501B
:04081F00B78F9C19DA
:04082000B78D235C11
:04082100B78AB6F4E8
:04082200B788587EBD
:04082300B78604F799
:04082400B783BEC612
:04082500B7818421F2
:04082600B77EA9935D
:04082700B77A6155E6
:04082800B7762FABC5
:04082900B772137916
:04082A00B76E0B5446
:04082B00B76A19D3BC
:04082C00B7663B155B
:04082D00B7626EE060
:04082E00B75EB6E615
:04082F00B75B129E03
:04083000B7577E72C6
:04083100B753FD4775
:04083200B7508DF33B
:04083300B74D2FA7E7
:04083400B749E1904F
:04083500B746A374AB
:04083600B74375BA95
:04083700B740582B43
:04083800B73D48641C
:04083900B73A48F290
:04083A00B737577500
:04083B00B734744E0C
:04083C00B7319DB97A
:04083D00B72ED63EBE
:04083E00B72C1C6A4D
:04083F00B7296F5D09
:04084000B726CE19F0
:04084100B7243B2677
:04084200B721B244E4
:04084300B71F367233
:04084400B71CC5E434
:04084500B71A612558
:04084600B71807C90F
:04084700B715B8F732
:04084800B71374BBB3
:04084900B7113C1196
:04084A00B70F0C6771
:04084B00B70CE730CF
:04084C00B70ACBB468
:04084D00B708B9FE31
:04084E00B706B21D1A
:04084F00B704B3A592
:04085000B702BDDF4F
:04085100B700D08795
:04085200B6FDD8DA3D
:04085300B6FA20755C
:04085400B6F679314A
:04085500B6F2E2D441
:04085600B6EF5C3469
:04085700B6EBE51BFC
:04085800B6E87DEF92
:04085900B6E5261DBD
:04085A00B6E1DB4ADE
:04085B00B6DEA0E580
:04085C00B6DB73058F
:04085D00B6D8547E37
:04085E00B6D541AE1C
:04085F00B6D23DBF11
:04086000B6CF469732
:04086100B6CC5BF9BD
:04086200B6C97E4253
:04086300B6C6ABF872
:04086400B6C3E7052B
:04086500B6C12D9B50
:04086600B6BE7FCECD
:04086700B6BBDCBB85
:04086800B6B945AD2B
:04086900B6B6B8DA8D
:04086A00B6B437D415
:04086B00B6B1BF9CC7
:04086C00B6AF52B021
:04086D00B6ACF080B5
:04086E00B6AA982B63
:04086F00B6A848835C
:04087000B6A602CF57
:04087100B6A3C6C79D
:04087200B6A194CDCA
:04087300B69F69D1F2
:04087400B69D49E301
:04087500B69B31A657
:04087600B699217797
:04087700B6971A49CD
:04087800B6951B3DD9
:04087900B693245BB3
:04087A00B691355DA1
:04087B00B68F4D6087
:04087C00B68D6DA91F
:04087D00B68B95A100
:04087E00B689C5531F
:04087F00B687FBDC61
:04088000B68639E01F
:04088100B6847D8D2F
:04088200B682C98BE6
:04088300B6811AF42C
:04088400B67EE92B28
:04088500B67BA71483
:04088600B678718A45
:04088700B67549D821
:04088800B6722DE532
:04088900B66F1DBE6B
:04088A00B66C19BB74
:04088B00B669210425
:04088C00B66635C84F
:04088D00B66351A05D
:04088E00B6607D8350
:04088F00B65DB0930F
:04089000B65AF0174D
:04089100B65838B469
:04089200B6558C5576
:04089300B652EA105F
:04089400B650515AAF
:04089500B64DC23A60
:04089600B64B3E49D6
:04089700B648C2C6D7
:04089800B646500F01
:04089900B643E85228
:04089A00B641888952
:04089B00B63F31062D
:04089C00B63CE2285C
:04089D00B63A9C8F3C
:04089E00B6385EC149
:04089F00B63628C57C
:0408A000B633FCC8A7
:0408A100B631D72570
:0408A200B62FB91A9A
:0408A300B62DA35378
:0408A400B62B967366
:0408A500B6298F6E73
:0408A600B6279024BD
:0408A700B62597B12A
:0408A800B623A6BA13
:0408A900B621BCA90F
:0408AA00B61FDA2378
:0408AB00B61DFCB6C4
:0408AC00B61C2780CF
:0408AD00B61A57C15F
:0408AE00B6188F0BDE
:0408AF00B616CC7736
:0408B000B615100D5C
:0408B100B6135A2000
:0408B200B611AA1BB6
:0408B300B60FFFB2CB
:0408B400B60E5B3EE3
:0408B500B60CBC7150
:0408B600B60B23F367
:0408B700B609903DB1
:0408B800B6080291EB
:0408B900B6067A07FE
:0408BA00B604F6A6E4
:0408BB00B6037822E6
:0408BC00B601FF7012
:0408BD00B6008B55A1
:0408BE00B5FE37B795
:0408BF00B5FB6344DE
:0408C000B5F89B38B4
:0408C100B5F5DA119E
:0408C200B5F322E97F
:0408C300B5F073F326
:0408C400B5EDCF11AE
:0408C500B5EB31D688
:0408C600B5E89D8173
:0408C700B5E6149AE4
:0408C800B5E39058AC
:0408C900B5E116AAD5
:0408CA00B5DEA650A1
:0408CB00B5DC3C4814
:0408CC00B5D9D97C45
:0408CD00B5D78075A6
:0408CE00B5D52F5914
:0408CF00B5D2E3C0FB
:0408D000B5D0A10EF0
:0408D100B5CE674FEA
:0408D200B5CC3372FC
:0408D300B5CA06BAE2
:0408D400B5C7E09430
:0408D500B5C5C14E96
:0408D600B5C3A858A6
:0408D700B5C1987B94
:0408D800B5BF8E0C0E
:0408D900B5BD8AE837
:0408DA00B5BB8CA37B
:0408DB00B5B996A273
:0408DC00B5B7A67690
:0408DD00B5B5BC737E
:0408DE00B5B3D6795F
:0408DF00B5B1F9C6F0
:0408E000B5B0217618
:0408E100B5AE4F154C
:0408E200B5AC82AD82
:0408E300B5AABBF106
:0408E400B5A8FA9722
:0408E500B5A73DB9BD
:0408E600B5A5890E1D
:0408E700B5A3D7AE30
:0408E800B5A22C1277
:0408E900B5A085A48D
:0408EA00B59EE32BA9
:0408EB00B59D47C4AC
:0408EC00B59BB19770
:0408ED00B59A1F1F7A
:0408EE00B59890AE7B
:0408EF00B59708248D
:0408F000B59584E551
:0408F100B594060DA7
:0408F200B5928B4DE3
:0408F300B59114F7B0
:0408F400B58FA3B366
:0408F500B58E3690F6
:0408F600B58CCD9858
:0408F700B58B68CE87
:0408F800B58A08D1E4
:0408F900B588AC1CF6
:0408FA00B58753EE7D
:0408FB00B585FFAC14
:0408FC00B584B09778
:0408FD00B583643A21
:0408FE00B5821B366E
:0408FF00B580D7B732
:00000001FF
