:04000000DA62B910F7
:04000100DA5BC5DA27
:04000200DA550F7D3F
:04000300DA4E9450ED
:04000400DA485190F5
:04000500DA4244E4B3
:04000600DA3C6CED87
:04000700DA36C74FCF
:04000800DA31529CFB
:04000900DA2C0BDA08
:04000A00DA26F2F808
:04000B00DA22050BE5
:04000C00DA1D414B6D
:04000D00DA18A55107
:04000E00DA142FEFE2
:04000F00DA0FE02FF5
:04001000DA0BB4A5AE
:04001100DA07AB5A05
:04001200DA03C40049
:04001300D9FFF84CCD
:04001400D9F8A83D32
:04001500D9F193CFBB
:04001600D9EAB8D893
:04001700D9E415CB48
:04001800D9DDA8C6C0
:04001900D9D77008BB
:04001A00D9D169656A
:04001B00D9CB924C5F
:04001C00D9C5EADA7E
:04001D00D9C06FE2F5
:04001E00D9BB20D654
:04001F00D9B5FB78DC
:04002000D9B0FF351F
:04002100D9AC29A08D
:04002200D9A77A756B
:04002300D9A2EEF37D
:04002400D99E87AB2F
:04002500D99A4250D2
:04002600D9961E58F1
:04002700D9921963EE
:04002800D98E342217
:04002900D98A6CA361
:04002A00D986C18230
:04002B00D98332A2A1
:04002C00D97F7D8D6E
:04002D00D978C95065
:04002E00D972485AE1
:04002F00D96BF70989
:04003000D965D65E5A
:04003100D95FE2DDD4
:04003200D95A1BA4D8
:04003300D9547F120B
:04003400D94F0BF2A3
:04003500D949C0EBFA
:04003600D9449CF11C
:04003700D93F9EA36C
:04003800D93AC45598
:04003900D9360DB8EF
:04003A00D93178A69A
:04003B00D92D057046
:04003C00D928B1E529
:04003D00D9247D1C29
:04003E00D920670B53
:04003F00D91C6DD685
:04004000D91890FE3D
:04004100D914CFB748
:04004200D911283375
:04004300D90D9B2C0C
:04004400D90A26D0DF
:04004500D906CAB25C
:04004600D90385D87D
:04004700D900582163
:04004800D8FA8084DE
:04004900D8F47B93D9
:04004A00D8EE9FEB62
:04004B00D8E8ED1AEA
:04004C00D8E3614E46
:04004D00D8DDFB9768
:04004E00D8D8BA2222
:04004F00D8D39CED79
:04005000D8CEA17FE6
:04005100D8C9C874CE
:04005200D8C5103CC1
:04005300D8C0772278
:04005400D8BBFD9682
:04005500D8B7A18FE8
:04005600D8B3626851
:04005700D8AF3FA03F
:04005800D8AB37CD1D
:04005900D8A74B06D3
:04005A00D8A37809A6
:04005B00D89FBE501C
:04005C00D89C1C927E
:04005D00D898929B02
:04005E00D8951FE131
:04005F00D891C392DF
:04006000D88E7D01B8
:04006100D88B4B2EBF
:04006200D8882DDE2F
:04006300D885250116
:04006400D8822FE42B
:04006500D87E99ACFC
:04006600D878F9D479
:04006700D8737C636B
:04006800D86E230625
:04006900D868EA7CED
:04006A00D863D2E2A3
:04006B00D85EDB017F
:04006C00D85A02C597
:04006D00D855482BEF
:04006E00D850AC6258
:04006F00D84C2BAE90
:04007000D847C7B5F1
:04007100D8437E8E64
:04007200D83F5080A3
:04007300D83B3ADB61
:04007400D8373ECD6E
:04007500D8335B81A0
:04007600D82F9022CD
:04007700D82BDB1394
:04007800D8283CE464
:04007900D824B4448F
:04007A00D82140F950
:04007B00D81DE27A30
:04007C00D81A988D69
:04007D00D81761E04F
:04007E00D8143E5FF5
:04007F00D8112DF671
:04008000D80E2FC6A1
:04008100D80B42CF87
:04008200D80867BE75
:04008300D8059CCA36
:04008400D802E2EDCF
:04008500D80038AFB8
:04008600D7FB3BE980
:04008700D7F6259CE7
:04008800D7F12CB9C7
:04008900D7EC5093CD
:04008A00D7E78FBA6B
:04008B00D7E2EAC10D
:04008C00D7DE616DED
:04008D00D7D9F000CF
:04008E00D7D59A9197
:04008F00D7D15D1157
:04009000D7CD3793FE
:04009100D7C929B4EE
:04009200D7C5331A81
:04009300D7C152BDC2
:04009400D7BD87A2AB
:04009500D7B9D22CD9
:04009600D7B6324463
:04009700D7B2A6999D
:04009800D7AF2E515F
:04009900D7ABC954C4
:04009A00D7A8776903
:04009B00D7A537D5D9
:04009C00D7A20AAE2F
:04009D00D79EEF12E9
:04009E00D79BE38980
:04009F00D798E98382
:0400A000D795FFD41D
:0400A100D79326B11A
:0400A200D7905BFE9A
:0400A300D78DA1A5AF
:0400A400D78AF538CA
:0400A500D78856C7DB
:0400A600D785C7E54E
:0400A700D78345B501
:0400A800D780D17AB2
:0400A900D77CD4FC30
:0400AA00D778219151
:0400AB00D773865829
:0400AC00D76F02C048
:0400AD00D76A98C1B5
:0400AE00D76645F1DB
:0400AF00D762092BE0
:0400B000D75DE31D18
:0400B100D759D33C0C
:0400B200D755D83B0B
:0400B300D751F33BF3
:0400B400D74E21649E
:0400B500D74A64C4FE
:0400B600D746BAA6C9
:0400B700D743231AEE
:0400B800D73F9FE4AB
:0400B900D73C2DD330
:0400BA00D738CCA9BE
:0400BB00D7357E4E69
:0400BC00D732411CDA
:0400BD00D72F132204
:0400BE00D72BF66ED8
:0400BF00D728E8E472
:0400C000D725EC1C38
:0400C100D722FDFB4A
:0400C200D7201E899C
:0400C300D71D4DD622
:0400C400D71A8B2696
:0400C500D717D74B27
:0400C600D7153027F3
:0400C700D7129614A2
:0400C800D7100993B1
:0400C900D70D88AD1A
:0400CA00D70B15B982
:0400CB00D708AE772D
:0400CC00D7065313ED
:0400CD00D704034A07
:0400CE00D701BF2374
:0400CF00D6FF0BC885
:0400D000D6FAAF7637
:0400D100D6F6696492
:0400D200D6F237C764
:0400D300D6EE1A1239
:0400D400D6EA105503
:0400D500D6E61B3B15
:0400D600D6E23860D6
:0400D700D6DE69A860
:0400D800D6DAACAD1B
:0400D900D6D701C9AC
:0400DA00D6D36821F0
:0400DB00D6CFE00D8F
:0400DC00D6CC68FE18
:0400DD00D6C9026618
:0400DE00D6C5AC4D8A
:0400DF00D6C265AC74
:0400E000D6BF2FF464
:0400E100D6BC07C9B9
:0400E200D6B8EFDAC3
:0400E300D6B5E5E0C9
:0400E400D6B2EA8224
:0400E500D6AFFC9105
:0400E600D6AD1DC9AD
:0400E700D6AA4ACF7C
:0400E800D6A7869C75
:0400E900D6A4CE24A7
:0400EA00D6A222D4A4
:0400EB00D69F83A178
:0400EC00D69CF15954
:0400ED00D69A6AC96C
:0400EE00D697EFAB07
:0400EF00D6957F9390
:0400F000D6931B4B3D
:0400F100D690C219CA
:0400F200D68E738DA6
:0400F300D68C2EC2B7
:0400F400D689F5E9CB
:0400F500D687C57D68
:0400F600D685A09A71
:0400F700D683845BCD
:0400F800D6817277C4
:0400F900D67ED3C517
:0400FA00D67AD3BD22
:0400FB00D676E57E52
:0400FC00D6730A04A9
:0400FD00D66F406F0B
:0400FE00D66B86F245
:0400FF00D667DDE4FF
:04010000D662B910FA
:04010100D65BC5DA2A
:04010200D6550F7D42
:04010300D64E9450F0
:04010400D6485190F8
:04010500D64244E4B6
:04010600D63C6CED8A
:04010700D636C74FD2
:04010800D631529CFE
:04010900D62C0BDA0B
:04010A00D626F2F80B
:04010B00D622050BE8
:04010C00D61D414B70
:04010D00D618A5510A
:04010E00D6142FEFE5
:04010F00D60FE02FF8
:04011000D60BB4A5B1
:04011100D607AB5A08
:04011200D603C4004C
:04011300D5FFF84CD0
:04011400D5F8A83D35
:04011500D5F193CFBE
:04011600D5EAB8D896
:04011700D5E415CB4B
:04011800D5DDA8C6C3
:04011900D5D77008BE
:04011A00D5D169656D
:04011B00D5CB924C62
:04011C00D5C5EADA81
:04011D00D5C06FE2F8
:04011E00D5BB20D657
:04011F00D5B5FB78DF
:04012000D5B0FF3522
:04012100D5AC29A090
:04012200D5A77A756E
:04012300D5A2EEF380
:04012400D59E87AB32
:04012500D59A4250D5
:04012600D5961E58F4
:04012700D5921963F1
:04012800D58E34221A
:04012900D58A6CA364
:04012A00D586C18233
:04012B00D58332A2A4
:04012C00D57F7D8D71
:04012D00D578C95068
:04012E00D572485AE4
:04012F00D56BF7098C
:04013000D565D65E5D
:04013100D55FE2DDD7
:04013200D55A1BA4DB
:04013300D5547F120E
:04013400D54F0BF2A6
:04013500D549C0EBFD
:04013600D5449CF11F
:04013700D53F9EA36F
:04013800D53AC4559B
:04013900D5360DB8F2
:04013A00D53178A69D
:04013B00D52D057049
:04013C00D528B1E52C
:04013D00D5247D1C2C
:04013E00D520670B56
:04013F00D51C6DD688
:04014000D51890FE40
:04014100D514CFB74B
:04014200D511283378
:04014300D50D9B2C0F
:04014400D50A26D0E2
:04014500D506CAB25F
:04014600D50385D880
:04014700D500582166
:04014800D4FA8084E1
:04014900D4F47B93DC
:04014A00D4EE9FEB65
:04014B00D4E8ED1AED
:04014C00D4E3614E49
:04014D00D4DDFB976B
:04014E00D4D8BA2225
:04014F00D4D39CED7C
:04015000D4CEA17FE9
:04015100D4C9C874D1
:04015200D4C5103CC4
:04015300D4C077227B
:04015400D4BBFD9685
:04015500D4B7A18FEB
:04015600D4B3626854
:04015700D4AF3FA042
:04015800D4AB37CD20
:04015900D4A74B06D6
:04015A00D4A37809A9
:04015B00D49FBE501F
:04015C00D49C1C9281
:04015D00D498929B05
:04015E00D4951FE134
:04015F00D491C392E2
:04016000D48E7D01BB
:04016100D48B4B2EC2
:04016200D4882DDE32
:04016300D485250119
:04016400D4822FE42E
:04016500D47E99ACFF
:04016600D478F9D47C
:04016700D4737C636E
:04016800D46E230628
:04016900D468EA7CF0
:04016A00D463D2E2A6
:04016B00D45EDB0182
:04016C00D45A02C59A
:04016D00D455482BF2
:04016E00D450AC625B
:04016F00D44C2BAE93
:04017000D447C7B5F4
:04017100D4437E8E67
:04017200D43F5080A6
:04017300D43B3ADB64
:04017400D4373ECD71
:04017500D4335B81A3
:04017600D42F9022D0
:04017700D42BDB1397
:04017800D4283CE467
:04017900D424B44492
:04017A00D42140F953
:04017B00D41DE27A33
:04017C00D41A988D6C
:04017D00D41761E052
:04017E00D4143E5FF8
:04017F00D4112DF674
:04018000D40E2FC6A4
:04018100D40B42CF8A
:04018200D40867BE78
:04018300D4059CCA39
:04018400D402E2EDD2
:04018500D40038AFBB
:04018600D3FB3BE983
:04018700D3F6259CEA
:04018800D3F12CB9CA
:04018900D3EC5093D0
:04018A00D3E78FBA6E
:04018B00D3E2EAC110
:04018C00D3DE616DF0
:04018D00D3D9F000D2
:04018E00D3D59A919A
:04018F00D3D15D115A
:04019000D3CD379301
:04019100D3C929B4F1
:04019200D3C5331A84
:04019300D3C152BDC5
:04019400D3BD87A2AE
:04019500D3B9D22CDC
:04019600D3B6324466
:04019700D3B2A699A0
:04019800D3AF2E5162
:04019900D3ABC954C7
:04019A00D3A8776906
:04019B00D3A537D5DC
:04019C00D3A20AAE32
:04019D00D39EEF12EC
:04019E00D39BE38983
:04019F00D398E98385
:0401A000D395FFD420
:0401A100D39326B11D
:0401A200D3905BFE9D
:0401A300D38DA1A5B2
:0401A400D38AF538CD
:0401A500D38856C7DE
:0401A600D385C7E551
:0401A700D38345B504
:0401A800D380D17AB5
:0401A900D37CD4FC33
:0401AA00D378219154
:0401AB00D37386582C
:0401AC00D36F02C04B
:0401AD00D36A98C1B8
:0401AE00D36645F1DE
:0401AF00D362092BE3
:0401B000D35DE31D1B
:0401B100D359D33C0F
:0401B200D355D83B0E
:0401B300D351F33BF6
:0401B400D34E2164A1
:0401B500D34A64C401
:0401B600D346BAA6CC
:0401B700D343231AF1
:0401B800D33F9FE4AE
:0401B900D33C2DD333
:0401BA00D338CCA9C1
:0401BB00D3357E4E6C
:0401BC00D332411CDD
:0401BD00D32F132207
:0401BE00D32BF66EDB
:0401BF00D328E8E475
:0401C000D325EC1C3B
:0401C100D322FDFB4D
:0401C200D3201E899F
:0401C300D31D4DD625
:0401C400D31A8B2699
:0401C500D317D74B2A
:0401C600D3153027F6
:0401C700D3129614A5
:0401C800D3100993B4
:0401C900D30D88AD1D
:0401CA00D30B15B985
:0401CB00D308AE7730
:0401CC00D3065313F0
:0401CD00D304034A0A
:0401CE00D301BF2377
:0401CF00D2FF0BC888
:0401D000D2FAAF763A
:0401D100D2F6696495
:0401D200D2F237C767
:0401D300D2EE1A123C
:0401D400D2EA105506
:0401D500D2E61B3B18
:0401D600D2E23860D9
:0401D700D2DE69A863
:0401D800D2DAACAD1E
:0401D900D2D701C9AF
:0401DA00D2D36821F3
:0401DB00D2CFE00D92
:0401DC00D2CC68FE1B
:0401DD00D2C902661B
:0401DE00D2C5AC4D8D
:0401DF00D2C265AC77
:0401E000D2BF2FF467
:0401E100D2BC07C9BC
:0401E200D2B8EFDAC6
:0401E300D2B5E5E0CC
:0401E400D2B2EA8227
:0401E500D2AFFC9108
:0401E600D2AD1DC9B0
:0401E700D2AA4ACF7F
:0401E800D2A7869C78
:0401E900D2A4CE24AA
:0401EA00D2A222D4A7
:0401EB00D29F83A17B
:0401EC00D29CF15957
:0401ED00D29A6AC96F
:0401EE00D297EFAB0A
:0401EF00D2957F9393
:0401F000D2931B4B40
:0401F100D290C219CD
:0401F200D28E738DA9
:0401F300D28C2EC2BA
:0401F400D289F5E9CE
:0401F500D287C57D6B
:0401F600D285A09A74
:0401F700D283845BD0
:0401F800D2817277C7
:0401F900D27ED3C51A
:0401FA00D27AD3BD25
:0401FB00D276E57E55
:0401FC00D2730A04AC
:0401FD00D26F406F0E
:0401FE00D26B86F248
:0401FF00D267DDE402
:04020000D262B910FD
:04020100D25BC5DA2D
:04020200D2550F7D45
:04020300D24E9450F3
:04020400D2485190FB
:04020500D24244E4B9
:04020600D23C6CED8D
:04020700D236C74FD5
:04020800D231529C01
:04020900D22C0BDA0E
:04020A00D226F2F80E
:04020B00D222050BEB
:04020C00D21D414B73
:04020D00D218A5510D
:04020E00D2142FEFE8
:04020F00D20FE02FFB
:04021000D20BB4A5B4
:04021100D207AB5A0B
:04021200D203C4004F
:04021300D1FFF84CD3
:04021400D1F8A83D38
:04021500D1F193CFC1
:04021600D1EAB8D899
:04021700D1E415CB4E
:04021800D1DDA8C6C6
:04021900D1D77008C1
:04021A00D1D1696570
:04021B00D1CB924C65
:04021C00D1C5EADA84
:04021D00D1C06FE2FB
:04021E00D1BB20D65A
:04021F00D1B5FB78E2
:04022000D1B0FF3525
:04022100D1AC29A093
:04022200D1A77A7571
:04022300D1A2EEF383
:04022400D19E87AB35
:04022500D19A4250D8
:04022600D1961E58F7
:04022700D1921963F4
:04022800D18E34221D
:04022900D18A6CA367
:04022A00D186C18236
:04022B00D18332A2A7
:04022C00D17F7D8D74
:04022D00D178C9506B
:04022E00D172485AE7
:04022F00D16BF7098F
:04023000D165D65E60
:04023100D15FE2DDDA
:04023200D15A1BA4DE
:04023300D1547F1211
:04023400D14F0BF2A9
:04023500D149C0EB00
:04023600D1449CF122
:04023700D13F9EA372
:04023800D13AC4559E
:04023900D1360DB8F5
:04023A00D13178A6A0
:04023B00D12D05704C
:04023C00D128B1E52F
:04023D00D1247D1C2F
:04023E00D120670B59
:04023F00D11C6DD68B
:04024000D11890FE43
:04024100D114CFB74E
:04024200D11128337B
:04024300D10D9B2C12
:04024400D10A26D0E5
:04024500D106CAB262
:04024600D10385D883
:04024700D100582169
:04024800D0FA8084E4
:04024900D0F47B93DF
:04024A00D0EE9FEB68
:04024B00D0E8ED1AF0
:04024C00D0E3614E4C
:04024D00D0DDFB976E
:04024E00D0D8BA2228
:04024F00D0D39CED7F
:04025000D0CEA17FEC
:04025100D0C9C874D4
:04025200D0C5103CC7
:04025300D0C077227E
:04025400D0BBFD9688
:04025500D0B7A18FEE
:04025600D0B3626857
:04025700D0AF3FA045
:04025800D0AB37CD23
:04025900D0A74B06D9
:04025A00D0A37809AC
:04025B00D09FBE5022
:04025C00D09C1C9284
:04025D00D098929B08
:04025E00D0951FE137
:04025F00D091C392E5
:04026000D08E7D01BE
:04026100D08B4B2EC5
:04026200D0882DDE35
:04026300D08525011C
:04026400D0822FE431
:04026500D07E99AC02
:04026600D078F9D47F
:04026700D0737C6371
:04026800D06E23062B
:04026900D068EA7CF3
:04026A00D063D2E2A9
:04026B00D05EDB0185
:04026C00D05A02C59D
:04026D00D055482BF5
:04026E00D050AC625E
:04026F00D04C2BAE96
:04027000D047C7B5F7
:04027100D0437E8E6A
:04027200D03F5080A9
:04027300D03B3ADB67
:04027400D0373ECD74
:04027500D0335B81A6
:04027600D02F9022D3
:04027700D02BDB139A
:04027800D0283CE46A
:04027900D024B44495
:04027A00D02140F956
:04027B00D01DE27A36
:04027C00D01A988D6F
:04027D00D01761E055
:04027E00D0143E5FFB
:04027F00D0112DF677
:04028000D00E2FC6A7
:04028100D00B42CF8D
:04028200D00867BE7B
:04028300D0059CCA3C
:04028400D002E2EDD5
:04028500D00038AFBE
:04028600CFFB3BE986
:04028700CFF6259CED
:04028800CFF12CB9CD
:04028900CFEC5093D3
:04028A00CFE78FBA71
:04028B00CFE2EAC113
:04028C00CFDE616DF3
:04028D00CFD9F000D5
:04028E00CFD59A919D
:04028F00CFD15D115D
:04029000CFCD379304
:04029100CFC929B4F4
:04029200CFC5331A87
:04029300CFC152BDC8
:04029400CFBD87A2B1
:04029500CFB9D22CDF
:04029600CFB6324469
:04029700CFB2A699A3
:04029800CFAF2E5165
:04029900CFABC954CA
:04029A00CFA8776909
:04029B00CFA537D5DF
:04029C00CFA20AAE35
:04029D00CF9EEF12EF
:04029E00CF9BE38986
:04029F00CF98E98388
:0402A000CF95FFD423
:0402A100CF9326B120
:0402A200CF905BFEA0
:0402A300CF8DA1A5B5
:0402A400CF8AF538D0
:0402A500CF8856C7E1
:0402A600CF85C7E554
:0402A700CF8345B507
:0402A800CF80D17AB8
:0402A900CF7CD4FC36
:0402AA00CF78219157
:0402AB00CF7386582F
:0402AC00CF6F02C04E
:0402AD00CF6A98C1BB
:0402AE00CF6645F1E1
:0402AF00CF62092BE6
:0402B000CF5DE31D1E
:0402B100CF59D33C12
:0402B200CF55D83B11
:0402B300CF51F33BF9
:0402B400CF4E2164A4
:0402B500CF4A64C404
:0402B600CF46BAA6CF
:0402B700CF43231AF4
:0402B800CF3F9FE4B1
:0402B900CF3C2DD336
:0402BA00CF38CCA9C4
:0402BB00CF357E4E6F
:0402BC00CF32411CE0
:0402BD00CF2F13220A
:0402BE00CF2BF66EDE
:0402BF00CF28E8E478
:0402C000CF25EC1C3E
:0402C100CF22FDFB50
:0402C200CF201E89A2
:0402C300CF1D4DD628
:0402C400CF1A8B269C
:0402C500CF17D74B2D
:0402C600CF153027F9
:0402C700CF129614A8
:0402C800CF100993B7
:0402C900CF0D88AD20
:0402CA00CF0B15B988
:0402CB00CF08AE7733
:0402CC00CF065313F3
:0402CD00CF04034A0D
:0402CE00CF01BF237A
:0402CF00CEFF0BC88B
:0402D000CEFAAF763D
:0402D100CEF6696498
:0402D200CEF237C76A
:0402D300CEEE1A123F
:0402D400CEEA105509
:0402D500CEE61B3B1B
:0402D600CEE23860DC
:0402D700CEDE69A866
:0402D800CEDAACAD21
:0402D900CED701C9B2
:0402DA00CED36821F6
:0402DB00CECFE00D95
:0402DC00CECC68FE1E
:0402DD00CEC902661E
:0402DE00CEC5AC4D90
:0402DF00CEC265AC7A
:0402E000CEBF2FF46A
:0402E100CEBC07C9BF
:0402E200CEB8EFDAC9
:0402E300CEB5E5E0CF
:0402E400CEB2EA822A
:0402E500CEAFFC910B
:0402E600CEAD1DC9B3
:0402E700CEAA4ACF82
:0402E800CEA7869C7B
:0402E900CEA4CE24AD
:0402EA00CEA222D4AA
:0402EB00CE9F83A17E
:0402EC00CE9CF1595A
:0402ED00CE9A6AC972
:0402EE00CE97EFAB0D
:0402EF00CE957F9396
:0402F000CE931B4B43
:0402F100CE90C219D0
:0402F200CE8E738DAC
:0402F300CE8C2EC2BD
:0402F400CE89F5E9D1
:0402F500CE87C57D6E
:0402F600CE85A09A77
:0402F700CE83845BD3
:0402F800CE817277CA
:0402F900CE7ED3C51D
:0402FA00CE7AD3BD28
:0402FB00CE76E57E58
:0402FC00CE730A04AF
:0402FD00CE6F406F11
:0402FE00CE6B86F24B
:0402FF00CE67DDE405
:04030000CE62B91000
:04030100CE5BC5DA30
:04030200CE550F7D48
:04030300CE4E9450F6
:04030400CE485190FE
:04030500CE4244E4BC
:04030600CE3C6CED90
:04030700CE36C74FD8
:04030800CE31529C04
:04030900CE2C0BDA11
:04030A00CE26F2F811
:04030B00CE22050BEE
:04030C00CE1D414B76
:04030D00CE18A55110
:04030E00CE142FEFEB
:04030F00CE0FE02FFE
:04031000CE0BB4A5B7
:04031100CE07AB5A0E
:04031200CE03C40052
:04031300CDFFF84CD6
:04031400CDF8A83D3B
:04031500CDF193CFC4
:04031600CDEAB8D89C
:04031700CDE415CB51
:04031800CDDDA8C6C9
:04031900CDD77008C4
:04031A00CDD1696573
:04031B00CDCB924C68
:04031C00CDC5EADA87
:04031D00CDC06FE2FE
:04031E00CDBB20D65D
:04031F00CDB5FB78E5
:04032000CDB0FF3528
:04032100CDAC29A096
:04032200CDA77A7574
:04032300CDA2EEF386
:04032400CD9E87AB38
:04032500CD9A4250DB
:04032600CD961E58FA
:04032700CD921963F7
:04032800CD8E342220
:04032900CD8A6CA36A
:04032A00CD86C18239
:04032B00CD8332A2AA
:04032C00CD7F7D8D77
:04032D00CD78C9506E
:04032E00CD72485AEA
:04032F00CD6BF70992
:04033000CD65D65E63
:04033100CD5FE2DDDD
:04033200CD5A1BA4E1
:04033300CD547F1214
:04033400CD4F0BF2AC
:04033500CD49C0EB03
:04033600CD449CF125
:04033700CD3F9EA375
:04033800CD3AC455A1
:04033900CD360DB8F8
:04033A00CD3178A6A3
:04033B00CD2D05704F
:04033C00CD28B1E532
:04033D00CD247D1C32
:04033E00CD20670B5C
:04033F00CD1C6DD68E
:04034000CD1890FE46
:04034100CD14CFB751
:04034200CD1128337E
:04034300CD0D9B2C15
:04034400CD0A26D0E8
:04034500CD06CAB265
:04034600CD0385D886
:04034700CD0058216C
:04034800CCFA8084E7
:04034900CCF47B93E2
:04034A00CCEE9FEB6B
:04034B00CCE8ED1AF3
:04034C00CCE3614E4F
:04034D00CCDDFB9771
:04034E00CCD8BA222B
:04034F00CCD39CED82
:04035000CCCEA17FEF
:04035100CCC9C874D7
:04035200CCC5103CCA
:04035300CCC0772281
:04035400CCBBFD968B
:04035500CCB7A18FF1
:04035600CCB362685A
:04035700CCAF3FA048
:04035800CCAB37CD26
:04035900CCA74B06DC
:04035A00CCA37809AF
:04035B00CC9FBE5025
:04035C00CC9C1C9287
:04035D00CC98929B0B
:04035E00CC951FE13A
:04035F00CC91C392E8
:04036000CC8E7D01C1
:04036100CC8B4B2EC8
:04036200CC882DDE38
:04036300CC8525011F
:04036400CC822FE434
:04036500CC7E99AC05
:04036600CC78F9D482
:04036700CC737C6374
:04036800CC6E23062E
:04036900CC68EA7CF6
:04036A00CC63D2E2AC
:04036B00CC5EDB0188
:04036C00CC5A02C5A0
:04036D00CC55482BF8
:04036E00CC50AC6261
:04036F00CC4C2BAE99
:04037000CC47C7B5FA
:04037100CC437E8E6D
:04037200CC3F5080AC
:04037300CC3B3ADB6A
:04037400CC373ECD77
:04037500CC335B81A9
:04037600CC2F9022D6
:04037700CC2BDB139D
:04037800CC283CE46D
:04037900CC24B44498
:04037A00CC2140F959
:04037B00CC1DE27A39
:04037C00CC1A988D72
:04037D00CC1761E058
:04037E00CC143E5FFE
:04037F00CC112DF67A
:04038000CC0E2FC6AA
:04038100CC0B42CF90
:04038200CC0867BE7E
:04038300CC059CCA3F
:04038400CC02E2EDD8
:04038500CC0038AFC1
:04038600CBFB3BE989
:04038700CBF6259CF0
:04038800CBF12CB9D0
:04038900CBEC5093D6
:04038A00CBE78FBA74
:04038B00CBE2EAC116
:04038C00CBDE616DF6
:04038D00CBD9F000D8
:04038E00CBD59A91A0
:04038F00CBD15D1160
:04039000CBCD379307
:04039100CBC929B4F7
:04039200CBC5331A8A
:04039300CBC152BDCB
:04039400CBBD87A2B4
:04039500CBB9D22CE2
:04039600CBB632446C
:04039700CBB2A699A6
:04039800CBAF2E5168
:04039900CBABC954CD
:04039A00CBA877690C
:04039B00CBA537D5E2
:04039C00CBA20AAE38
:04039D00CB9EEF12F2
:04039E00CB9BE38989
:04039F00CB98E9838B
:0403A000CB95FFD426
:0403A100CB9326B123
:0403A200CB905BFEA3
:0403A300CB8DA1A5B8
:0403A400CB8AF538D3
:0403A500CB8856C7E4
:0403A600CB85C7E557
:0403A700CB8345B50A
:0403A800CB80D17ABB
:0403A900CB7CD4FC39
:0403AA00CB7821915A
:0403AB00CB73865832
:0403AC00CB6F02C051
:0403AD00CB6A98C1BE
:0403AE00CB6645F1E4
:0403AF00CB62092BE9
:0403B000CB5DE31D21
:0403B100CB59D33C15
:0403B200CB55D83B14
:0403B300CB51F33BFC
:0403B400CB4E2164A7
:0403B500CB4A64C407
:0403B600CB46BAA6D2
:0403B700CB43231AF7
:0403B800CB3F9FE4B4
:0403B900CB3C2DD339
:0403BA00CB38CCA9C7
:0403BB00CB357E4E72
:0403BC00CB32411CE3
:0403BD00CB2F13220D
:0403BE00CB2BF66EE1
:0403BF00CB28E8E47B
:0403C000CB25EC1C41
:0403C100CB22FDFB53
:0403C200CB201E89A5
:0403C300CB1D4DD62B
:0403C400CB1A8B269F
:0403C500CB17D74B30
:0403C600CB153027FC
:0403C700CB129614AB
:0403C800CB100993BA
:0403C900CB0D88AD23
:0403CA00CB0B15B98B
:0403CB00CB08AE7736
:0403CC00CB065313F6
:0403CD00CB04034A10
:0403CE00CB01BF237D
:0403CF00CAFF0BC88E
:0403D000CAFAAF7640
:0403D100CAF669649B
:0403D200CAF237C76D
:0403D300CAEE1A1242
:0403D400CAEA10550C
:0403D500CAE61B3B1E
:0403D600CAE23860DF
:0403D700CADE69A869
:0403D800CADAACAD24
:0403D900CAD701C9B5
:0403DA00CAD36821F9
:0403DB00CACFE00D98
:0403DC00CACC68FE21
:0403DD00CAC9026621
:0403DE00CAC5AC4D93
:0403DF00CAC265AC7D
:0403E000CABF2FF46D
:0403E100CABC07C9C2
:0403E200CAB8EFDACC
:0403E300CAB5E5E0D2
:0403E400CAB2EA822D
:0403E500CAAFFC910E
:0403E600CAAD1DC9B6
:0403E700CAAA4ACF85
:0403E800CAA7869C7E
:0403E900CAA4CE24B0
:0403EA00CAA222D4AD
:0403EB00CA9F83A181
:0403EC00CA9CF1595D
:0403ED00CA9A6AC975
:0403EE00CA97EFAB10
:0403EF00CA957F9399
:0403F000CA931B4B46
:0403F100CA90C219D3
:0403F200CA8E738DAF
:0403F300CA8C2EC2C0
:0403F400CA89F5E9D4
:0403F500CA87C57D71
:0403F600CA85A09A7A
:0403F700CA83845BD6
:0403F800CA817277CD
:0403F900CA7ED3C520
:0403FA00CA7AD3BD2B
:0403FB00CA76E57E5B
:0403FC00CA730A04B2
:0403FD00CA6F406F14
:0403FE00CA6B86F24E
:0403FF00CA67DDE408
:04040000CA62B91003
:04040100CA5BC5DA33
:04040200CA550F7D4B
:04040300CA4E9450F9
:04040400CA48519001
:04040500CA4244E4BF
:04040600CA3C6CED93
:04040700CA36C74FDB
:04040800CA31529C07
:04040900CA2C0BDA14
:04040A00CA26F2F814
:04040B00CA22050BF1
:04040C00CA1D414B79
:04040D00CA18A55113
:04040E00CA142FEFEE
:04040F00CA0FE02F01
:04041000CA0BB4A5BA
:04041100CA07AB5A11
:04041200CA03C40055
:04041300C9FFF84CD9
:04041400C9F8A83D3E
:04041500C9F193CFC7
:04041600C9EAB8D89F
:04041700C9E415CB54
:04041800C9DDA8C6CC
:04041900C9D77008C7
:04041A00C9D1696576
:04041B00C9CB924C6B
:04041C00C9C5EADA8A
:04041D00C9C06FE201
:04041E00C9BB20D660
:04041F00C9B5FB78E8
:04042000C9B0FF352B
:04042100C9AC29A099
:04042200C9A77A7577
:04042300C9A2EEF389
:04042400C99E87AB3B
:04042500C99A4250DE
:04042600C9961E58FD
:04042700C9921963FA
:04042800C98E342223
:04042900C98A6CA36D
:04042A00C986C1823C
:04042B00C98332A2AD
:04042C00C97F7D8D7A
:04042D00C978C95071
:04042E00C972485AED
:04042F00C96BF70995
:04043000C965D65E66
:04043100C95FE2DDE0
:04043200C95A1BA4E4
:04043300C9547F1217
:04043400C94F0BF2AF
:04043500C949C0EB06
:04043600C9449CF128
:04043700C93F9EA378
:04043800C93AC455A4
:04043900C9360DB8FB
:04043A00C93178A6A6
:04043B00C92D057052
:04043C00C928B1E535
:04043D00C9247D1C35
:04043E00C920670B5F
:04043F00C91C6DD691
:04044000C91890FE49
:04044100C914CFB754
:04044200C911283381
:04044300C90D9B2C18
:04044400C90A26D0EB
:04044500C906CAB268
:04044600C90385D889
:04044700C90058216F
:04044800C8FA8084EA
:04044900C8F47B93E5
:04044A00C8EE9FEB6E
:04044B00C8E8ED1AF6
:04044C00C8E3614E52
:04044D00C8DDFB9774
:04044E00C8D8BA222E
:04044F00C8D39CED85
:04045000C8CEA17FF2
:04045100C8C9C874DA
:04045200C8C5103CCD
:04045300C8C0772284
:04045400C8BBFD968E
:04045500C8B7A18FF4
:04045600C8B362685D
:04045700C8AF3FA04B
:04045800C8AB37CD29
:04045900C8A74B06DF
:04045A00C8A37809B2
:04045B00C89FBE5028
:04045C00C89C1C928A
:04045D00C898929B0E
:04045E00C8951FE13D
:04045F00C891C392EB
:04046000C88E7D01C4
:04046100C88B4B2ECB
:04046200C8882DDE3B
:04046300C885250122
:04046400C8822FE437
:04046500C87E99AC08
:04046600C878F9D485
:04046700C8737C6377
:04046800C86E230631
:04046900C868EA7CF9
:04046A00C863D2E2AF
:04046B00C85EDB018B
:04046C00C85A02C5A3
:04046D00C855482BFB
:04046E00C850AC6264
:04046F00C84C2BAE9C
:04047000C847C7B5FD
:04047100C8437E8E70
:04047200C83F5080AF
:04047300C83B3ADB6D
:04047400C8373ECD7A
:04047500C8335B81AC
:04047600C82F9022D9
:04047700C82BDB13A0
:04047800C8283CE470
:04047900C824B4449B
:04047A00C82140F95C
:04047B00C81DE27A3C
:04047C00C81A988D75
:04047D00C81761E05B
:04047E00C8143E5F01
:04047F00C8112DF67D
:04048000C80E2FC6AD
:04048100C80B42CF93
:04048200C80867BE81
:04048300C8059CCA42
:04048400C802E2EDDB
:04048500C80038AFC4
:04048600C7FB3BE98C
:04048700C7F6259CF3
:04048800C7F12CB9D3
:04048900C7EC5093D9
:04048A00C7E78FBA77
:04048B00C7E2EAC119
:04048C00C7DE616DF9
:04048D00C7D9F000DB
:04048E00C7D59A91A3
:04048F00C7D15D1163
:04049000C7CD37930A
:04049100C7C929B4FA
:04049200C7C5331A8D
:04049300C7C152BDCE
:04049400C7BD87A2B7
:04049500C7B9D22CE5
:04049600C7B632446F
:04049700C7B2A699A9
:04049800C7AF2E516B
:04049900C7ABC954D0
:04049A00C7A877690F
:04049B00C7A537D5E5
:04049C00C7A20AAE3B
:04049D00C79EEF12F5
:04049E00C79BE3898C
:04049F00C798E9838E
:0404A000C795FFD429
:0404A100C79326B126
:0404A200C7905BFEA6
:0404A300C78DA1A5BB
:0404A400C78AF538D6
:0404A500C78856C7E7
:0404A600C785C7E55A
:0404A700C78345B50D
:0404A800C780D17ABE
:0404A900C77CD4FC3C
:0404AA00C77821915D
:0404AB00C773865835
:0404AC00C76F02C054
:0404AD00C76A98C1C1
:0404AE00C76645F1E7
:0404AF00C762092BEC
:0404B000C75DE31D24
:0404B100C759D33C18
:0404B200C755D83B17
:0404B300C751F33BFF
:0404B400C74E2164AA
:0404B500C74A64C40A
:0404B600C746BAA6D5
:0404B700C743231AFA
:0404B800C73F9FE4B7
:0404B900C73C2DD33C
:0404BA00C738CCA9CA
:0404BB00C7357E4E75
:0404BC00C732411CE6
:0404BD00C72F132210
:0404BE00C72BF66EE4
:0404BF00C728E8E47E
:0404C000C725EC1C44
:0404C100C722FDFB56
:0404C200C7201E89A8
:0404C300C71D4DD62E
:0404C400C71A8B26A2
:0404C500C717D74B33
:0404C600C7153027FF
:0404C700C7129614AE
:0404C800C7100993BD
:0404C900C70D88AD26
:0404CA00C70B15B98E
:0404CB00C708AE7739
:0404CC00C7065313F9
:0404CD00C704034A13
:0404CE00C701BF2380
:0404CF00C6FF0BC891
:0404D000C6FAAF7643
:0404D100C6F669649E
:0404D200C6F237C770
:0404D300C6EE1A1245
:0404D400C6EA10550F
:0404D500C6E61B3B21
:0404D600C6E23860E2
:0404D700C6DE69A86C
:0404D800C6DAACAD27
:0404D900C6D701C9B8
:0404DA00C6D36821FC
:0404DB00C6CFE00D9B
:0404DC00C6CC68FE24
:0404DD00C6C9026624
:0404DE00C6C5AC4D96
:0404DF00C6C265AC80
:0404E000C6BF2FF470
:0404E100C6BC07C9C5
:0404E200C6B8EFDACF
:0404E300C6B5E5E0D5
:0404E400C6B2EA8230
:0404E500C6AFFC9111
:0404E600C6AD1DC9B9
:0404E700C6AA4ACF88
:0404E800C6A7869C81
:0404E900C6A4CE24B3
:0404EA00C6A222D4B0
:0404EB00C69F83A184
:0404EC00C69CF15960
:0404ED00C69A6AC978
:0404EE00C697EFAB13
:0404EF00C6957F939C
:0404F000C6931B4B49
:0404F100C690C219D6
:0404F200C68E738DB2
:0404F300C68C2EC2C3
:0404F400C689F5E9D7
:0404F500C687C57D74
:0404F600C685A09A7D
:0404F700C683845BD9
:0404F800C6817277D0
:0404F900C67ED3C523
:0404FA00C67AD3BD2E
:0404FB00C676E57E5E
:0404FC00C6730A04B5
:0404FD00C66F406F17
:0404FE00C66B86F251
:0404FF00C667DDE40B
:04050000C662B91006
:04050100C65BC5DA36
:04050200C6550F7D4E
:04050300C64E9450FC
:04050400C648519004
:04050500C64244E4C2
:04050600C63C6CED96
:04050700C636C74FDE
:04050800C631529C0A
:04050900C62C0BDA17
:04050A00C626F2F817
:04050B00C622050BF4
:04050C00C61D414B7C
:04050D00C618A55116
:04050E00C6142FEFF1
:04050F00C60FE02F04
:04051000C60BB4A5BD
:04051100C607AB5A14
:04051200C603C40058
:04051300C5FFF84CDC
:04051400C5F8A83D41
:04051500C5F193CFCA
:04051600C5EAB8D8A2
:04051700C5E415CB57
:04051800C5DDA8C6CF
:04051900C5D77008CA
:04051A00C5D1696579
:04051B00C5CB924C6E
:04051C00C5C5EADA8D
:04051D00C5C06FE204
:04051E00C5BB20D663
:04051F00C5B5FB78EB
:04052000C5B0FF352E
:04052100C5AC29A09C
:04052200C5A77A757A
:04052300C5A2EEF38C
:04052400C59E87AB3E
:04052500C59A4250E1
:04052600C5961E5800
:04052700C5921963FD
:04052800C58E342226
:04052900C58A6CA370
:04052A00C586C1823F
:04052B00C58332A2B0
:04052C00C57F7D8D7D
:04052D00C578C95074
:04052E00C572485AF0
:04052F00C56BF70998
:04053000C565D65E69
:04053100C55FE2DDE3
:04053200C55A1BA4E7
:04053300C5547F121A
:04053400C54F0BF2B2
:04053500C549C0EB09
:04053600C5449CF12B
:04053700C53F9EA37B
:04053800C53AC455A7
:04053900C5360DB8FE
:04053A00C53178A6A9
:04053B00C52D057055
:04053C00C528B1E538
:04053D00C5247D1C38
:04053E00C520670B62
:04053F00C51C6DD694
:04054000C51890FE4C
:04054100C514CFB757
:04054200C511283384
:04054300C50D9B2C1B
:04054400C50A26D0EE
:04054500C506CAB26B
:04054600C50385D88C
:04054700C500582172
:04054800C4FA8084ED
:04054900C4F47B93E8
:04054A00C4EE9FEB71
:04054B00C4E8ED1AF9
:04054C00C4E3614E55
:04054D00C4DDFB9777
:04054E00C4D8BA2231
:04054F00C4D39CED88
:04055000C4CEA17FF5
:04055100C4C9C874DD
:04055200C4C5103CD0
:04055300C4C0772287
:04055400C4BBFD9691
:04055500C4B7A18FF7
:04055600C4B3626860
:04055700C4AF3FA04E
:04055800C4AB37CD2C
:04055900C4A74B06E2
:04055A00C4A37809B5
:04055B00C49FBE502B
:04055C00C49C1C928D
:04055D00C498929B11
:04055E00C4951FE140
:04055F00C491C392EE
:04056000C48E7D01C7
:04056100C48B4B2ECE
:04056200C4882DDE3E
:04056300C485250125
:04056400C4822FE43A
:04056500C47E99AC0B
:04056600C478F9D488
:04056700C4737C637A
:04056800C46E230634
:04056900C468EA7CFC
:04056A00C463D2E2B2
:04056B00C45EDB018E
:04056C00C45A02C5A6
:04056D00C455482BFE
:04056E00C450AC6267
:04056F00C44C2BAE9F
:04057000C447C7B500
:04057100C4437E8E73
:04057200C43F5080B2
:04057300C43B3ADB70
:04057400C4373ECD7D
:04057500C4335B81AF
:04057600C42F9022DC
:04057700C42BDB13A3
:04057800C4283CE473
:04057900C424B4449E
:04057A00C42140F95F
:04057B00C41DE27A3F
:04057C00C41A988D78
:04057D00C41761E05E
:04057E00C4143E5F04
:04057F00C4112DF680
:04058000C40E2FC6B0
:04058100C40B42CF96
:04058200C40867BE84
:04058300C4059CCA45
:04058400C402E2EDDE
:04058500C40038AFC7
:04058600C3FB3BE98F
:04058700C3F6259CF6
:04058800C3F12CB9D6
:04058900C3EC5093DC
:04058A00C3E78FBA7A
:04058B00C3E2EAC11C
:04058C00C3DE616DFC
:04058D00C3D9F000DE
:04058E00C3D59A91A6
:04058F00C3D15D1166
:04059000C3CD37930D
:04059100C3C929B4FD
:04059200C3C5331A90
:04059300C3C152BDD1
:04059400C3BD87A2BA
:04059500C3B9D22CE8
:04059600C3B6324472
:04059700C3B2A699AC
:04059800C3AF2E516E
:04059900C3ABC954D3
:04059A00C3A8776912
:04059B00C3A537D5E8
:04059C00C3A20AAE3E
:04059D00C39EEF12F8
:04059E00C39BE3898F
:04059F00C398E98391
:0405A000C395FFD42C
:0405A100C39326B129
:0405A200C3905BFEA9
:0405A300C38DA1A5BE
:0405A400C38AF538D9
:0405A500C38856C7EA
:0405A600C385C7E55D
:0405A700C38345B510
:0405A800C380D17AC1
:0405A900C37CD4FC3F
:0405AA00C378219160
:0405AB00C373865838
:0405AC00C36F02C057
:0405AD00C36A98C1C4
:0405AE00C36645F1EA
:0405AF00C362092BEF
:0405B000C35DE31D27
:0405B100C359D33C1B
:0405B200C355D83B1A
:0405B300C351F33B02
:0405B400C34E2164AD
:0405B500C34A64C40D
:0405B600C346BAA6D8
:0405B700C343231AFD
:0405B800C33F9FE4BA
:0405B900C33C2DD33F
:0405BA00C338CCA9CD
:0405BB00C3357E4E78
:0405BC00C332411CE9
:0405BD00C32F132213
:0405BE00C32BF66EE7
:0405BF00C328E8E481
:0405C000C325EC1C47
:0405C100C322FDFB59
:0405C200C3201E89AB
:0405C300C31D4DD631
:0405C400C31A8B26A5
:0405C500C317D74B36
:0405C600C315302702
:0405C700C3129614B1
:0405C800C3100993C0
:0405C900C30D88AD29
:0405CA00C30B15B991
:0405CB00C308AE773C
:0405CC00C3065313FC
:0405CD00C304034A16
:0405CE00C301BF2383
:0405CF00C2FF0BC894
:0405D000C2FAAF7646
:0405D100C2F66964A1
:0405D200C2F237C773
:0405D300C2EE1A1248
:0405D400C2EA105512
:0405D500C2E61B3B24
:0405D600C2E23860E5
:0405D700C2DE69A86F
:0405D800C2DAACAD2A
:0405D900C2D701C9BB
:0405DA00C2D36821FF
:0405DB00C2CFE00D9E
:0405DC00C2CC68FE27
:0405DD00C2C9026627
:0405DE00C2C5AC4D99
:0405DF00C2C265AC83
:0405E000C2BF2FF473
:0405E100C2BC07C9C8
:0405E200C2B8EFDAD2
:0405E300C2B5E5E0D8
:0405E400C2B2EA8233
:0405E500C2AFFC9114
:0405E600C2AD1DC9BC
:0405E700C2AA4ACF8B
:0405E800C2A7869C84
:0405E900C2A4CE24B6
:0405EA00C2A222D4B3
:0405EB00C29F83A187
:0405EC00C29CF15963
:0405ED00C29A6AC97B
:0405EE00C297EFAB16
:0405EF00C2957F939F
:0405F000C2931B4B4C
:0405F100C290C219D9
:0405F200C28E738DB5
:0405F300C28C2EC2C6
:0405F400C289F5E9DA
:0405F500C287C57D77
:0405F600C285A09A80
:0405F700C283845BDC
:0405F800C2817277D3
:0405F900C27ED3C526
:0405FA00C27AD3BD31
:0405FB00C276E57E61
:0405FC00C2730A04B8
:0405FD00C26F406F1A
:0405FE00C26B86F254
:0405FF00C267DDE40E
:04060000C262B91009
:04060100C25BC5DA39
:04060200C2550F7D51
:04060300C24E9450FF
:04060400C248519007
:04060500C24244E4C5
:04060600C23C6CED99
:04060700C236C74FE1
:04060800C231529C0D
:04060900C22C0BDA1A
:04060A00C226F2F81A
:04060B00C222050BF7
:04060C00C21D414B7F
:04060D00C218A55119
:04060E00C2142FEFF4
:04060F00C20FE02F07
:04061000C20BB4A5C0
:04061100C207AB5A17
:04061200C203C4005B
:04061300C1FFF84CDF
:04061400C1F8A83D44
:04061500C1F193CFCD
:04061600C1EAB8D8A5
:04061700C1E415CB5A
:04061800C1DDA8C6D2
:04061900C1D77008CD
:04061A00C1D169657C
:04061B00C1CB924C71
:04061C00C1C5EADA90
:04061D00C1C06FE207
:04061E00C1BB20D666
:04061F00C1B5FB78EE
:04062000C1B0FF3531
:04062100C1AC29A09F
:04062200C1A77A757D
:04062300C1A2EEF38F
:04062400C19E87AB41
:04062500C19A4250E4
:04062600C1961E5803
:04062700C192196300
:04062800C18E342229
:04062900C18A6CA373
:04062A00C186C18242
:04062B00C18332A2B3
:04062C00C17F7D8D80
:04062D00C178C95077
:04062E00C172485AF3
:04062F00C16BF7099B
:04063000C165D65E6C
:04063100C15FE2DDE6
:04063200C15A1BA4EA
:04063300C1547F121D
:04063400C14F0BF2B5
:04063500C149C0EB0C
:04063600C1449CF12E
:04063700C13F9EA37E
:04063800C13AC455AA
:04063900C1360DB801
:04063A00C13178A6AC
:04063B00C12D057058
:04063C00C128B1E53B
:04063D00C1247D1C3B
:04063E00C120670B65
:04063F00C11C6DD697
:04064000C11890FE4F
:04064100C114CFB75A
:04064200C111283387
:04064300C10D9B2C1E
:04064400C10A26D0F1
:04064500C106CAB26E
:04064600C10385D88F
:04064700C100582175
:04064800C0FA8084F0
:04064900C0F47B93EB
:04064A00C0EE9FEB74
:04064B00C0E8ED1AFC
:04064C00C0E3614E58
:04064D00C0DDFB977A
:04064E00C0D8BA2234
:04064F00C0D39CED8B
:04065000C0CEA17FF8
:04065100C0C9C874E0
:04065200C0C5103CD3
:04065300C0C077228A
:04065400C0BBFD9694
:04065500C0B7A18FFA
:04065600C0B3626863
:04065700C0AF3FA051
:04065800C0AB37CD2F
:04065900C0A74B06E5
:04065A00C0A37809B8
:04065B00C09FBE502E
:04065C00C09C1C9290
:04065D00C098929B14
:04065E00C0951FE143
:04065F00C091C392F1
:04066000C08E7D01CA
:04066100C08B4B2ED1
:04066200C0882DDE41
:04066300C085250128
:04066400C0822FE43D
:04066500C07E99AC0E
:04066600C078F9D48B
:04066700C0737C637D
:04066800C06E230637
:04066900C068EA7CFF
:04066A00C063D2E2B5
:04066B00C05EDB0191
:04066C00C05A02C5A9
:04066D00C055482B01
:04066E00C050AC626A
:04066F00C04C2BAEA2
:04067000C047C7B503
:04067100C0437E8E76
:04067200C03F5080B5
:04067300C03B3ADB73
:04067400C0373ECD80
:04067500C0335B81B2
:04067600C02F9022DF
:04067700C02BDB13A6
:04067800C0283CE476
:04067900C024B444A1
:04067A00C02140F962
:04067B00C01DE27A42
:04067C00C01A988D7B
:04067D00C01761E061
:04067E00C0143E5F07
:04067F00C0112DF683
:04068000C00E2FC6B3
:04068100C00B42CF99
:04068200C00867BE87
:04068300C0059CCA48
:04068400C002E2EDE1
:04068500C00038AFCA
:04068600BFFB3BE992
:04068700BFF6259CF9
:04068800BFF12CB9D9
:04068900BFEC5093DF
:04068A00BFE78FBA7D
:04068B00BFE2EAC11F
:04068C00BFDE616DFF
:04068D00BFD9F000E1
:04068E00BFD59A91A9
:04068F00BFD15D1169
:04069000BFCD379310
:04069100BFC929B400
:04069200BFC5331A93
:04069300BFC152BDD4
:04069400BFBD87A2BD
:04069500BFB9D22CEB
:04069600BFB6324475
:04069700BFB2A699AF
:04069800BFAF2E5171
:04069900BFABC954D6
:04069A00BFA8776915
:04069B00BFA537D5EB
:04069C00BFA20AAE41
:04069D00BF9EEF12FB
:04069E00BF9BE38992
:04069F00BF98E98394
:0406A000BF95FFD42F
:0406A100BF9326B12C
:0406A200BF905BFEAC
:0406A300BF8DA1A5C1
:0406A400BF8AF538DC
:0406A500BF8856C7ED
:0406A600BF85C7E560
:0406A700BF8345B513
:0406A800BF80D17AC4
:0406A900BF7CD4FC42
:0406AA00BF78219163
:0406AB00BF7386583B
:0406AC00BF6F02C05A
:0406AD00BF6A98C1C7
:0406AE00BF6645F1ED
:0406AF00BF62092BF2
:0406B000BF5DE31D2A
:0406B100BF59D33C1E
:0406B200BF55D83B1D
:0406B300BF51F33B05
:0406B400BF4E2164B0
:0406B500BF4A64C410
:0406B600BF46BAA6DB
:0406B700BF43231A00
:0406B800BF3F9FE4BD
:0406B900BF3C2DD342
:0406BA00BF38CCA9D0
:0406BB00BF357E4E7B
:0406BC00BF32411CEC
:0406BD00BF2F132216
:0406BE00BF2BF66EEA
:0406BF00BF28E8E484
:0406C000BF25EC1C4A
:0406C100BF22FDFB5C
:0406C200BF201E89AE
:0406C300BF1D4DD634
:0406C400BF1A8B26A8
:0406C500BF17D74B39
:0406C600BF15302705
:0406C700BF129614B4
:0406C800BF100993C3
:0406C900BF0D88AD2C
:0406CA00BF0B15B994
:0406CB00BF08AE773F
:0406CC00BF065313FF
:0406CD00BF04034A19
:0406CE00BF01BF2386
:0406CF00BEFF0BC897
:0406D000BEFAAF7649
:0406D100BEF66964A4
:0406D200BEF237C776
:0406D300BEEE1A124B
:0406D400BEEA105515
:0406D500BEE61B3B27
:0406D600BEE23860E8
:0406D700BEDE69A872
:0406D800BEDAACAD2D
:0406D900BED701C9BE
:0406DA00BED3682102
:0406DB00BECFE00DA1
:0406DC00BECC68FE2A
:0406DD00BEC902662A
:0406DE00BEC5AC4D9C
:0406DF00BEC265AC86
:0406E000BEBF2FF476
:0406E100BEBC07C9CB
:0406E200BEB8EFDAD5
:0406E300BEB5E5E0DB
:0406E400BEB2EA8236
:0406E500BEAFFC9117
:0406E600BEAD1DC9BF
:0406E700BEAA4ACF8E
:0406E800BEA7869C87
:0406E900BEA4CE24B9
:0406EA00BEA222D4B6
:0406EB00BE9F83A18A
:0406EC00BE9CF15966
:0406ED00BE9A6AC97E
:0406EE00BE97EFAB19
:0406EF00BE957F93A2
:0406F000BE931B4B4F
:0406F100BE90C219DC
:0406F200BE8E738DB8
:0406F300BE8C2EC2C9
:0406F400BE89F5E9DD
:0406F500BE87C57D7A
:0406F600BE85A09A83
:0406F700BE83845BDF
:0406F800BE817277D6
:0406F900BE7ED3C529
:0406FA00BE7AD3BD34
:0406FB00BE76E57E64
:0406FC00BE730A04BB
:0406FD00BE6F406F1D
:0406FE00BE6B86F257
:0406FF00BE67DDE411
:04070000BE62B9100C
:04070100BE5BC5DA3C
:04070200BE550F7D54
:04070300BE4E945002
:04070400BE4851900A
:04070500BE4244E4C8
:04070600BE3C6CED9C
:04070700BE36C74FE4
:04070800BE31529C10
:04070900BE2C0BDA1D
:04070A00BE26F2F81D
:04070B00BE22050BFA
:04070C00BE1D414B82
:04070D00BE18A5511C
:04070E00BE142FEFF7
:04070F00BE0FE02F0A
:04071000BE0BB4A5C3
:04071100BE07AB5A1A
:04071200BE03C4005E
:04071300BDFFF84CE2
:04071400BDF8A83D47
:04071500BDF193CFD0
:04071600BDEAB8D8A8
:04071700BDE415CB5D
:04071800BDDDA8C6D5
:04071900BDD77008D0
:04071A00BDD169657F
:04071B00BDCB924C74
:04071C00BDC5EADA93
:04071D00BDC06FE20A
:04071E00BDBB20D669
:04071F00BDB5FB78F1
:04072000BDB0FF3534
:04072100BDAC29A0A2
:04072200BDA77A7580
:04072300BDA2EEF392
:04072400BD9E87AB44
:04072500BD9A4250E7
:04072600BD961E5806
:04072700BD92196303
:04072800BD8E34222C
:04072900BD8A6CA376
:04072A00BD86C18245
:04072B00BD8332A2B6
:04072C00BD7F7D8D83
:04072D00BD78C9507A
:04072E00BD72485AF6
:04072F00BD6BF7099E
:04073000BD65D65E6F
:04073100BD5FE2DDE9
:04073200BD5A1BA4ED
:04073300BD547F1220
:04073400BD4F0BF2B8
:04073500BD49C0EB0F
:04073600BD449CF131
:04073700BD3F9EA381
:04073800BD3AC455AD
:04073900BD360DB804
:04073A00BD3178A6AF
:04073B00BD2D05705B
:04073C00BD28B1E53E
:04073D00BD247D1C3E
:04073E00BD20670B68
:04073F00BD1C6DD69A
:04074000BD1890FE52
:04074100BD14CFB75D
:04074200BD1128338A
:04074300BD0D9B2C21
:04074400BD0A26D0F4
:04074500BD06CAB271
:04074600BD0385D892
:04074700BD00582178
:04074800BCFA8084F3
:04074900BCF47B93EE
:04074A00BCEE9FEB77
:04074B00BCE8ED1AFF
:04074C00BCE3614E5B
:04074D00BCDDFB977D
:04074E00BCD8BA2237
:04074F00BCD39CED8E
:04075000BCCEA17FFB
:04075100BCC9C874E3
:04075200BCC5103CD6
:04075300BCC077228D
:04075400BCBBFD9697
:04075500BCB7A18FFD
:04075600BCB3626866
:04075700BCAF3FA054
:04075800BCAB37CD32
:04075900BCA74B06E8
:04075A00BCA37809BB
:04075B00BC9FBE5031
:04075C00BC9C1C9293
:04075D00BC98929B17
:04075E00BC951FE146
:04075F00BC91C392F4
:04076000BC8E7D01CD
:04076100BC8B4B2ED4
:04076200BC882DDE44
:04076300BC8525012B
:04076400BC822FE440
:04076500BC7E99AC11
:04076600BC78F9D48E
:04076700BC737C6380
:04076800BC6E23063A
:04076900BC68EA7C02
:04076A00BC63D2E2B8
:04076B00BC5EDB0194
:04076C00BC5A02C5AC
:04076D00BC55482B04
:04076E00BC50AC626D
:04076F00BC4C2BAEA5
:04077000BC47C7B506
:04077100BC437E8E79
:04077200BC3F5080B8
:04077300BC3B3ADB76
:04077400BC373ECD83
:04077500BC335B81B5
:04077600BC2F9022E2
:04077700BC2BDB13A9
:04077800BC283CE479
:04077900BC24B444A4
:04077A00BC2140F965
:04077B00BC1DE27A45
:04077C00BC1A988D7E
:04077D00BC1761E064
:04077E00BC143E5F0A
:04077F00BC112DF686
:04078000BC0E2FC6B6
:04078100BC0B42CF9C
:04078200BC0867BE8A
:04078300BC059CCA4B
:04078400BC02E2EDE4
:04078500BC0038AFCD
:04078600BBFB3BE995
:04078700BBF6259CFC
:04078800BBF12CB9DC
:04078900BBEC5093E2
:04078A00BBE78FBA80
:04078B00BBE2EAC122
:04078C00BBDE616D02
:04078D00BBD9F000E4
:04078E00BBD59A91AC
:04078F00BBD15D116C
:04079000BBCD379313
:04079100BBC929B403
:04079200BBC5331A96
:04079300BBC152BDD7
:04079400BBBD87A2C0
:04079500BBB9D22CEE
:04079600BBB6324478
:04079700BBB2A699B2
:04079800BBAF2E5174
:04079900BBABC954D9
:04079A00BBA8776918
:04079B00BBA537D5EE
:04079C00BBA20AAE44
:04079D00BB9EEF12FE
:04079E00BB9BE38995
:04079F00BB98E98397
:0407A000BB95FFD432
:0407A100BB9326B12F
:0407A200BB905BFEAF
:0407A300BB8DA1A5C4
:0407A400BB8AF538DF
:0407A500BB8856C7F0
:0407A600BB85C7E563
:0407A700BB8345B516
:0407A800BB80D17AC7
:0407A900BB7CD4FC45
:0407AA00BB78219166
:0407AB00BB7386583E
:0407AC00BB6F02C05D
:0407AD00BB6A98C1CA
:0407AE00BB6645F1F0
:0407AF00BB62092BF5
:0407B000BB5DE31D2D
:0407B100BB59D33C21
:0407B200BB55D83B20
:0407B300BB51F33B08
:0407B400BB4E2164B3
:0407B500BB4A64C413
:0407B600BB46BAA6DE
:0407B700BB43231A03
:0407B800BB3F9FE4C0
:0407B900BB3C2DD345
:0407BA00BB38CCA9D3
:0407BB00BB357E4E7E
:0407BC00BB32411CEF
:0407BD00BB2F132219
:0407BE00BB2BF66EED
:0407BF00BB28E8E487
:0407C000BB25EC1C4D
:0407C100BB22FDFB5F
:0407C200BB201E89B1
:0407C300BB1D4DD637
:0407C400BB1A8B26AB
:0407C500BB17D74B3C
:0407C600BB15302708
:0407C700BB129614B7
:0407C800BB100993C6
:0407C900BB0D88AD2F
:0407CA00BB0B15B997
:0407CB00BB08AE7742
:0407CC00BB06531302
:0407CD00BB04034A1C
:0407CE00BB01BF2389
:0407CF00BAFF0BC89A
:0407D000BAFAAF764C
:0407D100BAF66964A7
:0407D200BAF237C779
:0407D300BAEE1A124E
:0407D400BAEA105518
:0407D500BAE61B3B2A
:0407D600BAE23860EB
:0407D700BADE69A875
:0407D800BADAACAD30
:0407D900BAD701C9C1
:0407DA00BAD3682105
:0407DB00BACFE00DA4
:0407DC00BACC68FE2D
:0407DD00BAC902662D
:0407DE00BAC5AC4D9F
:0407DF00BAC265AC89
:0407E000BABF2FF479
:0407E100BABC07C9CE
:0407E200BAB8EFDAD8
:0407E300BAB5E5E0DE
:0407E400BAB2EA8239
:0407E500BAAFFC911A
:0407E600BAAD1DC9C2
:0407E700BAAA4ACF91
:0407E800BAA7869C8A
:0407E900BAA4CE24BC
:0407EA00BAA222D4B9
:0407EB00BA9F83A18D
:0407EC00BA9CF15969
:0407ED00BA9A6AC981
:0407EE00BA97EFAB1C
:0407EF00BA957F93A5
:0407F000BA931B4B52
:0407F100BA90C219DF
:0407F200BA8E738DBB
:0407F300BA8C2EC2CC
:0407F400BA89F5E9E0
:0407F500BA87C57D7D
:0407F600BA85A09A86
:0407F700BA83845BE2
:0407F800BA817277D9
:0407F900BA7ED3C52C
:0407FA00BA7AD3BD37
:0407FB00BA76E57E67
:0407FC00BA730A04BE
:0407FD00BA6F406F20
:0407FE00BA6B86F25A
:0407FF00BA67DDE414
:04080000BA62B9100F
:04080100BA5BC5DA3F
:04080200BA550F7D57
:04080300BA4E945005
:04080400BA4851900D
:04080500BA4244E4CB
:04080600BA3C6CED9F
:04080700BA36C74FE7
:04080800BA31529C13
:04080900BA2C0BDA20
:04080A00BA26F2F820
:04080B00BA22050BFD
:04080C00BA1D414B85
:04080D00BA18A5511F
:04080E00BA142FEFFA
:04080F00BA0FE02F0D
:04081000BA0BB4A5C6
:04081100BA07AB5A1D
:04081200BA03C40061
:04081300B9FFF84CE5
:04081400B9F8A83D4A
:04081500B9F193CFD3
:04081600B9EAB8D8AB
:04081700B9E415CB60
:04081800B9DDA8C6D8
:04081900B9D77008D3
:04081A00B9D1696582
:04081B00B9CB924C77
:04081C00B9C5EADA96
:04081D00B9C06FE20D
:04081E00B9BB20D66C
:04081F00B9B5FB78F4
:04082000B9B0FF3537
:04082100B9AC29A0A5
:04082200B9A77A7583
:04082300B9A2EEF395
:04082400B99E87AB47
:04082500B99A4250EA
:04082600B9961E5809
:04082700B992196306
:04082800B98E34222F
:04082900B98A6CA379
:04082A00B986C18248
:04082B00B98332A2B9
:04082C00B97F7D8D86
:04082D00B978C9507D
:04082E00B972485AF9
:04082F00B96BF709A1
:04083000B965D65E72
:04083100B95FE2DDEC
:04083200B95A1BA4F0
:04083300B9547F1223
:04083400B94F0BF2BB
:04083500B949C0EB12
:04083600B9449CF134
:04083700B93F9EA384
:04083800B93AC455B0
:04083900B9360DB807
:04083A00B93178A6B2
:04083B00B92D05705E
:04083C00B928B1E541
:04083D00B9247D1C41
:04083E00B920670B6B
:04083F00B91C6DD69D
:04084000B91890FE55
:04084100B914CFB760
:04084200B91128338D
:04084300B90D9B2C24
:04084400B90A26D0F7
:04084500B906CAB274
:04084600B90385D895
:04084700B90058217B
:04084800B8FA8084F6
:04084900B8F47B93F1
:04084A00B8EE9FEB7A
:04084B00B8E8ED1A02
:04084C00B8E3614E5E
:04084D00B8DDFB9780
:04084E00B8D8BA223A
:04084F00B8D39CED91
:04085000B8CEA17FFE
:04085100B8C9C874E6
:04085200B8C5103CD9
:04085300B8C0772290
:04085400B8BBFD969A
:04085500B8B7A18F00
:04085600B8B3626869
:04085700B8AF3FA057
:04085800B8AB37CD35
:04085900B8A74B06EB
:04085A00B8A37809BE
:04085B00B89FBE5034
:04085C00B89C1C9296
:04085D00B898929B1A
:04085E00B8951FE149
:04085F00B891C392F7
:04086000B88E7D01D0
:04086100B88B4B2ED7
:04086200B8882DDE47
:04086300B88525012E
:04086400B8822FE443
:04086500B87E99AC14
:04086600B878F9D491
:04086700B8737C6383
:04086800B86E23063D
:04086900B868EA7C05
:04086A00B863D2E2BB
:04086B00B85EDB0197
:04086C00B85A02C5AF
:04086D00B855482B07
:04086E00B850AC6270
:04086F00B84C2BAEA8
:04087000B847C7B509
:04087100B8437E8E7C
:04087200B83F5080BB
:04087300B83B3ADB79
:04087400B8373ECD86
:04087500B8335B81B8
:04087600B82F9022E5
:04087700B82BDB13AC
:04087800B8283CE47C
:04087900B824B444A7
:04087A00B82140F968
:04087B00B81DE27A48
:04087C00B81A988D81
:04087D00B81761E067
:04087E00B8143E5F0D
:04087F00B8112DF689
:04088000B80E2FC6B9
:04088100B80B42CF9F
:04088200B80867BE8D
:04088300B8059CCA4E
:04088400B802E2EDE7
:04088500B80038AFD0
:04088600B7FB3BE998
:04088700B7F6259CFF
:04088800B7F12CB9DF
:04088900B7EC5093E5
:04088A00B7E78FBA83
:04088B00B7E2EAC125
:04088C00B7DE616D05
:04088D00B7D9F000E7
:04088E00B7D59A91AF
:04088F00B7D15D116F
:04089000B7CD379316
:04089100B7C929B406
:04089200B7C5331A99
:04089300B7C152BDDA
:04089400B7BD87A2C3
:04089500B7B9D22CF1
:04089600B7B632447B
:04089700B7B2A699B5
:04089800B7AF2E5177
:04089900B7ABC954DC
:04089A00B7A877691B
:04089B00B7A537D5F1
:04089C00B7A20AAE47
:04089D00B79EEF1201
:04089E00B79BE38998
:04089F00B798E9839A
:0408A000B795FFD435
:0408A100B79326B132
:0408A200B7905BFEB2
:0408A300B78DA1A5C7
:0408A400B78AF538E2
:0408A500B78856C7F3
:0408A600B785C7E566
:0408A700B78345B519
:0408A800B780D17ACA
:0408A900B77CD4FC48
:0408AA00B778219169
:0408AB00B773865841
:0408AC00B76F02C060
:0408AD00B76A98C1CD
:0408AE00B76645F1F3
:0408AF00B762092BF8
:0408B000B75DE31D30
:0408B100B759D33C24
:0408B200B755D83B23
:0408B300B751F33B0B
:0408B400B74E2164B6
:0408B500B74A64C416
:0408B600B746BAA6E1
:0408B700B743231A06
:0408B800B73F9FE4C3
:0408B900B73C2DD348
:0408BA00B738CCA9D6
:0408BB00B7357E4E81
:0408BC00B732411CF2
:0408BD00B72F13221C
:0408BE00B72BF66EF0
:0408BF00B728E8E48A
:0408C000B725EC1C50
:0408C100B722FDFB62
:0408C200B7201E89B4
:0408C300B71D4DD63A
:0408C400B71A8B26AE
:0408C500B717D74B3F
:0408C600B71530270B
:0408C700B7129614BA
:0408C800B7100993C9
:0408C900B70D88AD32
:0408CA00B70B15B99A
:0408CB00B708AE7745
:0408CC00B706531305
:0408CD00B704034A1F
:0408CE00B701BF238C
:0408CF00B6FF0BC89D
:0408D000B6FAAF764F
:0408D100B6F66964AA
:0408D200B6F237C77C
:0408D300B6EE1A1251
:0408D400B6EA10551B
:0408D500B6E61B3B2D
:0408D600B6E23860EE
:0408D700B6DE69A878
:0408D800B6DAACAD33
:0408D900B6D701C9C4
:0408DA00B6D3682108
:0408DB00B6CFE00DA7
:0408DC00B6CC68FE30
:0408DD00B6C9026630
:0408DE00B6C5AC4DA2
:0408DF00B6C265AC8C
:0408E000B6BF2FF47C
:0408E100B6BC07C9D1
:0408E200B6B8EFDADB
:0408E300B6B5E5E0E1
:0408E400B6B2EA823C
:0408E500B6AFFC911D
:0408E600B6AD1DC9C5
:0408E700B6AA4ACF94
:0408E800B6A7869C8D
:0408E900B6A4CE24BF
:0408EA00B6A222D4BC
:0408EB00B69F83A190
:0408EC00B69CF1596C
:0408ED00B69A6AC984
:0408EE00B697EFAB1F
:0408EF00B6957F93A8
:0408F000B6931B4B55
:0408F100B690C219E2
:0408F200B68E738DBE
:0408F300B68C2EC2CF
:0408F400B689F5E9E3
:0408F500B687C57D80
:0408F600B685A09A89
:0408F700B683845BE5
:0408F800B6817277DC
:0408F900B67ED3C52F
:0408FA00B67AD3BD3A
:0408FB00B676E57E6A
:0408FC00B6730A04C1
:0408FD00B66F406F23
:0408FE00B66B86F25D
:0408FF00B667DDE417
:00000001FF
