:04000000D34258236C
:04000100D33E995DF4
:04000200D33AF08A73
:04000300D3375D573B
:04000400D333DF26ED
:04000500D330752B54
:04000600D32D1EE9EF
:04000700D329DBE836
:04000800D326AC440B
:04000900D3238DF878
:04000A00D32081E599
:04000B00D31D87D9A1
:04000C00D31A9E90D5
:04000D00D317C55FE1
:04000E00D314FBC349
:04000F00D312429B2B
:04001000D30F98ED85
:04001100D30CFD47C8
:04001200D30A708815
:04001300D307F18896
:04001400D305808709
:04001500D3031D7282
:04001600D300C6FD50
:04001700D2FCFAC954
:04001800D2F87F4E4D
:04001900D2F41D8B75
:04001A00D2EFD3CE80
:04001B00D2EB9F2362
:04001C00D2E782772E
:04001D00D2E37C149A
:04001E00D2DF8ADCC7
:04001F00D2DBAEA8DA
:04002000D2D7E5B599
:04002100D2D431689C
:04002200D2D091D9CE
:04002300D2CD0287B1
:04002400D2C987E5D1
:04002500D2C61EF031
:04002600D2C2C7C8B3
:04002700D2BF80FFC5
:04002800D2BC4BE813
:04002900D2B92761C0
:04002A00D2B61248F0
:04002B00D2B30D4DF2
:04002C00D2B0170532
:04002D00D2AD2FD051
:04002E00D2AA57ED0E
:04002F00D2A78E5C6A
:04003000D2A4D2BDC7
:04003100D2A2240F24
:04003200D29F832AAC
:04003300D29CEFADBF
:04003400D29A68975D
:04003500D297EE1E52
:04003600D2957F6B75
:04003700D2931D0340
:04003800D290C60B91
:04003900D28E7AE207
:04003A00D28C3A38F2
:04003B00D28A05055B
:04003C00D287DA4647
:04003D00D285B9931C
:04003E00D283A3E9DD
:04003F00D28197547F
:04004000D27F29E75B
:04004100D27B3875C1
:04004200D27758E039
:04004300D2738BDF0A
:04004400D26FD18B1B
:04004500D26C27D280
:04004600D2688FB934
:04004700D26507CEA9
:04004800D2619027CA
:04004900D25E297BDF
:04004A00D25AD29F15
:04004B00D2578A6F8F
:04004C00D254519C9D
:04004D00D251270065
:04004E00D24E0B4A39
:04004F00D24AFDF2A2
:04005000D247FE692C
:04005100D2450B8AFF
:04005200D242273E31
:04005300D23F4F6EDB
:04005400D23C84799D
:04005500D239C623B3
:04005600D23713404A
:04005700D2346D67CB
:04005800D231D1963A
:04005900D22F433D22
:04005A00D22CBF0BDA
:04005B00D22A46E47B
:04005C00D227D900CE
:04005D00D22575191A
:04005E00D2231C2D60
:04005F00D220CD5B83
:04006000D21E894FD4
:04006100D21C4ED887
:04006200D21A1C781A
:04006300D217F46557
:04006400D215D6D10A
:04006500D213C0B240
:04006600D211B3EE12
:04006700D20FB03EC6
:04006800D20DB49D64
:04006900D20BC1FFF6
:04006A00D209D709D7
:04006B00D207F3A520
:04006C00D20619603F
:04006D00D20445A9CB
:04006E00D2027AD868
:04006F00D200B608FD
:04007000D1FDF46169
:04007100D1FA88D464
:04007200D1F72A6F29
:04007300D1F3DAC823
:04007400D1F099F23C
:04007500D1ED65D292
:04007600D1EA3FB8D4
:04007700D1E723FBAF
:04007800D1E41612A7
:04007900D1E1156C50
:04007A00D1DE208D26
:04007B00D1DB364A55
:04007C00D1D8583A45
:04007D00D1D585C98B
:04007E00D1D2BFA874
:04007F00D1D003BB1E
:04008000D1CD52A8E4
:04008100D1CAABE352
:04008200D1C8105F72
:04008300D1C57EF174
:04008400D1C2F840AD
:04008500D1C0794528
:04008600D1BE05BD25
:04008700D1BB9B8AC4
:04008800D1B93AB7F9
:04008900D1B6E43ECA
:04008A00D1B4942237
:04008B00D1B24F128D
:04008C00D1B012ECF1
:04008D00D1ADDE33E0
:04008E00D1ABB2261A
:04008F00D1A98F253F
:04009000D1A773FA87
:04009100D1A560FA9B
:04009200D1A354A8FA
:04009300D1A150E2C5
:04009400D19F55B5EE
:04009500D19D606039
:04009600D19B73B2D5
:04009700D1998D8CE2
:04009800D197AEE16D
:04009900D195D7190D
:04009A00D19405F206
:04009B00D1923BBB08
:04009C00D1907795F3
:04009D00D18EBB1035
:04009E00D18D03B944
:04009F00D18B53C4EA
:0400A000D189A9A9B0
:0400A100D1880521DC
:0400A200D186676E2E
:0400A300D184CF0C29
:0400A400D1833D3D8A
:0400A500D181B02D28
:0400A600D18028D00D
:0400A700D17D4EF3C6
:0400A800D17A57248E
:0400A900D17768B2F1
:0400AA00D174853454
:0400AB00D171ADA7BB
:0400AC00D16EDD69CB
:0400AD00D16C19CE2B
:0400AE00D1695ED8DE
:0400AF00D166AD3336
:0400B000D16406749D
:0400B100D16166EAC9
:0400B200D15ED2F851
:0400B300D15C469F37
:0400B400D159C32C2F
:0400B500D15747B325
:0400B600D154D70842
:0400B700D1526EB9FB
:0400B800D1500D49CD
:0400B900D14DB53040
:0400BA00D14B6408BA
:0400BB00D1491C9972
:0400BC00D146DBD876
:0400BD00D144A21B6D
:0400BE00D14270F6C5
:0400BF00D14047D015
:0400C000D13E257890
:0400C100D13C0A40E4
:0400C200D139F681B9
:0400C300D137E90741
:0400C400D135E3133C
:0400C500D133E45DF2
:0400C600D131EC9CAC
:0400C700D12FF91329
:0400C800D12E0EB374
:0400C900D12C284BC3
:0400CA00D12A4A7974
:0400CB00D12871E5E2
:0400CC00D1269FCECC
:0400CD00D124D30166
:0400CE00D1230DF637
:0400CF00D1214CB639
:0400D000D11F9209A1
:0400D100D11DDDF868
:0400D200D11C2E0F00
:0400D300D11A838E2D
:0400D400D118E05708
:0400D500D117406996
:0400D600D115A6E2B8
:0400D700D11412D856
:0400D800D1128315A9
:0400D900D110F8D872
:0400DA00D10F729E32
:0400DB00D10DF2430E
:0400DC00D10C76428B
:0400DD00D10AFF8BBA
:0400DE00D1098D387F
:0400DF00D1081F988D
:0400E000D106B66629
:0400E100D10551EF05
:0400E200D103F1ED68
:0400E300D10295C5EC
:0400E400D1013D7990
:0400E500D0FFD5D2A1
:0400E600D0FD3741D1
:0400E700D0FAA08328
:0400E800D0F81377C2
:0400E900D0F58D11B0
:0400EA00D0F30CB88B
:0400EB00D0F0993F79
:0400EC00D0EE2969C0
:0400ED00D0EBC23161
:0400EE00D0E96123D1
:0400EF00D0E708BC92
:0400F000D0E4B68C16
:0400F100D0E26E519A
:0400F200D0E02B1D12
:0400F300D0DDEE343A
:0400F400D0DBB8D7CE
:0400F500D0D98A6D67
:0400F600D0D763A15B
:0400F700D0D54159C6
:0400F800D0D3270436
:0400F900D0D111460B
:0400FA00D0CF033729
:0400FB00D0CCFA6506
:0400FC00D0CAF8FF6F
:0400FD00D0C8FD80EA
:0400FE00D0C706FF62
:0400FF00D0C517AAA7
:04010000D0C25823EE
:04010100D0BE995D76
:04010200D0BAF08AF5
:04010300D0B75D57BD
:04010400D0B3DF266F
:04010500D0B0752BD6
:04010600D0AD1EE971
:04010700D0A9DBE8B8
:04010800D0A6AC448D
:04010900D0A38DF8FA
:04010A00D0A081E51B
:04010B00D09D87D923
:04010C00D09A9E9057
:04010D00D097C55F63
:04010E00D094FBC3CB
:04010F00D092429BAD
:04011000D08F98ED07
:04011100D08CFD474A
:04011200D08A708897
:04011300D087F18818
:04011400D08580878B
:04011500D0831D7204
:04011600D080C6FDD2
:04011700D07CFAC9D5
:04011800D0787F4ECE
:04011900D0741D8BF6
:04011A00D06FD3CE01
:04011B00D06B9F23E3
:04011C00D0678277AF
:04011D00D0637C141B
:04011E00D05F8ADC48
:04011F00D05BAEA85B
:04012000D057E5B51A
:04012100D05431681D
:04012200D05091D94F
:04012300D04D028732
:04012400D04987E552
:04012500D0461EF0B2
:04012600D042C7C834
:04012700D03F80FF46
:04012800D03C4BE894
:04012900D039276141
:04012A00D036124871
:04012B00D0330D4D73
:04012C00D0301705B3
:04012D00D02D2FD0D2
:04012E00D02A57ED8F
:04012F00D0278E5CEB
:04013000D024D2BD48
:04013100D022240FA5
:04013200D01F832A2D
:04013300D01CEFAD40
:04013400D01A6897DE
:04013500D017EE1ED3
:04013600D0157F6BF6
:04013700D0131D03C1
:04013800D010C60B12
:04013900D00E7AE288
:04013A00D00C3A3873
:04013B00D00A0505DC
:04013C00D007DA46C8
:04013D00D005B9939D
:04013E00D003A3E95E
:04013F00D001975400
:04014000CFFF29E7DD
:04014100CFFB387543
:04014200CFF758E0BB
:04014300CFF38BDF8C
:04014400CFEFD18B9D
:04014500CFEC27D202
:04014600CFE88FB9B6
:04014700CFE507CE2B
:04014800CFE190274C
:04014900CFDE297B61
:04014A00CFDAD29F97
:04014B00CFD78A6F11
:04014C00CFD4519C1F
:04014D00CFD12700E7
:04014E00CFCE0B4ABB
:04014F00CFCAFDF224
:04015000CFC7FE69AE
:04015100CFC50B8A81
:04015200CFC2273EB3
:04015300CFBF4F6E5D
:04015400CFBC84791F
:04015500CFB9C62335
:04015600CFB71340CC
:04015700CFB46D674D
:04015800CFB1D196BC
:04015900CFAF433DA4
:04015A00CFACBF0B5C
:04015B00CFAA46E4FD
:04015C00CFA7D90050
:04015D00CFA575199C
:04015E00CFA31C2DE2
:04015F00CFA0CD5B05
:04016000CF9E894F56
:04016100CF9C4ED809
:04016200CF9A1C789C
:04016300CF97F465D9
:04016400CF95D6D18C
:04016500CF93C0B2C2
:04016600CF91B3EE94
:04016700CF8FB03E48
:04016800CF8DB49DE6
:04016900CF8BC1FF78
:04016A00CF89D70959
:04016B00CF87F3A5A2
:04016C00CF861960C1
:04016D00CF8445A94D
:04016E00CF827AD8EA
:04016F00CF80B6087F
:04017000CF7DF461EA
:04017100CF7A88D4E5
:04017200CF772A6FAA
:04017300CF73DAC8A4
:04017400CF7099F2BD
:04017500CF6D65D213
:04017600CF6A3FB855
:04017700CF6723FB30
:04017800CF64161228
:04017900CF61156CD1
:04017A00CF5E208DA7
:04017B00CF5B364AD6
:04017C00CF58583AC6
:04017D00CF5585C90C
:04017E00CF52BFA8F5
:04017F00CF5003BB9F
:04018000CF4D52A865
:04018100CF4AABE3D3
:04018200CF48105FF3
:04018300CF457EF1F5
:04018400CF42F8402E
:04018500CF407945A9
:04018600CF3E05BDA6
:04018700CF3B9B8A45
:04018800CF393AB77A
:04018900CF36E43E4B
:04018A00CF349422B8
:04018B00CF324F120E
:04018C00CF3012EC72
:04018D00CF2DDE3361
:04018E00CF2BB2269B
:04018F00CF298F25C0
:04019000CF2773FA08
:04019100CF2560FA1C
:04019200CF2354A87B
:04019300CF2150E246
:04019400CF1F55B56F
:04019500CF1D6060BA
:04019600CF1B73B256
:04019700CF198D8C63
:04019800CF17AEE1EE
:04019900CF15D7198E
:04019A00CF1405F287
:04019B00CF123BBB89
:04019C00CF10779574
:04019D00CF0EBB10B6
:04019E00CF0D03B9C5
:04019F00CF0B53C46B
:0401A000CF09A9A931
:0401A100CF0805215D
:0401A200CF06676EAF
:0401A300CF04CF0CAA
:0401A400CF033D3D0B
:0401A500CF01B02DA9
:0401A600CF0028D08E
:0401A700CEFD4EF348
:0401A800CEFA572410
:0401A900CEF768B273
:0401AA00CEF48534D6
:0401AB00CEF1ADA73D
:0401AC00CEEEDD694D
:0401AD00CEEC19CEAD
:0401AE00CEE95ED860
:0401AF00CEE6AD33B8
:0401B000CEE406741F
:0401B100CEE166EA4B
:0401B200CEDED2F8D3
:0401B300CEDC469FB9
:0401B400CED9C32CB1
:0401B500CED747B3A7
:0401B600CED4D708C4
:0401B700CED26EB97D
:0401B800CED00D494F
:0401B900CECDB530C2
:0401BA00CECB64083C
:0401BB00CEC91C99F4
:0401BC00CEC6DBD8F8
:0401BD00CEC4A21BEF
:0401BE00CEC270F647
:0401BF00CEC047D097
:0401C000CEBE257812
:0401C100CEBC0A4066
:0401C200CEB9F6813B
:0401C300CEB7E907C3
:0401C400CEB5E313BE
:0401C500CEB3E45D74
:0401C600CEB1EC9C2E
:0401C700CEAFF913AB
:0401C800CEAE0EB3F6
:0401C900CEAC284B45
:0401CA00CEAA4A79F6
:0401CB00CEA871E564
:0401CC00CEA69FCE4E
:0401CD00CEA4D301E8
:0401CE00CEA30DF6B9
:0401CF00CEA14CB6BB
:0401D000CE9F920923
:0401D100CE9DDDF8EA
:0401D200CE9C2E0F82
:0401D300CE9A838EAF
:0401D400CE98E0578A
:0401D500CE97406918
:0401D600CE95A6E23A
:0401D700CE9412D8D8
:0401D800CE9283152B
:0401D900CE90F8D8F4
:0401DA00CE8F729EB4
:0401DB00CE8DF24390
:0401DC00CE8C76420D
:0401DD00CE8AFF8B3C
:0401DE00CE898D3801
:0401DF00CE881F980F
:0401E000CE86B666AB
:0401E100CE8551EF87
:0401E200CE83F1EDEA
:0401E300CE8295C56E
:0401E400CE813D7912
:0401E500CE7FD5D222
:0401E600CE7D374152
:0401E700CE7AA083A9
:0401E800CE78137743
:0401E900CE758D1131
:0401EA00CE730CB80C
:0401EB00CE70993FFA
:0401EC00CE6E296941
:0401ED00CE6BC231E2
:0401EE00CE69612352
:0401EF00CE6708BC13
:0401F000CE64B68C97
:0401F100CE626E511B
:0401F200CE602B1D93
:0401F300CE5DEE34BB
:0401F400CE5BB8D74F
:0401F500CE598A6DE8
:0401F600CE5763A1DC
:0401F700CE55415947
:0401F800CE532704B7
:0401F900CE5111468C
:0401FA00CE4F0337AA
:0401FB00CE4CFA6587
:0401FC00CE4AF8FFF0
:0401FD00CE48FD806B
:0401FE00CE4706FFE3
:0401FF00CE4517AA28
:04020000CE4258236F
:04020100CE3E995DF7
:04020200CE3AF08A76
:04020300CE375D573E
:04020400CE33DF26F0
:04020500CE30752B57
:04020600CE2D1EE9F2
:04020700CE29DBE839
:04020800CE26AC440E
:04020900CE238DF87B
:04020A00CE2081E59C
:04020B00CE1D87D9A4
:04020C00CE1A9E90D8
:04020D00CE17C55FE4
:04020E00CE14FBC34C
:04020F00CE12429B2E
:04021000CE0F98ED88
:04021100CE0CFD47CB
:04021200CE0A708818
:04021300CE07F18899
:04021400CE0580870C
:04021500CE031D7285
:04021600CE00C6FD53
:04021700CDFCFAC957
:04021800CDF87F4E50
:04021900CDF41D8B78
:04021A00CDEFD3CE83
:04021B00CDEB9F2365
:04021C00CDE7827731
:04021D00CDE37C149D
:04021E00CDDF8ADCCA
:04021F00CDDBAEA8DD
:04022000CDD7E5B59C
:04022100CDD431689F
:04022200CDD091D9D1
:04022300CDCD0287B4
:04022400CDC987E5D4
:04022500CDC61EF034
:04022600CDC2C7C8B6
:04022700CDBF80FFC8
:04022800CDBC4BE816
:04022900CDB92761C3
:04022A00CDB61248F3
:04022B00CDB30D4DF5
:04022C00CDB0170535
:04022D00CDAD2FD054
:04022E00CDAA57ED11
:04022F00CDA78E5C6D
:04023000CDA4D2BDCA
:04023100CDA2240F27
:04023200CD9F832AAF
:04023300CD9CEFADC2
:04023400CD9A689760
:04023500CD97EE1E55
:04023600CD957F6B78
:04023700CD931D0343
:04023800CD90C60B94
:04023900CD8E7AE20A
:04023A00CD8C3A38F5
:04023B00CD8A05055E
:04023C00CD87DA464A
:04023D00CD85B9931F
:04023E00CD83A3E9E0
:04023F00CD81975482
:04024000CD7F29E75E
:04024100CD7B3875C4
:04024200CD7758E03C
:04024300CD738BDF0D
:04024400CD6FD18B1E
:04024500CD6C27D283
:04024600CD688FB937
:04024700CD6507CEAC
:04024800CD619027CD
:04024900CD5E297BE2
:04024A00CD5AD29F18
:04024B00CD578A6F92
:04024C00CD54519CA0
:04024D00CD51270068
:04024E00CD4E0B4A3C
:04024F00CD4AFDF2A5
:04025000CD47FE692F
:04025100CD450B8A02
:04025200CD42273E34
:04025300CD3F4F6EDE
:04025400CD3C8479A0
:04025500CD39C623B6
:04025600CD3713404D
:04025700CD346D67CE
:04025800CD31D1963D
:04025900CD2F433D25
:04025A00CD2CBF0BDD
:04025B00CD2A46E47E
:04025C00CD27D900D1
:04025D00CD2575191D
:04025E00CD231C2D63
:04025F00CD20CD5B86
:04026000CD1E894FD7
:04026100CD1C4ED88A
:04026200CD1A1C781D
:04026300CD17F4655A
:04026400CD15D6D10D
:04026500CD13C0B243
:04026600CD11B3EE15
:04026700CD0FB03EC9
:04026800CD0DB49D67
:04026900CD0BC1FFF9
:04026A00CD09D709DA
:04026B00CD07F3A523
:04026C00CD06196042
:04026D00CD0445A9CE
:04026E00CD027AD86B
:04026F00CD00B60800
:04027000CCFDF4616C
:04027100CCFA88D467
:04027200CCF72A6F2C
:04027300CCF3DAC826
:04027400CCF099F23F
:04027500CCED65D295
:04027600CCEA3FB8D7
:04027700CCE723FBB2
:04027800CCE41612AA
:04027900CCE1156C53
:04027A00CCDE208D29
:04027B00CCDB364A58
:04027C00CCD8583A48
:04027D00CCD585C98E
:04027E00CCD2BFA877
:04027F00CCD003BB21
:04028000CCCD52A8E7
:04028100CCCAABE355
:04028200CCC8105F75
:04028300CCC57EF177
:04028400CCC2F840B0
:04028500CCC079452B
:04028600CCBE05BD28
:04028700CCBB9B8AC7
:04028800CCB93AB7FC
:04028900CCB6E43ECD
:04028A00CCB494223A
:04028B00CCB24F1290
:04028C00CCB012ECF4
:04028D00CCADDE33E3
:04028E00CCABB2261D
:04028F00CCA98F2542
:04029000CCA773FA8A
:04029100CCA560FA9E
:04029200CCA354A8FD
:04029300CCA150E2C8
:04029400CC9F55B5F1
:04029500CC9D60603C
:04029600CC9B73B2D8
:04029700CC998D8CE5
:04029800CC97AEE170
:04029900CC95D71910
:04029A00CC9405F209
:04029B00CC923BBB0B
:04029C00CC907795F6
:04029D00CC8EBB1038
:04029E00CC8D03B947
:04029F00CC8B53C4ED
:0402A000CC89A9A9B3
:0402A100CC880521DF
:0402A200CC86676E31
:0402A300CC84CF0C2C
:0402A400CC833D3D8D
:0402A500CC81B02D2B
:0402A600CC8028D010
:0402A700CC7D4EF3C9
:0402A800CC7A572491
:0402A900CC7768B2F4
:0402AA00CC74853457
:0402AB00CC71ADA7BE
:0402AC00CC6EDD69CE
:0402AD00CC6C19CE2E
:0402AE00CC695ED8E1
:0402AF00CC66AD3339
:0402B000CC640674A0
:0402B100CC6166EACC
:0402B200CC5ED2F854
:0402B300CC5C469F3A
:0402B400CC59C32C32
:0402B500CC5747B328
:0402B600CC54D70845
:0402B700CC526EB9FE
:0402B800CC500D49D0
:0402B900CC4DB53043
:0402BA00CC4B6408BD
:0402BB00CC491C9975
:0402BC00CC46DBD879
:0402BD00CC44A21B70
:0402BE00CC4270F6C8
:0402BF00CC4047D018
:0402C000CC3E257893
:0402C100CC3C0A40E7
:0402C200CC39F681BC
:0402C300CC37E90744
:0402C400CC35E3133F
:0402C500CC33E45DF5
:0402C600CC31EC9CAF
:0402C700CC2FF9132C
:0402C800CC2E0EB377
:0402C900CC2C284BC6
:0402CA00CC2A4A7977
:0402CB00CC2871E5E5
:0402CC00CC269FCECF
:0402CD00CC24D30169
:0402CE00CC230DF63A
:0402CF00CC214CB63C
:0402D000CC1F9209A4
:0402D100CC1DDDF86B
:0402D200CC1C2E0F03
:0402D300CC1A838E30
:0402D400CC18E0570B
:0402D500CC17406999
:0402D600CC15A6E2BB
:0402D700CC1412D859
:0402D800CC128315AC
:0402D900CC10F8D875
:0402DA00CC0F729E35
:0402DB00CC0DF24311
:0402DC00CC0C76428E
:0402DD00CC0AFF8BBD
:0402DE00CC098D3882
:0402DF00CC081F9890
:0402E000CC06B6662C
:0402E100CC0551EF08
:0402E200CC03F1ED6B
:0402E300CC0295C5EF
:0402E400CC013D7993
:0402E500CBFFD5D2A4
:0402E600CBFD3741D4
:0402E700CBFAA0832B
:0402E800CBF81377C5
:0402E900CBF58D11B3
:0402EA00CBF30CB88E
:0402EB00CBF0993F7C
:0402EC00CBEE2969C3
:0402ED00CBEBC23164
:0402EE00CBE96123D4
:0402EF00CBE708BC95
:0402F000CBE4B68C19
:0402F100CBE26E519D
:0402F200CBE02B1D15
:0402F300CBDDEE343D
:0402F400CBDBB8D7D1
:0402F500CBD98A6D6A
:0402F600CBD763A15E
:0402F700CBD54159C9
:0402F800CBD3270439
:0402F900CBD111460E
:0402FA00CBCF03372C
:0402FB00CBCCFA6509
:0402FC00CBCAF8FF72
:0402FD00CBC8FD80ED
:0402FE00CBC706FF65
:0402FF00CBC517AAAA
:04030000CBC25823F1
:04030100CBBE995D79
:04030200CBBAF08AF8
:04030300CBB75D57C0
:04030400CBB3DF2672
:04030500CBB0752BD9
:04030600CBAD1EE974
:04030700CBA9DBE8BB
:04030800CBA6AC4490
:04030900CBA38DF8FD
:04030A00CBA081E51E
:04030B00CB9D87D926
:04030C00CB9A9E905A
:04030D00CB97C55F66
:04030E00CB94FBC3CE
:04030F00CB92429BB0
:04031000CB8F98ED0A
:04031100CB8CFD474D
:04031200CB8A70889A
:04031300CB87F1881B
:04031400CB8580878E
:04031500CB831D7207
:04031600CB80C6FDD5
:04031700CB7CFAC9D8
:04031800CB787F4ED1
:04031900CB741D8BF9
:04031A00CB6FD3CE04
:04031B00CB6B9F23E6
:04031C00CB678277B2
:04031D00CB637C141E
:04031E00CB5F8ADC4B
:04031F00CB5BAEA85E
:04032000CB57E5B51D
:04032100CB54316820
:04032200CB5091D952
:04032300CB4D028735
:04032400CB4987E555
:04032500CB461EF0B5
:04032600CB42C7C837
:04032700CB3F80FF49
:04032800CB3C4BE897
:04032900CB39276144
:04032A00CB36124874
:04032B00CB330D4D76
:04032C00CB301705B6
:04032D00CB2D2FD0D5
:04032E00CB2A57ED92
:04032F00CB278E5CEE
:04033000CB24D2BD4B
:04033100CB22240FA8
:04033200CB1F832A30
:04033300CB1CEFAD43
:04033400CB1A6897E1
:04033500CB17EE1ED6
:04033600CB157F6BF9
:04033700CB131D03C4
:04033800CB10C60B15
:04033900CB0E7AE28B
:04033A00CB0C3A3876
:04033B00CB0A0505DF
:04033C00CB07DA46CB
:04033D00CB05B993A0
:04033E00CB03A3E961
:04033F00CB01975403
:04034000CAFF29E7E0
:04034100CAFB387546
:04034200CAF758E0BE
:04034300CAF38BDF8F
:04034400CAEFD18BA0
:04034500CAEC27D205
:04034600CAE88FB9B9
:04034700CAE507CE2E
:04034800CAE190274F
:04034900CADE297B64
:04034A00CADAD29F9A
:04034B00CAD78A6F14
:04034C00CAD4519C22
:04034D00CAD12700EA
:04034E00CACE0B4ABE
:04034F00CACAFDF227
:04035000CAC7FE69B1
:04035100CAC50B8A84
:04035200CAC2273EB6
:04035300CABF4F6E60
:04035400CABC847922
:04035500CAB9C62338
:04035600CAB71340CF
:04035700CAB46D6750
:04035800CAB1D196BF
:04035900CAAF433DA7
:04035A00CAACBF0B5F
:04035B00CAAA46E400
:04035C00CAA7D90053
:04035D00CAA575199F
:04035E00CAA31C2DE5
:04035F00CAA0CD5B08
:04036000CA9E894F59
:04036100CA9C4ED80C
:04036200CA9A1C789F
:04036300CA97F465DC
:04036400CA95D6D18F
:04036500CA93C0B2C5
:04036600CA91B3EE97
:04036700CA8FB03E4B
:04036800CA8DB49DE9
:04036900CA8BC1FF7B
:04036A00CA89D7095C
:04036B00CA87F3A5A5
:04036C00CA861960C4
:04036D00CA8445A950
:04036E00CA827AD8ED
:04036F00CA80B60882
:04037000CA7DF461ED
:04037100CA7A88D4E8
:04037200CA772A6FAD
:04037300CA73DAC8A7
:04037400CA7099F2C0
:04037500CA6D65D216
:04037600CA6A3FB858
:04037700CA6723FB33
:04037800CA6416122B
:04037900CA61156CD4
:04037A00CA5E208DAA
:04037B00CA5B364AD9
:04037C00CA58583AC9
:04037D00CA5585C90F
:04037E00CA52BFA8F8
:04037F00CA5003BBA2
:04038000CA4D52A868
:04038100CA4AABE3D6
:04038200CA48105FF6
:04038300CA457EF1F8
:04038400CA42F84031
:04038500CA407945AC
:04038600CA3E05BDA9
:04038700CA3B9B8A48
:04038800CA393AB77D
:04038900CA36E43E4E
:04038A00CA349422BB
:04038B00CA324F1211
:04038C00CA3012EC75
:04038D00CA2DDE3364
:04038E00CA2BB2269E
:04038F00CA298F25C3
:04039000CA2773FA0B
:04039100CA2560FA1F
:04039200CA2354A87E
:04039300CA2150E249
:04039400CA1F55B572
:04039500CA1D6060BD
:04039600CA1B73B259
:04039700CA198D8C66
:04039800CA17AEE1F1
:04039900CA15D71991
:04039A00CA1405F28A
:04039B00CA123BBB8C
:04039C00CA10779577
:04039D00CA0EBB10B9
:04039E00CA0D03B9C8
:04039F00CA0B53C46E
:0403A000CA09A9A934
:0403A100CA08052160
:0403A200CA06676EB2
:0403A300CA04CF0CAD
:0403A400CA033D3D0E
:0403A500CA01B02DAC
:0403A600CA0028D091
:0403A700C9FD4EF34B
:0403A800C9FA572413
:0403A900C9F768B276
:0403AA00C9F48534D9
:0403AB00C9F1ADA740
:0403AC00C9EEDD6950
:0403AD00C9EC19CEB0
:0403AE00C9E95ED863
:0403AF00C9E6AD33BB
:0403B000C9E4067422
:0403B100C9E166EA4E
:0403B200C9DED2F8D6
:0403B300C9DC469FBC
:0403B400C9D9C32CB4
:0403B500C9D747B3AA
:0403B600C9D4D708C7
:0403B700C9D26EB980
:0403B800C9D00D4952
:0403B900C9CDB530C5
:0403BA00C9CB64083F
:0403BB00C9C91C99F7
:0403BC00C9C6DBD8FB
:0403BD00C9C4A21BF2
:0403BE00C9C270F64A
:0403BF00C9C047D09A
:0403C000C9BE257815
:0403C100C9BC0A4069
:0403C200C9B9F6813E
:0403C300C9B7E907C6
:0403C400C9B5E313C1
:0403C500C9B3E45D77
:0403C600C9B1EC9C31
:0403C700C9AFF913AE
:0403C800C9AE0EB3F9
:0403C900C9AC284B48
:0403CA00C9AA4A79F9
:0403CB00C9A871E567
:0403CC00C9A69FCE51
:0403CD00C9A4D301EB
:0403CE00C9A30DF6BC
:0403CF00C9A14CB6BE
:0403D000C99F920926
:0403D100C99DDDF8ED
:0403D200C99C2E0F85
:0403D300C99A838EB2
:0403D400C998E0578D
:0403D500C99740691B
:0403D600C995A6E23D
:0403D700C99412D8DB
:0403D800C99283152E
:0403D900C990F8D8F7
:0403DA00C98F729EB7
:0403DB00C98DF24393
:0403DC00C98C764210
:0403DD00C98AFF8B3F
:0403DE00C9898D3804
:0403DF00C9881F9812
:0403E000C986B666AE
:0403E100C98551EF8A
:0403E200C983F1EDED
:0403E300C98295C571
:0403E400C9813D7915
:0403E500C97FD5D225
:0403E600C97D374155
:0403E700C97AA083AC
:0403E800C978137746
:0403E900C9758D1134
:0403EA00C9730CB80F
:0403EB00C970993FFD
:0403EC00C96E296944
:0403ED00C96BC231E5
:0403EE00C969612355
:0403EF00C96708BC16
:0403F000C964B68C9A
:0403F100C9626E511E
:0403F200C9602B1D96
:0403F300C95DEE34BE
:0403F400C95BB8D752
:0403F500C9598A6DEB
:0403F600C95763A1DF
:0403F700C95541594A
:0403F800C9532704BA
:0403F900C95111468F
:0403FA00C94F0337AD
:0403FB00C94CFA658A
:0403FC00C94AF8FFF3
:0403FD00C948FD806E
:0403FE00C94706FFE6
:0403FF00C94517AA2B
:04040000C942582372
:04040100C93E995DFA
:04040200C93AF08A79
:04040300C9375D5741
:04040400C933DF26F3
:04040500C930752B5A
:04040600C92D1EE9F5
:04040700C929DBE83C
:04040800C926AC4411
:04040900C9238DF87E
:04040A00C92081E59F
:04040B00C91D87D9A7
:04040C00C91A9E90DB
:04040D00C917C55FE7
:04040E00C914FBC34F
:04040F00C912429B31
:04041000C90F98ED8B
:04041100C90CFD47CE
:04041200C90A70881B
:04041300C907F1889C
:04041400C90580870F
:04041500C9031D7288
:04041600C900C6FD56
:04041700C8FCFAC95A
:04041800C8F87F4E53
:04041900C8F41D8B7B
:04041A00C8EFD3CE86
:04041B00C8EB9F2368
:04041C00C8E7827734
:04041D00C8E37C14A0
:04041E00C8DF8ADCCD
:04041F00C8DBAEA8E0
:04042000C8D7E5B59F
:04042100C8D43168A2
:04042200C8D091D9D4
:04042300C8CD0287B7
:04042400C8C987E5D7
:04042500C8C61EF037
:04042600C8C2C7C8B9
:04042700C8BF80FFCB
:04042800C8BC4BE819
:04042900C8B92761C6
:04042A00C8B61248F6
:04042B00C8B30D4DF8
:04042C00C8B0170538
:04042D00C8AD2FD057
:04042E00C8AA57ED14
:04042F00C8A78E5C70
:04043000C8A4D2BDCD
:04043100C8A2240F2A
:04043200C89F832AB2
:04043300C89CEFADC5
:04043400C89A689763
:04043500C897EE1E58
:04043600C8957F6B7B
:04043700C8931D0346
:04043800C890C60B97
:04043900C88E7AE20D
:04043A00C88C3A38F8
:04043B00C88A050561
:04043C00C887DA464D
:04043D00C885B99322
:04043E00C883A3E9E3
:04043F00C881975485
:04044000C87F29E761
:04044100C87B3875C7
:04044200C87758E03F
:04044300C8738BDF10
:04044400C86FD18B21
:04044500C86C27D286
:04044600C8688FB93A
:04044700C86507CEAF
:04044800C8619027D0
:04044900C85E297BE5
:04044A00C85AD29F1B
:04044B00C8578A6F95
:04044C00C854519CA3
:04044D00C85127006B
:04044E00C84E0B4A3F
:04044F00C84AFDF2A8
:04045000C847FE6932
:04045100C8450B8A05
:04045200C842273E37
:04045300C83F4F6EE1
:04045400C83C8479A3
:04045500C839C623B9
:04045600C837134050
:04045700C8346D67D1
:04045800C831D19640
:04045900C82F433D28
:04045A00C82CBF0BE0
:04045B00C82A46E481
:04045C00C827D900D4
:04045D00C825751920
:04045E00C8231C2D66
:04045F00C820CD5B89
:04046000C81E894FDA
:04046100C81C4ED88D
:04046200C81A1C7820
:04046300C817F4655D
:04046400C815D6D110
:04046500C813C0B246
:04046600C811B3EE18
:04046700C80FB03ECC
:04046800C80DB49D6A
:04046900C80BC1FFFC
:04046A00C809D709DD
:04046B00C807F3A526
:04046C00C806196045
:04046D00C80445A9D1
:04046E00C8027AD86E
:04046F00C800B60803
:04047000C7FDF4616F
:04047100C7FA88D46A
:04047200C7F72A6F2F
:04047300C7F3DAC829
:04047400C7F099F242
:04047500C7ED65D298
:04047600C7EA3FB8DA
:04047700C7E723FBB5
:04047800C7E41612AD
:04047900C7E1156C56
:04047A00C7DE208D2C
:04047B00C7DB364A5B
:04047C00C7D8583A4B
:04047D00C7D585C991
:04047E00C7D2BFA87A
:04047F00C7D003BB24
:04048000C7CD52A8EA
:04048100C7CAABE358
:04048200C7C8105F78
:04048300C7C57EF17A
:04048400C7C2F840B3
:04048500C7C079452E
:04048600C7BE05BD2B
:04048700C7BB9B8ACA
:04048800C7B93AB7FF
:04048900C7B6E43ED0
:04048A00C7B494223D
:04048B00C7B24F1293
:04048C00C7B012ECF7
:04048D00C7ADDE33E6
:04048E00C7ABB22620
:04048F00C7A98F2545
:04049000C7A773FA8D
:04049100C7A560FAA1
:04049200C7A354A800
:04049300C7A150E2CB
:04049400C79F55B5F4
:04049500C79D60603F
:04049600C79B73B2DB
:04049700C7998D8CE8
:04049800C797AEE173
:04049900C795D71913
:04049A00C79405F20C
:04049B00C7923BBB0E
:04049C00C7907795F9
:04049D00C78EBB103B
:04049E00C78D03B94A
:04049F00C78B53C4F0
:0404A000C789A9A9B6
:0404A100C7880521E2
:0404A200C786676E34
:0404A300C784CF0C2F
:0404A400C7833D3D90
:0404A500C781B02D2E
:0404A600C78028D013
:0404A700C77D4EF3CC
:0404A800C77A572494
:0404A900C77768B2F7
:0404AA00C77485345A
:0404AB00C771ADA7C1
:0404AC00C76EDD69D1
:0404AD00C76C19CE31
:0404AE00C7695ED8E4
:0404AF00C766AD333C
:0404B000C7640674A3
:0404B100C76166EACF
:0404B200C75ED2F857
:0404B300C75C469F3D
:0404B400C759C32C35
:0404B500C75747B32B
:0404B600C754D70848
:0404B700C7526EB901
:0404B800C7500D49D3
:0404B900C74DB53046
:0404BA00C74B6408C0
:0404BB00C7491C9978
:0404BC00C746DBD87C
:0404BD00C744A21B73
:0404BE00C74270F6CB
:0404BF00C74047D01B
:0404C000C73E257896
:0404C100C73C0A40EA
:0404C200C739F681BF
:0404C300C737E90747
:0404C400C735E31342
:0404C500C733E45DF8
:0404C600C731EC9CB2
:0404C700C72FF9132F
:0404C800C72E0EB37A
:0404C900C72C284BC9
:0404CA00C72A4A797A
:0404CB00C72871E5E8
:0404CC00C7269FCED2
:0404CD00C724D3016C
:0404CE00C7230DF63D
:0404CF00C7214CB63F
:0404D000C71F9209A7
:0404D100C71DDDF86E
:0404D200C71C2E0F06
:0404D300C71A838E33
:0404D400C718E0570E
:0404D500C71740699C
:0404D600C715A6E2BE
:0404D700C71412D85C
:0404D800C7128315AF
:0404D900C710F8D878
:0404DA00C70F729E38
:0404DB00C70DF24314
:0404DC00C70C764291
:0404DD00C70AFF8BC0
:0404DE00C7098D3885
:0404DF00C7081F9893
:0404E000C706B6662F
:0404E100C70551EF0B
:0404E200C703F1ED6E
:0404E300C70295C5F2
:0404E400C7013D7996
:0404E500C6FFD5D2A7
:0404E600C6FD3741D7
:0404E700C6FAA0832E
:0404E800C6F81377C8
:0404E900C6F58D11B6
:0404EA00C6F30CB891
:0404EB00C6F0993F7F
:0404EC00C6EE2969C6
:0404ED00C6EBC23167
:0404EE00C6E96123D7
:0404EF00C6E708BC98
:0404F000C6E4B68C1C
:0404F100C6E26E51A0
:0404F200C6E02B1D18
:0404F300C6DDEE3440
:0404F400C6DBB8D7D4
:0404F500C6D98A6D6D
:0404F600C6D763A161
:0404F700C6D54159CC
:0404F800C6D327043C
:0404F900C6D1114611
:0404FA00C6CF03372F
:0404FB00C6CCFA650C
:0404FC00C6CAF8FF75
:0404FD00C6C8FD80F0
:0404FE00C6C706FF68
:0404FF00C6C517AAAD
:04050000C6C25823F4
:04050100C6BE995D7C
:04050200C6BAF08AFB
:04050300C6B75D57C3
:04050400C6B3DF2675
:04050500C6B0752BDC
:04050600C6AD1EE977
:04050700C6A9DBE8BE
:04050800C6A6AC4493
:04050900C6A38DF800
:04050A00C6A081E521
:04050B00C69D87D929
:04050C00C69A9E905D
:04050D00C697C55F69
:04050E00C694FBC3D1
:04050F00C692429BB3
:04051000C68F98ED0D
:04051100C68CFD4750
:04051200C68A70889D
:04051300C687F1881E
:04051400C685808791
:04051500C6831D720A
:04051600C680C6FDD8
:04051700C67CFAC9DB
:04051800C6787F4ED4
:04051900C6741D8BFC
:04051A00C66FD3CE07
:04051B00C66B9F23E9
:04051C00C6678277B5
:04051D00C6637C1421
:04051E00C65F8ADC4E
:04051F00C65BAEA861
:04052000C657E5B520
:04052100C654316823
:04052200C65091D955
:04052300C64D028738
:04052400C64987E558
:04052500C6461EF0B8
:04052600C642C7C83A
:04052700C63F80FF4C
:04052800C63C4BE89A
:04052900C639276147
:04052A00C636124877
:04052B00C6330D4D79
:04052C00C6301705B9
:04052D00C62D2FD0D8
:04052E00C62A57ED95
:04052F00C6278E5CF1
:04053000C624D2BD4E
:04053100C622240FAB
:04053200C61F832A33
:04053300C61CEFAD46
:04053400C61A6897E4
:04053500C617EE1ED9
:04053600C6157F6BFC
:04053700C6131D03C7
:04053800C610C60B18
:04053900C60E7AE28E
:04053A00C60C3A3879
:04053B00C60A0505E2
:04053C00C607DA46CE
:04053D00C605B993A3
:04053E00C603A3E964
:04053F00C601975406
:04054000C5FF29E7E3
:04054100C5FB387549
:04054200C5F758E0C1
:04054300C5F38BDF92
:04054400C5EFD18BA3
:04054500C5EC27D208
:04054600C5E88FB9BC
:04054700C5E507CE31
:04054800C5E1902752
:04054900C5DE297B67
:04054A00C5DAD29F9D
:04054B00C5D78A6F17
:04054C00C5D4519C25
:04054D00C5D12700ED
:04054E00C5CE0B4AC1
:04054F00C5CAFDF22A
:04055000C5C7FE69B4
:04055100C5C50B8A87
:04055200C5C2273EB9
:04055300C5BF4F6E63
:04055400C5BC847925
:04055500C5B9C6233B
:04055600C5B71340D2
:04055700C5B46D6753
:04055800C5B1D196C2
:04055900C5AF433DAA
:04055A00C5ACBF0B62
:04055B00C5AA46E403
:04055C00C5A7D90056
:04055D00C5A57519A2
:04055E00C5A31C2DE8
:04055F00C5A0CD5B0B
:04056000C59E894F5C
:04056100C59C4ED80F
:04056200C59A1C78A2
:04056300C597F465DF
:04056400C595D6D192
:04056500C593C0B2C8
:04056600C591B3EE9A
:04056700C58FB03E4E
:04056800C58DB49DEC
:04056900C58BC1FF7E
:04056A00C589D7095F
:04056B00C587F3A5A8
:04056C00C5861960C7
:04056D00C58445A953
:04056E00C5827AD8F0
:04056F00C580B60885
:04057000C57DF461F0
:04057100C57A88D4EB
:04057200C5772A6FB0
:04057300C573DAC8AA
:04057400C57099F2C3
:04057500C56D65D219
:04057600C56A3FB85B
:04057700C56723FB36
:04057800C56416122E
:04057900C561156CD7
:04057A00C55E208DAD
:04057B00C55B364ADC
:04057C00C558583ACC
:04057D00C55585C912
:04057E00C552BFA8FB
:04057F00C55003BBA5
:04058000C54D52A86B
:04058100C54AABE3D9
:04058200C548105FF9
:04058300C5457EF1FB
:04058400C542F84034
:04058500C5407945AF
:04058600C53E05BDAC
:04058700C53B9B8A4B
:04058800C5393AB780
:04058900C536E43E51
:04058A00C5349422BE
:04058B00C5324F1214
:04058C00C53012EC78
:04058D00C52DDE3367
:04058E00C52BB226A1
:04058F00C5298F25C6
:04059000C52773FA0E
:04059100C52560FA22
:04059200C52354A881
:04059300C52150E24C
:04059400C51F55B575
:04059500C51D6060C0
:04059600C51B73B25C
:04059700C5198D8C69
:04059800C517AEE1F4
:04059900C515D71994
:04059A00C51405F28D
:04059B00C5123BBB8F
:04059C00C51077957A
:04059D00C50EBB10BC
:04059E00C50D03B9CB
:04059F00C50B53C471
:0405A000C509A9A937
:0405A100C508052163
:0405A200C506676EB5
:0405A300C504CF0CB0
:0405A400C5033D3D11
:0405A500C501B02DAF
:0405A600C50028D094
:0405A700C4FD4EF34E
:0405A800C4FA572416
:0405A900C4F768B279
:0405AA00C4F48534DC
:0405AB00C4F1ADA743
:0405AC00C4EEDD6953
:0405AD00C4EC19CEB3
:0405AE00C4E95ED866
:0405AF00C4E6AD33BE
:0405B000C4E4067425
:0405B100C4E166EA51
:0405B200C4DED2F8D9
:0405B300C4DC469FBF
:0405B400C4D9C32CB7
:0405B500C4D747B3AD
:0405B600C4D4D708CA
:0405B700C4D26EB983
:0405B800C4D00D4955
:0405B900C4CDB530C8
:0405BA00C4CB640842
:0405BB00C4C91C99FA
:0405BC00C4C6DBD8FE
:0405BD00C4C4A21BF5
:0405BE00C4C270F64D
:0405BF00C4C047D09D
:0405C000C4BE257818
:0405C100C4BC0A406C
:0405C200C4B9F68141
:0405C300C4B7E907C9
:0405C400C4B5E313C4
:0405C500C4B3E45D7A
:0405C600C4B1EC9C34
:0405C700C4AFF913B1
:0405C800C4AE0EB3FC
:0405C900C4AC284B4B
:0405CA00C4AA4A79FC
:0405CB00C4A871E56A
:0405CC00C4A69FCE54
:0405CD00C4A4D301EE
:0405CE00C4A30DF6BF
:0405CF00C4A14CB6C1
:0405D000C49F920929
:0405D100C49DDDF8F0
:0405D200C49C2E0F88
:0405D300C49A838EB5
:0405D400C498E05790
:0405D500C49740691E
:0405D600C495A6E240
:0405D700C49412D8DE
:0405D800C492831531
:0405D900C490F8D8FA
:0405DA00C48F729EBA
:0405DB00C48DF24396
:0405DC00C48C764213
:0405DD00C48AFF8B42
:0405DE00C4898D3807
:0405DF00C4881F9815
:0405E000C486B666B1
:0405E100C48551EF8D
:0405E200C483F1EDF0
:0405E300C48295C574
:0405E400C4813D7918
:0405E500C47FD5D228
:0405E600C47D374158
:0405E700C47AA083AF
:0405E800C478137749
:0405E900C4758D1137
:0405EA00C4730CB812
:0405EB00C470993F00
:0405EC00C46E296947
:0405ED00C46BC231E8
:0405EE00C469612358
:0405EF00C46708BC19
:0405F000C464B68C9D
:0405F100C4626E5121
:0405F200C4602B1D99
:0405F300C45DEE34C1
:0405F400C45BB8D755
:0405F500C4598A6DEE
:0405F600C45763A1E2
:0405F700C45541594D
:0405F800C4532704BD
:0405F900C451114692
:0405FA00C44F0337B0
:0405FB00C44CFA658D
:0405FC00C44AF8FFF6
:0405FD00C448FD8071
:0405FE00C44706FFE9
:0405FF00C44517AA2E
:04060000C442582375
:04060100C43E995DFD
:04060200C43AF08A7C
:04060300C4375D5744
:04060400C433DF26F6
:04060500C430752B5D
:04060600C42D1EE9F8
:04060700C429DBE83F
:04060800C426AC4414
:04060900C4238DF881
:04060A00C42081E5A2
:04060B00C41D87D9AA
:04060C00C41A9E90DE
:04060D00C417C55FEA
:04060E00C414FBC352
:04060F00C412429B34
:04061000C40F98ED8E
:04061100C40CFD47D1
:04061200C40A70881E
:04061300C407F1889F
:04061400C405808712
:04061500C4031D728B
:04061600C400C6FD59
:04061700C3FCFAC95D
:04061800C3F87F4E56
:04061900C3F41D8B7E
:04061A00C3EFD3CE89
:04061B00C3EB9F236B
:04061C00C3E7827737
:04061D00C3E37C14A3
:04061E00C3DF8ADCD0
:04061F00C3DBAEA8E3
:04062000C3D7E5B5A2
:04062100C3D43168A5
:04062200C3D091D9D7
:04062300C3CD0287BA
:04062400C3C987E5DA
:04062500C3C61EF03A
:04062600C3C2C7C8BC
:04062700C3BF80FFCE
:04062800C3BC4BE81C
:04062900C3B92761C9
:04062A00C3B61248F9
:04062B00C3B30D4DFB
:04062C00C3B017053B
:04062D00C3AD2FD05A
:04062E00C3AA57ED17
:04062F00C3A78E5C73
:04063000C3A4D2BDD0
:04063100C3A2240F2D
:04063200C39F832AB5
:04063300C39CEFADC8
:04063400C39A689766
:04063500C397EE1E5B
:04063600C3957F6B7E
:04063700C3931D0349
:04063800C390C60B9A
:04063900C38E7AE210
:04063A00C38C3A38FB
:04063B00C38A050564
:04063C00C387DA4650
:04063D00C385B99325
:04063E00C383A3E9E6
:04063F00C381975488
:04064000C37F29E764
:04064100C37B3875CA
:04064200C37758E042
:04064300C3738BDF13
:04064400C36FD18B24
:04064500C36C27D289
:04064600C3688FB93D
:04064700C36507CEB2
:04064800C3619027D3
:04064900C35E297BE8
:04064A00C35AD29F1E
:04064B00C3578A6F98
:04064C00C354519CA6
:04064D00C35127006E
:04064E00C34E0B4A42
:04064F00C34AFDF2AB
:04065000C347FE6935
:04065100C3450B8A08
:04065200C342273E3A
:04065300C33F4F6EE4
:04065400C33C8479A6
:04065500C339C623BC
:04065600C337134053
:04065700C3346D67D4
:04065800C331D19643
:04065900C32F433D2B
:04065A00C32CBF0BE3
:04065B00C32A46E484
:04065C00C327D900D7
:04065D00C325751923
:04065E00C3231C2D69
:04065F00C320CD5B8C
:04066000C31E894FDD
:04066100C31C4ED890
:04066200C31A1C7823
:04066300C317F46560
:04066400C315D6D113
:04066500C313C0B249
:04066600C311B3EE1B
:04066700C30FB03ECF
:04066800C30DB49D6D
:04066900C30BC1FFFF
:04066A00C309D709E0
:04066B00C307F3A529
:04066C00C306196048
:04066D00C30445A9D4
:04066E00C3027AD871
:04066F00C300B60806
:04067000C2FDF46172
:04067100C2FA88D46D
:04067200C2F72A6F32
:04067300C2F3DAC82C
:04067400C2F099F245
:04067500C2ED65D29B
:04067600C2EA3FB8DD
:04067700C2E723FBB8
:04067800C2E41612B0
:04067900C2E1156C59
:04067A00C2DE208D2F
:04067B00C2DB364A5E
:04067C00C2D8583A4E
:04067D00C2D585C994
:04067E00C2D2BFA87D
:04067F00C2D003BB27
:04068000C2CD52A8ED
:04068100C2CAABE35B
:04068200C2C8105F7B
:04068300C2C57EF17D
:04068400C2C2F840B6
:04068500C2C0794531
:04068600C2BE05BD2E
:04068700C2BB9B8ACD
:04068800C2B93AB702
:04068900C2B6E43ED3
:04068A00C2B4942240
:04068B00C2B24F1296
:04068C00C2B012ECFA
:04068D00C2ADDE33E9
:04068E00C2ABB22623
:04068F00C2A98F2548
:04069000C2A773FA90
:04069100C2A560FAA4
:04069200C2A354A803
:04069300C2A150E2CE
:04069400C29F55B5F7
:04069500C29D606042
:04069600C29B73B2DE
:04069700C2998D8CEB
:04069800C297AEE176
:04069900C295D71916
:04069A00C29405F20F
:04069B00C2923BBB11
:04069C00C2907795FC
:04069D00C28EBB103E
:04069E00C28D03B94D
:04069F00C28B53C4F3
:0406A000C289A9A9B9
:0406A100C2880521E5
:0406A200C286676E37
:0406A300C284CF0C32
:0406A400C2833D3D93
:0406A500C281B02D31
:0406A600C28028D016
:0406A700C27D4EF3CF
:0406A800C27A572497
:0406A900C27768B2FA
:0406AA00C27485345D
:0406AB00C271ADA7C4
:0406AC00C26EDD69D4
:0406AD00C26C19CE34
:0406AE00C2695ED8E7
:0406AF00C266AD333F
:0406B000C2640674A6
:0406B100C26166EAD2
:0406B200C25ED2F85A
:0406B300C25C469F40
:0406B400C259C32C38
:0406B500C25747B32E
:0406B600C254D7084B
:0406B700C2526EB904
:0406B800C2500D49D6
:0406B900C24DB53049
:0406BA00C24B6408C3
:0406BB00C2491C997B
:0406BC00C246DBD87F
:0406BD00C244A21B76
:0406BE00C24270F6CE
:0406BF00C24047D01E
:0406C000C23E257899
:0406C100C23C0A40ED
:0406C200C239F681C2
:0406C300C237E9074A
:0406C400C235E31345
:0406C500C233E45DFB
:0406C600C231EC9CB5
:0406C700C22FF91332
:0406C800C22E0EB37D
:0406C900C22C284BCC
:0406CA00C22A4A797D
:0406CB00C22871E5EB
:0406CC00C2269FCED5
:0406CD00C224D3016F
:0406CE00C2230DF640
:0406CF00C2214CB642
:0406D000C21F9209AA
:0406D100C21DDDF871
:0406D200C21C2E0F09
:0406D300C21A838E36
:0406D400C218E05711
:0406D500C21740699F
:0406D600C215A6E2C1
:0406D700C21412D85F
:0406D800C2128315B2
:0406D900C210F8D87B
:0406DA00C20F729E3B
:0406DB00C20DF24317
:0406DC00C20C764294
:0406DD00C20AFF8BC3
:0406DE00C2098D3888
:0406DF00C2081F9896
:0406E000C206B66632
:0406E100C20551EF0E
:0406E200C203F1ED71
:0406E300C20295C5F5
:0406E400C2013D7999
:0406E500C1FFD5D2AA
:0406E600C1FD3741DA
:0406E700C1FAA08331
:0406E800C1F81377CB
:0406E900C1F58D11B9
:0406EA00C1F30CB894
:0406EB00C1F0993F82
:0406EC00C1EE2969C9
:0406ED00C1EBC2316A
:0406EE00C1E96123DA
:0406EF00C1E708BC9B
:0406F000C1E4B68C1F
:0406F100C1E26E51A3
:0406F200C1E02B1D1B
:0406F300C1DDEE3443
:0406F400C1DBB8D7D7
:0406F500C1D98A6D70
:0406F600C1D763A164
:0406F700C1D54159CF
:0406F800C1D327043F
:0406F900C1D1114614
:0406FA00C1CF033732
:0406FB00C1CCFA650F
:0406FC00C1CAF8FF78
:0406FD00C1C8FD80F3
:0406FE00C1C706FF6B
:0406FF00C1C517AAB0
:04070000C1C25823F7
:04070100C1BE995D7F
:04070200C1BAF08AFE
:04070300C1B75D57C6
:04070400C1B3DF2678
:04070500C1B0752BDF
:04070600C1AD1EE97A
:04070700C1A9DBE8C1
:04070800C1A6AC4496
:04070900C1A38DF803
:04070A00C1A081E524
:04070B00C19D87D92C
:04070C00C19A9E9060
:04070D00C197C55F6C
:04070E00C194FBC3D4
:04070F00C192429BB6
:04071000C18F98ED10
:04071100C18CFD4753
:04071200C18A7088A0
:04071300C187F18821
:04071400C185808794
:04071500C1831D720D
:04071600C180C6FDDB
:04071700C17CFAC9DE
:04071800C1787F4ED7
:04071900C1741D8BFF
:04071A00C16FD3CE0A
:04071B00C16B9F23EC
:04071C00C1678277B8
:04071D00C1637C1424
:04071E00C15F8ADC51
:04071F00C15BAEA864
:04072000C157E5B523
:04072100C154316826
:04072200C15091D958
:04072300C14D02873B
:04072400C14987E55B
:04072500C1461EF0BB
:04072600C142C7C83D
:04072700C13F80FF4F
:04072800C13C4BE89D
:04072900C13927614A
:04072A00C13612487A
:04072B00C1330D4D7C
:04072C00C1301705BC
:04072D00C12D2FD0DB
:04072E00C12A57ED98
:04072F00C1278E5CF4
:04073000C124D2BD51
:04073100C122240FAE
:04073200C11F832A36
:04073300C11CEFAD49
:04073400C11A6897E7
:04073500C117EE1EDC
:04073600C1157F6BFF
:04073700C1131D03CA
:04073800C110C60B1B
:04073900C10E7AE291
:04073A00C10C3A387C
:04073B00C10A0505E5
:04073C00C107DA46D1
:04073D00C105B993A6
:04073E00C103A3E967
:04073F00C101975409
:04074000C0FF29E7E6
:04074100C0FB38754C
:04074200C0F758E0C4
:04074300C0F38BDF95
:04074400C0EFD18BA6
:04074500C0EC27D20B
:04074600C0E88FB9BF
:04074700C0E507CE34
:04074800C0E1902755
:04074900C0DE297B6A
:04074A00C0DAD29FA0
:04074B00C0D78A6F1A
:04074C00C0D4519C28
:04074D00C0D12700F0
:04074E00C0CE0B4AC4
:04074F00C0CAFDF22D
:04075000C0C7FE69B7
:04075100C0C50B8A8A
:04075200C0C2273EBC
:04075300C0BF4F6E66
:04075400C0BC847928
:04075500C0B9C6233E
:04075600C0B71340D5
:04075700C0B46D6756
:04075800C0B1D196C5
:04075900C0AF433DAD
:04075A00C0ACBF0B65
:04075B00C0AA46E406
:04075C00C0A7D90059
:04075D00C0A57519A5
:04075E00C0A31C2DEB
:04075F00C0A0CD5B0E
:04076000C09E894F5F
:04076100C09C4ED812
:04076200C09A1C78A5
:04076300C097F465E2
:04076400C095D6D195
:04076500C093C0B2CB
:04076600C091B3EE9D
:04076700C08FB03E51
:04076800C08DB49DEF
:04076900C08BC1FF81
:04076A00C089D70962
:04076B00C087F3A5AB
:04076C00C0861960CA
:04076D00C08445A956
:04076E00C0827AD8F3
:04076F00C080B60888
:04077000C07DF461F3
:04077100C07A88D4EE
:04077200C0772A6FB3
:04077300C073DAC8AD
:04077400C07099F2C6
:04077500C06D65D21C
:04077600C06A3FB85E
:04077700C06723FB39
:04077800C064161231
:04077900C061156CDA
:04077A00C05E208DB0
:04077B00C05B364ADF
:04077C00C058583ACF
:04077D00C05585C915
:04077E00C052BFA8FE
:04077F00C05003BBA8
:04078000C04D52A86E
:04078100C04AABE3DC
:04078200C048105FFC
:04078300C0457EF1FE
:04078400C042F84037
:04078500C0407945B2
:04078600C03E05BDAF
:04078700C03B9B8A4E
:04078800C0393AB783
:04078900C036E43E54
:04078A00C0349422C1
:04078B00C0324F1217
:04078C00C03012EC7B
:04078D00C02DDE336A
:04078E00C02BB226A4
:04078F00C0298F25C9
:04079000C02773FA11
:04079100C02560FA25
:04079200C02354A884
:04079300C02150E24F
:04079400C01F55B578
:04079500C01D6060C3
:04079600C01B73B25F
:04079700C0198D8C6C
:04079800C017AEE1F7
:04079900C015D71997
:04079A00C01405F290
:04079B00C0123BBB92
:04079C00C01077957D
:04079D00C00EBB10BF
:04079E00C00D03B9CE
:04079F00C00B53C474
:0407A000C009A9A93A
:0407A100C008052166
:0407A200C006676EB8
:0407A300C004CF0CB3
:0407A400C0033D3D14
:0407A500C001B02DB2
:0407A600C00028D097
:0407A700BFFD4EF351
:0407A800BFFA572419
:0407A900BFF768B27C
:0407AA00BFF48534DF
:0407AB00BFF1ADA746
:0407AC00BFEEDD6956
:0407AD00BFEC19CEB6
:0407AE00BFE95ED869
:0407AF00BFE6AD33C1
:0407B000BFE4067428
:0407B100BFE166EA54
:0407B200BFDED2F8DC
:0407B300BFDC469FC2
:0407B400BFD9C32CBA
:0407B500BFD747B3B0
:0407B600BFD4D708CD
:0407B700BFD26EB986
:0407B800BFD00D4958
:0407B900BFCDB530CB
:0407BA00BFCB640845
:0407BB00BFC91C99FD
:0407BC00BFC6DBD801
:0407BD00BFC4A21BF8
:0407BE00BFC270F650
:0407BF00BFC047D0A0
:0407C000BFBE25781B
:0407C100BFBC0A406F
:0407C200BFB9F68144
:0407C300BFB7E907CC
:0407C400BFB5E313C7
:0407C500BFB3E45D7D
:0407C600BFB1EC9C37
:0407C700BFAFF913B4
:0407C800BFAE0EB3FF
:0407C900BFAC284B4E
:0407CA00BFAA4A79FF
:0407CB00BFA871E56D
:0407CC00BFA69FCE57
:0407CD00BFA4D301F1
:0407CE00BFA30DF6C2
:0407CF00BFA14CB6C4
:0407D000BF9F92092C
:0407D100BF9DDDF8F3
:0407D200BF9C2E0F8B
:0407D300BF9A838EB8
:0407D400BF98E05793
:0407D500BF97406921
:0407D600BF95A6E243
:0407D700BF9412D8E1
:0407D800BF92831534
:0407D900BF90F8D8FD
:0407DA00BF8F729EBD
:0407DB00BF8DF24399
:0407DC00BF8C764216
:0407DD00BF8AFF8B45
:0407DE00BF898D380A
:0407DF00BF881F9818
:0407E000BF86B666B4
:0407E100BF8551EF90
:0407E200BF83F1EDF3
:0407E300BF8295C577
:0407E400BF813D791B
:0407E500BF7FD5D22B
:0407E600BF7D37415B
:0407E700BF7AA083B2
:0407E800BF7813774C
:0407E900BF758D113A
:0407EA00BF730CB815
:0407EB00BF70993F03
:0407EC00BF6E29694A
:0407ED00BF6BC231EB
:0407EE00BF6961235B
:0407EF00BF6708BC1C
:0407F000BF64B68CA0
:0407F100BF626E5124
:0407F200BF602B1D9C
:0407F300BF5DEE34C4
:0407F400BF5BB8D758
:0407F500BF598A6DF1
:0407F600BF5763A1E5
:0407F700BF55415950
:0407F800BF532704C0
:0407F900BF51114695
:0407FA00BF4F0337B3
:0407FB00BF4CFA6590
:0407FC00BF4AF8FFF9
:0407FD00BF48FD8074
:0407FE00BF4706FFEC
:0407FF00BF4517AA31
:04080000BF42582378
:04080100BF3E995D00
:04080200BF3AF08A7F
:04080300BF375D5747
:04080400BF33DF26F9
:04080500BF30752B60
:04080600BF2D1EE9FB
:04080700BF29DBE842
:04080800BF26AC4417
:04080900BF238DF884
:04080A00BF2081E5A5
:04080B00BF1D87D9AD
:04080C00BF1A9E90E1
:04080D00BF17C55FED
:04080E00BF14FBC355
:04080F00BF12429B37
:04081000BF0F98ED91
:04081100BF0CFD47D4
:04081200BF0A708821
:04081300BF07F188A2
:04081400BF05808715
:04081500BF031D728E
:04081600BF00C6FD5C
:04081700BEFCFAC960
:04081800BEF87F4E59
:04081900BEF41D8B81
:04081A00BEEFD3CE8C
:04081B00BEEB9F236E
:04081C00BEE782773A
:04081D00BEE37C14A6
:04081E00BEDF8ADCD3
:04081F00BEDBAEA8E6
:04082000BED7E5B5A5
:04082100BED43168A8
:04082200BED091D9DA
:04082300BECD0287BD
:04082400BEC987E5DD
:04082500BEC61EF03D
:04082600BEC2C7C8BF
:04082700BEBF80FFD1
:04082800BEBC4BE81F
:04082900BEB92761CC
:04082A00BEB61248FC
:04082B00BEB30D4DFE
:04082C00BEB017053E
:04082D00BEAD2FD05D
:04082E00BEAA57ED1A
:04082F00BEA78E5C76
:04083000BEA4D2BDD3
:04083100BEA2240F30
:04083200BE9F832AB8
:04083300BE9CEFADCB
:04083400BE9A689769
:04083500BE97EE1E5E
:04083600BE957F6B81
:04083700BE931D034C
:04083800BE90C60B9D
:04083900BE8E7AE213
:04083A00BE8C3A38FE
:04083B00BE8A050567
:04083C00BE87DA4653
:04083D00BE85B99328
:04083E00BE83A3E9E9
:04083F00BE8197548B
:04084000BE7F29E767
:04084100BE7B3875CD
:04084200BE7758E045
:04084300BE738BDF16
:04084400BE6FD18B27
:04084500BE6C27D28C
:04084600BE688FB940
:04084700BE6507CEB5
:04084800BE619027D6
:04084900BE5E297BEB
:04084A00BE5AD29F21
:04084B00BE578A6F9B
:04084C00BE54519CA9
:04084D00BE51270071
:04084E00BE4E0B4A45
:04084F00BE4AFDF2AE
:04085000BE47FE6938
:04085100BE450B8A0B
:04085200BE42273E3D
:04085300BE3F4F6EE7
:04085400BE3C8479A9
:04085500BE39C623BF
:04085600BE37134056
:04085700BE346D67D7
:04085800BE31D19646
:04085900BE2F433D2E
:04085A00BE2CBF0BE6
:04085B00BE2A46E487
:04085C00BE27D900DA
:04085D00BE25751926
:04085E00BE231C2D6C
:04085F00BE20CD5B8F
:04086000BE1E894FE0
:04086100BE1C4ED893
:04086200BE1A1C7826
:04086300BE17F46563
:04086400BE15D6D116
:04086500BE13C0B24C
:04086600BE11B3EE1E
:04086700BE0FB03ED2
:04086800BE0DB49D70
:04086900BE0BC1FF02
:04086A00BE09D709E3
:04086B00BE07F3A52C
:04086C00BE0619604B
:04086D00BE0445A9D7
:04086E00BE027AD874
:04086F00BE00B60809
:04087000BDFDF46175
:04087100BDFA88D470
:04087200BDF72A6F35
:04087300BDF3DAC82F
:04087400BDF099F248
:04087500BDED65D29E
:04087600BDEA3FB8E0
:04087700BDE723FBBB
:04087800BDE41612B3
:04087900BDE1156C5C
:04087A00BDDE208D32
:04087B00BDDB364A61
:04087C00BDD8583A51
:04087D00BDD585C997
:04087E00BDD2BFA880
:04087F00BDD003BB2A
:04088000BDCD52A8F0
:04088100BDCAABE35E
:04088200BDC8105F7E
:04088300BDC57EF180
:04088400BDC2F840B9
:04088500BDC0794534
:04088600BDBE05BD31
:04088700BDBB9B8AD0
:04088800BDB93AB705
:04088900BDB6E43ED6
:04088A00BDB4942243
:04088B00BDB24F1299
:04088C00BDB012ECFD
:04088D00BDADDE33EC
:04088E00BDABB22626
:04088F00BDA98F254B
:04089000BDA773FA93
:04089100BDA560FAA7
:04089200BDA354A806
:04089300BDA150E2D1
:04089400BD9F55B5FA
:04089500BD9D606045
:04089600BD9B73B2E1
:04089700BD998D8CEE
:04089800BD97AEE179
:04089900BD95D71919
:04089A00BD9405F212
:04089B00BD923BBB14
:04089C00BD907795FF
:04089D00BD8EBB1041
:04089E00BD8D03B950
:04089F00BD8B53C4F6
:0408A000BD89A9A9BC
:0408A100BD880521E8
:0408A200BD86676E3A
:0408A300BD84CF0C35
:0408A400BD833D3D96
:0408A500BD81B02D34
:0408A600BD8028D019
:0408A700BD7D4EF3D2
:0408A800BD7A57249A
:0408A900BD7768B2FD
:0408AA00BD74853460
:0408AB00BD71ADA7C7
:0408AC00BD6EDD69D7
:0408AD00BD6C19CE37
:0408AE00BD695ED8EA
:0408AF00BD66AD3342
:0408B000BD640674A9
:0408B100BD6166EAD5
:0408B200BD5ED2F85D
:0408B300BD5C469F43
:0408B400BD59C32C3B
:0408B500BD5747B331
:0408B600BD54D7084E
:0408B700BD526EB907
:0408B800BD500D49D9
:0408B900BD4DB5304C
:0408BA00BD4B6408C6
:0408BB00BD491C997E
:0408BC00BD46DBD882
:0408BD00BD44A21B79
:0408BE00BD4270F6D1
:0408BF00BD4047D021
:0408C000BD3E25789C
:0408C100BD3C0A40F0
:0408C200BD39F681C5
:0408C300BD37E9074D
:0408C400BD35E31348
:0408C500BD33E45DFE
:0408C600BD31EC9CB8
:0408C700BD2FF91335
:0408C800BD2E0EB380
:0408C900BD2C284BCF
:0408CA00BD2A4A7980
:0408CB00BD2871E5EE
:0408CC00BD269FCED8
:0408CD00BD24D30172
:0408CE00BD230DF643
:0408CF00BD214CB645
:0408D000BD1F9209AD
:0408D100BD1DDDF874
:0408D200BD1C2E0F0C
:0408D300BD1A838E39
:0408D400BD18E05714
:0408D500BD174069A2
:0408D600BD15A6E2C4
:0408D700BD1412D862
:0408D800BD128315B5
:0408D900BD10F8D87E
:0408DA00BD0F729E3E
:0408DB00BD0DF2431A
:0408DC00BD0C764297
:0408DD00BD0AFF8BC6
:0408DE00BD098D388B
:0408DF00BD081F9899
:0408E000BD06B66635
:0408E100BD0551EF11
:0408E200BD03F1ED74
:0408E300BD0295C5F8
:0408E400BD013D799C
:0408E500BCFFD5D2AD
:0408E600BCFD3741DD
:0408E700BCFAA08334
:0408E800BCF81377CE
:0408E900BCF58D11BC
:0408EA00BCF30CB897
:0408EB00BCF0993F85
:0408EC00BCEE2969CC
:0408ED00BCEBC2316D
:0408EE00BCE96123DD
:0408EF00BCE708BC9E
:0408F000BCE4B68C22
:0408F100BCE26E51A6
:0408F200BCE02B1D1E
:0408F300BCDDEE3446
:0408F400BCDBB8D7DA
:0408F500BCD98A6D73
:0408F600BCD763A167
:0408F700BCD54159D2
:0408F800BCD3270442
:0408F900BCD1114617
:0408FA00BCCF033735
:0408FB00BCCCFA6512
:0408FC00BCCAF8FF7B
:0408FD00BCC8FD80F6
:0408FE00BCC706FF6E
:0408FF00BCC517AAB3
:00000001FF
